{
  "contractName": "ActionRouteRegistry",
  "abi": [
    {
      "inputs": [
        {
          "internalType": "address",
          "name": "tokenAddress",
          "type": "address"
        }
      ],
      "stateMutability": "nonpayable",
      "type": "constructor"
    },
    {
      "anonymous": false,
      "inputs": [
        {
          "indexed": false,
          "internalType": "bytes4",
          "name": "methodSig",
          "type": "bytes4"
        }
      ],
      "name": "ActionChanged",
      "type": "event"
    },
    {
      "anonymous": false,
      "inputs": [
        {
          "indexed": false,
          "internalType": "address",
          "name": "from",
          "type": "address"
        },
        {
          "indexed": false,
          "internalType": "address",
          "name": "controller",
          "type": "address"
        },
        {
          "indexed": false,
          "internalType": "bytes32",
          "name": "id",
          "type": "bytes32"
        }
      ],
      "name": "MessageEntryAdded",
      "type": "event"
    },
    {
      "anonymous": false,
      "inputs": [
        {
          "indexed": false,
          "internalType": "address",
          "name": "controller",
          "type": "address"
        },
        {
          "indexed": false,
          "internalType": "bytes4",
          "name": "selector",
          "type": "bytes4"
        },
        {
          "indexed": false,
          "internalType": "uint256",
          "name": "jobId",
          "type": "uint256"
        }
      ],
      "name": "MessageRequestCompleted",
      "type": "event"
    },
    {
      "anonymous": false,
      "inputs": [
        {
          "indexed": false,
          "internalType": "string",
          "name": "propName",
          "type": "string"
        },
        {
          "indexed": false,
          "internalType": "bytes",
          "name": "data",
          "type": "bytes"
        }
      ],
      "name": "PropertyChanged",
      "type": "event"
    },
    {
      "anonymous": false,
      "inputs": [
        {
          "indexed": false,
          "internalType": "address",
          "name": "caller",
          "type": "address"
        },
        {
          "indexed": false,
          "internalType": "bytes4",
          "name": "methodName",
          "type": "bytes4"
        },
        {
          "indexed": false,
          "internalType": "bool",
          "name": "enable",
          "type": "bool"
        }
      ],
      "name": "UserWhitelistChanged",
      "type": "event"
    },
    {
      "anonymous": false,
      "inputs": [
        {
          "indexed": true,
          "internalType": "address",
          "name": "payee",
          "type": "address"
        },
        {
          "indexed": false,
          "internalType": "uint256",
          "name": "weiAmount",
          "type": "uint256"
        }
      ],
      "name": "Withdrawn",
      "type": "event"
    },
    {
      "inputs": [
        {
          "internalType": "address",
          "name": "",
          "type": "address"
        }
      ],
      "name": "accounting",
      "outputs": [
        {
          "internalType": "uint256",
          "name": "",
          "type": "uint256"
        }
      ],
      "stateMutability": "view",
      "type": "function",
      "constant": true
    },
    {
      "inputs": [
        {
          "internalType": "address",
          "name": "",
          "type": "address"
        },
        {
          "internalType": "bytes4",
          "name": "",
          "type": "bytes4"
        }
      ],
      "name": "actionWhitelisting",
      "outputs": [
        {
          "internalType": "bool",
          "name": "",
          "type": "bool"
        }
      ],
      "stateMutability": "view",
      "type": "function",
      "constant": true
    },
    {
      "inputs": [
        {
          "internalType": "address",
          "name": "",
          "type": "address"
        },
        {
          "internalType": "bytes4",
          "name": "",
          "type": "bytes4"
        }
      ],
      "name": "actions",
      "outputs": [
        {
          "internalType": "bytes4",
          "name": "selector",
          "type": "bytes4"
        },
        {
          "internalType": "address",
          "name": "controller",
          "type": "address"
        }
      ],
      "stateMutability": "view",
      "type": "function",
      "constant": true
    },
    {
      "inputs": [],
      "name": "fee",
      "outputs": [
        {
          "internalType": "uint256",
          "name": "",
          "type": "uint256"
        }
      ],
      "stateMutability": "view",
      "type": "function",
      "constant": true
    },
    {
      "inputs": [
        {
          "internalType": "string",
          "name": "contractName",
          "type": "string"
        },
        {
          "internalType": "address",
          "name": "contractAddress",
          "type": "address"
        },
        {
          "internalType": "uint256",
          "name": "network",
          "type": "uint256"
        },
        {
          "internalType": "string",
          "name": "version",
          "type": "string"
        }
      ],
      "name": "getDomainSeparator",
      "outputs": [
        {
          "internalType": "bytes32",
          "name": "",
          "type": "bytes32"
        }
      ],
      "stateMutability": "pure",
      "type": "function",
      "constant": true
    },
    {
      "inputs": [
        {
          "internalType": "bytes",
          "name": "data",
          "type": "bytes"
        }
      ],
      "name": "getMethodSig",
      "outputs": [
        {
          "internalType": "bytes4",
          "name": "",
          "type": "bytes4"
        }
      ],
      "stateMutability": "pure",
      "type": "function",
      "constant": true
    },
    {
      "inputs": [
        {
          "internalType": "address",
          "name": "caller",
          "type": "address"
        },
        {
          "internalType": "bytes4",
          "name": "fnName",
          "type": "bytes4"
        },
        {
          "internalType": "bool",
          "name": "enable",
          "type": "bool"
        }
      ],
      "name": "setUserWhitelist",
      "outputs": [
        {
          "internalType": "bool",
          "name": "",
          "type": "bool"
        }
      ],
      "stateMutability": "nonpayable",
      "type": "function"
    },
    {
      "inputs": [],
      "name": "stablecoin",
      "outputs": [
        {
          "internalType": "contract ERC20Interface",
          "name": "",
          "type": "address"
        }
      ],
      "stateMutability": "view",
      "type": "function",
      "constant": true
    },
    {
      "inputs": [
        {
          "internalType": "address",
          "name": "",
          "type": "address"
        },
        {
          "internalType": "bytes4",
          "name": "",
          "type": "bytes4"
        }
      ],
      "name": "userWhitelist",
      "outputs": [
        {
          "internalType": "bool",
          "name": "",
          "type": "bool"
        }
      ],
      "stateMutability": "view",
      "type": "function",
      "constant": true
    },
    {
      "inputs": [
        {
          "internalType": "address",
          "name": "controller",
          "type": "address"
        },
        {
          "internalType": "bytes4",
          "name": "selector",
          "type": "bytes4"
        }
      ],
      "name": "getAction",
      "outputs": [
        {
          "components": [
            {
              "internalType": "bytes4",
              "name": "selector",
              "type": "bytes4"
            },
            {
              "internalType": "address",
              "name": "controller",
              "type": "address"
            },
            {
              "internalType": "bytes4[]",
              "name": "conditions",
              "type": "bytes4[]"
            },
            {
              "internalType": "bool[]",
              "name": "conditionStatus",
              "type": "bool[]"
            }
          ],
          "internalType": "struct MessageRoute.ActionRoute",
          "name": "",
          "type": "tuple"
        }
      ],
      "stateMutability": "view",
      "type": "function",
      "constant": true
    },
    {
      "inputs": [
        {
          "internalType": "uint256",
          "name": "_fee",
          "type": "uint256"
        }
      ],
      "name": "setProtocolFee",
      "outputs": [],
      "stateMutability": "nonpayable",
      "type": "function"
    },
    {
      "inputs": [],
      "name": "getProtocolFee",
      "outputs": [
        {
          "internalType": "uint256",
          "name": "",
          "type": "uint256"
        }
      ],
      "stateMutability": "view",
      "type": "function",
      "constant": true
    },
    {
      "inputs": [
        {
          "internalType": "address payable",
          "name": "payee",
          "type": "address"
        }
      ],
      "name": "withdraw",
      "outputs": [],
      "stateMutability": "nonpayable",
      "type": "function"
    },
    {
      "inputs": [
        {
          "internalType": "address payable",
          "name": "payee",
          "type": "address"
        },
        {
          "internalType": "address",
          "name": "token",
          "type": "address"
        }
      ],
      "name": "withdrawToken",
      "outputs": [],
      "stateMutability": "nonpayable",
      "type": "function"
    },
    {
      "inputs": [
        {
          "internalType": "address",
          "name": "controller",
          "type": "address"
        },
        {
          "internalType": "bytes4",
          "name": "messageRequest",
          "type": "bytes4"
        },
        {
          "internalType": "bytes4[]",
          "name": "conditions",
          "type": "bytes4[]"
        },
        {
          "internalType": "bool[]",
          "name": "conditionStatus",
          "type": "bool[]"
        }
      ],
      "name": "mapAction",
      "outputs": [
        {
          "internalType": "bool",
          "name": "",
          "type": "bool"
        }
      ],
      "stateMutability": "payable",
      "type": "function",
      "payable": true
    }
  ],
  "bytecode": "0x60806040523480156200001157600080fd5b50604051620029c5380380620029c5833981810160405281019062000037919062000119565b33806000806101000a81548173ffffffffffffffffffffffffffffffffffffffff021916908373ffffffffffffffffffffffffffffffffffffffff1602179055505033600760006101000a81548173ffffffffffffffffffffffffffffffffffffffff021916908373ffffffffffffffffffffffffffffffffffffffff16021790555080600360006101000a81548173ffffffffffffffffffffffffffffffffffffffff021916908373ffffffffffffffffffffffffffffffffffffffff1602179055505062000193565b600081519050620001138162000179565b92915050565b6000602082840312156200012c57600080fd5b60006200013c8482850162000102565b91505092915050565b6000620001528262000159565b9050919050565b600073ffffffffffffffffffffffffffffffffffffffff82169050919050565b620001848162000145565b81146200019057600080fd5b50565b61282280620001a36000396000f3fe6080604052600436106100e85760003560e01c8063a5a410311161008a578063ddca3f4311610059578063ddca3f431461033f578063e2ca76461461036a578063e9cbd822146103a7578063fea70c64146103d2576100e8565b8063a5a410311461025c578063b1e4f13e14610287578063c4455c79146102c4578063c7619cec14610301576100e8565b8063787dce3d116100c6578063787dce3d1461017c5780638a173e3a146101a55780638a5a7a69146101e2578063991edf3f1461021f576100e8565b80633aeac4e1146100ed578063440252121461011657806351cff8d914610153575b600080fd5b3480156100f957600080fd5b50610114600480360381019061010f9190611ae1565b610402565b005b34801561012257600080fd5b5061013d60048036038101906101389190611b1d565b6105b9565b60405161014a9190612471565b60405180910390f35b34801561015f57600080fd5b5061017a60048036038101906101759190611ab8565b610824565b005b34801561018857600080fd5b506101a3600480360381019061019e9190611d38565b610952565b005b3480156101b157600080fd5b506101cc60048036038101906101c79190611c64565b6109ec565b6040516101d99190612312565b60405180910390f35b3480156101ee57600080fd5b5061020960048036038101906102049190611bec565b610b49565b6040516102169190612289565b60405180910390f35b34801561022b57600080fd5b5061024660048036038101906102419190611a8f565b610cc1565b6040516102539190612493565b60405180910390f35b34801561026857600080fd5b50610271610cd9565b60405161027e9190612493565b60405180910390f35b34801561029357600080fd5b506102ae60048036038101906102a99190611ca5565b610ce3565b6040516102bb91906122a4565b60405180910390f35b3480156102d057600080fd5b506102eb60048036038101906102e69190611b1d565b610d4b565b6040516102f89190612289565b60405180910390f35b34801561030d57600080fd5b5061032860048036038101906103239190611b1d565b610d7a565b60405161033692919061232d565b60405180910390f35b34801561034b57600080fd5b50610354610dd8565b6040516103619190612493565b60405180910390f35b34801561037657600080fd5b50610391600480360381019061038c9190611b1d565b610dde565b60405161039e9190612289565b60405180910390f35b3480156103b357600080fd5b506103bc610e0d565b6040516103c99190612356565b60405180910390f35b6103ec60048036038101906103e79190611b59565b610e33565b6040516103f99190612289565b60405180910390f35b600760009054906101000a900473ffffffffffffffffffffffffffffffffffffffff1673ffffffffffffffffffffffffffffffffffffffff163373ffffffffffffffffffffffffffffffffffffffff1614610492576040517f08c379a0000000000000000000000000000000000000000000000000000000008152600401610489906123b1565b60405180910390fd5b60008173ffffffffffffffffffffffffffffffffffffffff166370a08231306040518263ffffffff1660e01b81526004016104cd9190612185565b60206040518083038186803b1580156104e557600080fd5b505afa1580156104f9573d6000803e3d6000fd5b505050506040513d601f19601f8201168201806040525081019061051d9190611d61565b90508273ffffffffffffffffffffffffffffffffffffffff166108fc829081150290604051600060405180830381858888f19350505050158015610565573d6000803e3d6000fd5b508273ffffffffffffffffffffffffffffffffffffffff167f7084f5476618d8e60b11ef0d7d3f06914655adb8793e28ff7f018d4c76d505d5826040516105ac9190612493565b60405180910390a2505050565b6105c1611633565b600560008473ffffffffffffffffffffffffffffffffffffffff1673ffffffffffffffffffffffffffffffffffffffff1681526020019081526020016000206000837bffffffffffffffffffffffffffffffffffffffffffffffffffffffff19167bffffffffffffffffffffffffffffffffffffffffffffffffffffffff191681526020019081526020016000206040518060800160405290816000820160009054906101000a900460e01b7bffffffffffffffffffffffffffffffffffffffffffffffffffffffff19167bffffffffffffffffffffffffffffffffffffffffffffffffffffffff191681526020016000820160049054906101000a900473ffffffffffffffffffffffffffffffffffffffff1673ffffffffffffffffffffffffffffffffffffffff1673ffffffffffffffffffffffffffffffffffffffff1681526020016001820180548060200260200160405190810160405280929190818152602001828054801561079657602002820191906000526020600020906000905b82829054906101000a900460e01b7bffffffffffffffffffffffffffffffffffffffffffffffffffffffff1916815260200190600401906020826003010492830192600103820291508084116107435790505b505050505081526020016002820180548060200260200160405190810160405280929190818152602001828054801561081357602002820191906000526020600020906000905b82829054906101000a900460ff161515815260200190600101906020826000010492830192600103820291508084116107dd5790505b505050505081525050905092915050565b600760009054906101000a900473ffffffffffffffffffffffffffffffffffffffff1673ffffffffffffffffffffffffffffffffffffffff163373ffffffffffffffffffffffffffffffffffffffff16146108b4576040517f08c379a00000000000000000000000000000000000000000000000000000000081526004016108ab906123b1565b60405180910390fd5b60004790508173ffffffffffffffffffffffffffffffffffffffff166108fc479081150290604051600060405180830381858888f193505050501580156108ff573d6000803e3d6000fd5b508173ffffffffffffffffffffffffffffffffffffffff167f7084f5476618d8e60b11ef0d7d3f06914655adb8793e28ff7f018d4c76d505d5826040516109469190612493565b60405180910390a25050565b600760009054906101000a900473ffffffffffffffffffffffffffffffffffffffff1673ffffffffffffffffffffffffffffffffffffffff163373ffffffffffffffffffffffffffffffffffffffff16146109e2576040517f08c379a00000000000000000000000000000000000000000000000000000000081526004016109d9906123b1565b60405180910390fd5b8060048190555050565b60006018826003815181106109fd57fe5b602001015160f81c60f81b7effffffffffffffffffffffffffffffffffffffffffffffffffffffffffffff19167bffffffffffffffffffffffffffffffffffffffffffffffffffffffff1916901c601083600281518110610a5a57fe5b602001015160f81c60f81b7effffffffffffffffffffffffffffffffffffffffffffffffffffffffffffff19167bffffffffffffffffffffffffffffffffffffffffffffffffffffffff1916901c600884600181518110610ab757fe5b602001015160f81c60f81b7effffffffffffffffffffffffffffffffffffffffffffffffffffffffffffff19167bffffffffffffffffffffffffffffffffffffffffffffffffffffffff1916901c84600081518110610b1257fe5b602001015160f81c60f81b7effffffffffffffffffffffffffffffffffffffffffffffffffffffffffffff19161717179050919050565b60003373ffffffffffffffffffffffffffffffffffffffff1660008054906101000a900473ffffffffffffffffffffffffffffffffffffffff1673ffffffffffffffffffffffffffffffffffffffff1614610bd9576040517f08c379a0000000000000000000000000000000000000000000000000000000008152600401610bd090612451565b60405180910390fd5b81600260008673ffffffffffffffffffffffffffffffffffffffff1673ffffffffffffffffffffffffffffffffffffffff1681526020019081526020016000206000857bffffffffffffffffffffffffffffffffffffffffffffffffffffffff19167bffffffffffffffffffffffffffffffffffffffffffffffffffffffff1916815260200190815260200160002060006101000a81548160ff0219169083151502179055507f7f41b44a4d0cf3e01e6c1dc089568e147a684629672ed575e47ff05bd1bb29a3848484604051610cb293929190612252565b60405180910390a19392505050565b60066020528060005260406000206000915090505481565b6000600454905090565b600060405180608001604052806052815260200161279b6052913980519060200120858051906020012083805190602001208587604051602001610d2b9594939291906122bf565b604051602081830303815290604052805190602001209050949350505050565b60016020528160005260406000206020528060005260406000206000915091509054906101000a900460ff1681565b6005602052816000526040600020602052806000526040600020600091509150508060000160009054906101000a900460e01b908060000160049054906101000a900473ffffffffffffffffffffffffffffffffffffffff16905082565b60045481565b60026020528160005260406000206020528060005260406000206000915091509054906101000a900460ff1681565b600360009054906101000a900473ffffffffffffffffffffffffffffffffffffffff1681565b600080600360009054906101000a900473ffffffffffffffffffffffffffffffffffffffff1673ffffffffffffffffffffffffffffffffffffffff166370a08231336040518263ffffffff1660e01b8152600401610e9191906121a0565b60206040518083038186803b158015610ea957600080fd5b505afa158015610ebd573d6000803e3d6000fd5b505050506040513d601f19601f82011682018060405250810190610ee19190611d61565b1015610f22576040517f08c379a0000000000000000000000000000000000000000000000000000000008152600401610f1990612371565b60405180910390fd5b6000600360009054906101000a900473ffffffffffffffffffffffffffffffffffffffff1673ffffffffffffffffffffffffffffffffffffffff1663dd62ed3e33306040518363ffffffff1660e01b8152600401610f819291906121bb565b60206040518083038186803b158015610f9957600080fd5b505afa158015610fad573d6000803e3d6000fd5b505050506040513d601f19601f82011682018060405250810190610fd19190611d61565b1015611012576040517f08c379a000000000000000000000000000000000000000000000000000000000815260040161100990612431565b60405180910390fd5b8151835114611056576040517f08c379a000000000000000000000000000000000000000000000000000000000815260040161104d906123f1565b60405180910390fd5b600683511061109a576040517f08c379a000000000000000000000000000000000000000000000000000000000815260040161109190612411565b60405180910390fd5b600073ffffffffffffffffffffffffffffffffffffffff16600560008773ffffffffffffffffffffffffffffffffffffffff1673ffffffffffffffffffffffffffffffffffffffff1681526020019081526020016000206000867bffffffffffffffffffffffffffffffffffffffffffffffffffffffff19167bffffffffffffffffffffffffffffffffffffffffffffffffffffffff1916815260200190815260200160002060000160049054906101000a900473ffffffffffffffffffffffffffffffffffffffff1673ffffffffffffffffffffffffffffffffffffffff16146111ba576040517f08c379a00000000000000000000000000000000000000000000000000000000081526004016111b1906123d1565b60405180910390fd5b6040518060800160405280857bffffffffffffffffffffffffffffffffffffffffffffffffffffffff191681526020018673ffffffffffffffffffffffffffffffffffffffff16815260200184815260200183815250600560008773ffffffffffffffffffffffffffffffffffffffff1673ffffffffffffffffffffffffffffffffffffffff1681526020019081526020016000206000867bffffffffffffffffffffffffffffffffffffffffffffffffffffffff19167bffffffffffffffffffffffffffffffffffffffffffffffffffffffff1916815260200190815260200160002060008201518160000160006101000a81548163ffffffff021916908360e01c021790555060208201518160000160046101000a81548173ffffffffffffffffffffffffffffffffffffffff021916908373ffffffffffffffffffffffffffffffffffffffff1602179055506040820151816001019080519060200190611325929190611690565b50606082015181600201908051906020019061134292919061173d565b50905050600360009054906101000a900473ffffffffffffffffffffffffffffffffffffffff1673ffffffffffffffffffffffffffffffffffffffff166323b872dd33306004546040518463ffffffff1660e01b81526004016113a79392919061221b565b602060405180830381600087803b1580156113c157600080fd5b505af11580156113d5573d6000803e3d6000fd5b505050506040513d601f19601f820116820180604052508101906113f99190611c3b565b611438576040517f08c379a000000000000000000000000000000000000000000000000000000000815260040161142f90612391565b60405180910390fd5b60018060008773ffffffffffffffffffffffffffffffffffffffff1673ffffffffffffffffffffffffffffffffffffffff1681526020019081526020016000206000867bffffffffffffffffffffffffffffffffffffffffffffffffffffffff19167bffffffffffffffffffffffffffffffffffffffffffffffffffffffff1916815260200190815260200160002060006101000a81548160ff021916908315150217905550600454600660003373ffffffffffffffffffffffffffffffffffffffff1673ffffffffffffffffffffffffffffffffffffffff1681526020019081526020016000205401600660003373ffffffffffffffffffffffffffffffffffffffff1673ffffffffffffffffffffffffffffffffffffffff16815260200190815260200160002081905550600454600660003073ffffffffffffffffffffffffffffffffffffffff1673ffffffffffffffffffffffffffffffffffffffff1681526020019081526020016000205401600660003073ffffffffffffffffffffffffffffffffffffffff1673ffffffffffffffffffffffffffffffffffffffff168152602001908152602001600020819055507f1e051ad027772c645112d87bcc233b6b2257c869f0b3292dfee4b44ffe3aa74633868660405161161f939291906121e4565b60405180910390a160019050949350505050565b604051806080016040528060007bffffffffffffffffffffffffffffffffffffffffffffffffffffffff19168152602001600073ffffffffffffffffffffffffffffffffffffffff16815260200160608152602001606081525090565b8280548282559060005260206000209060070160089004810192821561172c5791602002820160005b838211156116fa57835183826101000a81548163ffffffff021916908360e01c021790555092602001926004016020816003010492830192600103026116b9565b801561172a5782816101000a81549063ffffffff02191690556004016020816003010492830192600103026116fa565b505b50905061173991906117e3565b5090565b82805482825590600052602060002090601f016020900481019282156117d25791602002820160005b838211156117a357835183826101000a81548160ff0219169083151502179055509260200192600101602081600001049283019260010302611766565b80156117d05782816101000a81549060ff02191690556001016020816000010492830192600103026117a3565b505b5090506117df91906117e3565b5090565b5b808211156117fc5760008160009055506001016117e4565b5090565b600061181361180e846124df565b6124ae565b9050808382526020820190508285602086028201111561183257600080fd5b60005b85811015611862578161184888826119d2565b845260208401935060208301925050600181019050611835565b5050509392505050565b600061187f61187a8461250b565b6124ae565b9050808382526020820190508285602086028201111561189e57600080fd5b60005b858110156118ce57816118b488826119fc565b8452602084019350602083019250506001810190506118a1565b5050509392505050565b60006118eb6118e684612537565b6124ae565b90508281526020810184848401111561190357600080fd5b61190e848285612716565b509392505050565b600061192961192484612567565b6124ae565b90508281526020810184848401111561194157600080fd5b61194c848285612716565b509392505050565b60008135905061196381612727565b92915050565b6000813590506119788161273e565b92915050565b600082601f83011261198f57600080fd5b813561199f848260208601611800565b91505092915050565b600082601f8301126119b957600080fd5b81356119c984826020860161186c565b91505092915050565b6000813590506119e181612755565b92915050565b6000815190506119f681612755565b92915050565b600081359050611a0b8161276c565b92915050565b600082601f830112611a2257600080fd5b8135611a328482602086016118d8565b91505092915050565b600082601f830112611a4c57600080fd5b8135611a5c848260208601611916565b91505092915050565b600081359050611a7481612783565b92915050565b600081519050611a8981612783565b92915050565b600060208284031215611aa157600080fd5b6000611aaf84828501611954565b91505092915050565b600060208284031215611aca57600080fd5b6000611ad884828501611969565b91505092915050565b60008060408385031215611af457600080fd5b6000611b0285828601611969565b9250506020611b1385828601611954565b9150509250929050565b60008060408385031215611b3057600080fd5b6000611b3e85828601611954565b9250506020611b4f858286016119fc565b9150509250929050565b60008060008060808587031215611b6f57600080fd5b6000611b7d87828801611954565b9450506020611b8e878288016119fc565b935050604085013567ffffffffffffffff811115611bab57600080fd5b611bb7878288016119a8565b925050606085013567ffffffffffffffff811115611bd457600080fd5b611be08782880161197e565b91505092959194509250565b600080600060608486031215611c0157600080fd5b6000611c0f86828701611954565b9350506020611c20868287016119fc565b9250506040611c31868287016119d2565b9150509250925092565b600060208284031215611c4d57600080fd5b6000611c5b848285016119e7565b91505092915050565b600060208284031215611c7657600080fd5b600082013567ffffffffffffffff811115611c9057600080fd5b611c9c84828501611a11565b91505092915050565b60008060008060808587031215611cbb57600080fd5b600085013567ffffffffffffffff811115611cd557600080fd5b611ce187828801611a3b565b9450506020611cf287828801611954565b9350506040611d0387828801611a65565b925050606085013567ffffffffffffffff811115611d2057600080fd5b611d2c87828801611a3b565b91505092959194509250565b600060208284031215611d4a57600080fd5b6000611d5884828501611a65565b91505092915050565b600060208284031215611d7357600080fd5b6000611d8184828501611a7a565b91505092915050565b6000611d968383611ea3565b60208301905092915050565b6000611dae8383611edf565b60208301905092915050565b611dc3816126aa565b82525050565b611dd28161261a565b82525050565b611de18161261a565b82525050565b6000611df2826125b7565b611dfc81856125e7565b9350611e0783612597565b8060005b83811015611e38578151611e1f8882611d8a565b9750611e2a836125cd565b925050600181019050611e0b565b5085935050505092915050565b6000611e50826125c2565b611e5a81856125f8565b9350611e65836125a7565b8060005b83811015611e96578151611e7d8882611da2565b9750611e88836125da565b925050600181019050611e69565b5085935050505092915050565b611eac8161263e565b82525050565b611ebb8161263e565b82525050565b611eca8161264a565b82525050565b611ed9816126bc565b82525050565b611ee881612654565b82525050565b611ef781612654565b82525050565b611f06816126ce565b82525050565b6000611f19601583612609565b91507f496e76616c696420746f6b656e2062616c616e636500000000000000000000006000830152602082019050919050565b6000611f59601783612609565b91507f5472616e73666572206661696c656420666f72206665650000000000000000006000830152602082019050919050565b6000611f99600c83612609565b91507f494e56414c49445f5553455200000000000000000000000000000000000000006000830152602082019050919050565b6000611fd9601683612609565b91507f4164647265737320616c726561647920657869737473000000000000000000006000830152602082019050919050565b6000612019601783612609565b91507f496e76616c696420636f6e646974696f6e732073697a650000000000000000006000830152602082019050919050565b6000612059601083612609565b91507f4d6178203520636f6e646974696f6e73000000000000000000000000000000006000830152602082019050919050565b6000612099601783612609565b91507f496e76616c696420746f6b656e20616c6c6f77616e63650000000000000000006000830152602082019050919050565b60006120d9600e83612609565b91507f4e6f7420617574686f72697a65640000000000000000000000000000000000006000830152602082019050919050565b60006080830160008301516121246000860182611edf565b5060208301516121376020860182611dc9565b506040830151848203604086015261214f8282611e45565b915050606083015184820360608601526121698282611de7565b9150508091505092915050565b61217f816126a0565b82525050565b600060208201905061219a6000830184611dd8565b92915050565b60006020820190506121b56000830184611dba565b92915050565b60006040820190506121d06000830185611dba565b6121dd6020830184611dd8565b9392505050565b60006060820190506121f96000830186611dba565b6122066020830185611dd8565b6122136040830184611ed0565b949350505050565b60006060820190506122306000830186611dba565b61223d6020830185611dd8565b61224a6040830184612176565b949350505050565b60006060820190506122676000830186611dd8565b6122746020830185611eee565b6122816040830184611eb2565b949350505050565b600060208201905061229e6000830184611eb2565b92915050565b60006020820190506122b96000830184611ec1565b92915050565b600060a0820190506122d46000830188611ec1565b6122e16020830187611ec1565b6122ee6040830186611ec1565b6122fb6060830185612176565b6123086080830184611dd8565b9695505050505050565b60006020820190506123276000830184611eee565b92915050565b60006040820190506123426000830185611eee565b61234f6020830184611dd8565b9392505050565b600060208201905061236b6000830184611efd565b92915050565b6000602082019050818103600083015261238a81611f0c565b9050919050565b600060208201905081810360008301526123aa81611f4c565b9050919050565b600060208201905081810360008301526123ca81611f8c565b9050919050565b600060208201905081810360008301526123ea81611fcc565b9050919050565b6000602082019050818103600083015261240a8161200c565b9050919050565b6000602082019050818103600083015261242a8161204c565b9050919050565b6000602082019050818103600083015261244a8161208c565b9050919050565b6000602082019050818103600083015261246a816120cc565b9050919050565b6000602082019050818103600083015261248b818461210c565b905092915050565b60006020820190506124a86000830184612176565b92915050565b6000604051905081810181811067ffffffffffffffff821117156124d5576124d4612725565b5b8060405250919050565b600067ffffffffffffffff8211156124fa576124f9612725565b5b602082029050602081019050919050565b600067ffffffffffffffff82111561252657612525612725565b5b602082029050602081019050919050565b600067ffffffffffffffff82111561255257612551612725565b5b601f19601f8301169050602081019050919050565b600067ffffffffffffffff82111561258257612581612725565b5b601f19601f8301169050602081019050919050565b6000819050602082019050919050565b6000819050602082019050919050565b600081519050919050565b600081519050919050565b6000602082019050919050565b6000602082019050919050565b600082825260208201905092915050565b600082825260208201905092915050565b600082825260208201905092915050565b600061262582612680565b9050919050565b600061263782612680565b9050919050565b60008115159050919050565b6000819050919050565b60007fffffffff0000000000000000000000000000000000000000000000000000000082169050919050565b600073ffffffffffffffffffffffffffffffffffffffff82169050919050565b6000819050919050565b60006126b5826126f2565b9050919050565b60006126c782612654565b9050919050565b60006126d9826126e0565b9050919050565b60006126eb82612680565b9050919050565b60006126fd82612704565b9050919050565b600061270f82612680565b9050919050565b82818337600083830152505050565bfe5b6127308161261a565b811461273b57600080fd5b50565b6127478161262c565b811461275257600080fd5b50565b61275e8161263e565b811461276957600080fd5b50565b61277581612654565b811461278057600080fd5b50565b61278c816126a0565b811461279757600080fd5b5056fe454950373132446f6d61696e28737472696e67206e616d652c737472696e672076657273696f6e2c75696e7432353620636861696e49642c6164647265737320766572696679696e67436f6e747261637429a26469706673582212207cd6ab7f36f32302126e1cda40e1275e33ee52f9d4d2c64c18cf1400821d0d4264736f6c63430007060033",
  "immutableReferences": {},
  "source": "pragma solidity ^0.7.0;\npragma experimental ABIEncoderV2;\n\nimport \"./ERC20Interface.sol\";\nimport \"./MessageRoute.sol\";\nimport \"./Whitelist.sol\";\n\n/**\n * @dev Registers and stores contracts decorated with mapAction\n * Makes contract functions to have conditions that can be executed by bots\n * Uses Whitelist and MessageRoute mixins\n */\ncontract ActionRouteRegistry is Whitelist, MessageRoute {\n    // Stable coin\n    ERC20Interface public stablecoin;\n\n    // Fee\n    uint public fee;\n\n    // Registered actions\n    mapping (address => mapping( bytes4 => ActionRoute)) public actions;\n    \n    // Accounting\n    mapping (address => uint) public accounting;\n\n    // Events\n    event Withdrawn(address indexed payee, uint256 weiAmount);\n    \n    event MessageEntryAdded(\n        address from,\n        address controller,\n        bytes32 id\n    );\n\n    /* Reads an action\n    */\n    function getAction(\n        address controller,\n        bytes4 selector\n    ) public view returns(ActionRoute memory) {\n        return actions[controller][selector];\n    }\n\n    address  private owner;\n\n    /**\n    * constructor\n    */\n    constructor(\n        address tokenAddress\n    ) public Whitelist(msg.sender)  {\n        owner = msg.sender;\n        stablecoin  = ERC20Interface(tokenAddress);\n    }\n   \n    // Sets protocol fee\n    function setProtocolFee(uint256 _fee) public {\n        require(msg.sender == owner, \"INVALID_USER\");\n        fee = _fee;\n    }\n\n    // Gets protocol fee\n    function getProtocolFee() public view returns (uint256) {\n        return (fee);\n    }\n\n    // Withdraw funds\n    function withdraw(address payable payee) public {\n        require(msg.sender == owner, \"INVALID_USER\");\n        uint256 b = address(this).balance;\n        payee.transfer(address(this).balance);\n\n        emit Withdrawn(payee, b);\n    }\n\n    // Withdraw ERC-20\n    function withdrawToken(address payable payee, address token) public {\n        require(msg.sender == owner, \"INVALID_USER\");\n        uint256 b = ERC20Interface(token).balanceOf(address(this));\n        payee.transfer(b);\n\n        emit Withdrawn(payee, b);\n    }\n\n\n    //  Maps an action that can be query for conditions\n    function mapAction(\n        address controller,\n        bytes4 messageRequest,\n        bytes4[] memory conditions,\n        bool[] memory conditionStatus\n    )\n        external\n        payable\n        returns (bool)\n    {\n\n        // User must have a balance\n        require(\n            stablecoin.balanceOf(msg.sender) >= 0,\n            \"Invalid token balance\"\n        );\n        // User must have an allowance\n        require(\n            stablecoin.allowance(msg.sender, address(this)) >= 0,\n            \"Invalid token allowance\"\n        );\n\n        require(\n            conditions.length == conditionStatus.length,\n            \"Invalid conditions size\"\n        );\n\n        require(\n            conditions.length < 6,\n            \"Max 5 conditions\"\n        );\n        /* require(\n            stablecoin.balanceOf(msg.sender) == (mintingServiceFee.sum(protocolServiceFee)), \n            \"MUST SEND FEE BEFORE USE\");\n        */\n\n        require(actions[controller][messageRequest].controller == address(0), \"Address already exists\");\n\n        // register topic and mutation\n        actions[controller][messageRequest] = ActionRoute({\n            selector: messageRequest,\n            controller: controller,\n            conditions: conditions,\n            conditionStatus: conditionStatus\n        });\n\n        \n\n        // Update accounting\n        //  - create mappings to data provider accounting\n        //  - create mappings to protocol fee accounting\n        // Transfer tokens to pay service fee\n        require(\n            stablecoin.transferFrom(\n                msg.sender,\n                address(this), \n                fee),\n            \"Transfer failed for fee\"\n        );\n        actionWhitelisting[controller][messageRequest] = true;\n\n\n        accounting[msg.sender] = accounting[msg.sender] + fee;\n        accounting[address(this)] = accounting[address(this)] + fee;\n        emit MessageEntryAdded(\n            msg.sender,\n            controller,\n            messageRequest\n        );\n\n        return true;\n    }       \n\n\n}",
  "sourcePath": "/home/rogelio/Code/xdv/electronic-sa-contracts/contracts/ActionRouteRegistry.sol",
  "compiler": {
    "name": "solc",
    "version": "0.7.6+commit.7338295f.Emscripten.clang"
  },
  "schemaVersion": "3.3.3",
  "updatedAt": "2021-02-16T23:14:01.915Z",
  "networkType": "ethereum",
  "devdoc": {
    "details": "Registers and stores contracts decorated with mapAction Makes contract functions to have conditions that can be executed by bots Uses Whitelist and MessageRoute mixins",
    "kind": "dev",
    "methods": {},
    "version": 1
  },
  "userdoc": {
    "kind": "user",
    "methods": {
      "constructor": {
        "notice": "constructor"
      }
    },
    "version": 1
  }
}