{
  "contractName": "ActionRouteRegistry",
  "abi": [
    {
      "inputs": [
        {
          "internalType": "address",
          "name": "tokenAddress",
          "type": "address"
        }
      ],
      "stateMutability": "nonpayable",
      "type": "constructor"
    },
    {
      "anonymous": false,
      "inputs": [
        {
          "indexed": false,
          "internalType": "bytes4",
          "name": "methodSig",
          "type": "bytes4"
        },
        {
          "indexed": false,
          "internalType": "bytes",
          "name": "request",
          "type": "bytes"
        }
      ],
      "name": "ActionChanged",
      "type": "event"
    },
    {
      "anonymous": false,
      "inputs": [
        {
          "indexed": false,
          "internalType": "bytes32",
          "name": "domainSeparator",
          "type": "bytes32"
        },
        {
          "indexed": false,
          "internalType": "address",
          "name": "from",
          "type": "address"
        },
        {
          "indexed": false,
          "internalType": "address",
          "name": "controller",
          "type": "address"
        },
        {
          "indexed": false,
          "internalType": "bytes32",
          "name": "id",
          "type": "bytes32"
        }
      ],
      "name": "MessageEntryAdded",
      "type": "event"
    },
    {
      "anonymous": false,
      "inputs": [
        {
          "indexed": false,
          "internalType": "string",
          "name": "propName",
          "type": "string"
        },
        {
          "indexed": false,
          "internalType": "bytes",
          "name": "data",
          "type": "bytes"
        }
      ],
      "name": "PropertyChanged",
      "type": "event"
    },
    {
      "anonymous": false,
      "inputs": [
        {
          "indexed": false,
          "internalType": "address",
          "name": "caller",
          "type": "address"
        },
        {
          "indexed": false,
          "internalType": "bytes4",
          "name": "methodName",
          "type": "bytes4"
        },
        {
          "indexed": false,
          "internalType": "bool",
          "name": "enable",
          "type": "bool"
        }
      ],
      "name": "UserWhitelistChanged",
      "type": "event"
    },
    {
      "anonymous": false,
      "inputs": [
        {
          "indexed": true,
          "internalType": "address",
          "name": "payee",
          "type": "address"
        },
        {
          "indexed": false,
          "internalType": "uint256",
          "name": "weiAmount",
          "type": "uint256"
        }
      ],
      "name": "Withdrawn",
      "type": "event"
    },
    {
      "inputs": [
        {
          "internalType": "address",
          "name": "",
          "type": "address"
        }
      ],
      "name": "accounting",
      "outputs": [
        {
          "internalType": "uint256",
          "name": "",
          "type": "uint256"
        }
      ],
      "stateMutability": "view",
      "type": "function"
    },
    {
      "inputs": [
        {
          "internalType": "bytes32",
          "name": "",
          "type": "bytes32"
        },
        {
          "internalType": "bytes4",
          "name": "",
          "type": "bytes4"
        }
      ],
      "name": "actionWhitelisting",
      "outputs": [
        {
          "internalType": "bool",
          "name": "",
          "type": "bool"
        }
      ],
      "stateMutability": "view",
      "type": "function"
    },
    {
      "inputs": [
        {
          "internalType": "bytes32",
          "name": "",
          "type": "bytes32"
        },
        {
          "internalType": "bytes4",
          "name": "",
          "type": "bytes4"
        }
      ],
      "name": "actions",
      "outputs": [
        {
          "internalType": "bytes4",
          "name": "selector",
          "type": "bytes4"
        },
        {
          "internalType": "address",
          "name": "controller",
          "type": "address"
        }
      ],
      "stateMutability": "view",
      "type": "function"
    },
    {
      "inputs": [],
      "name": "fee",
      "outputs": [
        {
          "internalType": "uint256",
          "name": "",
          "type": "uint256"
        }
      ],
      "stateMutability": "view",
      "type": "function"
    },
    {
      "inputs": [
        {
          "internalType": "string",
          "name": "contractName",
          "type": "string"
        },
        {
          "internalType": "address",
          "name": "contractAddress",
          "type": "address"
        },
        {
          "internalType": "uint256",
          "name": "network",
          "type": "uint256"
        },
        {
          "internalType": "string",
          "name": "version",
          "type": "string"
        }
      ],
      "name": "getDomainSeparator",
      "outputs": [
        {
          "internalType": "bytes32",
          "name": "",
          "type": "bytes32"
        }
      ],
      "stateMutability": "pure",
      "type": "function"
    },
    {
      "inputs": [
        {
          "internalType": "bytes",
          "name": "data",
          "type": "bytes"
        }
      ],
      "name": "getMethodSig",
      "outputs": [
        {
          "internalType": "bytes4",
          "name": "",
          "type": "bytes4"
        }
      ],
      "stateMutability": "pure",
      "type": "function"
    },
    {
      "inputs": [],
      "name": "owner",
      "outputs": [
        {
          "internalType": "address",
          "name": "",
          "type": "address"
        }
      ],
      "stateMutability": "view",
      "type": "function"
    },
    {
      "inputs": [
        {
          "internalType": "address",
          "name": "caller",
          "type": "address"
        },
        {
          "internalType": "bytes4",
          "name": "fnName",
          "type": "bytes4"
        },
        {
          "internalType": "bool",
          "name": "enable",
          "type": "bool"
        }
      ],
      "name": "setUserWhitelist",
      "outputs": [
        {
          "internalType": "bool",
          "name": "",
          "type": "bool"
        }
      ],
      "stateMutability": "nonpayable",
      "type": "function"
    },
    {
      "inputs": [],
      "name": "stablecoin",
      "outputs": [
        {
          "internalType": "contract ERC20Interface",
          "name": "",
          "type": "address"
        }
      ],
      "stateMutability": "view",
      "type": "function"
    },
    {
      "inputs": [
        {
          "internalType": "address",
          "name": "",
          "type": "address"
        },
        {
          "internalType": "bytes4",
          "name": "",
          "type": "bytes4"
        }
      ],
      "name": "userWhitelist",
      "outputs": [
        {
          "internalType": "bool",
          "name": "",
          "type": "bool"
        }
      ],
      "stateMutability": "view",
      "type": "function"
    },
    {
      "inputs": [
        {
          "internalType": "bytes32",
          "name": "domainSeparator",
          "type": "bytes32"
        },
        {
          "internalType": "bytes4",
          "name": "selector",
          "type": "bytes4"
        }
      ],
      "name": "getAction",
      "outputs": [
        {
          "components": [
            {
              "internalType": "bytes4",
              "name": "selector",
              "type": "bytes4"
            },
            {
              "internalType": "address",
              "name": "controller",
              "type": "address"
            },
            {
              "internalType": "bytes4[]",
              "name": "conditions",
              "type": "bytes4[]"
            },
            {
              "internalType": "bool[]",
              "name": "conditionStatus",
              "type": "bool[]"
            }
          ],
          "internalType": "struct MessageRoute.ActionRoute",
          "name": "",
          "type": "tuple"
        }
      ],
      "stateMutability": "view",
      "type": "function"
    },
    {
      "inputs": [
        {
          "internalType": "uint256",
          "name": "_fee",
          "type": "uint256"
        }
      ],
      "name": "setProtocolConfig",
      "outputs": [],
      "stateMutability": "nonpayable",
      "type": "function"
    },
    {
      "inputs": [],
      "name": "getProtocolConfig",
      "outputs": [
        {
          "internalType": "uint256",
          "name": "",
          "type": "uint256"
        }
      ],
      "stateMutability": "nonpayable",
      "type": "function"
    },
    {
      "inputs": [
        {
          "internalType": "address payable",
          "name": "payee",
          "type": "address"
        }
      ],
      "name": "withdraw",
      "outputs": [],
      "stateMutability": "nonpayable",
      "type": "function"
    },
    {
      "inputs": [
        {
          "internalType": "address payable",
          "name": "payee",
          "type": "address"
        },
        {
          "internalType": "address",
          "name": "token",
          "type": "address"
        }
      ],
      "name": "withdrawToken",
      "outputs": [],
      "stateMutability": "nonpayable",
      "type": "function"
    },
    {
      "inputs": [
        {
          "internalType": "bytes32",
          "name": "domainSeparator",
          "type": "bytes32"
        },
        {
          "internalType": "address",
          "name": "controller",
          "type": "address"
        },
        {
          "internalType": "bytes4",
          "name": "messageRequest",
          "type": "bytes4"
        },
        {
          "internalType": "bytes4[]",
          "name": "conditions",
          "type": "bytes4[]"
        },
        {
          "internalType": "bool[]",
          "name": "conditionStatus",
          "type": "bool[]"
        },
        {
          "internalType": "address[]",
          "name": "whitelist",
          "type": "address[]"
        }
      ],
      "name": "mapAction",
      "outputs": [
        {
          "internalType": "bool",
          "name": "",
          "type": "bool"
        }
      ],
      "stateMutability": "payable",
      "type": "function"
    }
  ],
  "bytecode": "0x60806040523480156200001157600080fd5b5060405162002c1838038062002c188339818101604052810190620000379190620000d6565b336000806101000a81548173ffffffffffffffffffffffffffffffffffffffff021916908373ffffffffffffffffffffffffffffffffffffffff16021790555080600360006101000a81548173ffffffffffffffffffffffffffffffffffffffff021916908373ffffffffffffffffffffffffffffffffffffffff1602179055505062000150565b600081519050620000d08162000136565b92915050565b600060208284031215620000e957600080fd5b6000620000f984828501620000bf565b91505092915050565b60006200010f8262000116565b9050919050565b600073ffffffffffffffffffffffffffffffffffffffff82169050919050565b620001418162000102565b81146200014d57600080fd5b50565b612ab880620001606000396000f3fe6080604052600436106100f35760003560e01c8063991edf3f1161008a578063e2ca764611610059578063e2ca764614610367578063e9cbd822146103a4578063ed4ab79f146103cf578063ed700b3e1461040d576100f3565b8063991edf3f14610285578063b1e4f13e146102c2578063d451e0d5146102ff578063ddca3f431461033c576100f3565b806388b87046116100c657806388b87046146101b05780638a173e3a146101e05780638a5a7a691461021d5780638da5cb5b1461025a576100f3565b80632f8d845a146100f85780633aeac4e11461012157806351cff8d91461014a5780636d64516e14610173575b600080fd5b34801561010457600080fd5b5061011f600480360381019061011a9190611f1d565b610438565b005b34801561012d57600080fd5b5061014860048036038101906101439190611c4c565b6104d0565b005b34801561015657600080fd5b50610171600480360381019061016c9190611c23565b610685565b005b34801561017f57600080fd5b5061019a60048036038101906101959190611e0d565b6107b1565b6040516101a79190612477565b60405180910390f35b6101ca60048036038101906101c59190611d3c565b6107e0565b6040516101d79190612477565b60405180910390f35b3480156101ec57600080fd5b5061020760048036038101906102029190611e49565b611078565b6040516102149190612545565b60405180910390f35b34801561022957600080fd5b50610244600480360381019061023f9190611cc4565b6111d5565b6040516102519190612477565b60405180910390f35b34801561026657600080fd5b5061026f61134d565b60405161027c91906123aa565b60405180910390f35b34801561029157600080fd5b506102ac60048036038101906102a79190611bfa565b611371565b6040516102b991906126e6565b60405180910390f35b3480156102ce57600080fd5b506102e960048036038101906102e49190611e8a565b611389565b6040516102f69190612492565b60405180910390f35b34801561030b57600080fd5b5061032660048036038101906103219190611e0d565b6113f1565b60405161033391906126c4565b60405180910390f35b34801561034857600080fd5b50610351611630565b60405161035e91906126e6565b60405180910390f35b34801561037357600080fd5b5061038e60048036038101906103899190611c88565b611636565b60405161039b9190612477565b60405180910390f35b3480156103b057600080fd5b506103b9611665565b6040516103c69190612589565b60405180910390f35b3480156103db57600080fd5b506103f660048036038101906103f19190611e0d565b61168b565b604051610404929190612560565b60405180910390f35b34801561041957600080fd5b506104226116e9565b60405161042f91906126e6565b60405180910390f35b60008054906101000a900473ffffffffffffffffffffffffffffffffffffffff1673ffffffffffffffffffffffffffffffffffffffff163373ffffffffffffffffffffffffffffffffffffffff16146104c6576040517f08c379a00000000000000000000000000000000000000000000000000000000081526004016104bd90612604565b60405180910390fd5b8060048190555050565b60008054906101000a900473ffffffffffffffffffffffffffffffffffffffff1673ffffffffffffffffffffffffffffffffffffffff163373ffffffffffffffffffffffffffffffffffffffff161461055e576040517f08c379a000000000000000000000000000000000000000000000000000000000815260040161055590612604565b60405180910390fd5b60008173ffffffffffffffffffffffffffffffffffffffff166370a08231306040518263ffffffff1660e01b815260040161059991906123aa565b60206040518083038186803b1580156105b157600080fd5b505afa1580156105c5573d6000803e3d6000fd5b505050506040513d601f19601f820116820180604052508101906105e99190611f46565b90508273ffffffffffffffffffffffffffffffffffffffff166108fc829081150290604051600060405180830381858888f19350505050158015610631573d6000803e3d6000fd5b508273ffffffffffffffffffffffffffffffffffffffff167f7084f5476618d8e60b11ef0d7d3f06914655adb8793e28ff7f018d4c76d505d58260405161067891906126e6565b60405180910390a2505050565b60008054906101000a900473ffffffffffffffffffffffffffffffffffffffff1673ffffffffffffffffffffffffffffffffffffffff163373ffffffffffffffffffffffffffffffffffffffff1614610713576040517f08c379a000000000000000000000000000000000000000000000000000000000815260040161070a90612604565b60405180910390fd5b60004790508173ffffffffffffffffffffffffffffffffffffffff166108fc479081150290604051600060405180830381858888f1935050505015801561075e573d6000803e3d6000fd5b508173ffffffffffffffffffffffffffffffffffffffff167f7084f5476618d8e60b11ef0d7d3f06914655adb8793e28ff7f018d4c76d505d5826040516107a591906126e6565b60405180910390a25050565b60016020528160005260406000206020528060005260406000206000915091509054906101000a900460ff1681565b600080600360009054906101000a900473ffffffffffffffffffffffffffffffffffffffff1673ffffffffffffffffffffffffffffffffffffffff166370a08231336040518263ffffffff1660e01b815260040161083e91906123c5565b60206040518083038186803b15801561085657600080fd5b505afa15801561086a573d6000803e3d6000fd5b505050506040513d601f19601f8201168201806040525081019061088e9190611f46565b10156108cf576040517f08c379a00000000000000000000000000000000000000000000000000000000081526004016108c6906125a4565b60405180910390fd5b6000600360009054906101000a900473ffffffffffffffffffffffffffffffffffffffff1673ffffffffffffffffffffffffffffffffffffffff1663dd62ed3e33306040518363ffffffff1660e01b815260040161092e9291906123e0565b60206040518083038186803b15801561094657600080fd5b505afa15801561095a573d6000803e3d6000fd5b505050506040513d601f19601f8201168201806040525081019061097e9190611f46565b10156109bf576040517f08c379a00000000000000000000000000000000000000000000000000000000081526004016109b690612684565b60405180910390fd5b8251845114610a03576040517f08c379a00000000000000000000000000000000000000000000000000000000081526004016109fa90612644565b60405180910390fd5b6006845110610a47576040517f08c379a0000000000000000000000000000000000000000000000000000000008152600401610a3e90612664565b60405180910390fd5b6006825110610a8b576040517f08c379a0000000000000000000000000000000000000000000000000000000008152600401610a82906125c4565b60405180910390fd5b600073ffffffffffffffffffffffffffffffffffffffff16600560008981526020019081526020016000206000877bffffffffffffffffffffffffffffffffffffffffffffffffffffffff19167bffffffffffffffffffffffffffffffffffffffffffffffffffffffff1916815260200190815260200160002060000160049054906101000a900473ffffffffffffffffffffffffffffffffffffffff1673ffffffffffffffffffffffffffffffffffffffff1614610b7f576040517f08c379a0000000000000000000000000000000000000000000000000000000008152600401610b7690612624565b60405180910390fd5b6040518060800160405280867bffffffffffffffffffffffffffffffffffffffffffffffffffffffff191681526020018773ffffffffffffffffffffffffffffffffffffffff16815260200185815260200184815250600560008981526020019081526020016000206000877bffffffffffffffffffffffffffffffffffffffffffffffffffffffff19167bffffffffffffffffffffffffffffffffffffffffffffffffffffffff1916815260200190815260200160002060008201518160000160006101000a81548163ffffffff021916908360e01c021790555060208201518160000160046101000a81548173ffffffffffffffffffffffffffffffffffffffff021916908373ffffffffffffffffffffffffffffffffffffffff1602179055506040820151816001019080519060200190610cbe9291906116f3565b506060820151816002019080519060200190610cdb9291906117a0565b5090505060005b8251811015610db257600160026000858481518110610cfd57fe5b602002602001015173ffffffffffffffffffffffffffffffffffffffff1673ffffffffffffffffffffffffffffffffffffffff1681526020019081526020016000206000887bffffffffffffffffffffffffffffffffffffffffffffffffffffffff19167bffffffffffffffffffffffffffffffffffffffffffffffffffffffff1916815260200190815260200160002060006101000a81548160ff0219169083151502179055508080600101915050610ce2565b50600360009054906101000a900473ffffffffffffffffffffffffffffffffffffffff1673ffffffffffffffffffffffffffffffffffffffff166323b872dd33306004546040518463ffffffff1660e01b8152600401610e1493929190612409565b602060405180830381600087803b158015610e2e57600080fd5b505af1158015610e42573d6000803e3d6000fd5b505050506040513d601f19601f82011682018060405250810190610e669190611d13565b610ea5576040517f08c379a0000000000000000000000000000000000000000000000000000000008152600401610e9c906125e4565b60405180910390fd5b60018060008981526020019081526020016000206000877bffffffffffffffffffffffffffffffffffffffffffffffffffffffff19167bffffffffffffffffffffffffffffffffffffffffffffffffffffffff1916815260200190815260200160002060006101000a81548160ff021916908315150217905550600454600660003373ffffffffffffffffffffffffffffffffffffffff1673ffffffffffffffffffffffffffffffffffffffff1681526020019081526020016000205401600660003373ffffffffffffffffffffffffffffffffffffffff1673ffffffffffffffffffffffffffffffffffffffff16815260200190815260200160002081905550600454600660003073ffffffffffffffffffffffffffffffffffffffff1673ffffffffffffffffffffffffffffffffffffffff1681526020019081526020016000205401600660003073ffffffffffffffffffffffffffffffffffffffff1673ffffffffffffffffffffffffffffffffffffffff168152602001908152602001600020819055507f8fae840e6b912557f231d656ff17440140bf6da163ee99cd346bb75d0fadd2c88733888860405161106294939291906124ad565b60405180910390a1600190509695505050505050565b600060188260038151811061108957fe5b602001015160f81c60f81b7effffffffffffffffffffffffffffffffffffffffffffffffffffffffffffff19167bffffffffffffffffffffffffffffffffffffffffffffffffffffffff1916901c6010836002815181106110e657fe5b602001015160f81c60f81b7effffffffffffffffffffffffffffffffffffffffffffffffffffffffffffff19167bffffffffffffffffffffffffffffffffffffffffffffffffffffffff1916901c60088460018151811061114357fe5b602001015160f81c60f81b7effffffffffffffffffffffffffffffffffffffffffffffffffffffffffffff19167bffffffffffffffffffffffffffffffffffffffffffffffffffffffff1916901c8460008151811061119e57fe5b602001015160f81c60f81b7effffffffffffffffffffffffffffffffffffffffffffffffffffffffffffff19161717179050919050565b60003373ffffffffffffffffffffffffffffffffffffffff1660008054906101000a900473ffffffffffffffffffffffffffffffffffffffff1673ffffffffffffffffffffffffffffffffffffffff1614611265576040517f08c379a000000000000000000000000000000000000000000000000000000000815260040161125c906126a4565b60405180910390fd5b81600260008673ffffffffffffffffffffffffffffffffffffffff1673ffffffffffffffffffffffffffffffffffffffff1681526020019081526020016000206000857bffffffffffffffffffffffffffffffffffffffffffffffffffffffff19167bffffffffffffffffffffffffffffffffffffffffffffffffffffffff1916815260200190815260200160002060006101000a81548160ff0219169083151502179055507f7f41b44a4d0cf3e01e6c1dc089568e147a684629672ed575e47ff05bd1bb29a384848460405161133e93929190612440565b60405180910390a19392505050565b60008054906101000a900473ffffffffffffffffffffffffffffffffffffffff1681565b60066020528060005260406000206000915090505481565b6000604051806080016040528060528152602001612a3160529139805190602001208580519060200120838051906020012085876040516020016113d19594939291906124f2565b604051602081830303815290604052805190602001209050949350505050565b6113f9611846565b600560008481526020019081526020016000206000837bffffffffffffffffffffffffffffffffffffffffffffffffffffffff19167bffffffffffffffffffffffffffffffffffffffffffffffffffffffff191681526020019081526020016000206040518060800160405290816000820160009054906101000a900460e01b7bffffffffffffffffffffffffffffffffffffffffffffffffffffffff19167bffffffffffffffffffffffffffffffffffffffffffffffffffffffff191681526020016000820160049054906101000a900473ffffffffffffffffffffffffffffffffffffffff1673ffffffffffffffffffffffffffffffffffffffff1673ffffffffffffffffffffffffffffffffffffffff168152602001600182018054806020026020016040519081016040528092919081815260200182805480156115a257602002820191906000526020600020906000905b82829054906101000a900460e01b7bffffffffffffffffffffffffffffffffffffffffffffffffffffffff19168152602001906004019060208260030104928301926001038202915080841161154f5790505b505050505081526020016002820180548060200260200160405190810160405280929190818152602001828054801561161f57602002820191906000526020600020906000905b82829054906101000a900460ff161515815260200190600101906020826000010492830192600103820291508084116115e95790505b505050505081525050905092915050565b60045481565b60026020528160005260406000206020528060005260406000206000915091509054906101000a900460ff1681565b600360009054906101000a900473ffffffffffffffffffffffffffffffffffffffff1681565b6005602052816000526040600020602052806000526040600020600091509150508060000160009054906101000a900460e01b908060000160049054906101000a900473ffffffffffffffffffffffffffffffffffffffff16905082565b6000600454905090565b8280548282559060005260206000209060070160089004810192821561178f5791602002820160005b8382111561175d57835183826101000a81548163ffffffff021916908360e01c0217905550926020019260040160208160030104928301926001030261171c565b801561178d5782816101000a81549063ffffffff021916905560040160208160030104928301926001030261175d565b505b50905061179c91906118a3565b5090565b82805482825590600052602060002090601f016020900481019282156118355791602002820160005b8382111561180657835183826101000a81548160ff02191690831515021790555092602001926001016020816000010492830192600103026117c9565b80156118335782816101000a81549060ff0219169055600101602081600001049283019260010302611806565b505b50905061184291906118a3565b5090565b604051806080016040528060007bffffffffffffffffffffffffffffffffffffffffffffffffffffffff19168152602001600073ffffffffffffffffffffffffffffffffffffffff16815260200160608152602001606081525090565b5b808211156118bc5760008160009055506001016118a4565b5090565b60006118d36118ce84612732565b612701565b905080838252602082019050828560208602820111156118f257600080fd5b60005b8581101561192257816119088882611a80565b8452602084019350602083019250506001810190506118f5565b5050509392505050565b600061193f61193a8461275e565b612701565b9050808382526020820190508285602086028201111561195e57600080fd5b60005b8581101561198e57816119748882611b28565b845260208401935060208301925050600181019050611961565b5050509392505050565b60006119ab6119a68461278a565b612701565b905080838252602082019050828560208602820111156119ca57600080fd5b60005b858110156119fa57816119e08882611b67565b8452602084019350602083019250506001810190506119cd565b5050509392505050565b6000611a17611a12846127b6565b612701565b905082815260208101848484011115611a2f57600080fd5b611a3a848285612995565b509392505050565b6000611a55611a50846127e6565b612701565b905082815260208101848484011115611a6d57600080fd5b611a78848285612995565b509392505050565b600081359050611a8f816129a6565b92915050565b600081359050611aa4816129bd565b92915050565b600082601f830112611abb57600080fd5b8135611acb8482602086016118c0565b91505092915050565b600082601f830112611ae557600080fd5b8135611af584826020860161192c565b91505092915050565b600082601f830112611b0f57600080fd5b8135611b1f848260208601611998565b91505092915050565b600081359050611b37816129d4565b92915050565b600081519050611b4c816129d4565b92915050565b600081359050611b61816129eb565b92915050565b600081359050611b7681612a02565b92915050565b600082601f830112611b8d57600080fd5b8135611b9d848260208601611a04565b91505092915050565b600082601f830112611bb757600080fd5b8135611bc7848260208601611a42565b91505092915050565b600081359050611bdf81612a19565b92915050565b600081519050611bf481612a19565b92915050565b600060208284031215611c0c57600080fd5b6000611c1a84828501611a80565b91505092915050565b600060208284031215611c3557600080fd5b6000611c4384828501611a95565b91505092915050565b60008060408385031215611c5f57600080fd5b6000611c6d85828601611a95565b9250506020611c7e85828601611a80565b9150509250929050565b60008060408385031215611c9b57600080fd5b6000611ca985828601611a80565b9250506020611cba85828601611b67565b9150509250929050565b600080600060608486031215611cd957600080fd5b6000611ce786828701611a80565b9350506020611cf886828701611b67565b9250506040611d0986828701611b28565b9150509250925092565b600060208284031215611d2557600080fd5b6000611d3384828501611b3d565b91505092915050565b60008060008060008060c08789031215611d5557600080fd5b6000611d6389828a01611b52565b9650506020611d7489828a01611a80565b9550506040611d8589828a01611b67565b945050606087013567ffffffffffffffff811115611da257600080fd5b611dae89828a01611afe565b935050608087013567ffffffffffffffff811115611dcb57600080fd5b611dd789828a01611ad4565b92505060a087013567ffffffffffffffff811115611df457600080fd5b611e0089828a01611aaa565b9150509295509295509295565b60008060408385031215611e2057600080fd5b6000611e2e85828601611b52565b9250506020611e3f85828601611b67565b9150509250929050565b600060208284031215611e5b57600080fd5b600082013567ffffffffffffffff811115611e7557600080fd5b611e8184828501611b7c565b91505092915050565b60008060008060808587031215611ea057600080fd5b600085013567ffffffffffffffff811115611eba57600080fd5b611ec687828801611ba6565b9450506020611ed787828801611a80565b9350506040611ee887828801611bd0565b925050606085013567ffffffffffffffff811115611f0557600080fd5b611f1187828801611ba6565b91505092959194509250565b600060208284031215611f2f57600080fd5b6000611f3d84828501611bd0565b91505092915050565b600060208284031215611f5857600080fd5b6000611f6684828501611be5565b91505092915050565b6000611f7b8383612088565b60208301905092915050565b6000611f9383836120c4565b60208301905092915050565b611fa881612929565b82525050565b611fb781612899565b82525050565b611fc681612899565b82525050565b6000611fd782612836565b611fe18185612866565b9350611fec83612816565b8060005b8381101561201d5781516120048882611f6f565b975061200f8361284c565b925050600181019050611ff0565b5085935050505092915050565b600061203582612841565b61203f8185612877565b935061204a83612826565b8060005b8381101561207b5781516120628882611f87565b975061206d83612859565b92505060018101905061204e565b5085935050505092915050565b612091816128bd565b82525050565b6120a0816128bd565b82525050565b6120af816128c9565b82525050565b6120be8161293b565b82525050565b6120cd816128d3565b82525050565b6120dc816128d3565b82525050565b6120eb8161294d565b82525050565b60006120fe601583612888565b91507f496e76616c696420746f6b656e2062616c616e636500000000000000000000006000830152602082019050919050565b600061213e601783612888565b91507f4d6178203520616464726573732077686974656c6973740000000000000000006000830152602082019050919050565b600061217e601783612888565b91507f5472616e73666572206661696c656420666f72206665650000000000000000006000830152602082019050919050565b60006121be600c83612888565b91507f494e56414c49445f5553455200000000000000000000000000000000000000006000830152602082019050919050565b60006121fe601683612888565b91507f4164647265737320616c726561647920657869737473000000000000000000006000830152602082019050919050565b600061223e601783612888565b91507f496e76616c696420636f6e646974696f6e732073697a650000000000000000006000830152602082019050919050565b600061227e601083612888565b91507f4d6178203520636f6e646974696f6e73000000000000000000000000000000006000830152602082019050919050565b60006122be601783612888565b91507f496e76616c696420746f6b656e20616c6c6f77616e63650000000000000000006000830152602082019050919050565b60006122fe600e83612888565b91507f4e6f7420617574686f72697a65640000000000000000000000000000000000006000830152602082019050919050565b600060808301600083015161234960008601826120c4565b50602083015161235c6020860182611fae565b5060408301518482036040860152612374828261202a565b9150506060830151848203606086015261238e8282611fcc565b9150508091505092915050565b6123a48161291f565b82525050565b60006020820190506123bf6000830184611fbd565b92915050565b60006020820190506123da6000830184611f9f565b92915050565b60006040820190506123f56000830185611f9f565b6124026020830184611fbd565b9392505050565b600060608201905061241e6000830186611f9f565b61242b6020830185611fbd565b612438604083018461239b565b949350505050565b60006060820190506124556000830186611fbd565b61246260208301856120d3565b61246f6040830184612097565b949350505050565b600060208201905061248c6000830184612097565b92915050565b60006020820190506124a760008301846120a6565b92915050565b60006080820190506124c260008301876120a6565b6124cf6020830186611f9f565b6124dc6040830185611fbd565b6124e960608301846120b5565b95945050505050565b600060a08201905061250760008301886120a6565b61251460208301876120a6565b61252160408301866120a6565b61252e606083018561239b565b61253b6080830184611fbd565b9695505050505050565b600060208201905061255a60008301846120d3565b92915050565b600060408201905061257560008301856120d3565b6125826020830184611fbd565b9392505050565b600060208201905061259e60008301846120e2565b92915050565b600060208201905081810360008301526125bd816120f1565b9050919050565b600060208201905081810360008301526125dd81612131565b9050919050565b600060208201905081810360008301526125fd81612171565b9050919050565b6000602082019050818103600083015261261d816121b1565b9050919050565b6000602082019050818103600083015261263d816121f1565b9050919050565b6000602082019050818103600083015261265d81612231565b9050919050565b6000602082019050818103600083015261267d81612271565b9050919050565b6000602082019050818103600083015261269d816122b1565b9050919050565b600060208201905081810360008301526126bd816122f1565b9050919050565b600060208201905081810360008301526126de8184612331565b905092915050565b60006020820190506126fb600083018461239b565b92915050565b6000604051905081810181811067ffffffffffffffff82111715612728576127276129a4565b5b8060405250919050565b600067ffffffffffffffff82111561274d5761274c6129a4565b5b602082029050602081019050919050565b600067ffffffffffffffff821115612779576127786129a4565b5b602082029050602081019050919050565b600067ffffffffffffffff8211156127a5576127a46129a4565b5b602082029050602081019050919050565b600067ffffffffffffffff8211156127d1576127d06129a4565b5b601f19601f8301169050602081019050919050565b600067ffffffffffffffff821115612801576128006129a4565b5b601f19601f8301169050602081019050919050565b6000819050602082019050919050565b6000819050602082019050919050565b600081519050919050565b600081519050919050565b6000602082019050919050565b6000602082019050919050565b600082825260208201905092915050565b600082825260208201905092915050565b600082825260208201905092915050565b60006128a4826128ff565b9050919050565b60006128b6826128ff565b9050919050565b60008115159050919050565b6000819050919050565b60007fffffffff0000000000000000000000000000000000000000000000000000000082169050919050565b600073ffffffffffffffffffffffffffffffffffffffff82169050919050565b6000819050919050565b600061293482612971565b9050919050565b6000612946826128d3565b9050919050565b60006129588261295f565b9050919050565b600061296a826128ff565b9050919050565b600061297c82612983565b9050919050565b600061298e826128ff565b9050919050565b82818337600083830152505050565bfe5b6129af81612899565b81146129ba57600080fd5b50565b6129c6816128ab565b81146129d157600080fd5b50565b6129dd816128bd565b81146129e857600080fd5b50565b6129f4816128c9565b81146129ff57600080fd5b50565b612a0b816128d3565b8114612a1657600080fd5b50565b612a228161291f565b8114612a2d57600080fd5b5056fe454950373132446f6d61696e28737472696e67206e616d652c737472696e672076657273696f6e2c75696e7432353620636861696e49642c6164647265737320766572696679696e67436f6e747261637429a26469706673582212208ef6d9aeb798e0d067670a5e0fe0b2137f0aacf60a70e0f25871afd8323c7a0764736f6c63430007060033",
  "immutableReferences": {},
  "source": "pragma solidity ^0.7.0;\npragma experimental ABIEncoderV2;\n\nimport \"./ERC20Interface.sol\";\nimport \"./MessageRoute.sol\";\nimport \"./Whitelist.sol\";\n\n/**\n * Maintains workflow state machine flow\n */\ncontract ActionRouteRegistry is Whitelist, MessageRoute {\n    ERC20Interface public stablecoin;\n    uint public fee;\n    mapping (bytes32 => mapping( bytes4 => ActionRoute)) public actions;\n    mapping (address => uint) public accounting;\n    \n\n    event Withdrawn(address indexed payee, uint256 weiAmount);\n\n    \n    event MessageEntryAdded(\n        bytes32 domainSeparator,\n        address from,\n        address controller,\n        bytes32 id\n    );\n\n    function getAction(\n        bytes32 domainSeparator,\n        bytes4 selector\n    ) public view returns(ActionRoute memory) {\n        return actions[domainSeparator][selector];\n    }\n\n\n    /**\n    * XDV Data Token\n    */\n    constructor(\n        address tokenAddress\n    ) public  {\n        owner = msg.sender;\n        stablecoin  = ERC20Interface(tokenAddress);\n    }\n   \n    function setProtocolConfig(uint256 _fee) public {\n        require(msg.sender == owner, \"INVALID_USER\");\n        fee = _fee;\n    }\n\n    function getProtocolConfig() public returns (uint256) {\n        return (fee);\n    }\n\n    function withdraw(address payable payee) public {\n        require(msg.sender == owner, \"INVALID_USER\");\n        uint256 b = address(this).balance;\n        payee.transfer(address(this).balance);\n\n        emit Withdrawn(payee, b);\n    }\n\n    function withdrawToken(address payable payee, address token) public {\n        require(msg.sender == owner, \"INVALID_USER\");\n        uint256 b = ERC20Interface(token).balanceOf(address(this));\n        payee.transfer(b);\n\n        emit Withdrawn(payee, b);\n    }\n\n    // topic ABI Function Ethers\n    // ExecutePrescription(uint, uint, string) === bytes32\n    // 0xA1...\n\n    function mapAction(\n        bytes32 domainSeparator,\n        address controller,\n        bytes4 messageRequest,\n        bytes4[] memory conditions,\n        bool[] memory conditionStatus,\n        address[] memory whitelist\n    )\n        external\n        payable\n        returns (bool)\n    {\n\n        // User must have a balance\n        require(\n            stablecoin.balanceOf(msg.sender) >= 0,\n            \"Invalid token balance\"\n        );\n        // User must have an allowance\n        require(\n            stablecoin.allowance(msg.sender, address(this)) >= 0,\n            \"Invalid token allowance\"\n        );\n\n        require(\n            conditions.length == conditionStatus.length,\n            \"Invalid conditions size\"\n        );\n\n        require(\n            conditions.length < 6,\n            \"Max 5 conditions\"\n        );\n\n        require(\n            whitelist.length < 6,\n            \"Max 5 address whitelist\"\n        );\n\n        /* require(\n            stablecoin.balanceOf(msg.sender) == (mintingServiceFee.sum(protocolServiceFee)), \n            \"MUST SEND FEE BEFORE USE\");\n        */\n\n        require(actions[domainSeparator][messageRequest].controller == address(0), \"Address already exists\");\n\n        // register topic and mutation\n        actions[domainSeparator][messageRequest] = ActionRoute({\n            selector: messageRequest,\n            controller: controller,\n            conditions: conditions,\n            conditionStatus: conditionStatus\n        });\n\n        for (uint i = 0;i < whitelist.length; i++) {\n            userWhitelist[whitelist[i]][messageRequest] = true;\n        }\n\n        // Update accounting\n        //  - create mappings to data provider accounting\n        //  - create mappings to protocol fee accounting\n        // Transfer tokens to pay service fee\n        require(\n            stablecoin.transferFrom(\n                msg.sender,\n                address(this), \n                fee),\n            \"Transfer failed for fee\"\n        );\n        actionWhitelisting[domainSeparator][messageRequest] = true;\n\n\n        accounting[msg.sender] = accounting[msg.sender] + fee;\n        accounting[address(this)] = accounting[address(this)] + fee;\n        emit MessageEntryAdded(\n            domainSeparator,\n            msg.sender,\n            controller,\n            messageRequest\n        );\n\n        return true;\n    }       \n\n\n}",
  "sourcePath": "/home/rogelio/Code/xdv/electronic-sa-contracts/contracts/ActionRouteRegistry.sol",
  "compiler": {
    "name": "solc",
    "version": "0.7.6+commit.7338295f.Emscripten.clang"
  },
  "schemaVersion": "3.3.3",
  "updatedAt": "2021-02-12T15:14:42.498Z",
  "devdoc": {
    "kind": "dev",
    "methods": {},
    "version": 1
  },
  "userdoc": {
    "kind": "user",
    "methods": {
      "constructor": {
        "notice": "XDV Data Token"
      }
    },
    "notice": "Maintains workflow state machine flow",
    "version": 1
  }
}