{
  "contractName": "Maintainer",
  "abi": [
    {
      "inputs": [
        {
          "internalType": "address",
          "name": "_relayJob",
          "type": "address"
        }
      ],
      "stateMutability": "nonpayable",
      "type": "constructor"
    },
    {
      "anonymous": false,
      "inputs": [
        {
          "indexed": false,
          "internalType": "uint256",
          "name": "id",
          "type": "uint256"
        },
        {
          "indexed": false,
          "internalType": "address",
          "name": "workerAddress",
          "type": "address"
        }
      ],
      "name": "AssignmentApplied",
      "type": "event"
    },
    {
      "anonymous": false,
      "inputs": [
        {
          "indexed": false,
          "internalType": "uint256",
          "name": "id",
          "type": "uint256"
        },
        {
          "indexed": false,
          "internalType": "address",
          "name": "workerAddress",
          "type": "address"
        },
        {
          "indexed": false,
          "internalType": "bool",
          "name": "granted",
          "type": "bool"
        }
      ],
      "name": "AssignmentConfirmed",
      "type": "event"
    },
    {
      "anonymous": false,
      "inputs": [
        {
          "indexed": false,
          "internalType": "uint256",
          "name": "id",
          "type": "uint256"
        },
        {
          "indexed": false,
          "internalType": "address",
          "name": "workerAddress",
          "type": "address"
        },
        {
          "indexed": false,
          "internalType": "bool",
          "name": "granted",
          "type": "bool"
        }
      ],
      "name": "AssignmentGranted",
      "type": "event"
    },
    {
      "anonymous": false,
      "inputs": [
        {
          "indexed": false,
          "internalType": "uint256",
          "name": "id",
          "type": "uint256"
        },
        {
          "indexed": false,
          "internalType": "address",
          "name": "workerAddress",
          "type": "address"
        },
        {
          "indexed": false,
          "internalType": "bool",
          "name": "granted",
          "type": "bool"
        }
      ],
      "name": "AssignmentPayout",
      "type": "event"
    },
    {
      "anonymous": false,
      "inputs": [
        {
          "indexed": false,
          "internalType": "uint256",
          "name": "id",
          "type": "uint256"
        },
        {
          "indexed": false,
          "internalType": "address",
          "name": "workerAddress",
          "type": "address"
        },
        {
          "indexed": false,
          "internalType": "bool",
          "name": "resolved",
          "type": "bool"
        }
      ],
      "name": "AssignmentResolved",
      "type": "event"
    },
    {
      "anonymous": false,
      "inputs": [
        {
          "indexed": false,
          "internalType": "uint256",
          "name": "id",
          "type": "uint256"
        }
      ],
      "name": "Created",
      "type": "event"
    },
    {
      "anonymous": false,
      "inputs": [
        {
          "indexed": false,
          "internalType": "address",
          "name": "worker",
          "type": "address"
        }
      ],
      "name": "UserVerified",
      "type": "event"
    },
    {
      "anonymous": false,
      "inputs": [
        {
          "indexed": true,
          "internalType": "address",
          "name": "payee",
          "type": "address"
        },
        {
          "indexed": false,
          "internalType": "uint256",
          "name": "weiAmount",
          "type": "uint256"
        }
      ],
      "name": "Withdrawn",
      "type": "event"
    },
    {
      "anonymous": false,
      "inputs": [
        {
          "indexed": false,
          "internalType": "uint256",
          "name": "id",
          "type": "uint256"
        }
      ],
      "name": "WorkerEnrolled",
      "type": "event"
    },
    {
      "inputs": [
        {
          "internalType": "uint256",
          "name": "",
          "type": "uint256"
        }
      ],
      "name": "assignments",
      "outputs": [
        {
          "internalType": "address",
          "name": "owner",
          "type": "address"
        },
        {
          "internalType": "uint256",
          "name": "relayJobId",
          "type": "uint256"
        },
        {
          "internalType": "uint256",
          "name": "status",
          "type": "uint256"
        },
        {
          "internalType": "uint256",
          "name": "depositAmount",
          "type": "uint256"
        }
      ],
      "stateMutability": "view",
      "type": "function",
      "constant": true
    },
    {
      "inputs": [],
      "name": "relayJob",
      "outputs": [
        {
          "internalType": "contract RelayJob",
          "name": "",
          "type": "address"
        }
      ],
      "stateMutability": "view",
      "type": "function",
      "constant": true
    },
    {
      "inputs": [
        {
          "internalType": "address",
          "name": "",
          "type": "address"
        }
      ],
      "name": "workerTasks",
      "outputs": [
        {
          "internalType": "uint256",
          "name": "",
          "type": "uint256"
        }
      ],
      "stateMutability": "view",
      "type": "function",
      "constant": true
    },
    {
      "inputs": [
        {
          "internalType": "address",
          "name": "",
          "type": "address"
        }
      ],
      "name": "workers",
      "outputs": [
        {
          "internalType": "string",
          "name": "name",
          "type": "string"
        },
        {
          "internalType": "address",
          "name": "owner",
          "type": "address"
        },
        {
          "internalType": "bool",
          "name": "verified",
          "type": "bool"
        },
        {
          "internalType": "string",
          "name": "metadataURI",
          "type": "string"
        },
        {
          "internalType": "uint256",
          "name": "status",
          "type": "uint256"
        },
        {
          "internalType": "address",
          "name": "accountsPayable",
          "type": "address"
        }
      ],
      "stateMutability": "view",
      "type": "function",
      "constant": true
    },
    {
      "inputs": [
        {
          "internalType": "uint256",
          "name": "relayJobId",
          "type": "uint256"
        },
        {
          "internalType": "address",
          "name": "caller",
          "type": "address"
        }
      ],
      "name": "createAssignmentAndEscrow",
      "outputs": [
        {
          "internalType": "uint256",
          "name": "",
          "type": "uint256"
        }
      ],
      "stateMutability": "payable",
      "type": "function",
      "payable": true
    },
    {
      "inputs": [
        {
          "internalType": "string",
          "name": "name",
          "type": "string"
        },
        {
          "internalType": "string",
          "name": "metadataURI",
          "type": "string"
        },
        {
          "internalType": "address",
          "name": "paymentAddress",
          "type": "address"
        }
      ],
      "name": "enroll",
      "outputs": [
        {
          "internalType": "uint256",
          "name": "",
          "type": "uint256"
        }
      ],
      "stateMutability": "nonpayable",
      "type": "function"
    },
    {
      "inputs": [
        {
          "internalType": "uint256",
          "name": "assignmentId",
          "type": "uint256"
        },
        {
          "internalType": "address",
          "name": "worker",
          "type": "address"
        },
        {
          "internalType": "bool",
          "name": "allow",
          "type": "bool"
        }
      ],
      "name": "setOutcomeAssignment",
      "outputs": [
        {
          "internalType": "bool",
          "name": "",
          "type": "bool"
        }
      ],
      "stateMutability": "nonpayable",
      "type": "function"
    },
    {
      "inputs": [
        {
          "internalType": "address",
          "name": "worker",
          "type": "address"
        }
      ],
      "name": "setVerifyUser",
      "outputs": [
        {
          "internalType": "bool",
          "name": "",
          "type": "bool"
        }
      ],
      "stateMutability": "nonpayable",
      "type": "function"
    },
    {
      "inputs": [
        {
          "internalType": "uint256",
          "name": "assignmentId",
          "type": "uint256"
        },
        {
          "internalType": "address",
          "name": "worker",
          "type": "address"
        },
        {
          "internalType": "bool",
          "name": "allow",
          "type": "bool"
        }
      ],
      "name": "grantAssignment",
      "outputs": [
        {
          "internalType": "bool",
          "name": "",
          "type": "bool"
        }
      ],
      "stateMutability": "nonpayable",
      "type": "function"
    },
    {
      "inputs": [
        {
          "internalType": "uint256",
          "name": "assignmentId",
          "type": "uint256"
        },
        {
          "internalType": "address",
          "name": "worker",
          "type": "address"
        }
      ],
      "name": "applyTo",
      "outputs": [
        {
          "internalType": "bool",
          "name": "",
          "type": "bool"
        }
      ],
      "stateMutability": "nonpayable",
      "type": "function"
    },
    {
      "inputs": [
        {
          "internalType": "address payable",
          "name": "payee",
          "type": "address"
        }
      ],
      "name": "withdraw",
      "outputs": [
        {
          "internalType": "bool",
          "name": "",
          "type": "bool"
        }
      ],
      "stateMutability": "nonpayable",
      "type": "function"
    }
  ],
  "bytecode": "0x60806040523480156200001157600080fd5b506040516200240b3803806200240b8339818101604052810190620000379190620000d6565b80600160006101000a81548173ffffffffffffffffffffffffffffffffffffffff021916908373ffffffffffffffffffffffffffffffffffffffff160217905550336000806101000a81548173ffffffffffffffffffffffffffffffffffffffff021916908373ffffffffffffffffffffffffffffffffffffffff1602179055505062000150565b600081519050620000d08162000136565b92915050565b600060208284031215620000e957600080fd5b6000620000f984828501620000bf565b91505092915050565b60006200010f8262000116565b9050919050565b600073ffffffffffffffffffffffffffffffffffffffff82169050919050565b620001418162000102565b81146200014d57600080fd5b50565b6122ab80620001606000396000f3fe60806040526004361061009c5760003560e01c80637d2dc330116100645780637d2dc330146101da578063b337f4cc14610205578063c29a35e914610242578063d87ef0c31461027f578063dc72cdbe146102bc578063eff9f433146102f95761009c565b80631ca58f9c146100a15780633b4313cb146100de5780634048a2571461011b5780634e50c75c1461015d57806351cff8d91461019d575b600080fd5b3480156100ad57600080fd5b506100c860048036038101906100c39190611a19565b610329565b6040516100d59190611e49565b60405180910390f35b3480156100ea57600080fd5b50610105600480360381019061010091906118e3565b61075e565b604051610112919061204e565b60405180910390f35b34801561012757600080fd5b50610142600480360381019061013d91906118e3565b610776565b60405161015496959493929190611e7f565b60405180910390f35b34801561016957600080fd5b50610184600480360381019061017f91906119b4565b61092f565b6040516101949493929190611e04565b60405180910390f35b3480156101a957600080fd5b506101c460048036038101906101bf919061190c565b61097f565b6040516101d19190611e49565b60405180910390f35b3480156101e657600080fd5b506101ef610b6c565b6040516101fc9190611e64565b60405180910390f35b34801561021157600080fd5b5061022c60048036038101906102279190611a19565b610b92565b6040516102399190611e49565b60405180910390f35b34801561024e57600080fd5b50610269600480360381019061026491906118e3565b610fc7565b6040516102769190611e49565b60405180910390f35b34801561028b57600080fd5b506102a660048036038101906102a19190611935565b6110f2565b6040516102b3919061204e565b60405180910390f35b3480156102c857600080fd5b506102e360048036038101906102de91906119dd565b611356565b6040516102f09190611e49565b60405180910390f35b610313600480360381019061030e91906119dd565b611665565b604051610320919061204e565b60405180910390f35b60008273ffffffffffffffffffffffffffffffffffffffff166008600086815260200190815260200160002060000160009054906101000a900473ffffffffffffffffffffffffffffffffffffffff1673ffffffffffffffffffffffffffffffffffffffff1614156103d0576040517f08c379a00000000000000000000000000000000000000000000000000000000081526004016103c790611f2e565b60405180910390fd5b60011515600960008573ffffffffffffffffffffffffffffffffffffffff1673ffffffffffffffffffffffffffffffffffffffff16815260200190815260200160002060010160149054906101000a900460ff16151514610466576040517f08c379a000000000000000000000000000000000000000000000000000000000815260040161045d90611fce565b60405180910390fd5b6002600681111561047357fe5b6008600086815260200190815260200160002060020154146104ca576040517f08c379a00000000000000000000000000000000000000000000000000000000081526004016104c190611fee565b60405180910390fd5b600260058111156104d757fe5b600960008573ffffffffffffffffffffffffffffffffffffffff1673ffffffffffffffffffffffffffffffffffffffff168152602001908152602001600020600301541461055a576040517f08c379a000000000000000000000000000000000000000000000000000000000815260040161055190611eee565b60405180910390fd5b83600a60008573ffffffffffffffffffffffffffffffffffffffff1673ffffffffffffffffffffffffffffffffffffffff16815260200190815260200160002054146105db576040517f08c379a00000000000000000000000000000000000000000000000000000000081526004016105d290611f4e565b60405180910390fd5b811561069c57600460068111156105ee57fe5b600960008573ffffffffffffffffffffffffffffffffffffffff1673ffffffffffffffffffffffffffffffffffffffff168152602001908152602001600020600301819055506004600581111561064157fe5b60086000868152602001908152602001600020600201819055507f6deb048d6ac116185c7e67e83bb46eed4a44c0992baae29d20af7cd54efda7638484600160405161068f93929190612092565b60405180910390a1610753565b600360068111156106a957fe5b600960008573ffffffffffffffffffffffffffffffffffffffff1673ffffffffffffffffffffffffffffffffffffffff16815260200190815260200160002060030181905550600060058111156106fc57fe5b60086000868152602001908152602001600020600201819055507f6deb048d6ac116185c7e67e83bb46eed4a44c0992baae29d20af7cd54efda7638484600060405161074a93929190612092565b60405180910390a15b600190509392505050565b600a6020528060005260406000206000915090505481565b6009602052806000526040600020600091509050806000018054600181600116156101000203166002900480601f0160208091040260200160405190810160405280929190818152602001828054600181600116156101000203166002900480156108225780601f106107f757610100808354040283529160200191610822565b820191906000526020600020905b81548152906001019060200180831161080557829003601f168201915b5050505050908060010160009054906101000a900473ffffffffffffffffffffffffffffffffffffffff16908060010160149054906101000a900460ff1690806002018054600181600116156101000203166002900480601f0160208091040260200160405190810160405280929190818152602001828054600181600116156101000203166002900480156108f95780601f106108ce576101008083540402835291602001916108f9565b820191906000526020600020905b8154815290600101906020018083116108dc57829003601f168201915b5050505050908060030154908060040160009054906101000a900473ffffffffffffffffffffffffffffffffffffffff16905086565b60086020528060005260406000206000915090508060000160009054906101000a900473ffffffffffffffffffffffffffffffffffffffff16908060010154908060020154908060030154905084565b60008060086000600a60008673ffffffffffffffffffffffffffffffffffffffff1673ffffffffffffffffffffffffffffffffffffffff1681526020019081526020016000205481526020019081526020016000206003015411610a18576040517f08c379a0000000000000000000000000000000000000000000000000000000008152600401610a0f90611f8e565b60405180910390fd5b600060086000600a60008673ffffffffffffffffffffffffffffffffffffffff1673ffffffffffffffffffffffffffffffffffffffff168152602001908152602001600020548152602001908152602001600020600301549050600060086000600a60008773ffffffffffffffffffffffffffffffffffffffff1673ffffffffffffffffffffffffffffffffffffffff168152602001908152602001600020548152602001908152602001600020600301819055508273ffffffffffffffffffffffffffffffffffffffff166108fc829081150290604051600060405180830381858888f19350505050158015610b13573d6000803e3d6000fd5b508273ffffffffffffffffffffffffffffffffffffffff167f7084f5476618d8e60b11ef0d7d3f06914655adb8793e28ff7f018d4c76d505d582604051610b5a919061204e565b60405180910390a26001915050919050565b600160009054906101000a900473ffffffffffffffffffffffffffffffffffffffff1681565b60008273ffffffffffffffffffffffffffffffffffffffff166008600086815260200190815260200160002060000160009054906101000a900473ffffffffffffffffffffffffffffffffffffffff1673ffffffffffffffffffffffffffffffffffffffff161415610c39576040517f08c379a0000000000000000000000000000000000000000000000000000000008152600401610c3090611f2e565b60405180910390fd5b60011515600960008573ffffffffffffffffffffffffffffffffffffffff1673ffffffffffffffffffffffffffffffffffffffff16815260200190815260200160002060010160149054906101000a900460ff16151514610ccf576040517f08c379a0000000000000000000000000000000000000000000000000000000008152600401610cc690611fce565b60405180910390fd5b60016006811115610cdc57fe5b600860008681526020019081526020016000206002015414610d33576040517f08c379a0000000000000000000000000000000000000000000000000000000008152600401610d2a90611fee565b60405180910390fd5b60016005811115610d4057fe5b600960008573ffffffffffffffffffffffffffffffffffffffff1673ffffffffffffffffffffffffffffffffffffffff1681526020019081526020016000206003015414610dc3576040517f08c379a0000000000000000000000000000000000000000000000000000000008152600401610dba90611eee565b60405180910390fd5b83600a60008573ffffffffffffffffffffffffffffffffffffffff1673ffffffffffffffffffffffffffffffffffffffff1681526020019081526020016000205414610e44576040517f08c379a0000000000000000000000000000000000000000000000000000000008152600401610e3b90611f4e565b60405180910390fd5b8115610f055760026006811115610e5757fe5b600960008573ffffffffffffffffffffffffffffffffffffffff1673ffffffffffffffffffffffffffffffffffffffff1681526020019081526020016000206003018190555060026005811115610eaa57fe5b60086000868152602001908152602001600020600201819055507faff008a44d72f7b60baf3d36ba440fe5f9c1fa222b9d6c343fe41c266da3f19484846001604051610ef893929190612092565b60405180910390a1610fbc565b60036006811115610f1257fe5b600960008573ffffffffffffffffffffffffffffffffffffffff1673ffffffffffffffffffffffffffffffffffffffff1681526020019081526020016000206003018190555060006005811115610f6557fe5b60086000868152602001908152602001600020600201819055507faff008a44d72f7b60baf3d36ba440fe5f9c1fa222b9d6c343fe41c266da3f19484846000604051610fb393929190612092565b60405180910390a15b600190509392505050565b60003373ffffffffffffffffffffffffffffffffffffffff1660008054906101000a900473ffffffffffffffffffffffffffffffffffffffff1673ffffffffffffffffffffffffffffffffffffffff1614611057576040517f08c379a000000000000000000000000000000000000000000000000000000000815260040161104e9061202e565b60405180910390fd5b6001600960008473ffffffffffffffffffffffffffffffffffffffff1673ffffffffffffffffffffffffffffffffffffffff16815260200190815260200160002060010160146101000a81548160ff0219169083151502179055507fa6625d2d26e786e2f473111bea4b2fcdbbf1863d883a2359989ce3a103d2972a826040516110e19190611de9565b60405180910390a160019050919050565b60008073ffffffffffffffffffffffffffffffffffffffff168273ffffffffffffffffffffffffffffffffffffffff161415611163576040517f08c379a000000000000000000000000000000000000000000000000000000000815260040161115a9061200e565b60405180910390fd5b6040518060c001604052808581526020013373ffffffffffffffffffffffffffffffffffffffff168152602001600015158152602001848152602001600060058111156111ac57fe5b81526020018373ffffffffffffffffffffffffffffffffffffffff16815250600960003373ffffffffffffffffffffffffffffffffffffffff1673ffffffffffffffffffffffffffffffffffffffff168152602001908152602001600020600082015181600001908051906020019061122692919061177c565b5060208201518160010160006101000a81548173ffffffffffffffffffffffffffffffffffffffff021916908373ffffffffffffffffffffffffffffffffffffffff16021790555060408201518160010160146101000a81548160ff02191690831515021790555060608201518160020190805190602001906112aa92919061177c565b506080820151816003015560a08201518160040160006101000a81548173ffffffffffffffffffffffffffffffffffffffff021916908373ffffffffffffffffffffffffffffffffffffffff1602179055509050506002600081548092919060010191905055507f8dc58b337fe08e4cfe6ec7f8befd6775a2e03ea30da72d8735e424268cb03d2d600254604051611342919061204e565b60405180910390a160025490509392505050565b600060011515600960008473ffffffffffffffffffffffffffffffffffffffff1673ffffffffffffffffffffffffffffffffffffffff16815260200190815260200160002060010160149054906101000a900460ff161515146113ee576040517f08c379a00000000000000000000000000000000000000000000000000000000081526004016113e590611fce565b60405180910390fd5b600060068111156113fb57fe5b600860008581526020019081526020016000206002015414611452576040517f08c379a000000000000000000000000000000000000000000000000000000000815260040161144990611f6e565b60405180910390fd5b6000600581111561145f57fe5b600960008473ffffffffffffffffffffffffffffffffffffffff1673ffffffffffffffffffffffffffffffffffffffff16815260200190815260200160002060030154146114e2576040517f08c379a00000000000000000000000000000000000000000000000000000000081526004016114d990611f0e565b60405180910390fd5b6000600a60008473ffffffffffffffffffffffffffffffffffffffff1673ffffffffffffffffffffffffffffffffffffffff1681526020019081526020016000205414611564576040517f08c379a000000000000000000000000000000000000000000000000000000000815260040161155b90611fae565b60405180910390fd5b82600a60008473ffffffffffffffffffffffffffffffffffffffff1673ffffffffffffffffffffffffffffffffffffffff16815260200190815260200160002081905550600160068111156115b557fe5b600960008473ffffffffffffffffffffffffffffffffffffffff1673ffffffffffffffffffffffffffffffffffffffff168152602001908152602001600020600301819055506001600581111561160857fe5b60086000858152602001908152602001600020600201819055507f33a8c4de991c94a2aafb36d8e811ff1cb0ed6f0bf6c2f341f33f7ef02fce5a8a8383604051611653929190612069565b60405180910390a16001905092915050565b60008034905060405180608001604052808473ffffffffffffffffffffffffffffffffffffffff168152602001858152602001600060068111156116a557fe5b8152602001348152506008600086815260200190815260200160002060008201518160000160006101000a81548173ffffffffffffffffffffffffffffffffffffffff021916908373ffffffffffffffffffffffffffffffffffffffff1602179055506020820151816001015560408201518160020155606082015181600301559050506003600081548092919060010191905055507f06acbfb32bcf8383f3b0a768b70ac9ec234ea0f2d3b9c77fa6a2de69b919aad18460405161176a919061204e565b60405180910390a18391505092915050565b828054600181600116156101000203166002900490600052602060002090601f0160209004810192826117b257600085556117f9565b82601f106117cb57805160ff19168380011785556117f9565b828001600101855582156117f9579182015b828111156117f85782518255916020019190600101906117dd565b5b509050611806919061180a565b5090565b5b8082111561182357600081600090555060010161180b565b5090565b600061183a611835846120fa565b6120c9565b90508281526020810184848401111561185257600080fd5b61185d8482856121c4565b509392505050565b60008135905061187481612219565b92915050565b60008135905061188981612230565b92915050565b60008135905061189e81612247565b92915050565b600082601f8301126118b557600080fd5b81356118c5848260208601611827565b91505092915050565b6000813590506118dd8161225e565b92915050565b6000602082840312156118f557600080fd5b600061190384828501611865565b91505092915050565b60006020828403121561191e57600080fd5b600061192c8482850161187a565b91505092915050565b60008060006060848603121561194a57600080fd5b600084013567ffffffffffffffff81111561196457600080fd5b611970868287016118a4565b935050602084013567ffffffffffffffff81111561198d57600080fd5b611999868287016118a4565b92505060406119aa86828701611865565b9150509250925092565b6000602082840312156119c657600080fd5b60006119d4848285016118ce565b91505092915050565b600080604083850312156119f057600080fd5b60006119fe858286016118ce565b9250506020611a0f85828601611865565b9150509250929050565b600080600060608486031215611a2e57600080fd5b6000611a3c868287016118ce565b9350506020611a4d86828701611865565b9250506040611a5e8682870161188f565b9150509250925092565b611a7181612146565b82525050565b611a808161216a565b82525050565b611a8f816121a0565b82525050565b6000611aa08261212a565b611aaa8185612135565b9350611aba8185602086016121d3565b611ac381612208565b840191505092915050565b6000611adb601c83612135565b91507f576f726b6572206d75737420686173206265656e206170706c696564000000006000830152602082019050919050565b6000611b1b602183612135565b91507f576f726b657220616c726561647920626f6f6b6564206f72206170706c79696e60008301527f67000000000000000000000000000000000000000000000000000000000000006020830152604082019050919050565b6000611b81602583612135565b91507f5461736b206f776e65722063616e6e6f742062652061737369676e6d656e742060008301527f6f776e65720000000000000000000000000000000000000000000000000000006020830152604082019050919050565b6000611be7601d83612135565b91507f41737369676e6d656e74206e6f7420666f756e6420696e207461736b730000006000830152602082019050919050565b6000611c27601e83612135565b91507f41737369676e6d656e7420616c726561647920696e2070726f677265737300006000830152602082019050919050565b6000611c67600e83612135565b91507f496e76616c6964206163636573730000000000000000000000000000000000006000830152602082019050919050565b6000611ca7601983612135565b91507f41737369676e6d656e7420616c726561647920626f6f6b6564000000000000006000830152602082019050919050565b6000611ce7601c83612135565b91507f576f726b657220686173206e6f74206265656e207665726966696564000000006000830152602082019050919050565b6000611d27601a83612135565b91507f41737369676e6d656e74206d7573742062652070656e64696e670000000000006000830152602082019050919050565b6000611d67601783612135565b91507f496e76616c6964207061796d656e7420616464726573730000000000000000006000830152602082019050919050565b6000611da7601083612135565b91507f4d75737420626520616e2061646d696e000000000000000000000000000000006000830152602082019050919050565b611de381612196565b82525050565b6000602082019050611dfe6000830184611a68565b92915050565b6000608082019050611e196000830187611a68565b611e266020830186611dda565b611e336040830185611dda565b611e406060830184611dda565b95945050505050565b6000602082019050611e5e6000830184611a77565b92915050565b6000602082019050611e796000830184611a86565b92915050565b600060c0820190508181036000830152611e998189611a95565b9050611ea86020830188611a68565b611eb56040830187611a77565b8181036060830152611ec78186611a95565b9050611ed66080830185611dda565b611ee360a0830184611a68565b979650505050505050565b60006020820190508181036000830152611f0781611ace565b9050919050565b60006020820190508181036000830152611f2781611b0e565b9050919050565b60006020820190508181036000830152611f4781611b74565b9050919050565b60006020820190508181036000830152611f6781611bda565b9050919050565b60006020820190508181036000830152611f8781611c1a565b9050919050565b60006020820190508181036000830152611fa781611c5a565b9050919050565b60006020820190508181036000830152611fc781611c9a565b9050919050565b60006020820190508181036000830152611fe781611cda565b9050919050565b6000602082019050818103600083015261200781611d1a565b9050919050565b6000602082019050818103600083015261202781611d5a565b9050919050565b6000602082019050818103600083015261204781611d9a565b9050919050565b60006020820190506120636000830184611dda565b92915050565b600060408201905061207e6000830185611dda565b61208b6020830184611a68565b9392505050565b60006060820190506120a76000830186611dda565b6120b46020830185611a68565b6120c16040830184611a77565b949350505050565b6000604051905081810181811067ffffffffffffffff821117156120f0576120ef612206565b5b8060405250919050565b600067ffffffffffffffff82111561211557612114612206565b5b601f19601f8301169050602081019050919050565b600081519050919050565b600082825260208201905092915050565b600061215182612176565b9050919050565b600061216382612176565b9050919050565b60008115159050919050565b600073ffffffffffffffffffffffffffffffffffffffff82169050919050565b6000819050919050565b60006121ab826121b2565b9050919050565b60006121bd82612176565b9050919050565b82818337600083830152505050565b60005b838110156121f15780820151818401526020810190506121d6565b83811115612200576000848401525b50505050565bfe5b6000601f19601f8301169050919050565b61222281612146565b811461222d57600080fd5b50565b61223981612158565b811461224457600080fd5b50565b6122508161216a565b811461225b57600080fd5b50565b61226781612196565b811461227257600080fd5b5056fea2646970667358221220f474bdec6737c858fd6557d66e2c0d680097d1cf23de11c0f7a063ca1b9d29a764736f6c63430007060033",
  "immutableReferences": {},
  "source": "pragma solidity ^0.7.0;\npragma experimental ABIEncoderV2;\n\nimport \"./RelayJob.sol\";\nimport \"./MinLibBytes.sol\";\nimport \"./MessageRoute.sol\";\nimport \"./Whitelist.sol\";\n\ncontract Maintainer {\n    address private owner;\n    RelayJob public relayJob;\n\n    event UserVerified(address worker);\n    event AssignmentApplied(uint256 id, address workerAddress);\n    event AssignmentGranted(uint256 id, address workerAddress, bool granted);\n    event AssignmentResolved(uint256 id, address workerAddress, bool resolved);\n    event AssignmentConfirmed(uint256 id, address workerAddress, bool granted);\n    event AssignmentPayout(uint256 id, address workerAddress, bool granted);\n    event Created(uint256 id);\n    event WorkerEnrolled(uint256 id);\n    event Withdrawn(address indexed payee, uint256 weiAmount);\n\n    enum WorkerStatus {IDLE, APPLIED_TO, BOOKED, IN_PROGRESS, PENDING_PAYMENT, INACTIVE}\n\n    struct Worker {\n        string name;\n        address owner;\n        bool verified;\n        string metadataURI;\n        uint256 status;\n        address accountsPayable;\n    }\n\n    enum AssignmentStatus {\n        INIT,\n        PENDING,\n        IN_PROGRESS,\n        REJECTED,\n        RESOLVED,\n        PAYOUT,\n        CANCELLED\n    }\n\n    struct Assignment {\n        address owner;\n        uint256 relayJobId;\n        uint256 status;\n        uint256 depositAmount;\n    }\n\n    // Worker count\n    uint256 private workerCount;\n\n    // Assignment count\n    uint256 private assignmentCount;\n\n    // Worker accounting\n\n    mapping(address => uint256) private workerAccounting;\n\n    // Total worker accounting\n\n    uint256 private totalWorkerAccounting;\n\n    // Assingment accounting\n\n    mapping(uint256 => uint256) private assignmentAccounting;\n\n    // Total assignment accounting\n\n    uint256 private totalAssignmentAccounting;\n\n    // Assignments\n    mapping(uint256 => Assignment) public assignments;\n\n    // Workers\n    mapping(address => Worker) public workers;\n\n    // Worker assign to a task\n    mapping(address => uint256) public workerTasks;\n\n    constructor(address _relayJob) public {\n        relayJob = RelayJob(_relayJob);\n        owner = msg.sender;\n    }\n\n    /**\n     * @dev Creates an assignment given a new job id\n     * @param relayJobId The job id.\n     */\n    function createAssignmentAndEscrow(uint256 relayJobId, address caller)\n        public\n        payable\n        virtual\n        returns (uint256)\n    {\n        uint256 amount = msg.value;\n        assignments[relayJobId] = Assignment({\n            relayJobId: relayJobId,\n            status: uint256(AssignmentStatus.INIT),\n            depositAmount: msg.value,\n            owner: caller\n        });\n        assignmentCount++;\n        // todo: transfer\n        emit Created(relayJobId);\n        return relayJobId;\n    }\n\n    /**\n     * @dev Enroll as worker\n     * @param name Worker name\n     * @param metadataURI VC or Document hash\n     * @param paymentAddress Payment addresss\n     */\n    function enroll(\n        string memory name,\n        string memory metadataURI,\n        address paymentAddress\n    ) public virtual returns (uint256) {\n        require(paymentAddress != address(0), \"Invalid payment address\");\n        workers[msg.sender] = Worker({\n            name: name,\n            accountsPayable: paymentAddress,\n            status: uint256(WorkerStatus.IDLE),\n            metadataURI: metadataURI,\n            verified: false,\n            owner: msg.sender\n        });\n        workerCount++;\n        emit WorkerEnrolled(workerCount);\n        return workerCount;\n    }\n\n\n    /**\n     * @dev set outcome for assignment\n     * @param assignmentId Assignment Id\n     * @param worker Worker address\n     */\n    function setOutcomeAssignment(\n        uint256 assignmentId,\n        address worker,\n        bool allow\n    ) public virtual returns (bool) {\n        // task owner can't be a worker\n        require(\n            assignments[assignmentId].owner != worker,\n            \"Task owner cannot be assignment owner\"\n        );\n\n        // is worker registered\n        require(\n            workers[worker].verified == true,\n            \"Worker has not been verified\"\n        );\n\n        // is assignment available\n        require(\n            assignments[assignmentId].status ==\n                uint256(AssignmentStatus.IN_PROGRESS),\n            \"Assignment must be pending\"\n        );\n\n        // is worker available\n        require(\n            workers[worker].status == uint256(WorkerStatus.BOOKED),\n            \"Worker must has been applied\"\n        );\n\n        // is worker not found in current tasks\n        require(workerTasks[worker] == assignmentId, \"Assignment not found in tasks\");\n\n        if (allow) {\n        workers[worker].status = uint256(AssignmentStatus.RESOLVED);\n        assignments[assignmentId].status = uint256(WorkerStatus.PENDING_PAYMENT);\n        emit AssignmentResolved(assignmentId, worker, true);\n        } else {\n        workers[worker].status = uint256(AssignmentStatus.REJECTED);\n        assignments[assignmentId].status = uint256(WorkerStatus.IDLE);\n        emit AssignmentResolved(assignmentId, worker, false);\n  \n        }\n        return true;\n    }\n\n    function setVerifyUser(\n        address worker\n    ) public returns(bool) {\n        require(owner == msg.sender, \"Must be an admin\");\n\n        workers[worker].verified = true;\n        emit UserVerified(worker);\n        return true;\n    }\n    /**\n     * @dev grant assignment\n     * @param assignmentId Assignment Id\n     * @param worker Worker address\n     */\n    function grantAssignment(\n        uint256 assignmentId,\n        address worker,\n        bool allow\n    ) public virtual returns (bool) {\n        // task owner can't be a worker\n        require(\n            assignments[assignmentId].owner != worker,\n            \"Task owner cannot be assignment owner\"\n        );\n\n        // is worker registered\n        require(\n            workers[worker].verified == true,\n            \"Worker has not been verified\"\n        );\n\n        // is assignment available\n        require(\n            assignments[assignmentId].status ==\n                uint256(AssignmentStatus.PENDING),\n            \"Assignment must be pending\"\n        );\n\n        // is worker available\n        require(\n            workers[worker].status == uint256(WorkerStatus.APPLIED_TO),\n            \"Worker must has been applied\"\n        );\n\n        // is worker not found in current tasks\n        require(workerTasks[worker] == assignmentId, \"Assignment not found in tasks\");\n\n        if (allow) {\n        workers[worker].status = uint256(AssignmentStatus.IN_PROGRESS);\n        assignments[assignmentId].status = uint256(WorkerStatus.BOOKED);\n        emit AssignmentGranted(assignmentId, worker, true);\n        } else {\n        workers[worker].status = uint256(AssignmentStatus.REJECTED);\n        assignments[assignmentId].status = uint256(WorkerStatus.IDLE);\n        emit AssignmentGranted(assignmentId, worker, false);\n  \n        }\n        return true;\n    }\n\n    /**\n     * @dev apply for assignment\n     * @param assignmentId Assignment Id\n     * @param worker Worker address\n     */\n    function applyTo(uint256 assignmentId, address worker)\n        public\n        virtual\n        returns (bool)\n    {\n        // is worker registered\n        require(\n            workers[worker].verified == true,\n            \"Worker has not been verified\"\n        );\n\n        // is assignment available\n        require(\n            assignments[assignmentId].status == uint256(AssignmentStatus.INIT),\n            \"Assignment already in progress\"\n        );\n\n        // is worker available\n        require(\n            workers[worker].status == uint256(WorkerStatus.IDLE),\n            \"Worker already booked or applying\"\n        );\n\n        // is worker not found in current tasks\n        require(workerTasks[worker] == 0, \"Assignment already booked\");\n\n        // assign worker to task\n        workerTasks[worker] = assignmentId;\n\n        workers[worker].status = uint256(AssignmentStatus.PENDING);\n        assignments[assignmentId].status = uint256(WorkerStatus.APPLIED_TO);\n\n        emit AssignmentApplied(assignmentId, worker);\n        return true;\n    }\n\n    /**\n     * @dev Withdraw accumulated balance for a payee, forwarding all gas to the\n     * recipient.\n     *\n     * WARNING: Forwarding all gas opens the door to reentrancy vulnerabilities.\n     * Make sure you trust the recipient, or are either following the\n     * checks-effects-interactions pattern or using {ReentrancyGuard}.\n     *\n     * @param payee The address whose funds will be withdrawn and transferred to.\n     */\n    function withdraw(address payable payee) public returns (bool) {\n        require(assignments[workerTasks[payee]].depositAmount > 0, \"Invalid access\");\n        uint256 payment = assignments[workerTasks[payee]].depositAmount;\n        assignments[workerTasks[payee]].depositAmount = 0;\n        payee.transfer(payment);\n\n        emit Withdrawn(payee, payment);\n\n        return true;\n    }\n}\n",
  "sourcePath": "/home/rogelio/Code/xdv/electronic-sa-contracts/contracts/Maintainer.sol",
  "compiler": {
    "name": "solc",
    "version": "0.7.6+commit.7338295f.Emscripten.clang"
  },
  "schemaVersion": "3.3.3",
  "updatedAt": "2021-02-16T18:23:08.347Z",
  "networkType": "ethereum",
  "devdoc": {
    "kind": "dev",
    "methods": {
      "applyTo(uint256,address)": {
        "details": "apply for assignment",
        "params": {
          "assignmentId": "Assignment Id",
          "worker": "Worker address"
        }
      },
      "createAssignmentAndEscrow(uint256,address)": {
        "details": "Creates an assignment given a new job id",
        "params": {
          "relayJobId": "The job id."
        }
      },
      "enroll(string,string,address)": {
        "details": "Enroll as worker",
        "params": {
          "metadataURI": "VC or Document hash",
          "name": "Worker name",
          "paymentAddress": "Payment addresss"
        }
      },
      "grantAssignment(uint256,address,bool)": {
        "details": "grant assignment",
        "params": {
          "assignmentId": "Assignment Id",
          "worker": "Worker address"
        }
      },
      "setOutcomeAssignment(uint256,address,bool)": {
        "details": "set outcome for assignment",
        "params": {
          "assignmentId": "Assignment Id",
          "worker": "Worker address"
        }
      },
      "withdraw(address)": {
        "details": "Withdraw accumulated balance for a payee, forwarding all gas to the recipient. WARNING: Forwarding all gas opens the door to reentrancy vulnerabilities. Make sure you trust the recipient, or are either following the checks-effects-interactions pattern or using {ReentrancyGuard}.",
        "params": {
          "payee": "The address whose funds will be withdrawn and transferred to."
        }
      }
    },
    "version": 1
  },
  "userdoc": {
    "kind": "user",
    "methods": {},
    "version": 1
  }
}