{
  "contractName": "Maintainer",
  "abi": [
    {
      "inputs": [
        {
          "internalType": "address",
          "name": "_relayJob",
          "type": "address"
        },
        {
          "internalType": "address",
          "name": "tokenAddress",
          "type": "address"
        }
      ],
      "stateMutability": "nonpayable",
      "type": "constructor"
    },
    {
      "anonymous": false,
      "inputs": [
        {
          "indexed": false,
          "internalType": "uint256",
          "name": "id",
          "type": "uint256"
        },
        {
          "indexed": false,
          "internalType": "address",
          "name": "workerAddress",
          "type": "address"
        }
      ],
      "name": "AssignmentApplied",
      "type": "event"
    },
    {
      "anonymous": false,
      "inputs": [
        {
          "indexed": false,
          "internalType": "uint256",
          "name": "id",
          "type": "uint256"
        },
        {
          "indexed": false,
          "internalType": "address",
          "name": "workerAddress",
          "type": "address"
        },
        {
          "indexed": false,
          "internalType": "bool",
          "name": "granted",
          "type": "bool"
        }
      ],
      "name": "AssignmentConfirmed",
      "type": "event"
    },
    {
      "anonymous": false,
      "inputs": [
        {
          "indexed": false,
          "internalType": "uint256",
          "name": "id",
          "type": "uint256"
        },
        {
          "indexed": false,
          "internalType": "address",
          "name": "workerAddress",
          "type": "address"
        },
        {
          "indexed": false,
          "internalType": "bool",
          "name": "granted",
          "type": "bool"
        }
      ],
      "name": "AssignmentGranted",
      "type": "event"
    },
    {
      "anonymous": false,
      "inputs": [
        {
          "indexed": false,
          "internalType": "uint256",
          "name": "id",
          "type": "uint256"
        },
        {
          "indexed": false,
          "internalType": "address",
          "name": "workerAddress",
          "type": "address"
        },
        {
          "indexed": false,
          "internalType": "bool",
          "name": "granted",
          "type": "bool"
        }
      ],
      "name": "AssignmentPayout",
      "type": "event"
    },
    {
      "anonymous": false,
      "inputs": [
        {
          "indexed": false,
          "internalType": "uint256",
          "name": "id",
          "type": "uint256"
        },
        {
          "indexed": false,
          "internalType": "address",
          "name": "workerAddress",
          "type": "address"
        },
        {
          "indexed": false,
          "internalType": "bool",
          "name": "resolved",
          "type": "bool"
        }
      ],
      "name": "AssignmentResolved",
      "type": "event"
    },
    {
      "anonymous": false,
      "inputs": [
        {
          "indexed": false,
          "internalType": "uint256",
          "name": "id",
          "type": "uint256"
        }
      ],
      "name": "Created",
      "type": "event"
    },
    {
      "anonymous": false,
      "inputs": [
        {
          "indexed": false,
          "internalType": "address",
          "name": "worker",
          "type": "address"
        }
      ],
      "name": "UserVerified",
      "type": "event"
    },
    {
      "anonymous": false,
      "inputs": [
        {
          "indexed": true,
          "internalType": "address",
          "name": "payee",
          "type": "address"
        },
        {
          "indexed": false,
          "internalType": "uint256",
          "name": "weiAmount",
          "type": "uint256"
        }
      ],
      "name": "Withdrawn",
      "type": "event"
    },
    {
      "anonymous": false,
      "inputs": [
        {
          "indexed": false,
          "internalType": "uint256",
          "name": "id",
          "type": "uint256"
        }
      ],
      "name": "WorkerEnrolled",
      "type": "event"
    },
    {
      "inputs": [
        {
          "internalType": "uint256",
          "name": "",
          "type": "uint256"
        }
      ],
      "name": "assignments",
      "outputs": [
        {
          "internalType": "address",
          "name": "owner",
          "type": "address"
        },
        {
          "internalType": "uint256",
          "name": "relayJobId",
          "type": "uint256"
        },
        {
          "internalType": "uint256",
          "name": "status",
          "type": "uint256"
        },
        {
          "internalType": "uint256",
          "name": "depositAmount",
          "type": "uint256"
        }
      ],
      "stateMutability": "view",
      "type": "function",
      "constant": true
    },
    {
      "inputs": [],
      "name": "relayJob",
      "outputs": [
        {
          "internalType": "contract RelayJob",
          "name": "",
          "type": "address"
        }
      ],
      "stateMutability": "view",
      "type": "function",
      "constant": true
    },
    {
      "inputs": [
        {
          "internalType": "address",
          "name": "",
          "type": "address"
        }
      ],
      "name": "workerTasks",
      "outputs": [
        {
          "internalType": "uint256",
          "name": "",
          "type": "uint256"
        }
      ],
      "stateMutability": "view",
      "type": "function",
      "constant": true
    },
    {
      "inputs": [
        {
          "internalType": "address",
          "name": "",
          "type": "address"
        }
      ],
      "name": "workers",
      "outputs": [
        {
          "internalType": "string",
          "name": "name",
          "type": "string"
        },
        {
          "internalType": "address",
          "name": "owner",
          "type": "address"
        },
        {
          "internalType": "bool",
          "name": "verified",
          "type": "bool"
        },
        {
          "internalType": "string",
          "name": "metadataURI",
          "type": "string"
        },
        {
          "internalType": "uint256",
          "name": "status",
          "type": "uint256"
        },
        {
          "internalType": "address",
          "name": "accountsPayable",
          "type": "address"
        }
      ],
      "stateMutability": "view",
      "type": "function",
      "constant": true
    },
    {
      "inputs": [
        {
          "internalType": "uint256",
          "name": "relayJobId",
          "type": "uint256"
        },
        {
          "internalType": "address",
          "name": "caller",
          "type": "address"
        },
        {
          "internalType": "uint256",
          "name": "amount",
          "type": "uint256"
        }
      ],
      "name": "createAssignmentAndEscrow",
      "outputs": [
        {
          "internalType": "uint256",
          "name": "",
          "type": "uint256"
        }
      ],
      "stateMutability": "payable",
      "type": "function",
      "payable": true
    },
    {
      "inputs": [
        {
          "internalType": "string",
          "name": "name",
          "type": "string"
        },
        {
          "internalType": "string",
          "name": "metadataURI",
          "type": "string"
        },
        {
          "internalType": "address",
          "name": "paymentAddress",
          "type": "address"
        }
      ],
      "name": "enroll",
      "outputs": [
        {
          "internalType": "uint256",
          "name": "",
          "type": "uint256"
        }
      ],
      "stateMutability": "nonpayable",
      "type": "function"
    },
    {
      "inputs": [
        {
          "internalType": "uint256",
          "name": "assignmentId",
          "type": "uint256"
        },
        {
          "internalType": "address",
          "name": "worker",
          "type": "address"
        },
        {
          "internalType": "bool",
          "name": "allow",
          "type": "bool"
        }
      ],
      "name": "setOutcomeAssignment",
      "outputs": [
        {
          "internalType": "bool",
          "name": "",
          "type": "bool"
        }
      ],
      "stateMutability": "nonpayable",
      "type": "function"
    },
    {
      "inputs": [
        {
          "internalType": "address",
          "name": "worker",
          "type": "address"
        }
      ],
      "name": "setVerifyUser",
      "outputs": [
        {
          "internalType": "bool",
          "name": "",
          "type": "bool"
        }
      ],
      "stateMutability": "nonpayable",
      "type": "function"
    },
    {
      "inputs": [
        {
          "internalType": "uint256",
          "name": "assignmentId",
          "type": "uint256"
        },
        {
          "internalType": "address",
          "name": "worker",
          "type": "address"
        },
        {
          "internalType": "bool",
          "name": "allow",
          "type": "bool"
        }
      ],
      "name": "grantAssignment",
      "outputs": [
        {
          "internalType": "bool",
          "name": "",
          "type": "bool"
        }
      ],
      "stateMutability": "nonpayable",
      "type": "function"
    },
    {
      "inputs": [
        {
          "internalType": "uint256",
          "name": "assignmentId",
          "type": "uint256"
        },
        {
          "internalType": "address",
          "name": "worker",
          "type": "address"
        }
      ],
      "name": "applyTo",
      "outputs": [
        {
          "internalType": "bool",
          "name": "",
          "type": "bool"
        }
      ],
      "stateMutability": "nonpayable",
      "type": "function"
    },
    {
      "inputs": [
        {
          "internalType": "address payable",
          "name": "payee",
          "type": "address"
        }
      ],
      "name": "withdraw",
      "outputs": [
        {
          "internalType": "bool",
          "name": "",
          "type": "bool"
        }
      ],
      "stateMutability": "nonpayable",
      "type": "function"
    }
  ],
  "bytecode": "0x60806040523480156200001157600080fd5b5060405162002a8638038062002a86833981810160405281019062000037919062000118565b81600260006101000a81548173ffffffffffffffffffffffffffffffffffffffff021916908373ffffffffffffffffffffffffffffffffffffffff160217905550806000806101000a81548173ffffffffffffffffffffffffffffffffffffffff021916908373ffffffffffffffffffffffffffffffffffffffff16021790555033600160006101000a81548173ffffffffffffffffffffffffffffffffffffffff021916908373ffffffffffffffffffffffffffffffffffffffff1602179055505050620001a7565b60008151905062000112816200018d565b92915050565b600080604083850312156200012c57600080fd5b60006200013c8582860162000101565b92505060206200014f8582860162000101565b9150509250929050565b600062000166826200016d565b9050919050565b600073ffffffffffffffffffffffffffffffffffffffff82169050919050565b620001988162000159565b8114620001a457600080fd5b50565b6128cf80620001b76000396000f3fe60806040526004361061009c5760003560e01c80637d2dc330116100645780637d2dc330146101da5780638b57625014610205578063b337f4cc14610235578063c29a35e914610272578063d87ef0c3146102af578063dc72cdbe146102ec5761009c565b80631ca58f9c146100a15780633b4313cb146100de5780634048a2571461011b5780634e50c75c1461015d57806351cff8d91461019d575b600080fd5b3480156100ad57600080fd5b506100c860048036038101906100c39190611e00565b610329565b6040516100d591906123d7565b60405180910390f35b3480156100ea57600080fd5b5061010560048036038101906101009190611c78565b61075e565b604051610112919061263c565b60405180910390f35b34801561012757600080fd5b50610142600480360381019061013d9190611c78565b610776565b6040516101549695949392919061240d565b60405180910390f35b34801561016957600080fd5b50610184600480360381019061017f9190611d72565b61092f565b6040516101949493929190612392565b60405180910390f35b3480156101a957600080fd5b506101c460048036038101906101bf9190611ca1565b61097f565b6040516101d191906123d7565b60405180910390f35b3480156101e657600080fd5b506101ef610c11565b6040516101fc91906123f2565b60405180910390f35b61021f600480360381019061021a9190611e4f565b610c37565b60405161022c919061263c565b60405180910390f35b34801561024157600080fd5b5061025c60048036038101906102579190611e00565b611012565b60405161026991906123d7565b60405180910390f35b34801561027e57600080fd5b5061029960048036038101906102949190611c78565b611447565b6040516102a691906123d7565b60405180910390f35b3480156102bb57600080fd5b506102d660048036038101906102d19190611cf3565b611574565b6040516102e3919061263c565b60405180910390f35b3480156102f857600080fd5b50610313600480360381019061030e9190611dc4565b6117d8565b60405161032091906123d7565b60405180910390f35b60008273ffffffffffffffffffffffffffffffffffffffff166009600086815260200190815260200160002060000160009054906101000a900473ffffffffffffffffffffffffffffffffffffffff1673ffffffffffffffffffffffffffffffffffffffff1614156103d0576040517f08c379a00000000000000000000000000000000000000000000000000000000081526004016103c7906124fc565b60405180910390fd5b60011515600a60008573ffffffffffffffffffffffffffffffffffffffff1673ffffffffffffffffffffffffffffffffffffffff16815260200190815260200160002060010160149054906101000a900460ff16151514610466576040517f08c379a000000000000000000000000000000000000000000000000000000000815260040161045d9061259c565b60405180910390fd5b6002600681111561047357fe5b6009600086815260200190815260200160002060020154146104ca576040517f08c379a00000000000000000000000000000000000000000000000000000000081526004016104c1906125bc565b60405180910390fd5b600260058111156104d757fe5b600a60008573ffffffffffffffffffffffffffffffffffffffff1673ffffffffffffffffffffffffffffffffffffffff168152602001908152602001600020600301541461055a576040517f08c379a0000000000000000000000000000000000000000000000000000000008152600401610551906124bc565b60405180910390fd5b83600b60008573ffffffffffffffffffffffffffffffffffffffff1673ffffffffffffffffffffffffffffffffffffffff16815260200190815260200160002054146105db576040517f08c379a00000000000000000000000000000000000000000000000000000000081526004016105d29061251c565b60405180910390fd5b811561069c57600460068111156105ee57fe5b600a60008573ffffffffffffffffffffffffffffffffffffffff1673ffffffffffffffffffffffffffffffffffffffff168152602001908152602001600020600301819055506004600581111561064157fe5b60096000868152602001908152602001600020600201819055507f6deb048d6ac116185c7e67e83bb46eed4a44c0992baae29d20af7cd54efda7638484600160405161068f93929190612680565b60405180910390a1610753565b600360068111156106a957fe5b600a60008573ffffffffffffffffffffffffffffffffffffffff1673ffffffffffffffffffffffffffffffffffffffff16815260200190815260200160002060030181905550600060058111156106fc57fe5b60096000868152602001908152602001600020600201819055507f6deb048d6ac116185c7e67e83bb46eed4a44c0992baae29d20af7cd54efda7638484600060405161074a93929190612680565b60405180910390a15b600190509392505050565b600b6020528060005260406000206000915090505481565b600a602052806000526040600020600091509050806000018054600181600116156101000203166002900480601f0160208091040260200160405190810160405280929190818152602001828054600181600116156101000203166002900480156108225780601f106107f757610100808354040283529160200191610822565b820191906000526020600020905b81548152906001019060200180831161080557829003601f168201915b5050505050908060010160009054906101000a900473ffffffffffffffffffffffffffffffffffffffff16908060010160149054906101000a900460ff1690806002018054600181600116156101000203166002900480601f0160208091040260200160405190810160405280929190818152602001828054600181600116156101000203166002900480156108f95780601f106108ce576101008083540402835291602001916108f9565b820191906000526020600020905b8154815290600101906020018083116108dc57829003601f168201915b5050505050908060030154908060040160009054906101000a900473ffffffffffffffffffffffffffffffffffffffff16905086565b60096020528060005260406000206000915090508060000160009054906101000a900473ffffffffffffffffffffffffffffffffffffffff16908060010154908060020154908060030154905084565b60008060096000600b60008673ffffffffffffffffffffffffffffffffffffffff1673ffffffffffffffffffffffffffffffffffffffff1681526020019081526020016000205481526020019081526020016000206003015411610a18576040517f08c379a0000000000000000000000000000000000000000000000000000000008152600401610a0f9061255c565b60405180910390fd5b600060096000600b60008673ffffffffffffffffffffffffffffffffffffffff1673ffffffffffffffffffffffffffffffffffffffff168152602001908152602001600020548152602001908152602001600020600301549050600060096000600b60008773ffffffffffffffffffffffffffffffffffffffff1673ffffffffffffffffffffffffffffffffffffffff1681526020019081526020016000205481526020019081526020016000206003018190555060008054906101000a900473ffffffffffffffffffffffffffffffffffffffff1673ffffffffffffffffffffffffffffffffffffffff1663a9059cbb33836040518363ffffffff1660e01b8152600401610b28929190612309565b602060405180830381600087803b158015610b4257600080fd5b505af1158015610b56573d6000803e3d6000fd5b505050506040513d601f19601f82011682018060405250810190610b7a9190611cca565b610bb9576040517f08c379a0000000000000000000000000000000000000000000000000000000008152600401610bb09061249c565b60405180910390fd5b8273ffffffffffffffffffffffffffffffffffffffff167f7084f5476618d8e60b11ef0d7d3f06914655adb8793e28ff7f018d4c76d505d582604051610bff919061263c565b60405180910390a26001915050919050565b600260009054906101000a900473ffffffffffffffffffffffffffffffffffffffff1681565b60008060008054906101000a900473ffffffffffffffffffffffffffffffffffffffff1673ffffffffffffffffffffffffffffffffffffffff166370a08231856040518263ffffffff1660e01b8152600401610c9391906122ee565b60206040518083038186803b158015610cab57600080fd5b505afa158015610cbf573d6000803e3d6000fd5b505050506040513d601f19601f82011682018060405250810190610ce39190611d9b565b1015610d24576040517f08c379a0000000000000000000000000000000000000000000000000000000008152600401610d1b9061247c565b60405180910390fd5b60008060009054906101000a900473ffffffffffffffffffffffffffffffffffffffff1673ffffffffffffffffffffffffffffffffffffffff1663dd62ed3e85306040518363ffffffff1660e01b8152600401610d82929190612332565b60206040518083038186803b158015610d9a57600080fd5b505afa158015610dae573d6000803e3d6000fd5b505050506040513d601f19601f82011682018060405250810190610dd29190611d9b565b1015610e13576040517f08c379a0000000000000000000000000000000000000000000000000000000008152600401610e0a9061261c565b60405180910390fd5b60405180608001604052808473ffffffffffffffffffffffffffffffffffffffff16815260200185815260200160006006811115610e4d57fe5b8152602001838152506009600086815260200190815260200160002060008201518160000160006101000a81548173ffffffffffffffffffffffffffffffffffffffff021916908373ffffffffffffffffffffffffffffffffffffffff16021790555060208201518160010155604082015181600201556060820151816003015590505060046000815480929190600101919050555060008054906101000a900473ffffffffffffffffffffffffffffffffffffffff1673ffffffffffffffffffffffffffffffffffffffff166323b872dd8430856040518463ffffffff1660e01b8152600401610f409392919061235b565b602060405180830381600087803b158015610f5a57600080fd5b505af1158015610f6e573d6000803e3d6000fd5b505050506040513d601f19601f82011682018060405250810190610f929190611cca565b610fd1576040517f08c379a0000000000000000000000000000000000000000000000000000000008152600401610fc89061249c565b60405180910390fd5b7f06acbfb32bcf8383f3b0a768b70ac9ec234ea0f2d3b9c77fa6a2de69b919aad184604051611000919061263c565b60405180910390a18390509392505050565b60008273ffffffffffffffffffffffffffffffffffffffff166009600086815260200190815260200160002060000160009054906101000a900473ffffffffffffffffffffffffffffffffffffffff1673ffffffffffffffffffffffffffffffffffffffff1614156110b9576040517f08c379a00000000000000000000000000000000000000000000000000000000081526004016110b0906124fc565b60405180910390fd5b60011515600a60008573ffffffffffffffffffffffffffffffffffffffff1673ffffffffffffffffffffffffffffffffffffffff16815260200190815260200160002060010160149054906101000a900460ff1615151461114f576040517f08c379a00000000000000000000000000000000000000000000000000000000081526004016111469061259c565b60405180910390fd5b6001600681111561115c57fe5b6009600086815260200190815260200160002060020154146111b3576040517f08c379a00000000000000000000000000000000000000000000000000000000081526004016111aa906125bc565b60405180910390fd5b600160058111156111c057fe5b600a60008573ffffffffffffffffffffffffffffffffffffffff1673ffffffffffffffffffffffffffffffffffffffff1681526020019081526020016000206003015414611243576040517f08c379a000000000000000000000000000000000000000000000000000000000815260040161123a906124bc565b60405180910390fd5b83600b60008573ffffffffffffffffffffffffffffffffffffffff1673ffffffffffffffffffffffffffffffffffffffff16815260200190815260200160002054146112c4576040517f08c379a00000000000000000000000000000000000000000000000000000000081526004016112bb9061251c565b60405180910390fd5b811561138557600260068111156112d757fe5b600a60008573ffffffffffffffffffffffffffffffffffffffff1673ffffffffffffffffffffffffffffffffffffffff168152602001908152602001600020600301819055506002600581111561132a57fe5b60096000868152602001908152602001600020600201819055507faff008a44d72f7b60baf3d36ba440fe5f9c1fa222b9d6c343fe41c266da3f1948484600160405161137893929190612680565b60405180910390a161143c565b6003600681111561139257fe5b600a60008573ffffffffffffffffffffffffffffffffffffffff1673ffffffffffffffffffffffffffffffffffffffff16815260200190815260200160002060030181905550600060058111156113e557fe5b60096000868152602001908152602001600020600201819055507faff008a44d72f7b60baf3d36ba440fe5f9c1fa222b9d6c343fe41c266da3f1948484600060405161143393929190612680565b60405180910390a15b600190509392505050565b60003373ffffffffffffffffffffffffffffffffffffffff16600160009054906101000a900473ffffffffffffffffffffffffffffffffffffffff1673ffffffffffffffffffffffffffffffffffffffff16146114d9576040517f08c379a00000000000000000000000000000000000000000000000000000000081526004016114d0906125fc565b60405180910390fd5b6001600a60008473ffffffffffffffffffffffffffffffffffffffff1673ffffffffffffffffffffffffffffffffffffffff16815260200190815260200160002060010160146101000a81548160ff0219169083151502179055507fa6625d2d26e786e2f473111bea4b2fcdbbf1863d883a2359989ce3a103d2972a8260405161156391906122ee565b60405180910390a160019050919050565b60008073ffffffffffffffffffffffffffffffffffffffff168273ffffffffffffffffffffffffffffffffffffffff1614156115e5576040517f08c379a00000000000000000000000000000000000000000000000000000000081526004016115dc906125dc565b60405180910390fd5b6040518060c001604052808581526020013373ffffffffffffffffffffffffffffffffffffffff1681526020016000151581526020018481526020016000600581111561162e57fe5b81526020018373ffffffffffffffffffffffffffffffffffffffff16815250600a60003373ffffffffffffffffffffffffffffffffffffffff1673ffffffffffffffffffffffffffffffffffffffff16815260200190815260200160002060008201518160000190805190602001906116a8929190611ae7565b5060208201518160010160006101000a81548173ffffffffffffffffffffffffffffffffffffffff021916908373ffffffffffffffffffffffffffffffffffffffff16021790555060408201518160010160146101000a81548160ff021916908315150217905550606082015181600201908051906020019061172c929190611ae7565b506080820151816003015560a08201518160040160006101000a81548173ffffffffffffffffffffffffffffffffffffffff021916908373ffffffffffffffffffffffffffffffffffffffff1602179055509050506003600081548092919060010191905055507f8dc58b337fe08e4cfe6ec7f8befd6775a2e03ea30da72d8735e424268cb03d2d6003546040516117c4919061263c565b60405180910390a160035490509392505050565b600060011515600a60008473ffffffffffffffffffffffffffffffffffffffff1673ffffffffffffffffffffffffffffffffffffffff16815260200190815260200160002060010160149054906101000a900460ff16151514611870576040517f08c379a00000000000000000000000000000000000000000000000000000000081526004016118679061259c565b60405180910390fd5b6000600681111561187d57fe5b6009600085815260200190815260200160002060020154146118d4576040517f08c379a00000000000000000000000000000000000000000000000000000000081526004016118cb9061253c565b60405180910390fd5b600060058111156118e157fe5b600a60008473ffffffffffffffffffffffffffffffffffffffff1673ffffffffffffffffffffffffffffffffffffffff1681526020019081526020016000206003015414611964576040517f08c379a000000000000000000000000000000000000000000000000000000000815260040161195b906124dc565b60405180910390fd5b6000600b60008473ffffffffffffffffffffffffffffffffffffffff1673ffffffffffffffffffffffffffffffffffffffff16815260200190815260200160002054146119e6576040517f08c379a00000000000000000000000000000000000000000000000000000000081526004016119dd9061257c565b60405180910390fd5b82600b60008473ffffffffffffffffffffffffffffffffffffffff1673ffffffffffffffffffffffffffffffffffffffff1681526020019081526020016000208190555060016006811115611a3757fe5b600a60008473ffffffffffffffffffffffffffffffffffffffff1673ffffffffffffffffffffffffffffffffffffffff1681526020019081526020016000206003018190555060016005811115611a8a57fe5b60096000858152602001908152602001600020600201819055507f33a8c4de991c94a2aafb36d8e811ff1cb0ed6f0bf6c2f341f33f7ef02fce5a8a8383604051611ad5929190612657565b60405180910390a16001905092915050565b828054600181600116156101000203166002900490600052602060002090601f016020900481019282611b1d5760008555611b64565b82601f10611b3657805160ff1916838001178555611b64565b82800160010185558215611b64579182015b82811115611b63578251825591602001919060010190611b48565b5b509050611b719190611b75565b5090565b5b80821115611b8e576000816000905550600101611b76565b5090565b6000611ba5611ba0846126e8565b6126b7565b905082815260208101848484011115611bbd57600080fd5b611bc88482856127e8565b509392505050565b600081359050611bdf8161283d565b92915050565b600081359050611bf481612854565b92915050565b600081359050611c098161286b565b92915050565b600081519050611c1e8161286b565b92915050565b600082601f830112611c3557600080fd5b8135611c45848260208601611b92565b91505092915050565b600081359050611c5d81612882565b92915050565b600081519050611c7281612882565b92915050565b600060208284031215611c8a57600080fd5b6000611c9884828501611bd0565b91505092915050565b600060208284031215611cb357600080fd5b6000611cc184828501611be5565b91505092915050565b600060208284031215611cdc57600080fd5b6000611cea84828501611c0f565b91505092915050565b600080600060608486031215611d0857600080fd5b600084013567ffffffffffffffff811115611d2257600080fd5b611d2e86828701611c24565b935050602084013567ffffffffffffffff811115611d4b57600080fd5b611d5786828701611c24565b9250506040611d6886828701611bd0565b9150509250925092565b600060208284031215611d8457600080fd5b6000611d9284828501611c4e565b91505092915050565b600060208284031215611dad57600080fd5b6000611dbb84828501611c63565b91505092915050565b60008060408385031215611dd757600080fd5b6000611de585828601611c4e565b9250506020611df685828601611bd0565b9150509250929050565b600080600060608486031215611e1557600080fd5b6000611e2386828701611c4e565b9350506020611e3486828701611bd0565b9250506040611e4586828701611bfa565b9150509250925092565b600080600060608486031215611e6457600080fd5b6000611e7286828701611c4e565b9350506020611e8386828701611bd0565b9250506040611e9486828701611c4e565b9150509250925092565b611ea78161278e565b82525050565b611eb681612734565b82525050565b611ec581612758565b82525050565b611ed4816127a0565b82525050565b6000611ee582612718565b611eef8185612723565b9350611eff8185602086016127f7565b611f088161282c565b840191505092915050565b6000611f20601583612723565b91507f496e76616c696420746f6b656e2062616c616e636500000000000000000000006000830152602082019050919050565b6000611f60601783612723565b91507f5472616e73666572206661696c656420666f72206665650000000000000000006000830152602082019050919050565b6000611fa0601c83612723565b91507f576f726b6572206d75737420686173206265656e206170706c696564000000006000830152602082019050919050565b6000611fe0602183612723565b91507f576f726b657220616c726561647920626f6f6b6564206f72206170706c79696e60008301527f67000000000000000000000000000000000000000000000000000000000000006020830152604082019050919050565b6000612046602583612723565b91507f5461736b206f776e65722063616e6e6f742062652061737369676e6d656e742060008301527f6f776e65720000000000000000000000000000000000000000000000000000006020830152604082019050919050565b60006120ac601d83612723565b91507f41737369676e6d656e74206e6f7420666f756e6420696e207461736b730000006000830152602082019050919050565b60006120ec601e83612723565b91507f41737369676e6d656e7420616c726561647920696e2070726f677265737300006000830152602082019050919050565b600061212c600e83612723565b91507f496e76616c6964206163636573730000000000000000000000000000000000006000830152602082019050919050565b600061216c601983612723565b91507f41737369676e6d656e7420616c726561647920626f6f6b6564000000000000006000830152602082019050919050565b60006121ac601c83612723565b91507f576f726b657220686173206e6f74206265656e207665726966696564000000006000830152602082019050919050565b60006121ec601a83612723565b91507f41737369676e6d656e74206d7573742062652070656e64696e670000000000006000830152602082019050919050565b600061222c601783612723565b91507f496e76616c6964207061796d656e7420616464726573730000000000000000006000830152602082019050919050565b600061226c601083612723565b91507f4d75737420626520616e2061646d696e000000000000000000000000000000006000830152602082019050919050565b60006122ac601783612723565b91507f496e76616c696420746f6b656e20616c6c6f77616e63650000000000000000006000830152602082019050919050565b6122e881612784565b82525050565b60006020820190506123036000830184611ead565b92915050565b600060408201905061231e6000830185611e9e565b61232b60208301846122df565b9392505050565b60006040820190506123476000830185611ead565b6123546020830184611ead565b9392505050565b60006060820190506123706000830186611ead565b61237d6020830185611ead565b61238a60408301846122df565b949350505050565b60006080820190506123a76000830187611ead565b6123b460208301866122df565b6123c160408301856122df565b6123ce60608301846122df565b95945050505050565b60006020820190506123ec6000830184611ebc565b92915050565b60006020820190506124076000830184611ecb565b92915050565b600060c08201905081810360008301526124278189611eda565b90506124366020830188611ead565b6124436040830187611ebc565b81810360608301526124558186611eda565b905061246460808301856122df565b61247160a0830184611ead565b979650505050505050565b6000602082019050818103600083015261249581611f13565b9050919050565b600060208201905081810360008301526124b581611f53565b9050919050565b600060208201905081810360008301526124d581611f93565b9050919050565b600060208201905081810360008301526124f581611fd3565b9050919050565b6000602082019050818103600083015261251581612039565b9050919050565b600060208201905081810360008301526125358161209f565b9050919050565b60006020820190508181036000830152612555816120df565b9050919050565b600060208201905081810360008301526125758161211f565b9050919050565b600060208201905081810360008301526125958161215f565b9050919050565b600060208201905081810360008301526125b58161219f565b9050919050565b600060208201905081810360008301526125d5816121df565b9050919050565b600060208201905081810360008301526125f58161221f565b9050919050565b600060208201905081810360008301526126158161225f565b9050919050565b600060208201905081810360008301526126358161229f565b9050919050565b600060208201905061265160008301846122df565b92915050565b600060408201905061266c60008301856122df565b6126796020830184611ead565b9392505050565b600060608201905061269560008301866122df565b6126a26020830185611ead565b6126af6040830184611ebc565b949350505050565b6000604051905081810181811067ffffffffffffffff821117156126de576126dd61282a565b5b8060405250919050565b600067ffffffffffffffff8211156127035761270261282a565b5b601f19601f8301169050602081019050919050565b600081519050919050565b600082825260208201905092915050565b600061273f82612764565b9050919050565b600061275182612764565b9050919050565b60008115159050919050565b600073ffffffffffffffffffffffffffffffffffffffff82169050919050565b6000819050919050565b6000612799826127c4565b9050919050565b60006127ab826127b2565b9050919050565b60006127bd82612764565b9050919050565b60006127cf826127d6565b9050919050565b60006127e182612764565b9050919050565b82818337600083830152505050565b60005b838110156128155780820151818401526020810190506127fa565b83811115612824576000848401525b50505050565bfe5b6000601f19601f8301169050919050565b61284681612734565b811461285157600080fd5b50565b61285d81612746565b811461286857600080fd5b50565b61287481612758565b811461287f57600080fd5b50565b61288b81612784565b811461289657600080fd5b5056fea264697066735822122031db879949be1c6cf57ad60573644e3459561240de937754b39bfde31135acb164736f6c63430007060033",
  "immutableReferences": {},
  "source": "pragma solidity ^0.7.0;\npragma experimental ABIEncoderV2;\n\nimport \"./RelayJob.sol\";\nimport \"./MinLibBytes.sol\";\nimport \"./MessageRoute.sol\";\nimport \"./Whitelist.sol\";\nimport \"./ERC20Interface.sol\";\ncontract Maintainer {\n        // Stable coin\n    ERC20Interface private stablecoin;\n\n    address private owner;\n    RelayJob public relayJob;\n\n    event UserVerified(address worker);\n    event AssignmentApplied(uint256 id, address workerAddress);\n    event AssignmentGranted(uint256 id, address workerAddress, bool granted);\n    event AssignmentResolved(uint256 id, address workerAddress, bool resolved);\n    event AssignmentConfirmed(uint256 id, address workerAddress, bool granted);\n    event AssignmentPayout(uint256 id, address workerAddress, bool granted);\n    event Created(uint256 id);\n    event WorkerEnrolled(uint256 id);\n    event Withdrawn(address indexed payee, uint256 weiAmount);\n\n    enum WorkerStatus {IDLE, APPLIED_TO, BOOKED, IN_PROGRESS, PENDING_PAYMENT, INACTIVE}\n\n    struct Worker {\n        string name;\n        address owner;\n        bool verified;\n        string metadataURI;\n        uint256 status;\n        address accountsPayable;\n    }\n\n    enum AssignmentStatus {\n        INIT,\n        PENDING,\n        IN_PROGRESS,\n        REJECTED,\n        RESOLVED,\n        PAYOUT,\n        CANCELLED\n    }\n\n    struct Assignment {\n        address owner;\n        uint256 relayJobId;\n        uint256 status;\n        uint256 depositAmount;\n    }\n\n    // Worker count\n    uint256 private workerCount;\n\n    // Assignment count\n    uint256 private assignmentCount;\n\n    // Worker accounting\n\n    mapping(address => uint256) private workerAccounting;\n\n    // Total worker accounting\n\n    uint256 private totalWorkerAccounting;\n\n    // Assingment accounting\n\n    mapping(uint256 => uint256) private assignmentAccounting;\n\n    // Total assignment accounting\n\n    uint256 private totalAssignmentAccounting;\n\n    // Assignments\n    mapping(uint256 => Assignment) public assignments;\n\n    // Workers\n    mapping(address => Worker) public workers;\n\n    // Worker assign to a task\n    mapping(address => uint256) public workerTasks;\n\n    constructor(address _relayJob, address tokenAddress) public {\n        relayJob = RelayJob(_relayJob);\n        stablecoin  = ERC20Interface(tokenAddress);\n       \n        owner = msg.sender;\n    }\n\n    /**\n     * @dev Creates an assignment given a new job id\n     * @param relayJobId The job id.\n     */\n    function createAssignmentAndEscrow(uint256 relayJobId, address caller, uint amount)\n        public\n        payable\n        virtual\n        returns (uint256)\n    {\n\n        // User must have a balance\n        require(\n            stablecoin.balanceOf(caller) >= 0,\n            \"Invalid token balance\"\n        );\n        // User must have an allowance\n        require(\n            stablecoin.allowance(caller, address(this)) >= 0,\n            \"Invalid token allowance\"\n        );\n\n        assignments[relayJobId] = Assignment({\n            relayJobId: relayJobId,\n            status: uint256(AssignmentStatus.INIT),\n            depositAmount: amount,\n            owner: caller\n        });\n        assignmentCount++;\n\n        require(\n            stablecoin.transferFrom(\n                caller,\n                address(this), \n                amount),\n            \"Transfer failed for fee\"\n        );\n\n        emit Created(relayJobId);\n        return relayJobId;\n    }\n\n    /**\n     * @dev Enroll as worker\n     * @param name Worker name\n     * @param metadataURI VC or Document hash\n     * @param paymentAddress Payment addresss\n     */\n    function enroll(\n        string memory name,\n        string memory metadataURI,\n        address paymentAddress\n    ) public virtual returns (uint256) {\n        require(paymentAddress != address(0), \"Invalid payment address\");\n        workers[msg.sender] = Worker({\n            name: name,\n            accountsPayable: paymentAddress,\n            status: uint256(WorkerStatus.IDLE),\n            metadataURI: metadataURI,\n            verified: false,\n            owner: msg.sender\n        });\n        workerCount++;\n        emit WorkerEnrolled(workerCount);\n        return workerCount;\n    }\n\n\n    /**\n     * @dev set outcome for assignment\n     * @param assignmentId Assignment Id\n     * @param worker Worker address\n     */\n    function setOutcomeAssignment(\n        uint256 assignmentId,\n        address worker,\n        bool allow\n    ) public virtual returns (bool) {\n        // task owner can't be a worker\n        require(\n            assignments[assignmentId].owner != worker,\n            \"Task owner cannot be assignment owner\"\n        );\n\n        // is worker registered\n        require(\n            workers[worker].verified == true,\n            \"Worker has not been verified\"\n        );\n\n        // is assignment available\n        require(\n            assignments[assignmentId].status ==\n                uint256(AssignmentStatus.IN_PROGRESS),\n            \"Assignment must be pending\"\n        );\n\n        // is worker available\n        require(\n            workers[worker].status == uint256(WorkerStatus.BOOKED),\n            \"Worker must has been applied\"\n        );\n\n        // is worker not found in current tasks\n        require(workerTasks[worker] == assignmentId, \"Assignment not found in tasks\");\n\n        if (allow) {\n        workers[worker].status = uint256(AssignmentStatus.RESOLVED);\n        assignments[assignmentId].status = uint256(WorkerStatus.PENDING_PAYMENT);\n        emit AssignmentResolved(assignmentId, worker, true);\n        } else {\n        workers[worker].status = uint256(AssignmentStatus.REJECTED);\n        assignments[assignmentId].status = uint256(WorkerStatus.IDLE);\n        emit AssignmentResolved(assignmentId, worker, false);\n  \n        }\n        return true;\n    }\n\n    function setVerifyUser(\n        address worker\n    ) public returns(bool) {\n        require(owner == msg.sender, \"Must be an admin\");\n\n        workers[worker].verified = true;\n        emit UserVerified(worker);\n        return true;\n    }\n    /**\n     * @dev grant assignment\n     * @param assignmentId Assignment Id\n     * @param worker Worker address\n     */\n    function grantAssignment(\n        uint256 assignmentId,\n        address worker,\n        bool allow\n    ) public virtual returns (bool) {\n        // task owner can't be a worker\n        require(\n            assignments[assignmentId].owner != worker,\n            \"Task owner cannot be assignment owner\"\n        );\n\n        // is worker registered\n        require(\n            workers[worker].verified == true,\n            \"Worker has not been verified\"\n        );\n\n        // is assignment available\n        require(\n            assignments[assignmentId].status ==\n                uint256(AssignmentStatus.PENDING),\n            \"Assignment must be pending\"\n        );\n\n        // is worker available\n        require(\n            workers[worker].status == uint256(WorkerStatus.APPLIED_TO),\n            \"Worker must has been applied\"\n        );\n\n        // is worker not found in current tasks\n        require(workerTasks[worker] == assignmentId, \"Assignment not found in tasks\");\n\n        if (allow) {\n        workers[worker].status = uint256(AssignmentStatus.IN_PROGRESS);\n        assignments[assignmentId].status = uint256(WorkerStatus.BOOKED);\n        emit AssignmentGranted(assignmentId, worker, true);\n        } else {\n        workers[worker].status = uint256(AssignmentStatus.REJECTED);\n        assignments[assignmentId].status = uint256(WorkerStatus.IDLE);\n        emit AssignmentGranted(assignmentId, worker, false);\n  \n        }\n        return true;\n    }\n\n    /**\n     * @dev apply for assignment\n     * @param assignmentId Assignment Id\n     * @param worker Worker address\n     */\n    function applyTo(uint256 assignmentId, address worker)\n        public\n        virtual\n        returns (bool)\n    {\n        // is worker registered\n        require(\n            workers[worker].verified == true,\n            \"Worker has not been verified\"\n        );\n\n        // is assignment available\n        require(\n            assignments[assignmentId].status == uint256(AssignmentStatus.INIT),\n            \"Assignment already in progress\"\n        );\n\n        // is worker available\n        require(\n            workers[worker].status == uint256(WorkerStatus.IDLE),\n            \"Worker already booked or applying\"\n        );\n\n        // is worker not found in current tasks\n        require(workerTasks[worker] == 0, \"Assignment already booked\");\n\n        // assign worker to task\n        workerTasks[worker] = assignmentId;\n\n        workers[worker].status = uint256(AssignmentStatus.PENDING);\n        assignments[assignmentId].status = uint256(WorkerStatus.APPLIED_TO);\n\n        emit AssignmentApplied(assignmentId, worker);\n        return true;\n    }\n\n    /**\n     * @dev Withdraw accumulated balance for a payee, forwarding all gas to the\n     * recipient.\n     *\n     * WARNING: Forwarding all gas opens the door to reentrancy vulnerabilities.\n     * Make sure you trust the recipient, or are either following the\n     * checks-effects-interactions pattern or using {ReentrancyGuard}.\n     *\n     * @param payee The address whose funds will be withdrawn and transferred to.\n     */\n    function withdraw(address payable payee) public returns (bool) {\n        require(assignments[workerTasks[payee]].depositAmount > 0, \"Invalid access\");\n        uint256 payment = assignments[workerTasks[payee]].depositAmount;\n        assignments[workerTasks[payee]].depositAmount = 0;\n        require(\n            stablecoin.transfer(\n                msg.sender,\n                payment),\n            \"Transfer failed for fee\"\n        );\n\n\n        emit Withdrawn(payee, payment);\n\n        return true;\n    }\n}\n",
  "sourcePath": "/home/rogelio/Code/xdv/electronic-sa-contracts/contracts/Maintainer.sol",
  "compiler": {
    "name": "solc",
    "version": "0.7.6+commit.7338295f.Emscripten.clang"
  },
  "schemaVersion": "3.3.3",
  "updatedAt": "2021-02-16T23:14:01.940Z",
  "networkType": "ethereum",
  "devdoc": {
    "kind": "dev",
    "methods": {
      "applyTo(uint256,address)": {
        "details": "apply for assignment",
        "params": {
          "assignmentId": "Assignment Id",
          "worker": "Worker address"
        }
      },
      "createAssignmentAndEscrow(uint256,address,uint256)": {
        "details": "Creates an assignment given a new job id",
        "params": {
          "relayJobId": "The job id."
        }
      },
      "enroll(string,string,address)": {
        "details": "Enroll as worker",
        "params": {
          "metadataURI": "VC or Document hash",
          "name": "Worker name",
          "paymentAddress": "Payment addresss"
        }
      },
      "grantAssignment(uint256,address,bool)": {
        "details": "grant assignment",
        "params": {
          "assignmentId": "Assignment Id",
          "worker": "Worker address"
        }
      },
      "setOutcomeAssignment(uint256,address,bool)": {
        "details": "set outcome for assignment",
        "params": {
          "assignmentId": "Assignment Id",
          "worker": "Worker address"
        }
      },
      "withdraw(address)": {
        "details": "Withdraw accumulated balance for a payee, forwarding all gas to the recipient. WARNING: Forwarding all gas opens the door to reentrancy vulnerabilities. Make sure you trust the recipient, or are either following the checks-effects-interactions pattern or using {ReentrancyGuard}.",
        "params": {
          "payee": "The address whose funds will be withdrawn and transferred to."
        }
      }
    },
    "version": 1
  },
  "userdoc": {
    "kind": "user",
    "methods": {},
    "version": 1
  }
}