{
  "contractName": "Maintainer",
  "abi": [
    {
      "inputs": [
        {
          "internalType": "address",
          "name": "_relayJob",
          "type": "address"
        }
      ],
      "stateMutability": "nonpayable",
      "type": "constructor"
    },
    {
      "anonymous": false,
      "inputs": [
        {
          "indexed": false,
          "internalType": "uint256",
          "name": "id",
          "type": "uint256"
        }
      ],
      "name": "Created",
      "type": "event"
    },
    {
      "anonymous": false,
      "inputs": [
        {
          "indexed": true,
          "internalType": "address",
          "name": "payee",
          "type": "address"
        },
        {
          "indexed": false,
          "internalType": "uint256",
          "name": "weiAmount",
          "type": "uint256"
        }
      ],
      "name": "Withdrawn",
      "type": "event"
    },
    {
      "anonymous": false,
      "inputs": [
        {
          "indexed": false,
          "internalType": "uint256",
          "name": "id",
          "type": "uint256"
        }
      ],
      "name": "WorkerEnrolled",
      "type": "event"
    },
    {
      "inputs": [
        {
          "internalType": "uint256",
          "name": "",
          "type": "uint256"
        }
      ],
      "name": "assignmentAccounting",
      "outputs": [
        {
          "internalType": "uint256",
          "name": "",
          "type": "uint256"
        }
      ],
      "stateMutability": "view",
      "type": "function"
    },
    {
      "inputs": [],
      "name": "assignmentCount",
      "outputs": [
        {
          "internalType": "uint256",
          "name": "",
          "type": "uint256"
        }
      ],
      "stateMutability": "view",
      "type": "function"
    },
    {
      "inputs": [
        {
          "internalType": "uint256",
          "name": "",
          "type": "uint256"
        }
      ],
      "name": "assignments",
      "outputs": [
        {
          "internalType": "string",
          "name": "name",
          "type": "string"
        },
        {
          "internalType": "uint256",
          "name": "relayJobId",
          "type": "uint256"
        },
        {
          "internalType": "uint256",
          "name": "status",
          "type": "uint256"
        },
        {
          "internalType": "uint256",
          "name": "depositAmount",
          "type": "uint256"
        }
      ],
      "stateMutability": "view",
      "type": "function"
    },
    {
      "inputs": [],
      "name": "owner",
      "outputs": [
        {
          "internalType": "address",
          "name": "",
          "type": "address"
        }
      ],
      "stateMutability": "view",
      "type": "function"
    },
    {
      "inputs": [],
      "name": "relayJob",
      "outputs": [
        {
          "internalType": "contract RelayJob",
          "name": "",
          "type": "address"
        }
      ],
      "stateMutability": "view",
      "type": "function"
    },
    {
      "inputs": [],
      "name": "totalAssignmentAccounting",
      "outputs": [
        {
          "internalType": "uint256",
          "name": "",
          "type": "uint256"
        }
      ],
      "stateMutability": "view",
      "type": "function"
    },
    {
      "inputs": [],
      "name": "totalWorkerAccounting",
      "outputs": [
        {
          "internalType": "uint256",
          "name": "",
          "type": "uint256"
        }
      ],
      "stateMutability": "view",
      "type": "function"
    },
    {
      "inputs": [
        {
          "internalType": "address",
          "name": "",
          "type": "address"
        }
      ],
      "name": "workerAccounting",
      "outputs": [
        {
          "internalType": "uint256",
          "name": "",
          "type": "uint256"
        }
      ],
      "stateMutability": "view",
      "type": "function"
    },
    {
      "inputs": [],
      "name": "workerCount",
      "outputs": [
        {
          "internalType": "uint256",
          "name": "",
          "type": "uint256"
        }
      ],
      "stateMutability": "view",
      "type": "function"
    },
    {
      "inputs": [
        {
          "internalType": "address",
          "name": "",
          "type": "address"
        }
      ],
      "name": "workerTasks",
      "outputs": [
        {
          "internalType": "string",
          "name": "name",
          "type": "string"
        },
        {
          "internalType": "uint256",
          "name": "relayJobId",
          "type": "uint256"
        },
        {
          "internalType": "uint256",
          "name": "status",
          "type": "uint256"
        },
        {
          "internalType": "uint256",
          "name": "depositAmount",
          "type": "uint256"
        }
      ],
      "stateMutability": "view",
      "type": "function"
    },
    {
      "inputs": [
        {
          "internalType": "address",
          "name": "",
          "type": "address"
        }
      ],
      "name": "workers",
      "outputs": [
        {
          "internalType": "string",
          "name": "name",
          "type": "string"
        },
        {
          "internalType": "bool",
          "name": "verified",
          "type": "bool"
        },
        {
          "internalType": "string",
          "name": "metadataURI",
          "type": "string"
        },
        {
          "internalType": "uint256",
          "name": "status",
          "type": "uint256"
        },
        {
          "internalType": "address",
          "name": "accountsPayable",
          "type": "address"
        }
      ],
      "stateMutability": "view",
      "type": "function"
    },
    {
      "inputs": [
        {
          "internalType": "uint256",
          "name": "relayJobId",
          "type": "uint256"
        },
        {
          "internalType": "string",
          "name": "name",
          "type": "string"
        }
      ],
      "name": "createAssignmentAndEscrow",
      "outputs": [
        {
          "internalType": "uint256",
          "name": "",
          "type": "uint256"
        }
      ],
      "stateMutability": "payable",
      "type": "function"
    },
    {
      "inputs": [
        {
          "internalType": "string",
          "name": "name",
          "type": "string"
        },
        {
          "internalType": "string",
          "name": "metadataURI",
          "type": "string"
        },
        {
          "internalType": "address",
          "name": "paymentAddress",
          "type": "address"
        }
      ],
      "name": "enrollAsWorker",
      "outputs": [
        {
          "internalType": "uint256",
          "name": "",
          "type": "uint256"
        }
      ],
      "stateMutability": "nonpayable",
      "type": "function"
    },
    {
      "inputs": [
        {
          "internalType": "address payable",
          "name": "payee",
          "type": "address"
        }
      ],
      "name": "withdraw",
      "outputs": [
        {
          "internalType": "bool",
          "name": "",
          "type": "bool"
        }
      ],
      "stateMutability": "nonpayable",
      "type": "function"
    }
  ],
  "bytecode": "0x60806040523480156200001157600080fd5b50604051620014f8380380620014f88339818101604052810190620000379190620000d6565b80600160006101000a81548173ffffffffffffffffffffffffffffffffffffffff021916908373ffffffffffffffffffffffffffffffffffffffff160217905550336000806101000a81548173ffffffffffffffffffffffffffffffffffffffff021916908373ffffffffffffffffffffffffffffffffffffffff1602179055505062000150565b600081519050620000d08162000136565b92915050565b600060208284031215620000e957600080fd5b6000620000f984828501620000bf565b91505092915050565b60006200010f8262000116565b9050919050565b600073ffffffffffffffffffffffffffffffffffffffff82169050919050565b620001418162000102565b81146200014d57600080fd5b50565b61139880620001606000396000f3fe6080604052600436106100dd5760003560e01c8063719e5d171161007f5780638da5cb5b116100595780638da5cb5b14610318578063a7bca87814610343578063e6bb280714610373578063f7a94f4b1461039e576100dd565b8063719e5d17146102855780637d2dc330146102b05780638592b217146102db576100dd565b80634048a257116100bb5780634048a2571461019c5780634e50c75c146101dd57806351cff8d91461021d578063547f7c241461025a576100dd565b80631f1caf59146100e257806327ac18e41461011f5780633b4313cb1461015c575b600080fd5b3480156100ee57600080fd5b5061010960048036038101906101049190610e6c565b6103c9565b604051610116919061119b565b60405180910390f35b34801561012b57600080fd5b5061014660048036038101906101419190610eeb565b61055b565b604051610153919061119b565b60405180910390f35b34801561016857600080fd5b50610183600480360381019061017e9190610df1565b610573565b604051610193949392919061110f565b60405180910390f35b3480156101a857600080fd5b506101c360048036038101906101be9190610df1565b61063b565b6040516101d49594939291906110ae565b60405180910390f35b3480156101e957600080fd5b5061020460048036038101906101ff9190610eeb565b6107ce565b604051610214949392919061110f565b60405180910390f35b34801561022957600080fd5b50610244600480360381019061023f9190610e1a565b610896565b6040516102519190611078565b60405180910390f35b34801561026657600080fd5b5061026f610a46565b60405161027c919061119b565b60405180910390f35b34801561029157600080fd5b5061029a610a4c565b6040516102a7919061119b565b60405180910390f35b3480156102bc57600080fd5b506102c5610a52565b6040516102d29190611093565b60405180910390f35b3480156102e757600080fd5b5061030260048036038101906102fd9190610df1565b610a78565b60405161030f919061119b565b60405180910390f35b34801561032457600080fd5b5061032d610a90565b60405161033a919061105d565b60405180910390f35b61035d60048036038101906103589190610f14565b610ab4565b60405161036a919061119b565b60405180910390f35b34801561037f57600080fd5b50610388610c7e565b604051610395919061119b565b60405180910390f35b3480156103aa57600080fd5b506103b3610c84565b6040516103c0919061119b565b60405180910390f35b60006040518060a00160405280858152602001600015158152602001848152602001600060048111156103f857fe5b81526020018373ffffffffffffffffffffffffffffffffffffffff16815250600960003373ffffffffffffffffffffffffffffffffffffffff1673ffffffffffffffffffffffffffffffffffffffff1681526020019081526020016000206000820151816000019080519060200190610472929190610c8a565b5060208201518160010160006101000a81548160ff02191690831515021790555060408201518160020190805190602001906104af929190610c8a565b506060820151816003015560808201518160040160006101000a81548173ffffffffffffffffffffffffffffffffffffffff021916908373ffffffffffffffffffffffffffffffffffffffff1602179055509050506002600081548092919060010191905055507f8dc58b337fe08e4cfe6ec7f8befd6775a2e03ea30da72d8735e424268cb03d2d600254604051610547919061119b565b60405180910390a160025490509392505050565b60066020528060005260406000206000915090505481565b600a602052806000526040600020600091509050806000018054600181600116156101000203166002900480601f01602080910402602001604051908101604052809291908181526020018280546001816001161561010002031660029004801561061f5780601f106105f45761010080835404028352916020019161061f565b820191906000526020600020905b81548152906001019060200180831161060257829003601f168201915b5050505050908060010154908060020154908060030154905084565b6009602052806000526040600020600091509050806000018054600181600116156101000203166002900480601f0160208091040260200160405190810160405280929190818152602001828054600181600116156101000203166002900480156106e75780601f106106bc576101008083540402835291602001916106e7565b820191906000526020600020905b8154815290600101906020018083116106ca57829003601f168201915b5050505050908060010160009054906101000a900460ff1690806002018054600181600116156101000203166002900480601f0160208091040260200160405190810160405280929190818152602001828054600181600116156101000203166002900480156107985780601f1061076d57610100808354040283529160200191610798565b820191906000526020600020905b81548152906001019060200180831161077b57829003601f168201915b5050505050908060030154908060040160009054906101000a900473ffffffffffffffffffffffffffffffffffffffff16905085565b6008602052806000526040600020600091509050806000018054600181600116156101000203166002900480601f01602080910402602001604051908101604052809291908181526020018280546001816001161561010002031660029004801561087a5780601f1061084f5761010080835404028352916020019161087a565b820191906000526020600020905b81548152906001019060200180831161085d57829003601f168201915b5050505050908060010154908060020154908060030154905084565b600080600a60008473ffffffffffffffffffffffffffffffffffffffff1673ffffffffffffffffffffffffffffffffffffffff168152602001908152602001600020600301541161091c576040517f08c379a00000000000000000000000000000000000000000000000000000000081526004016109139061117b565b60405180910390fd5b6000600a60008473ffffffffffffffffffffffffffffffffffffffff1673ffffffffffffffffffffffffffffffffffffffff1681526020019081526020016000206003015490506000600a60008573ffffffffffffffffffffffffffffffffffffffff1673ffffffffffffffffffffffffffffffffffffffff168152602001908152602001600020600301819055508273ffffffffffffffffffffffffffffffffffffffff166108fc829081150290604051600060405180830381858888f193505050501580156109f1573d6000803e3d6000fd5b508273ffffffffffffffffffffffffffffffffffffffff167f7084f5476618d8e60b11ef0d7d3f06914655adb8793e28ff7f018d4c76d505d582604051610a38919061119b565b60405180910390a250919050565b60055481565b60075481565b600160009054906101000a900473ffffffffffffffffffffffffffffffffffffffff1681565b60046020528060005260406000206000915090505481565b60008054906101000a900473ffffffffffffffffffffffffffffffffffffffff1681565b6000600160009054906101000a900473ffffffffffffffffffffffffffffffffffffffff1673ffffffffffffffffffffffffffffffffffffffff16634f558e79846040518263ffffffff1660e01b8152600401610b11919061119b565b602060405180830381600087803b158015610b2b57600080fd5b505af1158015610b3f573d6000803e3d6000fd5b505050506040513d601f19601f82011682018060405250810190610b639190610e43565b610ba2576040517f08c379a0000000000000000000000000000000000000000000000000000000008152600401610b999061115b565b60405180910390fd5b6000349050604051806080016040528084815260200185815260200160006005811115610bcb57fe5b8152602001348152506008600060035481526020019081526020016000206000820151816000019080519060200190610c05929190610c8a565b506020820151816001015560408201518160020155606082015181600301559050506003600081548092919060010191905055507f06acbfb32bcf8383f3b0a768b70ac9ec234ea0f2d3b9c77fa6a2de69b919aad1600354604051610c6a919061119b565b60405180910390a160035491505092915050565b60035481565b60025481565b828054600181600116156101000203166002900490600052602060002090601f016020900481019282610cc05760008555610d07565b82601f10610cd957805160ff1916838001178555610d07565b82800160010185558215610d07579182015b82811115610d06578251825591602001919060010190610ceb565b5b509050610d149190610d18565b5090565b5b80821115610d31576000816000905550600101610d19565b5090565b6000610d48610d43846111e7565b6111b6565b905082815260208101848484011115610d6057600080fd5b610d6b8482856112b1565b509392505050565b600081359050610d8281611306565b92915050565b600081359050610d978161131d565b92915050565b600081519050610dac81611334565b92915050565b600082601f830112610dc357600080fd5b8135610dd3848260208601610d35565b91505092915050565b600081359050610deb8161134b565b92915050565b600060208284031215610e0357600080fd5b6000610e1184828501610d73565b91505092915050565b600060208284031215610e2c57600080fd5b6000610e3a84828501610d88565b91505092915050565b600060208284031215610e5557600080fd5b6000610e6384828501610d9d565b91505092915050565b600080600060608486031215610e8157600080fd5b600084013567ffffffffffffffff811115610e9b57600080fd5b610ea786828701610db2565b935050602084013567ffffffffffffffff811115610ec457600080fd5b610ed086828701610db2565b9250506040610ee186828701610d73565b9150509250925092565b600060208284031215610efd57600080fd5b6000610f0b84828501610ddc565b91505092915050565b60008060408385031215610f2757600080fd5b6000610f3585828601610ddc565b925050602083013567ffffffffffffffff811115610f5257600080fd5b610f5e85828601610db2565b9150509250929050565b610f7181611233565b82525050565b610f8081611257565b82525050565b610f8f8161128d565b82525050565b6000610fa082611217565b610faa8185611222565b9350610fba8185602086016112c0565b610fc3816112f5565b840191505092915050565b6000610fdb600f83611222565b91507f4e6f206a6f6220696420666f756e6400000000000000000000000000000000006000830152602082019050919050565b600061101b600e83611222565b91507f496e76616c6964206163636573730000000000000000000000000000000000006000830152602082019050919050565b61105781611283565b82525050565b60006020820190506110726000830184610f68565b92915050565b600060208201905061108d6000830184610f77565b92915050565b60006020820190506110a86000830184610f86565b92915050565b600060a08201905081810360008301526110c88188610f95565b90506110d76020830187610f77565b81810360408301526110e98186610f95565b90506110f8606083018561104e565b6111056080830184610f68565b9695505050505050565b600060808201905081810360008301526111298187610f95565b9050611138602083018661104e565b611145604083018561104e565b611152606083018461104e565b95945050505050565b6000602082019050818103600083015261117481610fce565b9050919050565b600060208201905081810360008301526111948161100e565b9050919050565b60006020820190506111b0600083018461104e565b92915050565b6000604051905081810181811067ffffffffffffffff821117156111dd576111dc6112f3565b5b8060405250919050565b600067ffffffffffffffff821115611202576112016112f3565b5b601f19601f8301169050602081019050919050565b600081519050919050565b600082825260208201905092915050565b600061123e82611263565b9050919050565b600061125082611263565b9050919050565b60008115159050919050565b600073ffffffffffffffffffffffffffffffffffffffff82169050919050565b6000819050919050565b60006112988261129f565b9050919050565b60006112aa82611263565b9050919050565b82818337600083830152505050565b60005b838110156112de5780820151818401526020810190506112c3565b838111156112ed576000848401525b50505050565bfe5b6000601f19601f8301169050919050565b61130f81611233565b811461131a57600080fd5b50565b61132681611245565b811461133157600080fd5b50565b61133d81611257565b811461134857600080fd5b50565b61135481611283565b811461135f57600080fd5b5056fea26469706673582212205da2ee476dfde66da8eb2d627821ee4e7b7d7adc744ff53936c1585eccb5f81564736f6c63430007060033",
  "immutableReferences": {},
  "source": "pragma solidity ^0.7.0;\npragma experimental ABIEncoderV2;\n\nimport \"./RelayJob.sol\";\nimport \"./MinLibBytes.sol\";\nimport \"./MessageRoute.sol\";\nimport \"./Whitelist.sol\";\n\ncontract Maintainer {\n\n    address public owner;\n    RelayJob public relayJob;\n \n    event Created(uint id);\n    event WorkerEnrolled(uint id);\n    event Withdrawn(address indexed payee, uint256 weiAmount);\n\n    enum WorkerStatus {\n        IDLE,\n        BOOKED,\n        IN_PROGRESS,\n        OFF,\n        INACTIVE\n    }\n    \n    struct Worker {\n       string name;\n        bool verified;\n        string metadataURI;\n        uint status;\n        address accountsPayable;\n    }\n\n    enum AssignmentStatus {\n        INIT,\n        PENDING,\n        IN_PROGRESS,\n        REJECTED,\n        RESOLVED,\n        CANCELLED\n    }\n\n    struct Assignment {\n        string name;\n        uint relayJobId;\n        uint status;\n        uint depositAmount;\n    }\n\n    // Wor995ker count\n\n\n    uint public workerCount;\n\n    // Assignment count\n\n    uint public assignmentCount;\n\n    // Worker accounting\n\n    mapping (address => uint) public workerAccounting;\n\n    // Total worker accounting\n\n    uint public totalWorkerAccounting;\n\n    // Assingment accounting\n\n    mapping (uint => uint) public assignmentAccounting;\n\n    // Total assignment accounting\n\n    uint public totalAssignmentAccounting;\n\n    // Assignments\n    mapping (uint => Assignment) public assignments;\n\n    // Workers\n    mapping (address => Worker) public workers;\n\n    // Worker assign to a task\n    mapping (address => Assignment) public workerTasks;\n\n    constructor(address _relayJob) public {\n        relayJob = RelayJob(_relayJob);\n        owner = msg.sender;\n    }\n\n\n    /**\n     * @dev Stores the sent amount as credit to be withdrawn.\n     * @param relayJobId The job id.\n     */\n    function createAssignmentAndEscrow(\n        uint relayJobId,\n        string memory name\n    ) public payable virtual  returns(uint) {\n       require(relayJob.exists(relayJobId), \"No job id found\");\n       \n        uint256 amount = msg.value;\n        assignments[assignmentCount] = Assignment({\n            name: name,\n            relayJobId: relayJobId,\n            status: uint(AssignmentStatus.INIT),\n            depositAmount: msg.value\n        });\n        assignmentCount++;\n        emit Created(assignmentCount);\n        return assignmentCount;\n    }\n\n    function enrollAsWorker(\n        string memory name,\n        string memory metadataURI,\n        address paymentAddress\n    ) public virtual  returns(uint) {\n       \n        workers[msg.sender] = Worker({\n            name: name,\n            accountsPayable: paymentAddress,\n            status: uint(WorkerStatus.IDLE),\n            metadataURI: metadataURI,\n            verified: false\n        });\n        workerCount++;\n        emit WorkerEnrolled(workerCount);\n        return workerCount;\n    }\n\n        /**\n     * @dev Withdraw accumulated balance for a payee, forwarding all gas to the\n     * recipient.\n     *\n     * WARNING: Forwarding all gas opens the door to reentrancy vulnerabilities.\n     * Make sure you trust the recipient, or are either following the\n     * checks-effects-interactions pattern or using {ReentrancyGuard}.\n     *\n     * @param payee The address whose funds will be withdrawn and transferred to.\n     */\n    function withdraw(address payable payee) public returns(bool) {\n        require(workerTasks[payee].depositAmount > 0, \"Invalid access\");\n        uint payment = workerTasks[payee].depositAmount;\n        workerTasks[payee].depositAmount = 0;\n        payee.transfer(payment);\n\n        emit Withdrawn(payee, payment);\n    }\n}",
  "sourcePath": "/home/rogelio/Code/xdv/electronic-sa-contracts/contracts/Maintainer.sol",
  "compiler": {
    "name": "solc",
    "version": "0.7.6+commit.7338295f.Emscripten.clang"
  },
  "schemaVersion": "3.3.3",
  "updatedAt": "2021-02-13T12:39:15.651Z",
  "devdoc": {
    "kind": "dev",
    "methods": {
      "createAssignmentAndEscrow(uint256,string)": {
        "details": "Stores the sent amount as credit to be withdrawn.",
        "params": {
          "relayJobId": "The job id."
        }
      },
      "withdraw(address)": {
        "details": "Withdraw accumulated balance for a payee, forwarding all gas to the recipient. WARNING: Forwarding all gas opens the door to reentrancy vulnerabilities. Make sure you trust the recipient, or are either following the checks-effects-interactions pattern or using {ReentrancyGuard}.",
        "params": {
          "payee": "The address whose funds will be withdrawn and transferred to."
        }
      }
    },
    "version": 1
  },
  "userdoc": {
    "kind": "user",
    "methods": {},
    "version": 1
  }
}