{
  "contractName": "MessageRoute",
  "abi": [
    {
      "anonymous": false,
      "inputs": [
        {
          "indexed": false,
          "internalType": "bytes4",
          "name": "methodSig",
          "type": "bytes4"
        },
        {
          "indexed": false,
          "internalType": "bytes",
          "name": "request",
          "type": "bytes"
        }
      ],
      "name": "ActionChanged",
      "type": "event"
    },
    {
      "anonymous": false,
      "inputs": [
        {
          "indexed": false,
          "internalType": "string",
          "name": "propName",
          "type": "string"
        },
        {
          "indexed": false,
          "internalType": "bytes",
          "name": "data",
          "type": "bytes"
        }
      ],
      "name": "PropertyChanged",
      "type": "event"
    },
    {
      "inputs": [
        {
          "internalType": "string",
          "name": "contractName",
          "type": "string"
        },
        {
          "internalType": "address",
          "name": "contractAddress",
          "type": "address"
        },
        {
          "internalType": "uint256",
          "name": "network",
          "type": "uint256"
        },
        {
          "internalType": "string",
          "name": "version",
          "type": "string"
        }
      ],
      "name": "getDomainSeparator",
      "outputs": [
        {
          "internalType": "bytes32",
          "name": "",
          "type": "bytes32"
        }
      ],
      "stateMutability": "pure",
      "type": "function"
    }
  ],
  "bytecode": "0x608060405234801561001057600080fd5b506103f6806100206000396000f3fe608060405234801561001057600080fd5b506004361061002b5760003560e01c8063b1e4f13e14610030575b600080fd5b61004a6004803603810190610045919061015a565b610060565b604051610057919061021a565b60405180910390f35b600060405180608001604052806052815260200161036f60529139805190602001208580519060200120838051906020012085876040516020016100a8959493929190610235565b604051602081830303815290604052805190602001209050949350505050565b60006100db6100d6846102b9565b610288565b9050828152602081018484840111156100f357600080fd5b6100fe84828561032f565b509392505050565b60008135905061011581610340565b92915050565b600082601f83011261012c57600080fd5b813561013c8482602086016100c8565b91505092915050565b60008135905061015481610357565b92915050565b6000806000806080858703121561017057600080fd5b600085013567ffffffffffffffff81111561018a57600080fd5b6101968782880161011b565b94505060206101a787828801610106565b93505060406101b887828801610145565b925050606085013567ffffffffffffffff8111156101d557600080fd5b6101e18782880161011b565b91505092959194509250565b6101f6816102e9565b82525050565b610205816102fb565b82525050565b61021481610325565b82525050565b600060208201905061022f60008301846101fc565b92915050565b600060a08201905061024a60008301886101fc565b61025760208301876101fc565b61026460408301866101fc565b610271606083018561020b565b61027e60808301846101ed565b9695505050505050565b6000604051905081810181811067ffffffffffffffff821117156102af576102ae61033e565b5b8060405250919050565b600067ffffffffffffffff8211156102d4576102d361033e565b5b601f19601f8301169050602081019050919050565b60006102f482610305565b9050919050565b6000819050919050565b600073ffffffffffffffffffffffffffffffffffffffff82169050919050565b6000819050919050565b82818337600083830152505050565bfe5b610349816102e9565b811461035457600080fd5b50565b61036081610325565b811461036b57600080fd5b5056fe454950373132446f6d61696e28737472696e67206e616d652c737472696e672076657273696f6e2c75696e7432353620636861696e49642c6164647265737320766572696679696e67436f6e747261637429a26469706673582212206e2d0a3a593d842db91aadcdea36882f792131b0e94ce5772b317de95f2ee4b964736f6c63430007060033",
  "immutableReferences": {},
  "source": "pragma solidity ^0.7.0;\npragma experimental ABIEncoderV2;\n\ncontract MessageRoute {\n\n    event PropertyChanged(string propName, bytes data);\n    event ActionChanged(bytes4 methodSig, bytes request);\n    \n    struct ActionRoute {\n        bytes4 selector;\n        address controller;\n        bytes4[] conditions;\n        bool[] conditionStatus;\n    }\n    \n    bytes32 internal constant EIP712_DOMAIN_TYPEHASH = keccak256(\n        bytes(\n            \"EIP712Domain(string name,string version,uint256 chainId,address verifyingContract)\"\n        )\n    );\n\n\n    modifier propertyChange(string memory field, bytes memory params) {\n        _;\n        emit PropertyChanged(field, params);\n    }\n    function getDomainSeparator(\n        string memory contractName,\n        address contractAddress,\n        uint network,\n        string memory version\n                \n        ) external pure returns(bytes32) {\n        return keccak256(\n        abi.encode(\n            EIP712_DOMAIN_TYPEHASH,\n            keccak256(bytes(contractName)),\n            keccak256(bytes(version)),\n            network, \n            address(contractAddress)\n        )\n    );\n    }      \n}\n\n",
  "sourcePath": "/home/rogelio/Code/xdv/electronic-sa-contracts/contracts/MessageRoute.sol",
  "compiler": {
    "name": "solc",
    "version": "0.7.6+commit.7338295f.Emscripten.clang"
  },
  "schemaVersion": "3.3.3",
  "updatedAt": "2021-02-12T15:14:42.525Z",
  "devdoc": {
    "kind": "dev",
    "methods": {},
    "version": 1
  },
  "userdoc": {
    "kind": "user",
    "methods": {},
    "version": 1
  }
}