{
  "contractName": "MinterRegistry",
  "abi": [
    {
      "inputs": [],
      "stateMutability": "nonpayable",
      "type": "constructor"
    },
    {
      "anonymous": false,
      "inputs": [
        {
          "indexed": true,
          "internalType": "address",
          "name": "minter",
          "type": "address"
        },
        {
          "indexed": true,
          "internalType": "uint256",
          "name": "id",
          "type": "uint256"
        },
        {
          "indexed": false,
          "internalType": "string",
          "name": "name",
          "type": "string"
        },
        {
          "indexed": true,
          "internalType": "string",
          "name": "symbol",
          "type": "string"
        }
      ],
      "name": "MinterRegistered",
      "type": "event"
    },
    {
      "inputs": [
        {
          "internalType": "uint256",
          "name": "",
          "type": "uint256"
        }
      ],
      "name": "dataProviderMinters",
      "outputs": [
        {
          "internalType": "address",
          "name": "minterAddress",
          "type": "address"
        },
        {
          "internalType": "string",
          "name": "name",
          "type": "string"
        },
        {
          "internalType": "string",
          "name": "symbol",
          "type": "string"
        },
        {
          "internalType": "address",
          "name": "paymentAddress",
          "type": "address"
        },
        {
          "internalType": "bool",
          "name": "hasUserKyc",
          "type": "bool"
        },
        {
          "internalType": "uint256",
          "name": "feeStructure",
          "type": "uint256"
        },
        {
          "internalType": "uint256",
          "name": "created",
          "type": "uint256"
        },
        {
          "internalType": "uint256",
          "name": "serviceFee",
          "type": "uint256"
        },
        {
          "internalType": "address",
          "name": "factoryAddress",
          "type": "address"
        },
        {
          "internalType": "bool",
          "name": "enabled",
          "type": "bool"
        }
      ],
      "stateMutability": "view",
      "type": "function"
    },
    {
      "inputs": [
        {
          "internalType": "address",
          "name": "",
          "type": "address"
        }
      ],
      "name": "minterCounter",
      "outputs": [
        {
          "internalType": "uint256",
          "name": "",
          "type": "uint256"
        }
      ],
      "stateMutability": "view",
      "type": "function"
    },
    {
      "inputs": [
        {
          "internalType": "address",
          "name": "",
          "type": "address"
        }
      ],
      "name": "minterDocumentRequestCounter",
      "outputs": [
        {
          "internalType": "uint256",
          "name": "",
          "type": "uint256"
        }
      ],
      "stateMutability": "view",
      "type": "function"
    },
    {
      "inputs": [
        {
          "internalType": "address",
          "name": "",
          "type": "address"
        },
        {
          "internalType": "uint256",
          "name": "",
          "type": "uint256"
        }
      ],
      "name": "minterDocumentRequests",
      "outputs": [
        {
          "internalType": "address",
          "name": "user",
          "type": "address"
        },
        {
          "internalType": "string",
          "name": "userDid",
          "type": "string"
        },
        {
          "internalType": "address",
          "name": "toMinter",
          "type": "address"
        },
        {
          "internalType": "string",
          "name": "toMinterDid",
          "type": "string"
        },
        {
          "internalType": "string",
          "name": "documentURI",
          "type": "string"
        },
        {
          "internalType": "uint256",
          "name": "status",
          "type": "uint256"
        },
        {
          "internalType": "string",
          "name": "description",
          "type": "string"
        }
      ],
      "stateMutability": "view",
      "type": "function"
    },
    {
      "inputs": [
        {
          "internalType": "address",
          "name": "minter",
          "type": "address"
        },
        {
          "internalType": "string",
          "name": "name",
          "type": "string"
        },
        {
          "internalType": "string",
          "name": "symbol",
          "type": "string"
        },
        {
          "internalType": "address",
          "name": "paymentAddress",
          "type": "address"
        },
        {
          "internalType": "bool",
          "name": "hasUserKyc",
          "type": "bool"
        },
        {
          "internalType": "uint256",
          "name": "feeStructure",
          "type": "uint256"
        },
        {
          "internalType": "uint256",
          "name": "serviceFee",
          "type": "uint256"
        },
        {
          "internalType": "address",
          "name": "factoryAddress",
          "type": "address"
        }
      ],
      "name": "addToRegistry",
      "outputs": [
        {
          "internalType": "uint256",
          "name": "",
          "type": "uint256"
        }
      ],
      "stateMutability": "nonpayable",
      "type": "function"
    }
  ],
  "bytecode": "0x608060405234801561001057600080fd5b50611098806100206000396000f3fe608060405234801561001057600080fd5b50600436106100575760003560e01c80632aa222c81461005c5780636efaa699146100b4578063761901bb14610300578063967426ff146103585780639aa94ba5146104e9575b600080fd5b61009e6004803603602081101561007257600080fd5b81019080803573ffffffffffffffffffffffffffffffffffffffff1690602001909291905050506106d0565b6040518082815260200191505060405180910390f35b610100600480360360408110156100ca57600080fd5b81019080803573ffffffffffffffffffffffffffffffffffffffff169060200190929190803590602001909291905050506106e8565b604051808873ffffffffffffffffffffffffffffffffffffffff168152602001806020018773ffffffffffffffffffffffffffffffffffffffff16815260200180602001806020018681526020018060200185810385528b818151815260200191508051906020019080838360005b8381101561018a57808201518184015260208101905061016f565b50505050905090810190601f1680156101b75780820380516001836020036101000a031916815260200191505b50858103845289818151815260200191508051906020019080838360005b838110156101f05780820151818401526020810190506101d5565b50505050905090810190601f16801561021d5780820380516001836020036101000a031916815260200191505b50858103835288818151815260200191508051906020019080838360005b8381101561025657808201518184015260208101905061023b565b50505050905090810190601f1680156102835780820380516001836020036101000a031916815260200191505b50858103825286818151815260200191508051906020019080838360005b838110156102bc5780820151818401526020810190506102a1565b50505050905090810190601f1680156102e95780820380516001836020036101000a031916815260200191505b509b50505050505050505050505060405180910390f35b6103426004803603602081101561031657600080fd5b81019080803573ffffffffffffffffffffffffffffffffffffffff1690602001909291905050506109d7565b6040518082815260200191505060405180910390f35b6103846004803603602081101561036e57600080fd5b81019080803590602001909291905050506109ef565b604051808b73ffffffffffffffffffffffffffffffffffffffff16815260200180602001806020018a73ffffffffffffffffffffffffffffffffffffffff16815260200189151581526020018881526020018781526020018681526020018573ffffffffffffffffffffffffffffffffffffffff168152602001841515815260200183810383528c818151815260200191508051906020019080838360005b8381101561043e578082015181840152602081019050610423565b50505050905090810190601f16801561046b5780820380516001836020036101000a031916815260200191505b5083810382528b818151815260200191508051906020019080838360005b838110156104a4578082015181840152602081019050610489565b50505050905090810190601f1680156104d15780820380516001836020036101000a031916815260200191505b509c5050505050505050505050505060405180910390f35b6106ba600480360361010081101561050057600080fd5b81019080803573ffffffffffffffffffffffffffffffffffffffff1690602001909291908035906020019064010000000081111561053d57600080fd5b82018360208201111561054f57600080fd5b8035906020019184600183028401116401000000008311171561057157600080fd5b91908080601f016020809104026020016040519081016040528093929190818152602001838380828437600081840152601f19601f820116905080830192505050505050509192919290803590602001906401000000008111156105d457600080fd5b8201836020820111156105e657600080fd5b8035906020019184600183028401116401000000008311171561060857600080fd5b91908080601f016020809104026020016040519081016040528093929190818152602001838380828437600081840152601f19601f820116905080830192505050505050509192919290803573ffffffffffffffffffffffffffffffffffffffff1690602001909291908035151590602001909291908035906020019092919080359060200190929190803573ffffffffffffffffffffffffffffffffffffffff169060200190929190505050610bed565b6040518082815260200191505060405180910390f35b60026020528060005260406000206000915090505481565b6003602052816000526040600020602052806000526040600020600091509150508060000160009054906101000a900473ffffffffffffffffffffffffffffffffffffffff1690806001018054600181600116156101000203166002900480601f0160208091040260200160405190810160405280929190818152602001828054600181600116156101000203166002900480156107c75780601f1061079c576101008083540402835291602001916107c7565b820191906000526020600020905b8154815290600101906020018083116107aa57829003601f168201915b5050505050908060020160009054906101000a900473ffffffffffffffffffffffffffffffffffffffff1690806003018054600181600116156101000203166002900480601f01602080910402602001604051908101604052809291908181526020018280546001816001161561010002031660029004801561088b5780601f106108605761010080835404028352916020019161088b565b820191906000526020600020905b81548152906001019060200180831161086e57829003601f168201915b505050505090806004018054600181600116156101000203166002900480601f0160208091040260200160405190810160405280929190818152602001828054600181600116156101000203166002900480156109295780601f106108fe57610100808354040283529160200191610929565b820191906000526020600020905b81548152906001019060200180831161090c57829003601f168201915b505050505090806005015490806006018054600181600116156101000203166002900480601f0160208091040260200160405190810160405280929190818152602001828054600181600116156101000203166002900480156109cd5780601f106109a2576101008083540402835291602001916109cd565b820191906000526020600020905b8154815290600101906020018083116109b057829003601f168201915b5050505050905087565b60006020528060005260406000206000915090505481565b60016020528060005260406000206000915090508060000160009054906101000a900473ffffffffffffffffffffffffffffffffffffffff1690806001018054600181600116156101000203166002900480601f016020809104026020016040519081016040528092919081815260200182805460018160011615610100020316600290048015610ac15780601f10610a9657610100808354040283529160200191610ac1565b820191906000526020600020905b815481529060010190602001808311610aa457829003601f168201915b505050505090806002018054600181600116156101000203166002900480601f016020809104026020016040519081016040528092919081815260200182805460018160011615610100020316600290048015610b5f5780601f10610b3457610100808354040283529160200191610b5f565b820191906000526020600020905b815481529060010190602001808311610b4257829003601f168201915b5050505050908060030160009054906101000a900473ffffffffffffffffffffffffffffffffffffffff16908060030160149054906101000a900460ff16908060040154908060050154908060060154908060070160009054906101000a900473ffffffffffffffffffffffffffffffffffffffff16908060070160149054906101000a900460ff1690508a565b60008060008a73ffffffffffffffffffffffffffffffffffffffff1673ffffffffffffffffffffffffffffffffffffffff1681526020019081526020016000206000815480929190600101919050555060008060008b73ffffffffffffffffffffffffffffffffffffffff1673ffffffffffffffffffffffffffffffffffffffff1681526020019081526020016000205490506040518061014001604052808b73ffffffffffffffffffffffffffffffffffffffff1681526020018a81526020018981526020018873ffffffffffffffffffffffffffffffffffffffff16815260200187151581526020018681526020014281526020018581526020018473ffffffffffffffffffffffffffffffffffffffff168152602001600115158152506001600083815260200190815260200160002060008201518160000160006101000a81548173ffffffffffffffffffffffffffffffffffffffff021916908373ffffffffffffffffffffffffffffffffffffffff1602179055506020820151816001019080519060200190610d83929190610fb7565b506040820151816002019080519060200190610da0929190610fb7565b5060608201518160030160006101000a81548173ffffffffffffffffffffffffffffffffffffffff021916908373ffffffffffffffffffffffffffffffffffffffff16021790555060808201518160030160146101000a81548160ff02191690831515021790555060a0820151816004015560c0820151816005015560e082015181600601556101008201518160070160006101000a81548173ffffffffffffffffffffffffffffffffffffffff021916908373ffffffffffffffffffffffffffffffffffffffff1602179055506101208201518160070160146101000a81548160ff021916908315150217905550905050876040518082805190602001908083835b60208310610ec65780518252602082019150602081019050602083039250610ea3565b6001836020036101000a0380198251168184511680821785525050505050509050019150506040518091039020818b73ffffffffffffffffffffffffffffffffffffffff167f27cbb566eb604924251497b674c4c5afaa8275d5ef452d9dd86cdd6e0ada15ca8c6040518080602001828103825283818151815260200191508051906020019080838360005b83811015610f6d578082015181840152602081019050610f52565b50505050905090810190601f168015610f9a5780820380516001836020036101000a031916815260200191505b509250505060405180910390a48091505098975050505050505050565b828054600181600116156101000203166002900490600052602060002090601f016020900481019282610fed5760008555611034565b82601f1061100657805160ff1916838001178555611034565b82800160010185558215611034579182015b82811115611033578251825591602001919060010190611018565b5b5090506110419190611045565b5090565b5b8082111561105e576000816000905550600101611046565b509056fea26469706673582212201b97eadb916807bd7846b01ddd8641afd87d752c9c097dce441f9bf698b18beb64736f6c63430007060033",
  "immutableReferences": {},
  "source": "pragma solidity ^0.7.0;\nimport \"@openzeppelin/contracts/token/ERC721/ERC721.sol\";\nimport \"@openzeppelin/contracts/token/ERC721/ERC721Burnable.sol\";\nimport \"@openzeppelin/contracts/token/ERC721/ERC721Pausable.sol\";\nimport \"@openzeppelin/contracts/utils/Counters.sol\";\n\n/**\n *  Register Minters  debe ir un mapping, un evento de add registry, un counter para \n saber cuantos registros , get de fetch que debe recibir un address, y returnar un struct de vuelta\n */\ncontract MinterRegistry {\n    // Documents provider mappings\n    mapping(address => uint) public minterCounter;\n    mapping(uint => DataProviderMinter) public dataProviderMinters;\n\n    // Requested Documents by minter id sequence/autonumber\n    mapping(address => uint) public minterDocumentRequestCounter;\n\n    // Requests by minter by autonumber\n    mapping(address => mapping(uint => DocumentMintingRequest)) public minterDocumentRequests;\n    \n    enum DocumentMintingRequestStatus   {\n        REQUEST,\n        MINTED,\n        BURNED\n    }\n\n    // Document minting request\n    struct DocumentMintingRequest {\n        address user;\n        string userDid;\n        address toMinter; // NFT\n        string toMinterDid;\n        string documentURI;\n        uint status;        \n        string description;\n    }\n\n    // Document minting provider\n    struct DataProviderMinter {\n        address minterAddress;\n        string name;\n        string symbol;\n        address paymentAddress;//*\n        bool hasUserKyc;\n        uint feeStructure;//*\n        uint created;\n        uint serviceFee;//*\n        address factoryAddress;//*\n        bool enabled;\n    }\n\n    // RequestMinting events\n    event MinterRegistered(\n        address indexed minter, // NFT\n        uint indexed id,\n        string name,\n        string indexed symbol\n    );\n\n    constructor() public {\n\n    }\n    \n    function addToRegistry(\n        address minter,\n        string memory name,\n        string memory symbol,\n        address paymentAddress,\n        bool hasUserKyc,\n        uint feeStructure,\n        uint serviceFee,\n        address factoryAddress  \n    ) public returns(uint){\n\n        minterCounter[minter]++;\n        uint i = minterCounter[minter];\n            \n        dataProviderMinters[i] = DataProviderMinter({\n            minterAddress: minter, \n            name: name,\n            symbol: symbol,\n            paymentAddress: paymentAddress,\n            hasUserKyc: hasUserKyc,\n            feeStructure: feeStructure,\n            created: block.timestamp,\n            serviceFee: serviceFee,\n            factoryAddress: factoryAddress,\n            enabled: true\n        });\n\n        emit MinterRegistered(minter, i, name, symbol);\n        return i;\n    }\n\n}\n\n",
  "sourcePath": "/home/rogelio/Code/xdv/electronic-sa-contracts/contracts/WMutation.sol",
  "compiler": {
    "name": "solc",
    "version": "0.7.6+commit.7338295f.Emscripten.clang"
  },
  "schemaVersion": "3.3.3",
  "updatedAt": "2021-02-07T13:34:26.717Z",
  "devdoc": {
    "kind": "dev",
    "methods": {},
    "version": 1
  },
  "userdoc": {
    "kind": "user",
    "methods": {},
    "notice": "Register Minters  debe ir un mapping, un evento de add registry, un counter para  saber cuantos registros , get de fetch que debe recibir un address, y returnar un struct de vuelta",
    "version": 1
  }
}