{
  "contractName": "RelayJob",
  "abi": [
    {
      "inputs": [],
      "name": "jobCounter",
      "outputs": [
        {
          "internalType": "uint256",
          "name": "",
          "type": "uint256"
        }
      ],
      "stateMutability": "view",
      "type": "function"
    },
    {
      "inputs": [
        {
          "internalType": "uint256",
          "name": "",
          "type": "uint256"
        }
      ],
      "name": "jobs",
      "outputs": [
        {
          "internalType": "uint256",
          "name": "status",
          "type": "uint256"
        },
        {
          "internalType": "uint256",
          "name": "id",
          "type": "uint256"
        },
        {
          "internalType": "bytes",
          "name": "response",
          "type": "bytes"
        },
        {
          "internalType": "bytes4",
          "name": "selector",
          "type": "bytes4"
        }
      ],
      "stateMutability": "view",
      "type": "function"
    },
    {
      "inputs": [
        {
          "internalType": "bytes",
          "name": "ret",
          "type": "bytes"
        },
        {
          "internalType": "bytes4",
          "name": "selector",
          "type": "bytes4"
        }
      ],
      "name": "addJob",
      "outputs": [
        {
          "internalType": "uint256",
          "name": "",
          "type": "uint256"
        }
      ],
      "stateMutability": "nonpayable",
      "type": "function"
    },
    {
      "inputs": [
        {
          "internalType": "uint256",
          "name": "id",
          "type": "uint256"
        }
      ],
      "name": "hasInit",
      "outputs": [
        {
          "internalType": "bool",
          "name": "",
          "type": "bool"
        }
      ],
      "stateMutability": "nonpayable",
      "type": "function"
    },
    {
      "inputs": [
        {
          "internalType": "uint256",
          "name": "id",
          "type": "uint256"
        }
      ],
      "name": "exists",
      "outputs": [
        {
          "internalType": "bool",
          "name": "",
          "type": "bool"
        }
      ],
      "stateMutability": "nonpayable",
      "type": "function"
    },
    {
      "inputs": [
        {
          "internalType": "uint256",
          "name": "id",
          "type": "uint256"
        }
      ],
      "name": "get",
      "outputs": [
        {
          "components": [
            {
              "internalType": "uint256",
              "name": "status",
              "type": "uint256"
            },
            {
              "internalType": "uint256",
              "name": "id",
              "type": "uint256"
            },
            {
              "internalType": "bytes",
              "name": "response",
              "type": "bytes"
            },
            {
              "internalType": "bytes4",
              "name": "selector",
              "type": "bytes4"
            }
          ],
          "internalType": "struct RelayJob.MessageRequest",
          "name": "",
          "type": "tuple"
        }
      ],
      "stateMutability": "nonpayable",
      "type": "function"
    }
  ],
  "bytecode": "0x608060405234801561001057600080fd5b50610a39806100206000396000f3fe608060405234801561001057600080fd5b50600436106100625760003560e01c8063180aedf3146100675780634f558e791461009a57806350355d76146100ca5780635e85d175146100e85780639507d39a14610118578063d69205aa14610148575b600080fd5b610081600480360381019061007c91906106c3565b610178565b6040516100919493929190610864565b60405180910390f35b6100b460048036038101906100af91906106c3565b61024d565b6040516100c1919061080c565b60405180910390f35b6100d26102be565b6040516100df9190610849565b60405180910390f35b61010260048036038101906100fd919061066f565b6102c4565b60405161010f9190610849565b60405180910390f35b610132600480360381019061012d91906106c3565b610391565b60405161013f9190610827565b60405180910390f35b610162600480360381019061015d91906106c3565b6104c9565b60405161016f919061080c565b60405180910390f35b6001602052806000526040600020600091509050806000015490806001015490806002018054600181600116156101000203166002900480601f0160208091040260200160405190810160405280929190818152602001828054600181600116156101000203166002900480156102305780601f1061020557610100808354040283529160200191610230565b820191906000526020600020905b81548152906001019060200180831161021357829003601f168201915b5050505050908060030160009054906101000a900460e01b905084565b60008060e01b7bffffffffffffffffffffffffffffffffffffffffffffffffffffffff19166001600084815260200190815260200160002060030160009054906101000a900460e01b7bffffffffffffffffffffffffffffffffffffffffffffffffffffffff191614159050919050565b60005481565b60006040518060800160405280600081526020016000548152602001848152602001837bffffffffffffffffffffffffffffffffffffffffffffffffffffffff191681525060016000805481526020019081526020016000206000820151816000015560208201518160010155604082015181600201908051906020019061034d9291906104eb565b5060608201518160030160006101000a81548163ffffffff021916908360e01c02179055509050506000808154809291906001019190505550600054905092915050565b610399610579565b600160008381526020019081526020016000206040518060800160405290816000820154815260200160018201548152602001600282018054600181600116156101000203166002900480601f0160208091040260200160405190810160405280929190818152602001828054600181600116156101000203166002900480156104645780601f1061043957610100808354040283529160200191610464565b820191906000526020600020905b81548152906001019060200180831161044757829003601f168201915b505050505081526020016003820160009054906101000a900460e01b7bffffffffffffffffffffffffffffffffffffffffffffffffffffffff19167bffffffffffffffffffffffffffffffffffffffffffffffffffffffff1916815250509050919050565b6000806001600084815260200190815260200160002060000154149050919050565b828054600181600116156101000203166002900490600052602060002090601f0160209004810192826105215760008555610568565b82601f1061053a57805160ff1916838001178555610568565b82800160010185558215610568579182015b8281111561056757825182559160200191906001019061054c565b5b50905061057591906105c0565b5090565b604051806080016040528060008152602001600081526020016060815260200160007bffffffffffffffffffffffffffffffffffffffffffffffffffffffff191681525090565b5b808211156105d95760008160009055506001016105c1565b5090565b60006105f06105eb846108e1565b6108b0565b90508281526020810184848401111561060857600080fd5b610613848285610980565b509392505050565b60008135905061062a816109d5565b92915050565b600082601f83011261064157600080fd5b81356106518482602086016105dd565b91505092915050565b600081359050610669816109ec565b92915050565b6000806040838503121561068257600080fd5b600083013567ffffffffffffffff81111561069c57600080fd5b6106a885828601610630565b92505060206106b98582860161061b565b9150509250929050565b6000602082840312156106d557600080fd5b60006106e38482850161065a565b91505092915050565b6106f58161093e565b82525050565b6107048161094a565b82525050565b6107138161094a565b82525050565b600061072482610911565b61072e818561091c565b935061073e81856020860161098f565b610747816109c4565b840191505092915050565b600061075d82610911565b610767818561092d565b935061077781856020860161098f565b610780816109c4565b840191505092915050565b60006080830160008301516107a360008601826107ee565b5060208301516107b660208601826107ee565b50604083015184820360408601526107ce8282610719565b91505060608301516107e360608601826106fb565b508091505092915050565b6107f781610976565b82525050565b61080681610976565b82525050565b600060208201905061082160008301846106ec565b92915050565b60006020820190508181036000830152610841818461078b565b905092915050565b600060208201905061085e60008301846107fd565b92915050565b600060808201905061087960008301876107fd565b61088660208301866107fd565b81810360408301526108988185610752565b90506108a7606083018461070a565b95945050505050565b6000604051905081810181811067ffffffffffffffff821117156108d7576108d66109c2565b5b8060405250919050565b600067ffffffffffffffff8211156108fc576108fb6109c2565b5b601f19601f8301169050602081019050919050565b600081519050919050565b600082825260208201905092915050565b600082825260208201905092915050565b60008115159050919050565b60007fffffffff0000000000000000000000000000000000000000000000000000000082169050919050565b6000819050919050565b82818337600083830152505050565b60005b838110156109ad578082015181840152602081019050610992565b838111156109bc576000848401525b50505050565bfe5b6000601f19601f8301169050919050565b6109de8161094a565b81146109e957600080fd5b50565b6109f581610976565b8114610a0057600080fd5b5056fea2646970667358221220ff7108d270d6abe3215c2861e4fc5769578a1c33e72942508b0f38310dd7162d64736f6c63430007060033",
  "immutableReferences": {},
  "source": "pragma solidity ^0.7.0;\npragma experimental ABIEncoderV2;\n\n\ncontract RelayJob {\n    struct MessageRequest {\n        uint status;\n        uint id;\n        bytes response;\n        bytes4 selector;\n    }\n\n    uint public jobCounter;\n    mapping (uint => MessageRequest) public jobs;\n\n    function addJob(\n        bytes memory ret,\n        bytes4 selector\n    ) \n    external returns(uint) {\n\n        jobs[jobCounter] = MessageRequest({\n            status: 0,\n            id: jobCounter,\n            response: ret,\n            selector: selector\n        });\n        jobCounter++;\n\n        return jobCounter;\n    }\n\n    function hasInit(\n       uint id\n    ) \n    public returns(bool) {\n        return jobs[id].status == 0;\n    }\n\n    function exists(\n       uint id\n    ) \n    public returns(bool) {\n        return jobs[id].selector != bytes4(0);\n    }\n\n\n    function get(\n       uint id\n    ) \n    public returns(MessageRequest memory) {\n        return jobs[id];\n    }\n}\n\n",
  "sourcePath": "/home/rogelio/Code/xdv/electronic-sa-contracts/contracts/RelayJob.sol",
  "compiler": {
    "name": "solc",
    "version": "0.7.6+commit.7338295f.Emscripten.clang"
  },
  "schemaVersion": "3.3.3",
  "updatedAt": "2021-02-13T12:39:15.665Z",
  "devdoc": {
    "kind": "dev",
    "methods": {},
    "version": 1
  },
  "userdoc": {
    "kind": "user",
    "methods": {},
    "version": 1
  }
}