{
  "contractName": "RelayJob",
  "abi": [
    {
      "inputs": [],
      "stateMutability": "nonpayable",
      "type": "constructor"
    },
    {
      "anonymous": false,
      "inputs": [
        {
          "indexed": false,
          "internalType": "uint256",
          "name": "id",
          "type": "uint256"
        }
      ],
      "name": "JobMessageLiquidationRequest",
      "type": "event"
    },
    {
      "anonymous": false,
      "inputs": [
        {
          "indexed": false,
          "internalType": "uint256",
          "name": "id",
          "type": "uint256"
        },
        {
          "indexed": false,
          "internalType": "uint256",
          "name": "status",
          "type": "uint256"
        }
      ],
      "name": "JobMessageRelayed",
      "type": "event"
    },
    {
      "anonymous": false,
      "inputs": [
        {
          "indexed": false,
          "internalType": "address",
          "name": "controller",
          "type": "address"
        },
        {
          "indexed": false,
          "internalType": "bytes4",
          "name": "selector",
          "type": "bytes4"
        },
        {
          "indexed": false,
          "internalType": "uint256",
          "name": "id",
          "type": "uint256"
        }
      ],
      "name": "JobMessageRequestCompleted",
      "type": "event"
    },
    {
      "inputs": [],
      "name": "jobCounter",
      "outputs": [
        {
          "internalType": "uint256",
          "name": "",
          "type": "uint256"
        }
      ],
      "stateMutability": "view",
      "type": "function",
      "constant": true
    },
    {
      "inputs": [
        {
          "internalType": "uint256",
          "name": "",
          "type": "uint256"
        }
      ],
      "name": "jobs",
      "outputs": [
        {
          "internalType": "uint256",
          "name": "status",
          "type": "uint256"
        },
        {
          "internalType": "uint256",
          "name": "id",
          "type": "uint256"
        },
        {
          "internalType": "string",
          "name": "metadataURI",
          "type": "string"
        },
        {
          "internalType": "bytes",
          "name": "response",
          "type": "bytes"
        },
        {
          "internalType": "bytes4",
          "name": "selector",
          "type": "bytes4"
        },
        {
          "internalType": "address",
          "name": "agent",
          "type": "address"
        },
        {
          "internalType": "uint256",
          "name": "created",
          "type": "uint256"
        },
        {
          "internalType": "uint256",
          "name": "updated",
          "type": "uint256"
        },
        {
          "internalType": "uint256",
          "name": "ttl",
          "type": "uint256"
        }
      ],
      "stateMutability": "view",
      "type": "function",
      "constant": true
    },
    {
      "inputs": [],
      "name": "owner",
      "outputs": [
        {
          "internalType": "address",
          "name": "",
          "type": "address"
        }
      ],
      "stateMutability": "view",
      "type": "function",
      "constant": true
    },
    {
      "inputs": [
        {
          "internalType": "address",
          "name": "caller",
          "type": "address"
        },
        {
          "internalType": "bytes",
          "name": "ret",
          "type": "bytes"
        },
        {
          "internalType": "bytes4",
          "name": "selector",
          "type": "bytes4"
        },
        {
          "internalType": "string",
          "name": "metadataURI",
          "type": "string"
        }
      ],
      "name": "addJob",
      "outputs": [
        {
          "internalType": "uint256",
          "name": "",
          "type": "uint256"
        }
      ],
      "stateMutability": "nonpayable",
      "type": "function"
    },
    {
      "inputs": [
        {
          "internalType": "uint256",
          "name": "id",
          "type": "uint256"
        },
        {
          "internalType": "bytes",
          "name": "ret",
          "type": "bytes"
        },
        {
          "internalType": "bytes4",
          "name": "selector",
          "type": "bytes4"
        },
        {
          "internalType": "string",
          "name": "metadataURI",
          "type": "string"
        }
      ],
      "name": "continueJob",
      "outputs": [
        {
          "internalType": "bool",
          "name": "",
          "type": "bool"
        }
      ],
      "stateMutability": "nonpayable",
      "type": "function"
    },
    {
      "inputs": [
        {
          "internalType": "uint256",
          "name": "id",
          "type": "uint256"
        }
      ],
      "name": "completeJob",
      "outputs": [
        {
          "internalType": "bool",
          "name": "",
          "type": "bool"
        }
      ],
      "stateMutability": "nonpayable",
      "type": "function"
    },
    {
      "inputs": [
        {
          "internalType": "uint256",
          "name": "id",
          "type": "uint256"
        }
      ],
      "name": "liquidateJob",
      "outputs": [
        {
          "internalType": "bool",
          "name": "",
          "type": "bool"
        }
      ],
      "stateMutability": "nonpayable",
      "type": "function"
    },
    {
      "inputs": [
        {
          "internalType": "uint256",
          "name": "id",
          "type": "uint256"
        }
      ],
      "name": "hasInit",
      "outputs": [
        {
          "internalType": "bool",
          "name": "",
          "type": "bool"
        }
      ],
      "stateMutability": "nonpayable",
      "type": "function"
    },
    {
      "inputs": [
        {
          "internalType": "uint256",
          "name": "id",
          "type": "uint256"
        }
      ],
      "name": "exists",
      "outputs": [
        {
          "internalType": "bool",
          "name": "",
          "type": "bool"
        }
      ],
      "stateMutability": "nonpayable",
      "type": "function"
    },
    {
      "inputs": [
        {
          "internalType": "uint256",
          "name": "id",
          "type": "uint256"
        }
      ],
      "name": "get",
      "outputs": [
        {
          "components": [
            {
              "internalType": "uint256",
              "name": "status",
              "type": "uint256"
            },
            {
              "internalType": "uint256",
              "name": "id",
              "type": "uint256"
            },
            {
              "internalType": "string",
              "name": "metadataURI",
              "type": "string"
            },
            {
              "internalType": "bytes",
              "name": "response",
              "type": "bytes"
            },
            {
              "internalType": "bytes4",
              "name": "selector",
              "type": "bytes4"
            },
            {
              "internalType": "address",
              "name": "agent",
              "type": "address"
            },
            {
              "internalType": "uint256",
              "name": "created",
              "type": "uint256"
            },
            {
              "internalType": "uint256",
              "name": "updated",
              "type": "uint256"
            },
            {
              "internalType": "uint256",
              "name": "ttl",
              "type": "uint256"
            }
          ],
          "internalType": "struct RelayJob.JobMessageRequest",
          "name": "",
          "type": "tuple"
        }
      ],
      "stateMutability": "nonpayable",
      "type": "function"
    }
  ],
  "bytecode": "0x608060405234801561001057600080fd5b50336000806101000a81548173ffffffffffffffffffffffffffffffffffffffff021916908373ffffffffffffffffffffffffffffffffffffffff160217905550611688806100606000396000f3fe608060405234801561001057600080fd5b506004361061009e5760003560e01c80639507d39a116100665780639507d39a14610177578063a1c0d32f146101a7578063c9e53d46146101d7578063cf37b15a14610207578063d69205aa146102375761009e565b8063180aedf3146100a35780634f558e79146100db57806350355d761461010b5780638da5cb5b1461012957806391b42d9014610147575b600080fd5b6100bd60048036038101906100b89190610fed565b610267565b6040516100d2999897969594939291906113be565b60405180910390f35b6100f560048036038101906100f09190610fed565b610412565b604051610102919061131d565b60405180910390f35b610113610435565b604051610120919061137a565b60405180910390f35b61013161043b565b60405161013e9190611302565b60405180910390f35b610161600480360381019061015c9190610fed565b61045f565b60405161016e919061131d565b60405180910390f35b610191600480360381019061018c9190610fed565b610525565b60405161019e9190611358565b60405180910390f35b6101c160048036038101906101bc9190610fed565b610774565b6040516101ce919061131d565b60405180910390f35b6101f160048036038101906101ec9190610f5a565b6108aa565b6040516101fe919061137a565b60405180910390f35b610221600480360381019061021c9190611016565b610a8b565b60405161022e919061131d565b60405180910390f35b610251600480360381019061024c9190610fed565b610c4e565b60405161025e919061131d565b60405180910390f35b6002602052806000526040600020600091509050806000015490806001015490806002018054600181600116156101000203166002900480601f01602080910402602001604051908101604052809291908181526020018280546001816001161561010002031660029004801561031f5780601f106102f45761010080835404028352916020019161031f565b820191906000526020600020905b81548152906001019060200180831161030257829003601f168201915b505050505090806003018054600181600116156101000203166002900480601f0160208091040260200160405190810160405280929190818152602001828054600181600116156101000203166002900480156103bd5780601f10610392576101008083540402835291602001916103bd565b820191906000526020600020905b8154815290600101906020018083116103a057829003601f168201915b5050505050908060040160009054906101000a900460e01b908060040160049054906101000a900473ffffffffffffffffffffffffffffffffffffffff16908060050154908060060154908060070154905089565b600060016002600084815260200190815260200160002060000154119050919050565b60015481565b60008054906101000a900473ffffffffffffffffffffffffffffffffffffffff1681565b6000426002600084815260200190815260200160002060070154116104b9576040517f08c379a00000000000000000000000000000000000000000000000000000000081526004016104b090611338565b60405180910390fd5b6004808111156104c557fe5b63ffffffff1660026000848152602001908152602001600020600001819055507fc3bec9ecc6ff2c1ed476962b67da3f9b4375c2162abfd174e3a947e43a61a7ce82604051610514919061137a565b60405180910390a160019050919050565b61052d610c91565b60026000838152602001908152602001600020604051806101200160405290816000820154815260200160018201548152602001600282018054600181600116156101000203166002900480601f0160208091040260200160405190810160405280929190818152602001828054600181600116156101000203166002900480156105f95780601f106105ce576101008083540402835291602001916105f9565b820191906000526020600020905b8154815290600101906020018083116105dc57829003601f168201915b50505050508152602001600382018054600181600116156101000203166002900480601f01602080910402602001604051908101604052809291908181526020018280546001816001161561010002031660029004801561069b5780601f106106705761010080835404028352916020019161069b565b820191906000526020600020905b81548152906001019060200180831161067e57829003601f168201915b505050505081526020016004820160009054906101000a900460e01b7bffffffffffffffffffffffffffffffffffffffffffffffffffffffff19167bffffffffffffffffffffffffffffffffffffffffffffffffffffffff191681526020016004820160049054906101000a900473ffffffffffffffffffffffffffffffffffffffff1673ffffffffffffffffffffffffffffffffffffffff1673ffffffffffffffffffffffffffffffffffffffff16815260200160058201548152602001600682015481526020016007820154815250509050919050565b60006002600083815260200190815260200160002060040160049054906101000a900473ffffffffffffffffffffffffffffffffffffffff1673ffffffffffffffffffffffffffffffffffffffff163373ffffffffffffffffffffffffffffffffffffffff161461081a576040517f08c379a000000000000000000000000000000000000000000000000000000000815260040161081190611338565b60405180910390fd5b6003600481111561082757fe5b60026000848152602001908152602001600020600001819055504260026000848152602001908152602001600020600601819055507fe4f08c51ccb2f6b523b2cc010fa0779f1196ba6ad93e7f991436d6cd4b1efe8e826003600481111561088b57fe5b604051610899929190611395565b60405180910390a160019050919050565b6000600160008154809291906001019190505550604051806101200160405280600160048111156108d757fe5b81526020016001548152602001838152602001858152602001847bffffffffffffffffffffffffffffffffffffffffffffffffffffffff191681526020018673ffffffffffffffffffffffffffffffffffffffff168152602001428152602001600081526020016212750042018152506002600060015481526020019081526020016000206000820151816000015560208201518160010155604082015181600201908051906020019061098c929190610d12565b5060608201518160030190805190602001906109a9929190610da0565b5060808201518160040160006101000a81548163ffffffff021916908360e01c021790555060a08201518160040160046101000a81548173ffffffffffffffffffffffffffffffffffffffff021916908373ffffffffffffffffffffffffffffffffffffffff16021790555060c0820151816005015560e0820151816006015561010082015181600701559050507fe4f08c51ccb2f6b523b2cc010fa0779f1196ba6ad93e7f991436d6cd4b1efe8e60015460016004811115610a6857fe5b604051610a76929190611395565b60405180910390a16001549050949350505050565b60006002600086815260200190815260200160002060040160049054906101000a900473ffffffffffffffffffffffffffffffffffffffff1673ffffffffffffffffffffffffffffffffffffffff163373ffffffffffffffffffffffffffffffffffffffff1614610b31576040517f08c379a0000000000000000000000000000000000000000000000000000000008152600401610b2890611338565b60405180910390fd5b60026004811115610b3e57fe5b600260008781526020019081526020016000206000018190555081600260008781526020019081526020016000206002019080519060200190610b82929190610d12565b5083600260008781526020019081526020016000206003019080519060200190610bad929190610da0565b50826002600087815260200190815260200160002060040160006101000a81548163ffffffff021916908360e01c02179055504260026000878152602001908152602001600020600601819055507fe4f08c51ccb2f6b523b2cc010fa0779f1196ba6ad93e7f991436d6cd4b1efe8e60015460026004811115610c2c57fe5b604051610c3a929190611395565b60405180910390a160019050949350505050565b6000600160026000848152602001908152602001600020600001541480610c8a5750600280600084815260200190815260200160002060000154145b9050919050565b6040518061012001604052806000815260200160008152602001606081526020016060815260200160007bffffffffffffffffffffffffffffffffffffffffffffffffffffffff19168152602001600073ffffffffffffffffffffffffffffffffffffffff1681526020016000815260200160008152602001600081525090565b828054600181600116156101000203166002900490600052602060002090601f016020900481019282610d485760008555610d8f565b82601f10610d6157805160ff1916838001178555610d8f565b82800160010185558215610d8f579182015b82811115610d8e578251825591602001919060010190610d73565b5b509050610d9c9190610e2e565b5090565b828054600181600116156101000203166002900490600052602060002090601f016020900481019282610dd65760008555610e1d565b82601f10610def57805160ff1916838001178555610e1d565b82800160010185558215610e1d579182015b82811115610e1c578251825591602001919060010190610e01565b5b509050610e2a9190610e2e565b5090565b5b80821115610e47576000816000905550600101610e2f565b5090565b6000610e5e610e598461148a565b611459565b905082815260208101848484011115610e7657600080fd5b610e818482856115b8565b509392505050565b6000610e9c610e97846114ba565b611459565b905082815260208101848484011115610eb457600080fd5b610ebf8482856115b8565b509392505050565b600081359050610ed68161160d565b92915050565b600081359050610eeb81611624565b92915050565b600082601f830112610f0257600080fd5b8135610f12848260208601610e4b565b91505092915050565b600082601f830112610f2c57600080fd5b8135610f3c848260208601610e89565b91505092915050565b600081359050610f548161163b565b92915050565b60008060008060808587031215610f7057600080fd5b6000610f7e87828801610ec7565b945050602085013567ffffffffffffffff811115610f9b57600080fd5b610fa787828801610ef1565b9350506040610fb887828801610edc565b925050606085013567ffffffffffffffff811115610fd557600080fd5b610fe187828801610f1b565b91505092959194509250565b600060208284031215610fff57600080fd5b600061100d84828501610f45565b91505092915050565b6000806000806080858703121561102c57600080fd5b600061103a87828801610f45565b945050602085013567ffffffffffffffff81111561105757600080fd5b61106387828801610ef1565b935050604061107487828801610edc565b925050606085013567ffffffffffffffff81111561109157600080fd5b61109d87828801610f1b565b91505092959194509250565b6110b281611544565b82525050565b6110c181611544565b82525050565b6110d081611556565b82525050565b6110df81611562565b82525050565b6110ee81611562565b82525050565b60006110ff826114ea565b6111098185611500565b93506111198185602086016115c7565b611122816115fc565b840191505092915050565b6000611138826114ea565b6111428185611511565b93506111528185602086016115c7565b61115b816115fc565b840191505092915050565b6000611171826114f5565b61117b8185611522565b935061118b8185602086016115c7565b611194816115fc565b840191505092915050565b60006111aa826114f5565b6111b48185611533565b93506111c48185602086016115c7565b6111cd816115fc565b840191505092915050565b60006111e5600c83611533565b91507f556e617574686f72697a656400000000000000000000000000000000000000006000830152602082019050919050565b60006101208301600083015161123160008601826112e4565b50602083015161124460208601826112e4565b506040830151848203604086015261125c8282611166565b9150506060830151848203606086015261127682826110f4565b915050608083015161128b60808601826110d6565b5060a083015161129e60a08601826110a9565b5060c08301516112b160c08601826112e4565b5060e08301516112c460e08601826112e4565b506101008301516112d96101008601826112e4565b508091505092915050565b6112ed816115ae565b82525050565b6112fc816115ae565b82525050565b600060208201905061131760008301846110b8565b92915050565b600060208201905061133260008301846110c7565b92915050565b60006020820190508181036000830152611351816111d8565b9050919050565b600060208201905081810360008301526113728184611218565b905092915050565b600060208201905061138f60008301846112f3565b92915050565b60006040820190506113aa60008301856112f3565b6113b760208301846112f3565b9392505050565b6000610120820190506113d4600083018c6112f3565b6113e1602083018b6112f3565b81810360408301526113f3818a61119f565b90508181036060830152611407818961112d565b905061141660808301886110e5565b61142360a08301876110b8565b61143060c08301866112f3565b61143d60e08301856112f3565b61144b6101008301846112f3565b9a9950505050505050505050565b6000604051905081810181811067ffffffffffffffff821117156114805761147f6115fa565b5b8060405250919050565b600067ffffffffffffffff8211156114a5576114a46115fa565b5b601f19601f8301169050602081019050919050565b600067ffffffffffffffff8211156114d5576114d46115fa565b5b601f19601f8301169050602081019050919050565b600081519050919050565b600081519050919050565b600082825260208201905092915050565b600082825260208201905092915050565b600082825260208201905092915050565b600082825260208201905092915050565b600061154f8261158e565b9050919050565b60008115159050919050565b60007fffffffff0000000000000000000000000000000000000000000000000000000082169050919050565b600073ffffffffffffffffffffffffffffffffffffffff82169050919050565b6000819050919050565b82818337600083830152505050565b60005b838110156115e55780820151818401526020810190506115ca565b838111156115f4576000848401525b50505050565bfe5b6000601f19601f8301169050919050565b61161681611544565b811461162157600080fd5b50565b61162d81611562565b811461163857600080fd5b50565b611644816115ae565b811461164f57600080fd5b5056fea2646970667358221220c9ad21770ab516d8520805e124f9ff62546f1133c5e01450a6299a87103fac6664736f6c63430007060033",
  "immutableReferences": {},
  "source": "pragma solidity ^0.7.0;\npragma experimental ABIEncoderV2;\n\ncontract RelayJob {\n    enum JobStatus {NONE, INIT, CONTINUE, COMPLETED, LIQUIDATED}\n\n    event JobMessageLiquidationRequest(uint256 id);\n    event JobMessageRelayed(uint256 id, uint256 status);\n\n    event JobMessageRequestCompleted(\n        address controller,\n        bytes4 selector,\n        uint256 id\n    );\n\n    struct JobMessageRequest {\n        uint256 status;\n        uint256 id;\n        string metadataURI;\n        bytes response;\n        bytes4 selector;\n        address agent;\n        uint created;\n        uint updated;\n        uint ttl;\n    }\n    address public owner;\n\n    constructor() public {\n        owner = msg.sender;\n    }\n\n    uint256 public jobCounter;\n    mapping(uint256 => JobMessageRequest) public jobs;\n\n    /**\n     * @dev Creates an assignment given a new job id\n     * @param caller sender\n     * @param ret response\n     * @param selector function name\n     * @param metadataURI job metadata\n     */\n    function addJob(\n        address caller,\n        bytes memory ret,\n        bytes4 selector,\n        string memory metadataURI\n    ) external returns (uint256) {\n        jobCounter++;\n\n        jobs[jobCounter] = JobMessageRequest({\n            status: uint256(JobStatus.INIT),\n            id: jobCounter,\n            metadataURI: metadataURI,\n            response: ret,\n            selector: selector,\n            agent: caller,\n            ttl: block.timestamp + 14 days,\n            created: block.timestamp,\n            updated: 0\n        });\n\n        emit JobMessageRelayed(jobCounter, uint256(JobStatus.INIT));\n\n        return jobCounter;\n    }\n\n    /**\n     * @dev Continues a job\n     * @param id The job id\n     * @param ret The caller return response\n     * @param selector the controller selector\n     * @param metadataURI the metadataURI for the job\n     */\n    function continueJob(\n        uint256 id,\n        bytes memory ret,\n        bytes4 selector,\n        string memory metadataURI\n    ) external returns (bool) {\n        require(msg.sender == jobs[id].agent, \"Unauthorized\");\n        jobs[id].status = uint256(JobStatus.CONTINUE);\n        jobs[id].metadataURI = metadataURI;\n        jobs[id].response = ret;\n        jobs[id].selector = selector;\n        jobs[id].updated = block.timestamp;\n\n        emit JobMessageRelayed(jobCounter, uint256(JobStatus.CONTINUE));\n\n        return true;\n    }\n\n    /**\n     * @dev Completes a job\n     * @param id The job id\n     */\n    function completeJob(\n        uint256 id\n    ) external returns (bool) {\n        require(msg.sender == jobs[id].agent, \"Unauthorized\");\n\n        jobs[id].status = uint(JobStatus.COMPLETED);\n        jobs[id].updated = block.timestamp;\n\n        emit JobMessageRelayed(id, uint(JobStatus.COMPLETED));\n\n        return true;\n    }\n\n    /**\n     * @dev Liquidate a job\n     * @param id The job id\n     */\n    function liquidateJob(uint256 id) external returns (bool) {\n        require(jobs[id].ttl > block.timestamp, \"Unauthorized\");\n\n        jobs[id].status = uint32(JobStatus.LIQUIDATED);\n\n        emit JobMessageLiquidationRequest(id);\n\n        return true;\n    }\n\n    function hasInit(uint256 id) public returns (bool) {\n        return jobs[id].status == 1 || jobs[id].status == 2;\n    }\n\n    function exists(uint256 id) public returns (bool) {\n        return jobs[id].status > 1;\n    }\n\n    function get(uint256 id) public returns (JobMessageRequest memory) {\n        return jobs[id];\n    }\n}\n",
  "sourcePath": "/home/rogelio/Code/xdv/electronic-sa-contracts/contracts/RelayJob.sol",
  "compiler": {
    "name": "solc",
    "version": "0.7.6+commit.7338295f.Emscripten.clang"
  },
  "schemaVersion": "3.3.3",
  "updatedAt": "2021-02-16T18:23:08.365Z",
  "networkType": "ethereum",
  "devdoc": {
    "kind": "dev",
    "methods": {
      "addJob(address,bytes,bytes4,string)": {
        "details": "Creates an assignment given a new job id",
        "params": {
          "caller": "sender",
          "metadataURI": "job metadata",
          "ret": "response",
          "selector": "function name"
        }
      },
      "completeJob(uint256)": {
        "details": "Completes a job",
        "params": {
          "id": "The job id"
        }
      },
      "continueJob(uint256,bytes,bytes4,string)": {
        "details": "Continues a job",
        "params": {
          "id": "The job id",
          "metadataURI": "the metadataURI for the job",
          "ret": "The caller return response",
          "selector": "the controller selector"
        }
      },
      "liquidateJob(uint256)": {
        "details": "Liquidate a job",
        "params": {
          "id": "The job id"
        }
      }
    },
    "version": 1
  },
  "userdoc": {
    "kind": "user",
    "methods": {},
    "version": 1
  }
}