{
  "contractName": "RelayJob",
  "abi": [
    {
      "inputs": [],
      "stateMutability": "nonpayable",
      "type": "constructor"
    },
    {
      "anonymous": false,
      "inputs": [
        {
          "indexed": false,
          "internalType": "uint256",
          "name": "id",
          "type": "uint256"
        }
      ],
      "name": "JobMessageLiquidationRequest",
      "type": "event"
    },
    {
      "anonymous": false,
      "inputs": [
        {
          "indexed": false,
          "internalType": "uint256",
          "name": "id",
          "type": "uint256"
        },
        {
          "indexed": false,
          "internalType": "uint256",
          "name": "status",
          "type": "uint256"
        }
      ],
      "name": "JobMessageRelayed",
      "type": "event"
    },
    {
      "anonymous": false,
      "inputs": [
        {
          "indexed": false,
          "internalType": "address",
          "name": "controller",
          "type": "address"
        },
        {
          "indexed": false,
          "internalType": "bytes4",
          "name": "selector",
          "type": "bytes4"
        },
        {
          "indexed": false,
          "internalType": "uint256",
          "name": "id",
          "type": "uint256"
        }
      ],
      "name": "JobMessageRequestCompleted",
      "type": "event"
    },
    {
      "inputs": [],
      "name": "jobCounter",
      "outputs": [
        {
          "internalType": "uint256",
          "name": "",
          "type": "uint256"
        }
      ],
      "stateMutability": "view",
      "type": "function",
      "constant": true
    },
    {
      "inputs": [
        {
          "internalType": "uint256",
          "name": "",
          "type": "uint256"
        }
      ],
      "name": "jobs",
      "outputs": [
        {
          "internalType": "uint256",
          "name": "status",
          "type": "uint256"
        },
        {
          "internalType": "uint256",
          "name": "id",
          "type": "uint256"
        },
        {
          "internalType": "string",
          "name": "metadataURI",
          "type": "string"
        },
        {
          "internalType": "bytes",
          "name": "response",
          "type": "bytes"
        },
        {
          "internalType": "bytes4",
          "name": "selector",
          "type": "bytes4"
        },
        {
          "internalType": "address",
          "name": "agent",
          "type": "address"
        },
        {
          "internalType": "uint256",
          "name": "created",
          "type": "uint256"
        },
        {
          "internalType": "uint256",
          "name": "updated",
          "type": "uint256"
        },
        {
          "internalType": "uint256",
          "name": "ttl",
          "type": "uint256"
        }
      ],
      "stateMutability": "view",
      "type": "function",
      "constant": true
    },
    {
      "inputs": [],
      "name": "owner",
      "outputs": [
        {
          "internalType": "address",
          "name": "",
          "type": "address"
        }
      ],
      "stateMutability": "view",
      "type": "function",
      "constant": true
    },
    {
      "inputs": [
        {
          "internalType": "bytes",
          "name": "ret",
          "type": "bytes"
        },
        {
          "internalType": "bytes4",
          "name": "selector",
          "type": "bytes4"
        },
        {
          "internalType": "string",
          "name": "metadataURI",
          "type": "string"
        }
      ],
      "name": "addJob",
      "outputs": [
        {
          "internalType": "uint256",
          "name": "",
          "type": "uint256"
        }
      ],
      "stateMutability": "nonpayable",
      "type": "function"
    },
    {
      "inputs": [
        {
          "internalType": "uint256",
          "name": "id",
          "type": "uint256"
        },
        {
          "internalType": "bytes",
          "name": "ret",
          "type": "bytes"
        },
        {
          "internalType": "bytes4",
          "name": "selector",
          "type": "bytes4"
        },
        {
          "internalType": "string",
          "name": "metadataURI",
          "type": "string"
        }
      ],
      "name": "continueJob",
      "outputs": [
        {
          "internalType": "bool",
          "name": "",
          "type": "bool"
        }
      ],
      "stateMutability": "nonpayable",
      "type": "function"
    },
    {
      "inputs": [
        {
          "internalType": "uint256",
          "name": "id",
          "type": "uint256"
        }
      ],
      "name": "completeJob",
      "outputs": [
        {
          "internalType": "bool",
          "name": "",
          "type": "bool"
        }
      ],
      "stateMutability": "nonpayable",
      "type": "function"
    },
    {
      "inputs": [
        {
          "internalType": "uint256",
          "name": "id",
          "type": "uint256"
        }
      ],
      "name": "liquidateJob",
      "outputs": [
        {
          "internalType": "bool",
          "name": "",
          "type": "bool"
        }
      ],
      "stateMutability": "nonpayable",
      "type": "function"
    },
    {
      "inputs": [
        {
          "internalType": "uint256",
          "name": "id",
          "type": "uint256"
        }
      ],
      "name": "hasInit",
      "outputs": [
        {
          "internalType": "bool",
          "name": "",
          "type": "bool"
        }
      ],
      "stateMutability": "nonpayable",
      "type": "function"
    },
    {
      "inputs": [
        {
          "internalType": "uint256",
          "name": "id",
          "type": "uint256"
        }
      ],
      "name": "exists",
      "outputs": [
        {
          "internalType": "bool",
          "name": "",
          "type": "bool"
        }
      ],
      "stateMutability": "nonpayable",
      "type": "function"
    },
    {
      "inputs": [
        {
          "internalType": "uint256",
          "name": "id",
          "type": "uint256"
        }
      ],
      "name": "get",
      "outputs": [
        {
          "components": [
            {
              "internalType": "uint256",
              "name": "status",
              "type": "uint256"
            },
            {
              "internalType": "uint256",
              "name": "id",
              "type": "uint256"
            },
            {
              "internalType": "string",
              "name": "metadataURI",
              "type": "string"
            },
            {
              "internalType": "bytes",
              "name": "response",
              "type": "bytes"
            },
            {
              "internalType": "bytes4",
              "name": "selector",
              "type": "bytes4"
            },
            {
              "internalType": "address",
              "name": "agent",
              "type": "address"
            },
            {
              "internalType": "uint256",
              "name": "created",
              "type": "uint256"
            },
            {
              "internalType": "uint256",
              "name": "updated",
              "type": "uint256"
            },
            {
              "internalType": "uint256",
              "name": "ttl",
              "type": "uint256"
            }
          ],
          "internalType": "struct RelayJob.JobMessageRequest",
          "name": "",
          "type": "tuple"
        }
      ],
      "stateMutability": "nonpayable",
      "type": "function"
    }
  ],
  "bytecode": "0x608060405234801561001057600080fd5b50336000806101000a81548173ffffffffffffffffffffffffffffffffffffffff021916908373ffffffffffffffffffffffffffffffffffffffff160217905550611647806100606000396000f3fe608060405234801561001057600080fd5b506004361061009e5760003560e01c80639507d39a116100665780639507d39a14610177578063a1c0d32f146101a7578063a8023fad146101d7578063cf37b15a14610207578063d69205aa146102375761009e565b8063180aedf3146100a35780634f558e79146100db57806350355d761461010b5780638da5cb5b1461012957806391b42d9014610147575b600080fd5b6100bd60048036038101906100b89190610fc3565b610267565b6040516100d299989796959493929190611394565b60405180910390f35b6100f560048036038101906100f09190610fc3565b610412565b60405161010291906112f3565b60405180910390f35b610113610435565b6040516101209190611350565b60405180910390f35b61013161043b565b60405161013e91906112d8565b60405180910390f35b610161600480360381019061015c9190610fc3565b61045f565b60405161016e91906112f3565b60405180910390f35b610191600480360381019061018c9190610fc3565b610525565b60405161019e919061132e565b60405180910390f35b6101c160048036038101906101bc9190610fc3565b610774565b6040516101ce91906112f3565b60405180910390f35b6101f160048036038101906101ec9190610f44565b6108aa565b6040516101fe9190611350565b60405180910390f35b610221600480360381019061021c9190610fec565b610a8a565b60405161022e91906112f3565b60405180910390f35b610251600480360381019061024c9190610fc3565b610c4d565b60405161025e91906112f3565b60405180910390f35b6002602052806000526040600020600091509050806000015490806001015490806002018054600181600116156101000203166002900480601f01602080910402602001604051908101604052809291908181526020018280546001816001161561010002031660029004801561031f5780601f106102f45761010080835404028352916020019161031f565b820191906000526020600020905b81548152906001019060200180831161030257829003601f168201915b505050505090806003018054600181600116156101000203166002900480601f0160208091040260200160405190810160405280929190818152602001828054600181600116156101000203166002900480156103bd5780601f10610392576101008083540402835291602001916103bd565b820191906000526020600020905b8154815290600101906020018083116103a057829003601f168201915b5050505050908060040160009054906101000a900460e01b908060040160049054906101000a900473ffffffffffffffffffffffffffffffffffffffff16908060050154908060060154908060070154905089565b600060016002600084815260200190815260200160002060000154119050919050565b60015481565b60008054906101000a900473ffffffffffffffffffffffffffffffffffffffff1681565b6000426002600084815260200190815260200160002060070154116104b9576040517f08c379a00000000000000000000000000000000000000000000000000000000081526004016104b09061130e565b60405180910390fd5b6004808111156104c557fe5b63ffffffff1660026000848152602001908152602001600020600001819055507fc3bec9ecc6ff2c1ed476962b67da3f9b4375c2162abfd174e3a947e43a61a7ce826040516105149190611350565b60405180910390a160019050919050565b61052d610c90565b60026000838152602001908152602001600020604051806101200160405290816000820154815260200160018201548152602001600282018054600181600116156101000203166002900480601f0160208091040260200160405190810160405280929190818152602001828054600181600116156101000203166002900480156105f95780601f106105ce576101008083540402835291602001916105f9565b820191906000526020600020905b8154815290600101906020018083116105dc57829003601f168201915b50505050508152602001600382018054600181600116156101000203166002900480601f01602080910402602001604051908101604052809291908181526020018280546001816001161561010002031660029004801561069b5780601f106106705761010080835404028352916020019161069b565b820191906000526020600020905b81548152906001019060200180831161067e57829003601f168201915b505050505081526020016004820160009054906101000a900460e01b7bffffffffffffffffffffffffffffffffffffffffffffffffffffffff19167bffffffffffffffffffffffffffffffffffffffffffffffffffffffff191681526020016004820160049054906101000a900473ffffffffffffffffffffffffffffffffffffffff1673ffffffffffffffffffffffffffffffffffffffff1673ffffffffffffffffffffffffffffffffffffffff16815260200160058201548152602001600682015481526020016007820154815250509050919050565b60006002600083815260200190815260200160002060040160049054906101000a900473ffffffffffffffffffffffffffffffffffffffff1673ffffffffffffffffffffffffffffffffffffffff163373ffffffffffffffffffffffffffffffffffffffff161461081a576040517f08c379a00000000000000000000000000000000000000000000000000000000081526004016108119061130e565b60405180910390fd5b6003600481111561082757fe5b60026000848152602001908152602001600020600001819055504260026000848152602001908152602001600020600601819055507fe4f08c51ccb2f6b523b2cc010fa0779f1196ba6ad93e7f991436d6cd4b1efe8e826003600481111561088b57fe5b60405161089992919061136b565b60405180910390a160019050919050565b6000600160008154809291906001019190505550604051806101200160405280600160048111156108d757fe5b81526020016001548152602001838152602001858152602001847bffffffffffffffffffffffffffffffffffffffffffffffffffffffff191681526020013373ffffffffffffffffffffffffffffffffffffffff168152602001428152602001600081526020016212750042018152506002600060015481526020019081526020016000206000820151816000015560208201518160010155604082015181600201908051906020019061098c929190610d11565b5060608201518160030190805190602001906109a9929190610d9f565b5060808201518160040160006101000a81548163ffffffff021916908360e01c021790555060a08201518160040160046101000a81548173ffffffffffffffffffffffffffffffffffffffff021916908373ffffffffffffffffffffffffffffffffffffffff16021790555060c0820151816005015560e0820151816006015561010082015181600701559050507fe4f08c51ccb2f6b523b2cc010fa0779f1196ba6ad93e7f991436d6cd4b1efe8e60015460016004811115610a6857fe5b604051610a7692919061136b565b60405180910390a160015490509392505050565b60006002600086815260200190815260200160002060040160049054906101000a900473ffffffffffffffffffffffffffffffffffffffff1673ffffffffffffffffffffffffffffffffffffffff163373ffffffffffffffffffffffffffffffffffffffff1614610b30576040517f08c379a0000000000000000000000000000000000000000000000000000000008152600401610b279061130e565b60405180910390fd5b60026004811115610b3d57fe5b600260008781526020019081526020016000206000018190555081600260008781526020019081526020016000206002019080519060200190610b81929190610d11565b5083600260008781526020019081526020016000206003019080519060200190610bac929190610d9f565b50826002600087815260200190815260200160002060040160006101000a81548163ffffffff021916908360e01c02179055504260026000878152602001908152602001600020600601819055507fe4f08c51ccb2f6b523b2cc010fa0779f1196ba6ad93e7f991436d6cd4b1efe8e60015460026004811115610c2b57fe5b604051610c3992919061136b565b60405180910390a160019050949350505050565b6000600160026000848152602001908152602001600020600001541480610c895750600280600084815260200190815260200160002060000154145b9050919050565b6040518061012001604052806000815260200160008152602001606081526020016060815260200160007bffffffffffffffffffffffffffffffffffffffffffffffffffffffff19168152602001600073ffffffffffffffffffffffffffffffffffffffff1681526020016000815260200160008152602001600081525090565b828054600181600116156101000203166002900490600052602060002090601f016020900481019282610d475760008555610d8e565b82601f10610d6057805160ff1916838001178555610d8e565b82800160010185558215610d8e579182015b82811115610d8d578251825591602001919060010190610d72565b5b509050610d9b9190610e2d565b5090565b828054600181600116156101000203166002900490600052602060002090601f016020900481019282610dd55760008555610e1c565b82601f10610dee57805160ff1916838001178555610e1c565b82800160010185558215610e1c579182015b82811115610e1b578251825591602001919060010190610e00565b5b509050610e299190610e2d565b5090565b5b80821115610e46576000816000905550600101610e2e565b5090565b6000610e5d610e5884611460565b61142f565b905082815260208101848484011115610e7557600080fd5b610e8084828561158e565b509392505050565b6000610e9b610e9684611490565b61142f565b905082815260208101848484011115610eb357600080fd5b610ebe84828561158e565b509392505050565b600081359050610ed5816115e3565b92915050565b600082601f830112610eec57600080fd5b8135610efc848260208601610e4a565b91505092915050565b600082601f830112610f1657600080fd5b8135610f26848260208601610e88565b91505092915050565b600081359050610f3e816115fa565b92915050565b600080600060608486031215610f5957600080fd5b600084013567ffffffffffffffff811115610f7357600080fd5b610f7f86828701610edb565b9350506020610f9086828701610ec6565b925050604084013567ffffffffffffffff811115610fad57600080fd5b610fb986828701610f05565b9150509250925092565b600060208284031215610fd557600080fd5b6000610fe384828501610f2f565b91505092915050565b6000806000806080858703121561100257600080fd5b600061101087828801610f2f565b945050602085013567ffffffffffffffff81111561102d57600080fd5b61103987828801610edb565b935050604061104a87828801610ec6565b925050606085013567ffffffffffffffff81111561106757600080fd5b61107387828801610f05565b91505092959194509250565b6110888161151a565b82525050565b6110978161151a565b82525050565b6110a68161152c565b82525050565b6110b581611538565b82525050565b6110c481611538565b82525050565b60006110d5826114c0565b6110df81856114d6565b93506110ef81856020860161159d565b6110f8816115d2565b840191505092915050565b600061110e826114c0565b61111881856114e7565b935061112881856020860161159d565b611131816115d2565b840191505092915050565b6000611147826114cb565b61115181856114f8565b935061116181856020860161159d565b61116a816115d2565b840191505092915050565b6000611180826114cb565b61118a8185611509565b935061119a81856020860161159d565b6111a3816115d2565b840191505092915050565b60006111bb600c83611509565b91507f556e617574686f72697a656400000000000000000000000000000000000000006000830152602082019050919050565b60006101208301600083015161120760008601826112ba565b50602083015161121a60208601826112ba565b5060408301518482036040860152611232828261113c565b9150506060830151848203606086015261124c82826110ca565b915050608083015161126160808601826110ac565b5060a083015161127460a086018261107f565b5060c083015161128760c08601826112ba565b5060e083015161129a60e08601826112ba565b506101008301516112af6101008601826112ba565b508091505092915050565b6112c381611584565b82525050565b6112d281611584565b82525050565b60006020820190506112ed600083018461108e565b92915050565b6000602082019050611308600083018461109d565b92915050565b60006020820190508181036000830152611327816111ae565b9050919050565b6000602082019050818103600083015261134881846111ee565b905092915050565b600060208201905061136560008301846112c9565b92915050565b600060408201905061138060008301856112c9565b61138d60208301846112c9565b9392505050565b6000610120820190506113aa600083018c6112c9565b6113b7602083018b6112c9565b81810360408301526113c9818a611175565b905081810360608301526113dd8189611103565b90506113ec60808301886110bb565b6113f960a083018761108e565b61140660c08301866112c9565b61141360e08301856112c9565b6114216101008301846112c9565b9a9950505050505050505050565b6000604051905081810181811067ffffffffffffffff82111715611456576114556115d0565b5b8060405250919050565b600067ffffffffffffffff82111561147b5761147a6115d0565b5b601f19601f8301169050602081019050919050565b600067ffffffffffffffff8211156114ab576114aa6115d0565b5b601f19601f8301169050602081019050919050565b600081519050919050565b600081519050919050565b600082825260208201905092915050565b600082825260208201905092915050565b600082825260208201905092915050565b600082825260208201905092915050565b600061152582611564565b9050919050565b60008115159050919050565b60007fffffffff0000000000000000000000000000000000000000000000000000000082169050919050565b600073ffffffffffffffffffffffffffffffffffffffff82169050919050565b6000819050919050565b82818337600083830152505050565b60005b838110156115bb5780820151818401526020810190506115a0565b838111156115ca576000848401525b50505050565bfe5b6000601f19601f8301169050919050565b6115ec81611538565b81146115f757600080fd5b50565b61160381611584565b811461160e57600080fd5b5056fea2646970667358221220097f32e84c543559c7cb5294b9639a73f4049b5bc4d9ef8e94b1d2d40ce0f05764736f6c63430007060033",
  "immutableReferences": {},
  "source": "pragma solidity ^0.7.0;\npragma experimental ABIEncoderV2;\n\ncontract RelayJob {\n    enum JobStatus {NONE, INIT, CONTINUE, COMPLETED, LIQUIDATED}\n\n    event JobMessageLiquidationRequest(uint256 id);\n    event JobMessageRelayed(uint256 id, uint256 status);\n\n    event JobMessageRequestCompleted(\n        address controller,\n        bytes4 selector,\n        uint256 id\n    );\n\n    struct JobMessageRequest {\n        uint256 status;\n        uint256 id;\n        string metadataURI;\n        bytes response;\n        bytes4 selector;\n        address agent;\n        uint created;\n        uint updated;\n        uint ttl;\n    }\n    address public owner;\n\n    constructor() public {\n        owner = msg.sender;\n    }\n\n    uint256 public jobCounter;\n    mapping(uint256 => JobMessageRequest) public jobs;\n\n    /**\n     * @dev Creates an assignment given a new job id\n     * @param ret response\n     * @param selector function name\n     * @param metadataURI job metadata\n     */\n    function addJob(\n        bytes memory ret,\n        bytes4 selector,\n        string memory metadataURI\n    ) external returns (uint256) {\n        jobCounter++;\n\n        jobs[jobCounter] = JobMessageRequest({\n            status: uint256(JobStatus.INIT),\n            id: jobCounter,\n            metadataURI: metadataURI,\n            response: ret,\n            selector: selector,\n            agent: msg.sender,\n            ttl: block.timestamp + 14 days,\n            created: block.timestamp,\n            updated: 0\n        });\n\n        emit JobMessageRelayed(jobCounter, uint256(JobStatus.INIT));\n\n        return jobCounter;\n    }\n\n    /**\n     * @dev Continues a job\n     * @param id The job id\n     * @param ret The caller return response\n     * @param selector the controller selector\n     * @param metadataURI the metadataURI for the job\n     */\n    function continueJob(\n        uint256 id,\n        bytes memory ret,\n        bytes4 selector,\n        string memory metadataURI\n    ) external returns (bool) {\n        require(msg.sender == jobs[id].agent, \"Unauthorized\");\n        jobs[id].status = uint256(JobStatus.CONTINUE);\n        jobs[id].metadataURI = metadataURI;\n        jobs[id].response = ret;\n        jobs[id].selector = selector;\n        jobs[id].updated = block.timestamp;\n\n        emit JobMessageRelayed(jobCounter, uint256(JobStatus.CONTINUE));\n\n        return true;\n    }\n\n    /**\n     * @dev Completes a job\n     * @param id The job id\n     */\n    function completeJob(\n        uint256 id\n    ) external returns (bool) {\n        require(msg.sender == jobs[id].agent, \"Unauthorized\");\n\n        jobs[id].status = uint(JobStatus.COMPLETED);\n        jobs[id].updated = block.timestamp;\n\n        emit JobMessageRelayed(id, uint(JobStatus.COMPLETED));\n\n        return true;\n    }\n\n    /**\n     * @dev Liquidate a job\n     * @param id The job id\n     */\n    function liquidateJob(uint256 id) external returns (bool) {\n        require(jobs[id].ttl > block.timestamp, \"Unauthorized\");\n\n        jobs[id].status = uint32(JobStatus.LIQUIDATED);\n\n        emit JobMessageLiquidationRequest(id);\n\n        return true;\n    }\n\n    function hasInit(uint256 id) public returns (bool) {\n        return jobs[id].status == 1 || jobs[id].status == 2;\n    }\n\n    function exists(uint256 id) public returns (bool) {\n        return jobs[id].status > 1;\n    }\n\n    function get(uint256 id) public returns (JobMessageRequest memory) {\n        return jobs[id];\n    }\n}\n",
  "sourcePath": "/home/rogelio/Code/xdv/electronic-sa-contracts/contracts/RelayJob.sol",
  "compiler": {
    "name": "solc",
    "version": "0.7.6+commit.7338295f.Emscripten.clang"
  },
  "schemaVersion": "3.3.3",
  "updatedAt": "2021-02-16T23:14:01.968Z",
  "networkType": "ethereum",
  "devdoc": {
    "kind": "dev",
    "methods": {
      "addJob(bytes,bytes4,string)": {
        "details": "Creates an assignment given a new job id",
        "params": {
          "metadataURI": "job metadata",
          "ret": "response",
          "selector": "function name"
        }
      },
      "completeJob(uint256)": {
        "details": "Completes a job",
        "params": {
          "id": "The job id"
        }
      },
      "continueJob(uint256,bytes,bytes4,string)": {
        "details": "Continues a job",
        "params": {
          "id": "The job id",
          "metadataURI": "the metadataURI for the job",
          "ret": "The caller return response",
          "selector": "the controller selector"
        }
      },
      "liquidateJob(uint256)": {
        "details": "Liquidate a job",
        "params": {
          "id": "The job id"
        }
      }
    },
    "version": 1
  },
  "userdoc": {
    "kind": "user",
    "methods": {},
    "version": 1
  }
}