{
  "contractName": "StateRelayer",
  "abi": [
    {
      "inputs": [
        {
          "internalType": "address",
          "name": "wfRegistry",
          "type": "address"
        },
        {
          "internalType": "address",
          "name": "relayJobService",
          "type": "address"
        }
      ],
      "stateMutability": "nonpayable",
      "type": "constructor"
    },
    {
      "anonymous": false,
      "inputs": [
        {
          "indexed": false,
          "internalType": "bytes4",
          "name": "methodSig",
          "type": "bytes4"
        }
      ],
      "name": "ActionChanged",
      "type": "event"
    },
    {
      "anonymous": false,
      "inputs": [
        {
          "indexed": false,
          "internalType": "address",
          "name": "controller",
          "type": "address"
        },
        {
          "indexed": false,
          "internalType": "bytes4",
          "name": "selector",
          "type": "bytes4"
        },
        {
          "indexed": false,
          "internalType": "uint256",
          "name": "jobId",
          "type": "uint256"
        }
      ],
      "name": "MessageRequestCompleted",
      "type": "event"
    },
    {
      "anonymous": false,
      "inputs": [
        {
          "indexed": false,
          "internalType": "string",
          "name": "propName",
          "type": "string"
        },
        {
          "indexed": false,
          "internalType": "bytes",
          "name": "data",
          "type": "bytes"
        }
      ],
      "name": "PropertyChanged",
      "type": "event"
    },
    {
      "inputs": [
        {
          "internalType": "string",
          "name": "contractName",
          "type": "string"
        },
        {
          "internalType": "address",
          "name": "contractAddress",
          "type": "address"
        },
        {
          "internalType": "uint256",
          "name": "network",
          "type": "uint256"
        },
        {
          "internalType": "string",
          "name": "version",
          "type": "string"
        }
      ],
      "name": "getDomainSeparator",
      "outputs": [
        {
          "internalType": "bytes32",
          "name": "",
          "type": "bytes32"
        }
      ],
      "stateMutability": "pure",
      "type": "function",
      "constant": true
    },
    {
      "inputs": [],
      "name": "registry",
      "outputs": [
        {
          "internalType": "contract ActionRouteRegistry",
          "name": "",
          "type": "address"
        }
      ],
      "stateMutability": "view",
      "type": "function",
      "constant": true
    },
    {
      "inputs": [],
      "name": "relayJob",
      "outputs": [
        {
          "internalType": "contract RelayJob",
          "name": "",
          "type": "address"
        }
      ],
      "stateMutability": "view",
      "type": "function",
      "constant": true
    },
    {
      "inputs": [
        {
          "internalType": "address",
          "name": "controller",
          "type": "address"
        },
        {
          "internalType": "bytes4",
          "name": "selector",
          "type": "bytes4"
        },
        {
          "internalType": "uint256",
          "name": "jobId",
          "type": "uint256"
        }
      ],
      "name": "executeActionConditions",
      "outputs": [
        {
          "internalType": "bool",
          "name": "",
          "type": "bool"
        }
      ],
      "stateMutability": "nonpayable",
      "type": "function"
    }
  ],
  "bytecode": "0x60806040523480156200001157600080fd5b5060405162001667380380620016678339818101604052810190620000379190620000d7565b80600160006101000a81548173ffffffffffffffffffffffffffffffffffffffff021916908373ffffffffffffffffffffffffffffffffffffffff160217905550816000806101000a81548173ffffffffffffffffffffffffffffffffffffffff021916908373ffffffffffffffffffffffffffffffffffffffff160217905550505062000166565b600081519050620000d1816200014c565b92915050565b60008060408385031215620000eb57600080fd5b6000620000fb85828601620000c0565b92505060206200010e85828601620000c0565b9150509250929050565b600062000125826200012c565b9050919050565b600073ffffffffffffffffffffffffffffffffffffffff82169050919050565b620001578162000118565b81146200016357600080fd5b50565b6114f180620001766000396000f3fe608060405234801561001057600080fd5b506004361061004c5760003560e01c80637b103999146100515780637d2dc3301461006f578063b1e4f13e1461008d578063b479072c146100bd575b600080fd5b6100596100ed565b604051610066919061110e565b60405180910390f35b610077610111565b6040516100849190611129565b60405180910390f35b6100a760048036038101906100a29190610d27565b610137565b6040516100b491906110a0565b60405180910390f35b6100d760048036038101906100d29190610caf565b61019f565b6040516100e49190611085565b60405180910390f35b60008054906101000a900473ffffffffffffffffffffffffffffffffffffffff1681565b600160009054906101000a900473ffffffffffffffffffffffffffffffffffffffff1681565b600060405180608001604052806052815260200161146a605291398051906020012085805190602001208380519060200120858760405160200161017f9594939291906110bb565b604051602081830303815290604052805190602001209050949350505050565b60008060008054906101000a900473ffffffffffffffffffffffffffffffffffffffff1673ffffffffffffffffffffffffffffffffffffffff16634402521286866040518363ffffffff1660e01b81526004016101fd929190611025565b60006040518083038186803b15801561021557600080fd5b505afa158015610229573d6000803e3d6000fd5b505050506040513d6000823e3d601f19601f820116820180604052508101906102529190610dba565b604001515111610297576040517f08c379a000000000000000000000000000000000000000000000000000000000815260040161028e90611144565b60405180910390fd5b600160009054906101000a900473ffffffffffffffffffffffffffffffffffffffff1673ffffffffffffffffffffffffffffffffffffffff1663d69205aa836040518263ffffffff1660e01b81526004016102f291906111a4565b602060405180830381600087803b15801561030c57600080fd5b505af1158015610320573d6000803e3d6000fd5b505050506040513d601f19601f820116820180604052508101906103449190610cfe565b610383576040517f08c379a000000000000000000000000000000000000000000000000000000000815260040161037a90611164565b60405180910390fd5b60008060009054906101000a900473ffffffffffffffffffffffffffffffffffffffff1673ffffffffffffffffffffffffffffffffffffffff16634402521286866040518363ffffffff1660e01b81526004016103e1929190611025565b60006040518083038186803b1580156103f957600080fd5b505afa15801561040d573d6000803e3d6000fd5b505050506040513d6000823e3d601f19601f820116820180604052508101906104369190610dba565b9050600073ffffffffffffffffffffffffffffffffffffffff16816020015173ffffffffffffffffffffffffffffffffffffffff1614156104ac576040517f08c379a00000000000000000000000000000000000000000000000000000000081526004016104a390611184565b60405180910390fd5b60006001905060005b8260400151518110156106e457600080846020015173ffffffffffffffffffffffffffffffffffffffff16856040015184815181106104f057fe5b602002602001015133600160009054906101000a900473ffffffffffffffffffffffffffffffffffffffff1673ffffffffffffffffffffffffffffffffffffffff16639507d39a8b6040518263ffffffff1660e01b815260040161055491906111a4565b600060405180830381600087803b15801561056e57600080fd5b505af1158015610582573d6000803e3d6000fd5b505050506040513d6000823e3d601f19601f820116820180604052508101906105ab9190610dfb565b606001516040516024016105c0929190610ff5565b604051602081830303815290604052907bffffffffffffffffffffffffffffffffffffffffffffffffffffffff19166020820180517bffffffffffffffffffffffffffffffffffffffffffffffffffffffff838183161783525050505060405161062a9190610fde565b6000604051808303816000865af19150503d8060008114610667576040519150601f19603f3d011682016040523d82523d6000602084013e61066c565b606091505b50915091508161068d5761067f81610800565b6001955050505050506107f9565b6000818060200190518101906106a39190610cfe565b905080866060015185815181106106b657fe5b6020026020010190151590811515815250508480156106d25750805b945050505080806001019150506104b5565b506001151581151514156107f2576002600160009054906101000a900473ffffffffffffffffffffffffffffffffffffffff1673ffffffffffffffffffffffffffffffffffffffff16639507d39a866040518263ffffffff1660e01b815260040161074f91906111a4565b600060405180830381600087803b15801561076957600080fd5b505af115801561077d573d6000803e3d6000fd5b505050506040513d6000823e3d601f19601f820116820180604052508101906107a69190610dfb565b60000181815250507f293a437bb3f3488dbeeee47903f45e924088e053a056937c317815243af46cfe82602001518360000151866040516107e99392919061104e565b60405180910390a15b6001925050505b9392505050565b805160208201fd5b600061081b610816846111f0565b6111bf565b9050808382526020820190508285602086028201111561083a57600080fd5b60005b8581101561086a57816108508882610a18565b84526020840193506020830192505060018101905061083d565b5050509392505050565b60006108876108828461121c565b6111bf565b905080838252602082019050828560208602820111156108a657600080fd5b60005b858110156108d657816108bc8882610a42565b8452602084019350602083019250506001810190506108a9565b5050509392505050565b60006108f36108ee84611248565b6111bf565b90508281526020810184848401111561090b57600080fd5b6109168482856113c7565b509392505050565b600061093161092c84611278565b6111bf565b90508281526020810184848401111561094957600080fd5b6109548482856113b8565b509392505050565b600061096f61096a84611278565b6111bf565b90508281526020810184848401111561098757600080fd5b6109928482856113c7565b509392505050565b6000813590506109a98161140d565b92915050565b6000815190506109be8161140d565b92915050565b600082601f8301126109d557600080fd5b81516109e5848260208601610808565b91505092915050565b600082601f8301126109ff57600080fd5b8151610a0f848260208601610874565b91505092915050565b600081519050610a2781611424565b92915050565b600081359050610a3c8161143b565b92915050565b600081519050610a518161143b565b92915050565b600082601f830112610a6857600080fd5b8151610a788482602086016108e0565b91505092915050565b600082601f830112610a9257600080fd5b8135610aa284826020860161091e565b91505092915050565b600082601f830112610abc57600080fd5b8151610acc84826020860161095c565b91505092915050565b600060808284031215610ae757600080fd5b610af160806111bf565b90506000610b0184828501610a42565b6000830152506020610b15848285016109af565b602083015250604082015167ffffffffffffffff811115610b3557600080fd5b610b41848285016109ee565b604083015250606082015167ffffffffffffffff811115610b6157600080fd5b610b6d848285016109c4565b60608301525092915050565b60006101208284031215610b8c57600080fd5b610b976101206111bf565b90506000610ba784828501610c9a565b6000830152506020610bbb84828501610c9a565b602083015250604082015167ffffffffffffffff811115610bdb57600080fd5b610be784828501610aab565b604083015250606082015167ffffffffffffffff811115610c0757600080fd5b610c1384828501610a57565b6060830152506080610c2784828501610a42565b60808301525060a0610c3b848285016109af565b60a08301525060c0610c4f84828501610c9a565b60c08301525060e0610c6384828501610c9a565b60e083015250610100610c7884828501610c9a565b6101008301525092915050565b600081359050610c9481611452565b92915050565b600081519050610ca981611452565b92915050565b600080600060608486031215610cc457600080fd5b6000610cd28682870161099a565b9350506020610ce386828701610a2d565b9250506040610cf486828701610c85565b9150509250925092565b600060208284031215610d1057600080fd5b6000610d1e84828501610a18565b91505092915050565b60008060008060808587031215610d3d57600080fd5b600085013567ffffffffffffffff811115610d5757600080fd5b610d6387828801610a81565b9450506020610d748782880161099a565b9350506040610d8587828801610c85565b925050606085013567ffffffffffffffff811115610da257600080fd5b610dae87828801610a81565b91505092959194509250565b600060208284031215610dcc57600080fd5b600082015167ffffffffffffffff811115610de657600080fd5b610df284828501610ad5565b91505092915050565b600060208284031215610e0d57600080fd5b600082015167ffffffffffffffff811115610e2757600080fd5b610e3384828501610b79565b91505092915050565b610e45816112f2565b82525050565b610e54816112e0565b82525050565b610e6381611304565b82525050565b610e7281611310565b82525050565b610e818161131a565b82525050565b6000610e92826112a8565b610e9c81856112b3565b9350610eac8185602086016113c7565b610eb5816113fc565b840191505092915050565b6000610ecb826112a8565b610ed581856112c4565b9350610ee58185602086016113c7565b80840191505092915050565b610efa81611370565b82525050565b610f0981611394565b82525050565b6000610f1c6012836112cf565b91507f4d697373696e6720616374696f6e206b657900000000000000000000000000006000830152602082019050919050565b6000610f5c6015836112cf565b91507f4a6f6220616c726561647920636f6d706c6574656400000000000000000000006000830152602082019050919050565b6000610f9c6011836112cf565b91507f4d697373696e6720746f706963206b65790000000000000000000000000000006000830152602082019050919050565b610fd881611366565b82525050565b6000610fea8284610ec0565b915081905092915050565b600060408201905061100a6000830185610e3c565b818103602083015261101c8184610e87565b90509392505050565b600060408201905061103a6000830185610e4b565b6110476020830184610e78565b9392505050565b60006060820190506110636000830186610e4b565b6110706020830185610e78565b61107d6040830184610fcf565b949350505050565b600060208201905061109a6000830184610e5a565b92915050565b60006020820190506110b56000830184610e69565b92915050565b600060a0820190506110d06000830188610e69565b6110dd6020830187610e69565b6110ea6040830186610e69565b6110f76060830185610fcf565b6111046080830184610e4b565b9695505050505050565b60006020820190506111236000830184610ef1565b92915050565b600060208201905061113e6000830184610f00565b92915050565b6000602082019050818103600083015261115d81610f0f565b9050919050565b6000602082019050818103600083015261117d81610f4f565b9050919050565b6000602082019050818103600083015261119d81610f8f565b9050919050565b60006020820190506111b96000830184610fcf565b92915050565b6000604051905081810181811067ffffffffffffffff821117156111e6576111e56113fa565b5b8060405250919050565b600067ffffffffffffffff82111561120b5761120a6113fa565b5b602082029050602081019050919050565b600067ffffffffffffffff821115611237576112366113fa565b5b602082029050602081019050919050565b600067ffffffffffffffff821115611263576112626113fa565b5b601f19601f8301169050602081019050919050565b600067ffffffffffffffff821115611293576112926113fa565b5b601f19601f8301169050602081019050919050565b600081519050919050565b600082825260208201905092915050565b600081905092915050565b600082825260208201905092915050565b60006112eb82611346565b9050919050565b60006112fd82611346565b9050919050565b60008115159050919050565b6000819050919050565b60007fffffffff0000000000000000000000000000000000000000000000000000000082169050919050565b600073ffffffffffffffffffffffffffffffffffffffff82169050919050565b6000819050919050565b600061137b82611382565b9050919050565b600061138d82611346565b9050919050565b600061139f826113a6565b9050919050565b60006113b182611346565b9050919050565b82818337600083830152505050565b60005b838110156113e55780820151818401526020810190506113ca565b838111156113f4576000848401525b50505050565bfe5b6000601f19601f8301169050919050565b611416816112e0565b811461142157600080fd5b50565b61142d81611304565b811461143857600080fd5b50565b6114448161131a565b811461144f57600080fd5b50565b61145b81611366565b811461146657600080fd5b5056fe454950373132446f6d61696e28737472696e67206e616d652c737472696e672076657273696f6e2c75696e7432353620636861696e49642c6164647265737320766572696679696e67436f6e747261637429a26469706673582212200b3cd5237627adbb6c4ec6ad748fadb74be8a456ff38950759a2c99528c87e0564736f6c63430007060033",
  "immutableReferences": {},
  "source": "pragma solidity ^0.7.0;\npragma experimental ABIEncoderV2;\n\nimport \"./ActionRouteRegistry.sol\";\nimport \"./MinLibBytes.sol\";\nimport \"./RelayJob.sol\";\n\n/**\n *  Manages message state flows\n */\ncontract StateRelayer  is MessageRoute {\n    ActionRouteRegistry public registry;\n    RelayJob public relayJob;\n\n    constructor(\n        address wfRegistry,\n        address relayJobService\n    ) public {\n        relayJob = RelayJob(relayJobService);\n        registry = ActionRouteRegistry(wfRegistry);\n    }\n\n    function revertWithData(bytes memory data) internal pure {\n        assembly {\n            revert(add(data,32), mload(data))\n        }\n    }\n\n    /**\n     * @dev execute conditions\n     * @param controller contract address\n     * @param selector function name\n     * @param jobId job id\n     */\n    function executeActionConditions(\n        address controller,\n        bytes4 selector,\n        uint jobId\n    ) public returns (bool) {\n\n        // check if it has been whitelisted and purchased\n        require(registry.getAction(controller, selector).conditions.length > 0, \"Missing action key\");\n        require(\n            relayJob.hasInit(jobId), \"Job already completed\"\n        );\n        ActionRoute memory item = registry.getAction(controller, selector);    \n        // check if it has been whitelisted and purchased\n        require(item.controller != address(0), \"Missing topic key\");\n\n        bool conditionsCompleted = true;\n        for (uint i = 0;i<item.conditions.length;i++) {\n            (bool ok, bytes memory res) =  item\n            .controller\n            .call(\n                abi.encodeWithSelector(\n                    item.conditions[i],\n                    msg.sender,\n                    relayJob.get(jobId).response\n                )\n            );\n        if (!ok){\n          //re-throw the revert with the same revert reason.\n          revertWithData(res);\n          return true;\n        }\n\n            (bool conditionResult) = abi.decode(res, (bool));\n            item.conditionStatus[i] = conditionResult;\n\n            conditionsCompleted = conditionsCompleted && conditionResult;\n        }\n\n        if (conditionsCompleted == true) {\n            relayJob.get(jobId).status = 2;\n            emit MessageRequestCompleted(\n                item.controller,\n                item.selector,\n                jobId\n            );\n        }\n\n        return true;\n    }\n}\n",
  "sourcePath": "/home/rogelio/Code/xdv/electronic-sa-contracts/contracts/StateRelayer.sol",
  "compiler": {
    "name": "solc",
    "version": "0.7.6+commit.7338295f.Emscripten.clang"
  },
  "schemaVersion": "3.3.3",
  "updatedAt": "2021-02-16T18:23:08.333Z",
  "networkType": "ethereum",
  "devdoc": {
    "kind": "dev",
    "methods": {
      "executeActionConditions(address,bytes4,uint256)": {
        "details": "execute conditions",
        "params": {
          "controller": "contract address",
          "jobId": "job id",
          "selector": "function name"
        }
      }
    },
    "version": 1
  },
  "userdoc": {
    "kind": "user",
    "methods": {},
    "notice": "Manages message state flows",
    "version": 1
  }
}