{
  "contractName": "StateRelayer",
  "abi": [
    {
      "inputs": [
        {
          "internalType": "address",
          "name": "wfRegistry",
          "type": "address"
        },
        {
          "internalType": "address",
          "name": "relayJobService",
          "type": "address"
        }
      ],
      "stateMutability": "nonpayable",
      "type": "constructor"
    },
    {
      "anonymous": false,
      "inputs": [
        {
          "indexed": false,
          "internalType": "bytes4",
          "name": "methodSig",
          "type": "bytes4"
        }
      ],
      "name": "ActionChanged",
      "type": "event"
    },
    {
      "anonymous": false,
      "inputs": [
        {
          "indexed": false,
          "internalType": "uint256",
          "name": "id",
          "type": "uint256"
        }
      ],
      "name": "MessageRelayed",
      "type": "event"
    },
    {
      "anonymous": false,
      "inputs": [
        {
          "indexed": false,
          "internalType": "address",
          "name": "controller",
          "type": "address"
        },
        {
          "indexed": false,
          "internalType": "bytes4",
          "name": "selector",
          "type": "bytes4"
        },
        {
          "indexed": false,
          "internalType": "uint256",
          "name": "id",
          "type": "uint256"
        }
      ],
      "name": "MessageRequestCompleted",
      "type": "event"
    },
    {
      "anonymous": false,
      "inputs": [
        {
          "indexed": false,
          "internalType": "string",
          "name": "propName",
          "type": "string"
        },
        {
          "indexed": false,
          "internalType": "bytes",
          "name": "data",
          "type": "bytes"
        }
      ],
      "name": "PropertyChanged",
      "type": "event"
    },
    {
      "inputs": [
        {
          "internalType": "string",
          "name": "contractName",
          "type": "string"
        },
        {
          "internalType": "address",
          "name": "contractAddress",
          "type": "address"
        },
        {
          "internalType": "uint256",
          "name": "network",
          "type": "uint256"
        },
        {
          "internalType": "string",
          "name": "version",
          "type": "string"
        }
      ],
      "name": "getDomainSeparator",
      "outputs": [
        {
          "internalType": "bytes32",
          "name": "",
          "type": "bytes32"
        }
      ],
      "stateMutability": "pure",
      "type": "function"
    },
    {
      "inputs": [],
      "name": "registry",
      "outputs": [
        {
          "internalType": "contract ActionRouteRegistry",
          "name": "",
          "type": "address"
        }
      ],
      "stateMutability": "view",
      "type": "function"
    },
    {
      "inputs": [],
      "name": "relayJob",
      "outputs": [
        {
          "internalType": "contract RelayJob",
          "name": "",
          "type": "address"
        }
      ],
      "stateMutability": "view",
      "type": "function"
    },
    {
      "inputs": [
        {
          "internalType": "bytes32",
          "name": "domainSeparator",
          "type": "bytes32"
        },
        {
          "internalType": "bytes4",
          "name": "selector",
          "type": "bytes4"
        }
      ],
      "name": "validateState",
      "outputs": [
        {
          "internalType": "bool",
          "name": "",
          "type": "bool"
        }
      ],
      "stateMutability": "nonpayable",
      "type": "function"
    },
    {
      "inputs": [
        {
          "internalType": "bytes",
          "name": "ret",
          "type": "bytes"
        },
        {
          "internalType": "bytes4",
          "name": "selector",
          "type": "bytes4"
        }
      ],
      "name": "addJob",
      "outputs": [
        {
          "internalType": "uint256",
          "name": "",
          "type": "uint256"
        }
      ],
      "stateMutability": "nonpayable",
      "type": "function"
    },
    {
      "inputs": [
        {
          "internalType": "bytes32",
          "name": "domainSeparator",
          "type": "bytes32"
        },
        {
          "internalType": "bytes4",
          "name": "selector",
          "type": "bytes4"
        },
        {
          "internalType": "uint256",
          "name": "jobId",
          "type": "uint256"
        }
      ],
      "name": "executeActionConditions",
      "outputs": [
        {
          "internalType": "bool",
          "name": "",
          "type": "bool"
        }
      ],
      "stateMutability": "nonpayable",
      "type": "function"
    }
  ],
  "bytecode": "0x60806040523480156200001157600080fd5b5060405162001958380380620019588339818101604052810190620000379190620000d7565b80600160006101000a81548173ffffffffffffffffffffffffffffffffffffffff021916908373ffffffffffffffffffffffffffffffffffffffff160217905550816000806101000a81548173ffffffffffffffffffffffffffffffffffffffff021916908373ffffffffffffffffffffffffffffffffffffffff160217905550505062000166565b600081519050620000d1816200014c565b92915050565b60008060408385031215620000eb57600080fd5b6000620000fb85828601620000c0565b92505060206200010e85828601620000c0565b9150509250929050565b600062000125826200012c565b9050919050565b600073ffffffffffffffffffffffffffffffffffffffff82169050919050565b620001578162000118565b81146200016357600080fd5b50565b6117e280620001766000396000f3fe608060405234801561001057600080fd5b50600436106100625760003560e01c806331e91732146100675780633f198418146100975780635e85d175146100c75780637b103999146100f75780637d2dc33014610115578063b1e4f13e14610133575b600080fd5b610081600480360381019061007c9190610ec9565b610163565b60405161008e9190611306565b60405180910390f35b6100b160048036038101906100ac9190610f05565b610291565b6040516100be9190611306565b60405180910390f35b6100e160048036038101906100dc9190610f54565b6108f1565b6040516100ee919061147e565b60405180910390f35b6100ff6109aa565b60405161010c91906113e8565b60405180910390f35b61011d6109ce565b60405161012a9190611403565b60405180910390f35b61014d60048036038101906101489190610fa8565b6109f4565b60405161015a9190611321565b60405180910390f35b60008073ffffffffffffffffffffffffffffffffffffffff1660008054906101000a900473ffffffffffffffffffffffffffffffffffffffff1673ffffffffffffffffffffffffffffffffffffffff1663d451e0d585856040518363ffffffff1660e01b81526004016101d792919061138f565b60006040518083038186803b1580156101ef57600080fd5b505afa158015610203573d6000803e3d6000fd5b505050506040513d6000823e3d601f19601f8201168201806040525081019061022c919061103b565b6020015173ffffffffffffffffffffffffffffffffffffffff161415610287576040517f08c379a000000000000000000000000000000000000000000000000000000000815260040161027e9061145e565b60405180910390fd5b6001905092915050565b60008060008054906101000a900473ffffffffffffffffffffffffffffffffffffffff1673ffffffffffffffffffffffffffffffffffffffff1663d451e0d586866040518363ffffffff1660e01b81526004016102ef92919061138f565b60006040518083038186803b15801561030757600080fd5b505afa15801561031b573d6000803e3d6000fd5b505050506040513d6000823e3d601f19601f82011682018060405250810190610344919061103b565b604001515111610389576040517f08c379a00000000000000000000000000000000000000000000000000000000081526004016103809061141e565b60405180910390fd5b600160009054906101000a900473ffffffffffffffffffffffffffffffffffffffff1673ffffffffffffffffffffffffffffffffffffffff1663d69205aa836040518263ffffffff1660e01b81526004016103e4919061147e565b602060405180830381600087803b1580156103fe57600080fd5b505af1158015610412573d6000803e3d6000fd5b505050506040513d601f19601f820116820180604052508101906104369190610ea0565b610475576040517f08c379a000000000000000000000000000000000000000000000000000000000815260040161046c9061143e565b60405180910390fd5b60008060009054906101000a900473ffffffffffffffffffffffffffffffffffffffff1673ffffffffffffffffffffffffffffffffffffffff1663d451e0d586866040518363ffffffff1660e01b81526004016104d392919061138f565b60006040518083038186803b1580156104eb57600080fd5b505afa1580156104ff573d6000803e3d6000fd5b505050506040513d6000823e3d601f19601f82011682018060405250810190610528919061103b565b9050600073ffffffffffffffffffffffffffffffffffffffff16816020015173ffffffffffffffffffffffffffffffffffffffff16141561059e576040517f08c379a00000000000000000000000000000000000000000000000000000000081526004016105959061145e565b60405180910390fd5b60006001905060005b8260400151518110156107d657600080846020015173ffffffffffffffffffffffffffffffffffffffff16856040015184815181106105e257fe5b602002602001015133600160009054906101000a900473ffffffffffffffffffffffffffffffffffffffff1673ffffffffffffffffffffffffffffffffffffffff16639507d39a8b6040518263ffffffff1660e01b8152600401610646919061147e565b600060405180830381600087803b15801561066057600080fd5b505af1158015610674573d6000803e3d6000fd5b505050506040513d6000823e3d601f19601f8201168201806040525081019061069d919061107c565b604001516040516024016106b292919061129f565b604051602081830303815290604052907bffffffffffffffffffffffffffffffffffffffffffffffffffffffff19166020820180517bffffffffffffffffffffffffffffffffffffffffffffffffffffffff838183161783525050505060405161071c9190611288565b6000604051808303816000865af19150503d8060008114610759576040519150601f19603f3d011682016040523d82523d6000602084013e61075e565b606091505b50915091508161077f5761077181610a5c565b6001955050505050506108ea565b6000818060200190518101906107959190610ea0565b905080866060015185815181106107a857fe5b6020026020010190151590811515815250508480156107c45750805b945050505080806001019150506105a7565b506001151581151514156108e35760018060009054906101000a900473ffffffffffffffffffffffffffffffffffffffff1673ffffffffffffffffffffffffffffffffffffffff16639507d39a866040518263ffffffff1660e01b8152600401610840919061147e565b600060405180830381600087803b15801561085a57600080fd5b505af115801561086e573d6000803e3d6000fd5b505050506040513d6000823e3d601f19601f82011682018060405250810190610897919061107c565b60000181815250507f293a437bb3f3488dbeeee47903f45e924088e053a056937c317815243af46cfe82602001518360000151866040516108da939291906112cf565b60405180910390a15b6001925050505b9392505050565b6000600160009054906101000a900473ffffffffffffffffffffffffffffffffffffffff1673ffffffffffffffffffffffffffffffffffffffff16635e85d17584846040518363ffffffff1660e01b81526004016109509291906113b8565b602060405180830381600087803b15801561096a57600080fd5b505af115801561097e573d6000803e3d6000fd5b505050506040513d601f19601f820116820180604052508101906109a291906110bd565b905092915050565b60008054906101000a900473ffffffffffffffffffffffffffffffffffffffff1681565b600160009054906101000a900473ffffffffffffffffffffffffffffffffffffffff1681565b600060405180608001604052806052815260200161175b6052913980519060200120858051906020012083805190602001208587604051602001610a3c95949392919061133c565b604051602081830303815290604052805190602001209050949350505050565b805160208201fd5b6000610a77610a72846114ca565b611499565b90508083825260208201905082856020860282011115610a9657600080fd5b60005b85811015610ac65781610aac8882610c74565b845260208401935060208301925050600181019050610a99565b5050509392505050565b6000610ae3610ade846114f6565b611499565b90508083825260208201905082856020860282011115610b0257600080fd5b60005b85811015610b325781610b188882610cb3565b845260208401935060208301925050600181019050610b05565b5050509392505050565b6000610b4f610b4a84611522565b611499565b905082815260208101848484011115610b6757600080fd5b610b72848285611692565b509392505050565b6000610b8d610b8884611522565b611499565b905082815260208101848484011115610ba557600080fd5b610bb08482856116a1565b509392505050565b6000610bcb610bc684611552565b611499565b905082815260208101848484011115610be357600080fd5b610bee848285611692565b509392505050565b600081359050610c05816116e7565b92915050565b600081519050610c1a816116e7565b92915050565b600082601f830112610c3157600080fd5b8151610c41848260208601610a64565b91505092915050565b600082601f830112610c5b57600080fd5b8151610c6b848260208601610ad0565b91505092915050565b600081519050610c83816116fe565b92915050565b600081359050610c9881611715565b92915050565b600081359050610cad8161172c565b92915050565b600081519050610cc28161172c565b92915050565b600082601f830112610cd957600080fd5b8135610ce9848260208601610b3c565b91505092915050565b600082601f830112610d0357600080fd5b8151610d13848260208601610b7a565b91505092915050565b600082601f830112610d2d57600080fd5b8135610d3d848260208601610bb8565b91505092915050565b600060808284031215610d5857600080fd5b610d626080611499565b90506000610d7284828501610cb3565b6000830152506020610d8684828501610c0b565b602083015250604082015167ffffffffffffffff811115610da657600080fd5b610db284828501610c4a565b604083015250606082015167ffffffffffffffff811115610dd257600080fd5b610dde84828501610c20565b60608301525092915050565b600060808284031215610dfc57600080fd5b610e066080611499565b90506000610e1684828501610e8b565b6000830152506020610e2a84828501610e8b565b602083015250604082015167ffffffffffffffff811115610e4a57600080fd5b610e5684828501610cf2565b6040830152506060610e6a84828501610cb3565b60608301525092915050565b600081359050610e8581611743565b92915050565b600081519050610e9a81611743565b92915050565b600060208284031215610eb257600080fd5b6000610ec084828501610c74565b91505092915050565b60008060408385031215610edc57600080fd5b6000610eea85828601610c89565b9250506020610efb85828601610c9e565b9150509250929050565b600080600060608486031215610f1a57600080fd5b6000610f2886828701610c89565b9350506020610f3986828701610c9e565b9250506040610f4a86828701610e76565b9150509250925092565b60008060408385031215610f6757600080fd5b600083013567ffffffffffffffff811115610f8157600080fd5b610f8d85828601610cc8565b9250506020610f9e85828601610c9e565b9150509250929050565b60008060008060808587031215610fbe57600080fd5b600085013567ffffffffffffffff811115610fd857600080fd5b610fe487828801610d1c565b9450506020610ff587828801610bf6565b935050604061100687828801610e76565b925050606085013567ffffffffffffffff81111561102357600080fd5b61102f87828801610d1c565b91505092959194509250565b60006020828403121561104d57600080fd5b600082015167ffffffffffffffff81111561106757600080fd5b61107384828501610d46565b91505092915050565b60006020828403121561108e57600080fd5b600082015167ffffffffffffffff8111156110a857600080fd5b6110b484828501610dea565b91505092915050565b6000602082840312156110cf57600080fd5b60006110dd84828501610e8b565b91505092915050565b6110ef816115cc565b82525050565b6110fe816115ba565b82525050565b61110d816115de565b82525050565b61111c816115ea565b82525050565b61112b816115f4565b82525050565b600061113c82611582565b611146818561158d565b93506111568185602086016116a1565b61115f816116d6565b840191505092915050565b600061117582611582565b61117f818561159e565b935061118f8185602086016116a1565b80840191505092915050565b6111a48161164a565b82525050565b6111b38161166e565b82525050565b60006111c66012836115a9565b91507f4d697373696e6720616374696f6e206b657900000000000000000000000000006000830152602082019050919050565b60006112066015836115a9565b91507f4a6f6220616c726561647920636f6d706c6574656400000000000000000000006000830152602082019050919050565b60006112466011836115a9565b91507f4d697373696e6720746f706963206b65790000000000000000000000000000006000830152602082019050919050565b61128281611640565b82525050565b6000611294828461116a565b915081905092915050565b60006040820190506112b460008301856110e6565b81810360208301526112c68184611131565b90509392505050565b60006060820190506112e460008301866110f5565b6112f16020830185611122565b6112fe6040830184611279565b949350505050565b600060208201905061131b6000830184611104565b92915050565b60006020820190506113366000830184611113565b92915050565b600060a0820190506113516000830188611113565b61135e6020830187611113565b61136b6040830186611113565b6113786060830185611279565b61138560808301846110f5565b9695505050505050565b60006040820190506113a46000830185611113565b6113b16020830184611122565b9392505050565b600060408201905081810360008301526113d28185611131565b90506113e16020830184611122565b9392505050565b60006020820190506113fd600083018461119b565b92915050565b600060208201905061141860008301846111aa565b92915050565b60006020820190508181036000830152611437816111b9565b9050919050565b60006020820190508181036000830152611457816111f9565b9050919050565b6000602082019050818103600083015261147781611239565b9050919050565b60006020820190506114936000830184611279565b92915050565b6000604051905081810181811067ffffffffffffffff821117156114c0576114bf6116d4565b5b8060405250919050565b600067ffffffffffffffff8211156114e5576114e46116d4565b5b602082029050602081019050919050565b600067ffffffffffffffff821115611511576115106116d4565b5b602082029050602081019050919050565b600067ffffffffffffffff82111561153d5761153c6116d4565b5b601f19601f8301169050602081019050919050565b600067ffffffffffffffff82111561156d5761156c6116d4565b5b601f19601f8301169050602081019050919050565b600081519050919050565b600082825260208201905092915050565b600081905092915050565b600082825260208201905092915050565b60006115c582611620565b9050919050565b60006115d782611620565b9050919050565b60008115159050919050565b6000819050919050565b60007fffffffff0000000000000000000000000000000000000000000000000000000082169050919050565b600073ffffffffffffffffffffffffffffffffffffffff82169050919050565b6000819050919050565b60006116558261165c565b9050919050565b600061166782611620565b9050919050565b600061167982611680565b9050919050565b600061168b82611620565b9050919050565b82818337600083830152505050565b60005b838110156116bf5780820151818401526020810190506116a4565b838111156116ce576000848401525b50505050565bfe5b6000601f19601f8301169050919050565b6116f0816115ba565b81146116fb57600080fd5b50565b611707816115de565b811461171257600080fd5b50565b61171e816115ea565b811461172957600080fd5b50565b611735816115f4565b811461174057600080fd5b50565b61174c81611640565b811461175757600080fd5b5056fe454950373132446f6d61696e28737472696e67206e616d652c737472696e672076657273696f6e2c75696e7432353620636861696e49642c6164647265737320766572696679696e67436f6e747261637429a26469706673582212201b70a1a9e2b7f77181101df52a46fcc4dd8abd40f36280dc1a23766a812f11d964736f6c63430007060033",
  "immutableReferences": {},
  "source": "pragma solidity ^0.7.0;\npragma experimental ABIEncoderV2;\n\nimport \"./ActionRouteRegistry.sol\";\nimport \"./MinLibBytes.sol\";\nimport \"./RelayJob.sol\";\n\n/**\n *  Manages message state flows\n */\ncontract StateRelayer  is MessageRoute {\n    ActionRouteRegistry public registry;\n    RelayJob public relayJob;\n\n    constructor(\n        address wfRegistry,\n        address relayJobService\n    ) public {\n        relayJob = RelayJob(relayJobService);\n        registry = ActionRouteRegistry(wfRegistry);\n    }\n\n    function validateState(\n        bytes32 domainSeparator,\n        bytes4 selector\n    ) public returns(bool) {\n\n        // check if it has been whitelisted and purchased\n        require(registry.getAction(domainSeparator, selector).controller != address(0), \"Missing topic key\");   \n\n        return true;\n    }\n\n    function addJob(\n        bytes memory ret,\n        bytes4 selector\n    )   public returns(uint) {\n        return relayJob.addJob(ret, selector);\n    } \n\n    function revertWithData(bytes memory data) internal pure {\n        assembly {\n            revert(add(data,32), mload(data))\n        }\n    }\n\n    // Solo puede ser getter\n    // El switch de MessageConditionFound, llama al siguiente paso\n    function executeActionConditions(\n        bytes32 domainSeparator,\n        bytes4 selector,\n        uint jobId\n    ) public returns (bool) {\n\n        // check if it has been whitelisted and purchased\n        require(registry.getAction(domainSeparator, selector).conditions.length > 0, \"Missing action key\");\n        require(\n            relayJob.hasInit(jobId), \"Job already completed\"\n        );\n        ActionRoute memory item = registry.getAction(domainSeparator, selector);    \n        // check if it has been whitelisted and purchased\n        require(item.controller != address(0), \"Missing topic key\");\n\n        bool conditionsCompleted = true;\n        for (uint i = 0;i<item.conditions.length;i++) {\n            (bool ok, bytes memory res) =  item\n            .controller\n            .call(\n                abi.encodeWithSelector(\n                    item.conditions[i],\n                    msg.sender,\n                    relayJob.get(jobId).response\n                )\n            );\n        if (!ok){\n          //re-throw the revert with the same revert reason.\n          revertWithData(res);\n          return true;\n        }\n\n            (bool conditionResult) = abi.decode(res, (bool));\n            item.conditionStatus[i] = conditionResult;\n\n            conditionsCompleted = conditionsCompleted && conditionResult;\n        }\n\n        if (conditionsCompleted == true) {\n            relayJob.get(jobId).status =1;\n            emit MessageRequestCompleted(\n                item.controller,\n                item.selector,\n                jobId\n            );\n        }\n\n        return true;\n    }\n}\n",
  "sourcePath": "/home/rogelio/Code/xdv/electronic-sa-contracts/contracts/StateRelayer.sol",
  "compiler": {
    "name": "solc",
    "version": "0.7.6+commit.7338295f.Emscripten.clang"
  },
  "schemaVersion": "3.3.3",
  "updatedAt": "2021-02-13T12:39:15.677Z",
  "devdoc": {
    "kind": "dev",
    "methods": {},
    "version": 1
  },
  "userdoc": {
    "kind": "user",
    "methods": {},
    "notice": "Manages message state flows",
    "version": 1
  }
}