{
  "contractName": "StateRelayer",
  "abi": [
    {
      "inputs": [
        {
          "internalType": "address",
          "name": "wfRegistry",
          "type": "address"
        }
      ],
      "stateMutability": "nonpayable",
      "type": "constructor"
    },
    {
      "anonymous": false,
      "inputs": [
        {
          "indexed": false,
          "internalType": "bytes4",
          "name": "methodSig",
          "type": "bytes4"
        },
        {
          "indexed": false,
          "internalType": "bytes",
          "name": "request",
          "type": "bytes"
        }
      ],
      "name": "ActionChanged",
      "type": "event"
    },
    {
      "anonymous": false,
      "inputs": [
        {
          "indexed": false,
          "internalType": "bytes",
          "name": "request",
          "type": "bytes"
        },
        {
          "indexed": false,
          "internalType": "bytes",
          "name": "response",
          "type": "bytes"
        },
        {
          "indexed": false,
          "internalType": "uint256",
          "name": "id",
          "type": "uint256"
        }
      ],
      "name": "MessageRelayed",
      "type": "event"
    },
    {
      "anonymous": false,
      "inputs": [
        {
          "indexed": false,
          "internalType": "address",
          "name": "controller",
          "type": "address"
        },
        {
          "indexed": false,
          "internalType": "bytes4",
          "name": "selector",
          "type": "bytes4"
        },
        {
          "indexed": false,
          "internalType": "uint256",
          "name": "id",
          "type": "uint256"
        }
      ],
      "name": "MessageRequestCompleted",
      "type": "event"
    },
    {
      "anonymous": false,
      "inputs": [
        {
          "indexed": false,
          "internalType": "string",
          "name": "propName",
          "type": "string"
        },
        {
          "indexed": false,
          "internalType": "bytes",
          "name": "data",
          "type": "bytes"
        }
      ],
      "name": "PropertyChanged",
      "type": "event"
    },
    {
      "inputs": [
        {
          "internalType": "string",
          "name": "contractName",
          "type": "string"
        },
        {
          "internalType": "address",
          "name": "contractAddress",
          "type": "address"
        },
        {
          "internalType": "uint256",
          "name": "network",
          "type": "uint256"
        },
        {
          "internalType": "string",
          "name": "version",
          "type": "string"
        }
      ],
      "name": "getDomainSeparator",
      "outputs": [
        {
          "internalType": "bytes32",
          "name": "",
          "type": "bytes32"
        }
      ],
      "stateMutability": "pure",
      "type": "function"
    },
    {
      "inputs": [],
      "name": "jobCounter",
      "outputs": [
        {
          "internalType": "uint256",
          "name": "",
          "type": "uint256"
        }
      ],
      "stateMutability": "view",
      "type": "function"
    },
    {
      "inputs": [
        {
          "internalType": "uint256",
          "name": "",
          "type": "uint256"
        }
      ],
      "name": "jobs",
      "outputs": [
        {
          "internalType": "uint256",
          "name": "status",
          "type": "uint256"
        },
        {
          "internalType": "uint256",
          "name": "id",
          "type": "uint256"
        },
        {
          "internalType": "bytes",
          "name": "request",
          "type": "bytes"
        },
        {
          "internalType": "bytes",
          "name": "response",
          "type": "bytes"
        },
        {
          "internalType": "bytes4",
          "name": "selector",
          "type": "bytes4"
        }
      ],
      "stateMutability": "view",
      "type": "function"
    },
    {
      "inputs": [
        {
          "internalType": "address",
          "name": "",
          "type": "address"
        }
      ],
      "name": "nonces",
      "outputs": [
        {
          "internalType": "uint256",
          "name": "",
          "type": "uint256"
        }
      ],
      "stateMutability": "view",
      "type": "function"
    },
    {
      "inputs": [],
      "name": "registry",
      "outputs": [
        {
          "internalType": "contract ActionRouteRegistry",
          "name": "",
          "type": "address"
        }
      ],
      "stateMutability": "view",
      "type": "function"
    },
    {
      "inputs": [
        {
          "internalType": "address",
          "name": "user",
          "type": "address"
        }
      ],
      "name": "getNonce",
      "outputs": [
        {
          "internalType": "uint256",
          "name": "nonce",
          "type": "uint256"
        }
      ],
      "stateMutability": "view",
      "type": "function"
    },
    {
      "inputs": [
        {
          "internalType": "bytes32",
          "name": "domainSeparator",
          "type": "bytes32"
        },
        {
          "internalType": "bytes4",
          "name": "selector",
          "type": "bytes4"
        },
        {
          "internalType": "bytes",
          "name": "params",
          "type": "bytes"
        }
      ],
      "name": "executeAction",
      "outputs": [
        {
          "internalType": "uint256",
          "name": "",
          "type": "uint256"
        }
      ],
      "stateMutability": "nonpayable",
      "type": "function"
    },
    {
      "inputs": [
        {
          "internalType": "bytes32",
          "name": "domainSeparator",
          "type": "bytes32"
        },
        {
          "internalType": "bytes4",
          "name": "selector",
          "type": "bytes4"
        },
        {
          "internalType": "uint256",
          "name": "jobId",
          "type": "uint256"
        }
      ],
      "name": "executeActionConditions",
      "outputs": [
        {
          "internalType": "bool",
          "name": "",
          "type": "bool"
        }
      ],
      "stateMutability": "nonpayable",
      "type": "function"
    }
  ],
  "bytecode": "0x60806040523480156200001157600080fd5b5060405162001c3638038062001c36833981810160405281019062000037919062000095565b806000806101000a81548173ffffffffffffffffffffffffffffffffffffffff021916908373ffffffffffffffffffffffffffffffffffffffff160217905550506200010f565b6000815190506200008f81620000f5565b92915050565b600060208284031215620000a857600080fd5b6000620000b8848285016200007e565b91505092915050565b6000620000ce82620000d5565b9050919050565b600073ffffffffffffffffffffffffffffffffffffffff82169050919050565b6200010081620000c1565b81146200010c57600080fd5b50565b611b17806200011f6000396000f3fe608060405234801561001057600080fd5b50600436106100885760003560e01c806350355d761161005b57806350355d76146101515780637b1039991461016f5780637ecebe001461018d578063b1e4f13e146101bd57610088565b80630768d9041461008d578063180aedf3146100bd5780632d0335ab146100f15780633f19841814610121575b600080fd5b6100a760048036038101906100a291906111cc565b6101ed565b6040516100b49190611761565b60405180910390f35b6100d760048036038101906100d29190611356565b6106a0565b6040516100e895949392919061177c565b60405180910390f35b61010b6004803603810190610106919061117a565b610813565b6040516101189190611761565b60405180910390f35b61013b60048036038101906101369190611233565b61085c565b604051610148919061160f565b60405180910390f35b610159610cea565b6040516101669190611761565b60405180910390f35b610177610cf0565b6040516101849190611706565b60405180910390f35b6101a760048036038101906101a2919061117a565b610d14565b6040516101b49190611761565b60405180910390f35b6101d760048036038101906101d29190611282565b610d2c565b6040516101e4919061162a565b60405180910390f35b60008073ffffffffffffffffffffffffffffffffffffffff1660008054906101000a900473ffffffffffffffffffffffffffffffffffffffff1673ffffffffffffffffffffffffffffffffffffffff1663d451e0d586866040518363ffffffff1660e01b8152600401610261929190611698565b60006040518083038186803b15801561027957600080fd5b505afa15801561028d573d6000803e3d6000fd5b505050506040513d6000823e3d601f19601f820116820180604052508101906102b69190611315565b6020015173ffffffffffffffffffffffffffffffffffffffff161415610311576040517f08c379a000000000000000000000000000000000000000000000000000000000815260040161030890611741565b60405180910390fd5b60008060008054906101000a900473ffffffffffffffffffffffffffffffffffffffff1673ffffffffffffffffffffffffffffffffffffffff1663d451e0d587876040518363ffffffff1660e01b815260040161036f929190611698565b60006040518083038186803b15801561038757600080fd5b505afa15801561039b573d6000803e3d6000fd5b505050506040513d6000823e3d601f19601f820116820180604052508101906103c49190611315565b6020015173ffffffffffffffffffffffffffffffffffffffff1660008054906101000a900473ffffffffffffffffffffffffffffffffffffffff1673ffffffffffffffffffffffffffffffffffffffff1663d451e0d588886040518363ffffffff1660e01b8152600401610439929190611698565b60006040518083038186803b15801561045157600080fd5b505afa158015610465573d6000803e3d6000fd5b505050506040513d6000823e3d601f19601f8201168201806040525081019061048e9190611315565b6000015133866040516024016104a5929190611578565b604051602081830303815290604052907bffffffffffffffffffffffffffffffffffffffffffffffffffffffff19166020820180517bffffffffffffffffffffffffffffffffffffffffffffffffffffffff838183161783525050505060405161050f9190611561565b6000604051808303816000865af19150503d806000811461054c576040519150601f19603f3d011682016040523d82523d6000602084013e610551565b606091505b50915091508161056f5761056481610d94565b600092505050610699565b6002600081548092919060010191905055506040518060a00160405280600081526020016002548152602001858152602001828152602001867bffffffffffffffffffffffffffffffffffffffffffffffffffffffff19168152506003600060025481526020019081526020016000206000820151816000015560208201518160010155604082015181600201908051906020019061060f929190610d9c565b50606082015181600301908051906020019061062c929190610d9c565b5060808201518160040160006101000a81548163ffffffff021916908360e01c02179055509050507f39ccea6500c2fa9d527beb4733eddaa10fa23f592dff8b603843699580390a5a8482600254604051610689939291906116c1565b60405180910390a1600254925050505b9392505050565b6003602052806000526040600020600091509050806000015490806001015490806002018054600181600116156101000203166002900480601f0160208091040260200160405190810160405280929190818152602001828054600181600116156101000203166002900480156107585780601f1061072d57610100808354040283529160200191610758565b820191906000526020600020905b81548152906001019060200180831161073b57829003601f168201915b505050505090806003018054600181600116156101000203166002900480601f0160208091040260200160405190810160405280929190818152602001828054600181600116156101000203166002900480156107f65780601f106107cb576101008083540402835291602001916107f6565b820191906000526020600020905b8154815290600101906020018083116107d957829003601f168201915b5050505050908060040160009054906101000a900460e01b905085565b6000600160008373ffffffffffffffffffffffffffffffffffffffff1673ffffffffffffffffffffffffffffffffffffffff168152602001908152602001600020549050919050565b60008060008054906101000a900473ffffffffffffffffffffffffffffffffffffffff1673ffffffffffffffffffffffffffffffffffffffff1663d451e0d586866040518363ffffffff1660e01b81526004016108ba929190611698565b60006040518083038186803b1580156108d257600080fd5b505afa1580156108e6573d6000803e3d6000fd5b505050506040513d6000823e3d601f19601f8201168201806040525081019061090f9190611315565b604001515111610954576040517f08c379a000000000000000000000000000000000000000000000000000000000815260040161094b90611741565b60405180910390fd5b60006003600084815260200190815260200160002060000154146109ad576040517f08c379a00000000000000000000000000000000000000000000000000000000081526004016109a490611721565b60405180910390fd5b60008060009054906101000a900473ffffffffffffffffffffffffffffffffffffffff1673ffffffffffffffffffffffffffffffffffffffff1663d451e0d586866040518363ffffffff1660e01b8152600401610a0b929190611698565b60006040518083038186803b158015610a2357600080fd5b505afa158015610a37573d6000803e3d6000fd5b505050506040513d6000823e3d601f19601f82011682018060405250810190610a609190611315565b9050600073ffffffffffffffffffffffffffffffffffffffff16816020015173ffffffffffffffffffffffffffffffffffffffff161415610ad6576040517f08c379a0000000000000000000000000000000000000000000000000000000008152600401610acd90611741565b60405180910390fd5b60006001905060005b826040015151811015610c6e57600080846020015173ffffffffffffffffffffffffffffffffffffffff1685604001518481518110610b1a57fe5b602002602001015133600360008b8152602001908152602001600020600301604051602401610b4a9291906115a8565b604051602081830303815290604052907bffffffffffffffffffffffffffffffffffffffffffffffffffffffff19166020820180517bffffffffffffffffffffffffffffffffffffffffffffffffffffffff8381831617835250505050604051610bb49190611561565b6000604051808303816000865af19150503d8060008114610bf1576040519150601f19603f3d011682016040523d82523d6000602084013e610bf6565b606091505b509150915081610c1757610c0981610d94565b600195505050505050610ce3565b600081806020019051810190610c2d91906111a3565b90508086606001518581518110610c4057fe5b602002602001019015159081151581525050848015610c5c5750805b94505050508080600101915050610adf565b50600115158115151415610cdc57600160036000868152602001908152602001600020600001819055507f293a437bb3f3488dbeeee47903f45e924088e053a056937c317815243af46cfe8260200151836000015186604051610cd3939291906115d8565b60405180910390a15b6001925050505b9392505050565b60025481565b60008054906101000a900473ffffffffffffffffffffffffffffffffffffffff1681565b60016020528060005260406000206000915090505481565b6000604051806080016040528060528152602001611a906052913980519060200120858051906020012083805190602001208587604051602001610d74959493929190611645565b604051602081830303815290604052805190602001209050949350505050565b805160208201fd5b828054600181600116156101000203166002900490600052602060002090601f016020900481019282610dd25760008555610e19565b82601f10610deb57805160ff1916838001178555610e19565b82800160010185558215610e19579182015b82811115610e18578251825591602001919060010190610dfd565b5b509050610e269190610e2a565b5090565b5b80821115610e43576000816000905550600101610e2b565b5090565b6000610e5a610e558461180e565b6117dd565b90508083825260208201905082856020860282011115610e7957600080fd5b60005b85811015610ea95781610e8f8882611019565b845260208401935060208301925050600181019050610e7c565b5050509392505050565b6000610ec6610ec18461183a565b6117dd565b90508083825260208201905082856020860282011115610ee557600080fd5b60005b85811015610f155781610efb8882611058565b845260208401935060208301925050600181019050610ee8565b5050509392505050565b6000610f32610f2d84611866565b6117dd565b905082815260208101848484011115610f4a57600080fd5b610f558482856119c7565b509392505050565b6000610f70610f6b84611896565b6117dd565b905082815260208101848484011115610f8857600080fd5b610f938482856119c7565b509392505050565b600081359050610faa81611a1c565b92915050565b600081519050610fbf81611a1c565b92915050565b600082601f830112610fd657600080fd5b8151610fe6848260208601610e47565b91505092915050565b600082601f83011261100057600080fd5b8151611010848260208601610eb3565b91505092915050565b60008151905061102881611a33565b92915050565b60008135905061103d81611a4a565b92915050565b60008135905061105281611a61565b92915050565b60008151905061106781611a61565b92915050565b600082601f83011261107e57600080fd5b813561108e848260208601610f1f565b91505092915050565b600082601f8301126110a857600080fd5b81356110b8848260208601610f5d565b91505092915050565b6000608082840312156110d357600080fd5b6110dd60806117dd565b905060006110ed84828501611058565b600083015250602061110184828501610fb0565b602083015250604082015167ffffffffffffffff81111561112157600080fd5b61112d84828501610fef565b604083015250606082015167ffffffffffffffff81111561114d57600080fd5b61115984828501610fc5565b60608301525092915050565b60008135905061117481611a78565b92915050565b60006020828403121561118c57600080fd5b600061119a84828501610f9b565b91505092915050565b6000602082840312156111b557600080fd5b60006111c384828501611019565b91505092915050565b6000806000606084860312156111e157600080fd5b60006111ef8682870161102e565b935050602061120086828701611043565b925050604084013567ffffffffffffffff81111561121d57600080fd5b6112298682870161106d565b9150509250925092565b60008060006060848603121561124857600080fd5b60006112568682870161102e565b935050602061126786828701611043565b925050604061127886828701611165565b9150509250925092565b6000806000806080858703121561129857600080fd5b600085013567ffffffffffffffff8111156112b257600080fd5b6112be87828801611097565b94505060206112cf87828801610f9b565b93505060406112e087828801611165565b925050606085013567ffffffffffffffff8111156112fd57600080fd5b61130987828801611097565b91505092959194509250565b60006020828403121561132757600080fd5b600082015167ffffffffffffffff81111561134157600080fd5b61134d848285016110c1565b91505092915050565b60006020828403121561136857600080fd5b600061137684828501611165565b91505092915050565b61138881611925565b82525050565b61139781611913565b82525050565b6113a681611937565b82525050565b6113b581611943565b82525050565b6113c48161194d565b82525050565b60006113d5826118db565b6113df81856118e6565b93506113ef8185602086016119d6565b6113f881611a0b565b840191505092915050565b600061140e826118db565b61141881856118f7565b93506114288185602086016119d6565b80840191505092915050565b6000815460018116600081146114515760018114611477576114bb565b607f600283041661146281876118e6565b955060ff1983168652602086019350506114bb565b6002820461148581876118e6565b9550611490856118c6565b60005b828110156114b257815481890152600182019150602081019050611493565b80880195505050505b505092915050565b6114cc816119a3565b82525050565b60006114df601583611902565b91507f4a6f6220616c726561647920636f6d706c6574656400000000000000000000006000830152602082019050919050565b600061151f601183611902565b91507f4d697373696e6720746f706963206b65790000000000000000000000000000006000830152602082019050919050565b61155b81611999565b82525050565b600061156d8284611403565b915081905092915050565b600060408201905061158d600083018561137f565b818103602083015261159f81846113ca565b90509392505050565b60006040820190506115bd600083018561137f565b81810360208301526115cf8184611434565b90509392505050565b60006060820190506115ed600083018661138e565b6115fa60208301856113bb565b6116076040830184611552565b949350505050565b6000602082019050611624600083018461139d565b92915050565b600060208201905061163f60008301846113ac565b92915050565b600060a08201905061165a60008301886113ac565b61166760208301876113ac565b61167460408301866113ac565b6116816060830185611552565b61168e608083018461138e565b9695505050505050565b60006040820190506116ad60008301856113ac565b6116ba60208301846113bb565b9392505050565b600060608201905081810360008301526116db81866113ca565b905081810360208301526116ef81856113ca565b90506116fe6040830184611552565b949350505050565b600060208201905061171b60008301846114c3565b92915050565b6000602082019050818103600083015261173a816114d2565b9050919050565b6000602082019050818103600083015261175a81611512565b9050919050565b60006020820190506117766000830184611552565b92915050565b600060a0820190506117916000830188611552565b61179e6020830187611552565b81810360408301526117b081866113ca565b905081810360608301526117c481856113ca565b90506117d360808301846113bb565b9695505050505050565b6000604051905081810181811067ffffffffffffffff8211171561180457611803611a09565b5b8060405250919050565b600067ffffffffffffffff82111561182957611828611a09565b5b602082029050602081019050919050565b600067ffffffffffffffff82111561185557611854611a09565b5b602082029050602081019050919050565b600067ffffffffffffffff82111561188157611880611a09565b5b601f19601f8301169050602081019050919050565b600067ffffffffffffffff8211156118b1576118b0611a09565b5b601f19601f8301169050602081019050919050565b60008190508160005260206000209050919050565b600081519050919050565b600082825260208201905092915050565b600081905092915050565b600082825260208201905092915050565b600061191e82611979565b9050919050565b600061193082611979565b9050919050565b60008115159050919050565b6000819050919050565b60007fffffffff0000000000000000000000000000000000000000000000000000000082169050919050565b600073ffffffffffffffffffffffffffffffffffffffff82169050919050565b6000819050919050565b60006119ae826119b5565b9050919050565b60006119c082611979565b9050919050565b82818337600083830152505050565b60005b838110156119f45780820151818401526020810190506119d9565b83811115611a03576000848401525b50505050565bfe5b6000601f19601f8301169050919050565b611a2581611913565b8114611a3057600080fd5b50565b611a3c81611937565b8114611a4757600080fd5b50565b611a5381611943565b8114611a5e57600080fd5b50565b611a6a8161194d565b8114611a7557600080fd5b50565b611a8181611999565b8114611a8c57600080fd5b5056fe454950373132446f6d61696e28737472696e67206e616d652c737472696e672076657273696f6e2c75696e7432353620636861696e49642c6164647265737320766572696679696e67436f6e747261637429a2646970667358221220995836480685b9e9c4f11860824b59a9e52ce229b298e5163062c4c838b5085064736f6c63430007060033",
  "immutableReferences": {},
  "source": "pragma solidity ^0.7.0;\npragma experimental ABIEncoderV2;\n\nimport \"./ActionRouteRegistry.sol\";\nimport \"./MinLibBytes.sol\";\n\n/**\n *  Manages message state flows\n */\ncontract StateRelayer  is MessageRoute {\n    ActionRouteRegistry public registry;\n    mapping(address => uint256) public nonces;\n    constructor(address wfRegistry) public {\n        registry = ActionRouteRegistry(wfRegistry);\n    }\n\n    uint public jobCounter;\n    mapping (uint => MessageRequest) public jobs;\n\n    struct MessageRequest {\n        uint status;\n        uint id;\n        bytes request;\n        bytes response;\n        bytes4 selector;\n    }\n\n    event MessageRelayed(\n        bytes request,\n        bytes response,\n        uint id\n    );\n\n\n    event MessageRequestCompleted(\n        address controller,\n        bytes4 selector,\n        uint id\n    );\n\n\n\n    function getNonce(address user) external view returns(uint256 nonce) {\n        nonce = nonces[user];\n    \n    }\n    /** NatDoc\n     * @dev Send payload message to be process by a WAction smart contract\n     * minter\n     * selfMint\n     * tokenURI\n     */\n    function executeAction(\n        bytes32 domainSeparator,\n        bytes4 selector,\n        bytes memory params\n    ) public returns (uint) {\n\n        // check if it has been whitelisted and purchased\n        require(registry.getAction(domainSeparator, selector).controller != address(0), \"Missing topic key\");\n        \n        (bool success, bytes memory ret) =  registry\n        .getAction(domainSeparator, selector).controller\n        .call(\n            abi.encodeWithSelector(\n                registry.getAction(domainSeparator, selector).selector,\n                msg.sender,\n                params\n                )\n        );\n        if (!success){\n          //re-throw the revert with the same revert reason.\n          revertWithData(ret);\n          return 0;\n        }\n        jobCounter++;\n        jobs[jobCounter] = MessageRequest({\n            status: 0,\n            id: jobCounter,\n            request: params,\n            response: ret,\n            selector: selector\n        });\n        \n        emit MessageRelayed(\n            params, \n            ret,\n            jobCounter\n        );\n\n        return jobCounter;\n    }\n\n    function revertWithData(bytes memory data) internal pure {\n        assembly {\n            revert(add(data,32), mload(data))\n        }\n    }\n\n    // Solo puede ser getter\n    // El switch de MessageConditionFound, llama al siguiente paso\n    function executeActionConditions(\n        bytes32 domainSeparator,\n        bytes4 selector,\n        uint jobId\n    ) public returns (bool) {\n\n        // check if it has been whitelisted and purchased\n        require(registry.getAction(domainSeparator, selector).conditions.length > 0, \"Missing topic key\");\n        require(\n            jobs[jobId].status  == 0, \"Job already completed\"\n        );\n        ActionRoute memory item = registry.getAction(domainSeparator, selector);    \n        // check if it has been whitelisted and purchased\n        require(item.controller != address(0), \"Missing topic key\");\n\n        bool conditionsCompleted = true;\n        for (uint i = 0;i<item.conditions.length;i++) {\n            (bool ok, bytes memory res) =  item\n            .controller\n            .call(\n                abi.encodeWithSelector(\n                    item.conditions[i],\n                    msg.sender,\n                    jobs[jobId].response\n                )\n            );\n        if (!ok){\n          //re-throw the revert with the same revert reason.\n          revertWithData(res);\n          return true;\n        }\n\n            (bool conditionResult) = abi.decode(res, (bool));\n            item.conditionStatus[i] = conditionResult;\n\n            conditionsCompleted = conditionsCompleted && conditionResult;\n        }\n\n        if (conditionsCompleted == true) {\n            jobs[jobId].status = 1;\n            emit MessageRequestCompleted(\n                item.controller,\n                item.selector,\n                jobId\n            );\n        }\n\n        return true;\n    }\n}\n",
  "sourcePath": "/home/rogelio/Code/xdv/electronic-sa-contracts/contracts/StateRelayer.sol",
  "compiler": {
    "name": "solc",
    "version": "0.7.6+commit.7338295f.Emscripten.clang"
  },
  "schemaVersion": "3.3.3",
  "updatedAt": "2021-02-12T15:14:42.529Z",
  "devdoc": {
    "kind": "dev",
    "methods": {
      "executeAction(bytes32,bytes4,bytes)": {
        "details": "Send payload message to be process by a WAction smart contract minter selfMint tokenURI"
      }
    },
    "version": 1
  },
  "userdoc": {
    "kind": "user",
    "methods": {
      "executeAction(bytes32,bytes4,bytes)": {
        "notice": "NatDoc"
      }
    },
    "notice": "Manages message state flows",
    "version": 1
  }
}