{
  "contractName": "TestActionSAContract",
  "abi": [
    {
      "inputs": [
        {
          "internalType": "address",
          "name": "_owner",
          "type": "address"
        }
      ],
      "stateMutability": "nonpayable",
      "type": "constructor"
    },
    {
      "anonymous": false,
      "inputs": [
        {
          "indexed": false,
          "internalType": "bytes4",
          "name": "methodSig",
          "type": "bytes4"
        },
        {
          "indexed": false,
          "internalType": "bytes",
          "name": "request",
          "type": "bytes"
        }
      ],
      "name": "ActionChanged",
      "type": "event"
    },
    {
      "anonymous": false,
      "inputs": [
        {
          "indexed": false,
          "internalType": "string",
          "name": "name",
          "type": "string"
        },
        {
          "indexed": true,
          "internalType": "uint256",
          "name": "id",
          "type": "uint256"
        }
      ],
      "name": "CompanyAdded",
      "type": "event"
    },
    {
      "anonymous": false,
      "inputs": [
        {
          "indexed": false,
          "internalType": "string",
          "name": "name",
          "type": "string"
        },
        {
          "indexed": false,
          "internalType": "string",
          "name": "ruc",
          "type": "string"
        },
        {
          "indexed": true,
          "internalType": "uint256",
          "name": "id",
          "type": "uint256"
        }
      ],
      "name": "CompanyRegistered",
      "type": "event"
    },
    {
      "anonymous": false,
      "inputs": [
        {
          "indexed": false,
          "internalType": "string",
          "name": "memberDID",
          "type": "string"
        },
        {
          "indexed": false,
          "internalType": "address",
          "name": "member",
          "type": "address"
        },
        {
          "indexed": false,
          "internalType": "uint256",
          "name": "companyId",
          "type": "uint256"
        },
        {
          "indexed": true,
          "internalType": "uint256",
          "name": "id",
          "type": "uint256"
        }
      ],
      "name": "MemberAdded",
      "type": "event"
    },
    {
      "anonymous": false,
      "inputs": [
        {
          "indexed": false,
          "internalType": "string",
          "name": "propName",
          "type": "string"
        },
        {
          "indexed": false,
          "internalType": "bytes",
          "name": "data",
          "type": "bytes"
        }
      ],
      "name": "PropertyChanged",
      "type": "event"
    },
    {
      "anonymous": false,
      "inputs": [
        {
          "indexed": true,
          "internalType": "uint256",
          "name": "id",
          "type": "uint256"
        }
      ],
      "name": "RequestBoardMembersKYC",
      "type": "event"
    },
    {
      "anonymous": false,
      "inputs": [
        {
          "indexed": false,
          "internalType": "address",
          "name": "caller",
          "type": "address"
        },
        {
          "indexed": false,
          "internalType": "bytes4",
          "name": "methodName",
          "type": "bytes4"
        },
        {
          "indexed": false,
          "internalType": "bool",
          "name": "enable",
          "type": "bool"
        }
      ],
      "name": "UserWhitelistChanged",
      "type": "event"
    },
    {
      "inputs": [
        {
          "internalType": "bytes32",
          "name": "",
          "type": "bytes32"
        },
        {
          "internalType": "bytes4",
          "name": "",
          "type": "bytes4"
        }
      ],
      "name": "actionWhitelisting",
      "outputs": [
        {
          "internalType": "bool",
          "name": "",
          "type": "bool"
        }
      ],
      "stateMutability": "view",
      "type": "function"
    },
    {
      "inputs": [
        {
          "internalType": "uint256",
          "name": "",
          "type": "uint256"
        }
      ],
      "name": "companies",
      "outputs": [
        {
          "internalType": "string",
          "name": "name",
          "type": "string"
        },
        {
          "internalType": "bool",
          "name": "verifiedName",
          "type": "bool"
        },
        {
          "internalType": "string",
          "name": "metadataURI",
          "type": "string"
        },
        {
          "internalType": "address",
          "name": "legalResidentAgent",
          "type": "address"
        },
        {
          "internalType": "string",
          "name": "legalResidentAgentDID",
          "type": "string"
        },
        {
          "internalType": "string",
          "name": "ruc",
          "type": "string"
        },
        {
          "internalType": "uint256",
          "name": "status",
          "type": "uint256"
        },
        {
          "internalType": "bool",
          "name": "verifiedRuc",
          "type": "bool"
        },
        {
          "internalType": "uint256",
          "name": "memberCount",
          "type": "uint256"
        }
      ],
      "stateMutability": "view",
      "type": "function"
    },
    {
      "inputs": [],
      "name": "counter",
      "outputs": [
        {
          "internalType": "uint256",
          "name": "",
          "type": "uint256"
        }
      ],
      "stateMutability": "view",
      "type": "function"
    },
    {
      "inputs": [
        {
          "internalType": "string",
          "name": "contractName",
          "type": "string"
        },
        {
          "internalType": "address",
          "name": "contractAddress",
          "type": "address"
        },
        {
          "internalType": "uint256",
          "name": "network",
          "type": "uint256"
        },
        {
          "internalType": "string",
          "name": "version",
          "type": "string"
        }
      ],
      "name": "getDomainSeparator",
      "outputs": [
        {
          "internalType": "bytes32",
          "name": "",
          "type": "bytes32"
        }
      ],
      "stateMutability": "pure",
      "type": "function"
    },
    {
      "inputs": [
        {
          "internalType": "bytes",
          "name": "data",
          "type": "bytes"
        }
      ],
      "name": "getMethodSig",
      "outputs": [
        {
          "internalType": "bytes4",
          "name": "",
          "type": "bytes4"
        }
      ],
      "stateMutability": "pure",
      "type": "function"
    },
    {
      "inputs": [
        {
          "internalType": "uint256",
          "name": "",
          "type": "uint256"
        },
        {
          "internalType": "uint256",
          "name": "",
          "type": "uint256"
        }
      ],
      "name": "members",
      "outputs": [
        {
          "internalType": "string",
          "name": "did",
          "type": "string"
        },
        {
          "internalType": "address",
          "name": "member",
          "type": "address"
        }
      ],
      "stateMutability": "view",
      "type": "function"
    },
    {
      "inputs": [],
      "name": "owner",
      "outputs": [
        {
          "internalType": "address",
          "name": "",
          "type": "address"
        }
      ],
      "stateMutability": "view",
      "type": "function"
    },
    {
      "inputs": [
        {
          "internalType": "address",
          "name": "caller",
          "type": "address"
        },
        {
          "internalType": "bytes4",
          "name": "fnName",
          "type": "bytes4"
        },
        {
          "internalType": "bool",
          "name": "enable",
          "type": "bool"
        }
      ],
      "name": "setUserWhitelist",
      "outputs": [
        {
          "internalType": "bool",
          "name": "",
          "type": "bool"
        }
      ],
      "stateMutability": "nonpayable",
      "type": "function"
    },
    {
      "inputs": [
        {
          "internalType": "address",
          "name": "",
          "type": "address"
        },
        {
          "internalType": "bytes4",
          "name": "",
          "type": "bytes4"
        }
      ],
      "name": "userWhitelist",
      "outputs": [
        {
          "internalType": "bool",
          "name": "",
          "type": "bool"
        }
      ],
      "stateMutability": "view",
      "type": "function"
    },
    {
      "inputs": [
        {
          "internalType": "address",
          "name": "caller",
          "type": "address"
        },
        {
          "internalType": "bytes",
          "name": "params",
          "type": "bytes"
        }
      ],
      "name": "hasValidName",
      "outputs": [
        {
          "internalType": "bool",
          "name": "",
          "type": "bool"
        }
      ],
      "stateMutability": "nonpayable",
      "type": "function"
    },
    {
      "inputs": [
        {
          "internalType": "uint256",
          "name": "id",
          "type": "uint256"
        },
        {
          "internalType": "bool",
          "name": "ok",
          "type": "bool"
        }
      ],
      "name": "setValidName",
      "outputs": [
        {
          "internalType": "bool",
          "name": "",
          "type": "bool"
        }
      ],
      "stateMutability": "nonpayable",
      "type": "function"
    },
    {
      "inputs": [
        {
          "internalType": "uint256",
          "name": "id",
          "type": "uint256"
        },
        {
          "internalType": "string",
          "name": "ruc",
          "type": "string"
        }
      ],
      "name": "setRUC",
      "outputs": [
        {
          "internalType": "bool",
          "name": "",
          "type": "bool"
        }
      ],
      "stateMutability": "nonpayable",
      "type": "function"
    },
    {
      "inputs": [
        {
          "internalType": "address",
          "name": "caller",
          "type": "address"
        },
        {
          "internalType": "bytes",
          "name": "params",
          "type": "bytes"
        }
      ],
      "name": "hasRUC",
      "outputs": [
        {
          "internalType": "bool",
          "name": "",
          "type": "bool"
        }
      ],
      "stateMutability": "nonpayable",
      "type": "function"
    },
    {
      "inputs": [
        {
          "internalType": "address",
          "name": "caller",
          "type": "address"
        },
        {
          "internalType": "bytes",
          "name": "params",
          "type": "bytes"
        }
      ],
      "name": "hasMemberKYCCompleted",
      "outputs": [
        {
          "internalType": "bool",
          "name": "",
          "type": "bool"
        }
      ],
      "stateMutability": "nonpayable",
      "type": "function"
    },
    {
      "inputs": [
        {
          "internalType": "address",
          "name": "caller",
          "type": "address"
        },
        {
          "internalType": "bytes",
          "name": "params",
          "type": "bytes"
        }
      ],
      "name": "hasRegistered",
      "outputs": [
        {
          "internalType": "bool",
          "name": "",
          "type": "bool"
        }
      ],
      "stateMutability": "nonpayable",
      "type": "function"
    },
    {
      "inputs": [
        {
          "internalType": "address",
          "name": "caller",
          "type": "address"
        },
        {
          "internalType": "bytes",
          "name": "params",
          "type": "bytes"
        }
      ],
      "name": "hasNotarized",
      "outputs": [
        {
          "internalType": "bool",
          "name": "",
          "type": "bool"
        }
      ],
      "stateMutability": "nonpayable",
      "type": "function"
    },
    {
      "inputs": [
        {
          "internalType": "uint256",
          "name": "id",
          "type": "uint256"
        },
        {
          "internalType": "uint256",
          "name": "status",
          "type": "uint256"
        }
      ],
      "name": "setStatus",
      "outputs": [
        {
          "internalType": "bool",
          "name": "",
          "type": "bool"
        }
      ],
      "stateMutability": "nonpayable",
      "type": "function"
    },
    {
      "inputs": [
        {
          "internalType": "address",
          "name": "caller",
          "type": "address"
        },
        {
          "internalType": "bytes",
          "name": "params",
          "type": "bytes"
        }
      ],
      "name": "hasStatus",
      "outputs": [
        {
          "internalType": "bool",
          "name": "",
          "type": "bool"
        }
      ],
      "stateMutability": "nonpayable",
      "type": "function"
    },
    {
      "inputs": [
        {
          "internalType": "address",
          "name": "caller",
          "type": "address"
        },
        {
          "internalType": "bytes",
          "name": "params",
          "type": "bytes"
        }
      ],
      "name": "propose",
      "outputs": [
        {
          "internalType": "uint256",
          "name": "",
          "type": "uint256"
        }
      ],
      "stateMutability": "nonpayable",
      "type": "function"
    },
    {
      "inputs": [
        {
          "internalType": "address",
          "name": "caller",
          "type": "address"
        },
        {
          "internalType": "bytes",
          "name": "params",
          "type": "bytes"
        }
      ],
      "name": "addMemberKYC",
      "outputs": [
        {
          "internalType": "uint256",
          "name": "",
          "type": "uint256"
        }
      ],
      "stateMutability": "nonpayable",
      "type": "function"
    },
    {
      "inputs": [
        {
          "internalType": "address",
          "name": "caller",
          "type": "address"
        },
        {
          "internalType": "bytes",
          "name": "params",
          "type": "bytes"
        }
      ],
      "name": "register",
      "outputs": [
        {
          "internalType": "bool",
          "name": "",
          "type": "bool"
        }
      ],
      "stateMutability": "nonpayable",
      "type": "function"
    },
    {
      "inputs": [
        {
          "internalType": "address",
          "name": "caller",
          "type": "address"
        },
        {
          "internalType": "bytes",
          "name": "params",
          "type": "bytes"
        }
      ],
      "name": "notaryStamp",
      "outputs": [
        {
          "internalType": "bool",
          "name": "",
          "type": "bool"
        }
      ],
      "stateMutability": "nonpayable",
      "type": "function"
    },
    {
      "inputs": [
        {
          "internalType": "address",
          "name": "caller",
          "type": "address"
        },
        {
          "internalType": "bytes",
          "name": "params",
          "type": "bytes"
        }
      ],
      "name": "requestKYC",
      "outputs": [
        {
          "internalType": "bool",
          "name": "",
          "type": "bool"
        }
      ],
      "stateMutability": "nonpayable",
      "type": "function"
    },
    {
      "inputs": [
        {
          "internalType": "address",
          "name": "caller",
          "type": "address"
        },
        {
          "internalType": "bytes",
          "name": "params",
          "type": "bytes"
        }
      ],
      "name": "completeCompanyRegistration",
      "outputs": [
        {
          "internalType": "bool",
          "name": "",
          "type": "bool"
        }
      ],
      "stateMutability": "nonpayable",
      "type": "function"
    }
  ],
  "bytecode": "0x60806040523480156200001157600080fd5b506040516200377538038062003775833981810160405281019062000037919062000095565b806000806101000a81548173ffffffffffffffffffffffffffffffffffffffff021916908373ffffffffffffffffffffffffffffffffffffffff160217905550506200010f565b6000815190506200008f81620000f5565b92915050565b600060208284031215620000a857600080fd5b6000620000b8848285016200007e565b91505092915050565b6000620000ce82620000d5565b9050919050565b600073ffffffffffffffffffffffffffffffffffffffff82169050919050565b6200010081620000c1565b81146200010c57600080fd5b50565b613656806200011f6000396000f3fe608060405234801561001057600080fd5b50600436106101585760003560e01c80636e7d4ff3116100c35780639d4818481161007c5780639d481848146104a25780639e56d4ac146104d2578063a96835c414610502578063b1e4f13e14610532578063e1fde12514610562578063e2ca76461461059257610158565b80636e7d4ff31461039457806382e40813146103c45780638a173e3a146103f45780638a5a7a69146104245780638da5cb5b1461045457806392bee0341461047257610158565b80632813d19d116101155780632813d19d1461027e57806336270598146102b65780635a629898146102e657806361bc221a146103165780636763275c146103345780636d64516e1461036457610158565b806301fc20e21461015d578063079b25961461018e5780630f088011146101be5780631699bf90146101ee5780631944ad431461021e57806324b8fbf61461024e575b600080fd5b61017760048036038101906101729190612d1a565b6105c2565b604051610185929190613147565b60405180910390f35b6101a860048036038101906101a39190612916565b6106ab565b6040516101b59190613051565b60405180910390f35b6101d860048036038101906101d3919061296e565b6106cb565b6040516101e59190613051565b60405180910390f35b6102086004803603810190610203919061296e565b610929565b6040516102159190613051565b60405180910390f35b61023860048036038101906102339190612916565b610b87565b6040516102459190613051565b60405180910390f35b6102686004803603810190610263919061296e565b610bca565b6040516102759190613051565b60405180910390f35b61029860048036038101906102939190612b3e565b610ee0565b6040516102ad999897969594939291906131b5565b60405180910390f35b6102d060048036038101906102cb9190612916565b6111c8565b6040516102dd9190613051565b60405180910390f35b61030060048036038101906102fb9190612bf7565b6111ff565b60405161030d9190613051565b60405180910390f35b61031e61145c565b60405161032b9190613335565b60405180910390f35b61034e60048036038101906103499190612916565b611462565b60405161035b9190613051565b60405180910390f35b61037e600480360381019061037991906129c2565b6114a5565b60405161038b9190613051565b60405180910390f35b6103ae60048036038101906103a99190612916565b6114d4565b6040516103bb9190613051565b60405180910390f35b6103de60048036038101906103d99190612d1a565b611517565b6040516103eb9190613051565b60405180910390f35b61040e600480360381019061040991906129fe565b61171c565b60405161041b91906130da565b60405180910390f35b61043e600480360381019061043991906128c7565b611879565b60405161044b9190613051565b60405180910390f35b61045c6119f1565b6040516104699190612fff565b60405180910390f35b61048c6004803603810190610487919061296e565b611a15565b6040516104999190613051565b60405180910390f35b6104bc60048036038101906104b7919061296e565b611c3c565b6040516104c99190613335565b60405180910390f35b6104ec60048036038101906104e79190612c33565b611ee8565b6040516104f99190613051565b60405180910390f35b61051c6004803603810190610517919061296e565b612171565b6040516105299190613335565b60405180910390f35b61054c60048036038101906105479190612a3f565b6124f2565b604051610559919061306c565b60405180910390f35b61057c60048036038101906105779190612916565b61255a565b6040516105899190613051565b60405180910390f35b6105ac60048036038101906105a7919061288b565b61259c565b6040516105b99190613051565b60405180910390f35b600360205281600052604060002060205280600052604060002060009150915050806000018054600181600116156101000203166002900480601f01602080910402602001604051908101604052809291908181526020018280546001816001161561010002031660029004801561067b5780601f106106505761010080835404028352916020019161067b565b820191906000526020600020905b81548152906001019060200180831161065e57829003601f168201915b5050505050908060010160009054906101000a900473ffffffffffffffffffffffffffffffffffffffff16905082565b60008083838101906106bd9190612b3e565b905060019150509392505050565b6000600260003373ffffffffffffffffffffffffffffffffffffffff1673ffffffffffffffffffffffffffffffffffffffff168152602001908152602001600020600061075c6000368080601f016020809104026020016040519081016040528093929190818152602001838380828437600081840152601f19601f8201169050808301925050505050505061171c565b7bffffffffffffffffffffffffffffffffffffffffffffffffffffffff19167bffffffffffffffffffffffffffffffffffffffffffffffffffffffff1916815260200190815260200160002060009054906101000a900460ff166107f5576040517f08c379a00000000000000000000000000000000000000000000000000000000081526004016107ec906132d5565b60405180910390fd5b60008280602001905181019061080b9190612b67565b90506005600881111561081a57fe5b600560008381526020019081526020016000206006015414610871576040517f08c379a0000000000000000000000000000000000000000000000000000000008152600401610868906132f5565b60405180910390fd5b6006600881111561087e57fe5b60056000838152602001908152602001600020600601819055507fdb7d666add72b98acc536d658c82a9210bd1f2d87487e11b811162a3c8c2a0d26109076000368080601f016020809104026020016040519081016040528093929190818152602001838380828437600081840152601f19601f8201169050808301925050505050505061171c565b846040516109169291906130f5565b60405180910390a1600191505092915050565b6000600260003373ffffffffffffffffffffffffffffffffffffffff1673ffffffffffffffffffffffffffffffffffffffff16815260200190815260200160002060006109ba6000368080601f016020809104026020016040519081016040528093929190818152602001838380828437600081840152601f19601f8201169050808301925050505050505061171c565b7bffffffffffffffffffffffffffffffffffffffffffffffffffffffff19167bffffffffffffffffffffffffffffffffffffffffffffffffffffffff1916815260200190815260200160002060009054906101000a900460ff16610a53576040517f08c379a0000000000000000000000000000000000000000000000000000000008152600401610a4a906132d5565b60405180910390fd5b600082806020019051810190610a699190612b67565b905060046008811115610a7857fe5b600560008381526020019081526020016000206006015414610acf576040517f08c379a0000000000000000000000000000000000000000000000000000000008152600401610ac6906132f5565b60405180910390fd5b60056008811115610adc57fe5b60056000838152602001908152602001600020600601819055507fdb7d666add72b98acc536d658c82a9210bd1f2d87487e11b811162a3c8c2a0d2610b656000368080601f016020809104026020016040519081016040528093929190818152602001838380828437600081840152601f19601f8201169050808301925050505050505061171c565b84604051610b749291906130f5565b60405180910390a1600191505092915050565b6000808383810190610b999190612b3e565b905060036008811115610ba857fe5b6005600083815260200190815260200160002060060154149150509392505050565b6000600260003373ffffffffffffffffffffffffffffffffffffffff1673ffffffffffffffffffffffffffffffffffffffff1681526020019081526020016000206000610c5b6000368080601f016020809104026020016040519081016040528093929190818152602001838380828437600081840152601f19601f8201169050808301925050505050505061171c565b7bffffffffffffffffffffffffffffffffffffffffffffffffffffffff19167bffffffffffffffffffffffffffffffffffffffffffffffffffffffff1916815260200190815260200160002060009054906101000a900460ff16610cf4576040517f08c379a0000000000000000000000000000000000000000000000000000000008152600401610ceb906132d5565b60405180910390fd5b60008060008085806020019051810190610d0e9190612c87565b935093509350935060026008811115610d2357fe5b600560008681526020019081526020016000206006015414610d7a576040517f08c379a0000000000000000000000000000000000000000000000000000000008152600401610d71906132f5565b60405180910390fd5b816005600086815260200190815260200160002060030160006101000a81548173ffffffffffffffffffffffffffffffffffffffff021916908373ffffffffffffffffffffffffffffffffffffffff16021790555080600560008681526020019081526020016000206004019080519060200190610df99291906125cb565b5082600560008681526020019081526020016000206002019080519060200190610e249291906125cb565b5060046008811115610e3257fe5b60056000868152602001908152602001600020600601819055507fdb7d666add72b98acc536d658c82a9210bd1f2d87487e11b811162a3c8c2a0d2610ebb6000368080601f016020809104026020016040519081016040528093929190818152602001838380828437600081840152601f19601f8201169050808301925050505050505061171c565b87604051610eca9291906130f5565b60405180910390a1600194505050505092915050565b6005602052806000526040600020600091509050806000018054600181600116156101000203166002900480601f016020809104026020016040519081016040528092919081815260200182805460018160011615610100020316600290048015610f8c5780601f10610f6157610100808354040283529160200191610f8c565b820191906000526020600020905b815481529060010190602001808311610f6f57829003601f168201915b5050505050908060010160009054906101000a900460ff1690806002018054600181600116156101000203166002900480601f01602080910402602001604051908101604052809291908181526020018280546001816001161561010002031660029004801561103d5780601f106110125761010080835404028352916020019161103d565b820191906000526020600020905b81548152906001019060200180831161102057829003601f168201915b5050505050908060030160009054906101000a900473ffffffffffffffffffffffffffffffffffffffff1690806004018054600181600116156101000203166002900480601f0160208091040260200160405190810160405280929190818152602001828054600181600116156101000203166002900480156111015780601f106110d657610100808354040283529160200191611101565b820191906000526020600020905b8154815290600101906020018083116110e457829003601f168201915b505050505090806005018054600181600116156101000203166002900480601f01602080910402602001604051908101604052809291908181526020018280546001816001161561010002031660029004801561119f5780601f106111745761010080835404028352916020019161119f565b820191906000526020600020905b81548152906001019060200180831161118257829003601f168201915b5050505050908060060154908060070160009054906101000a900460ff16908060080154905089565b60008083838101906111da9190612b3e565b9050806005600083815260200190815260200160002060060154149150509392505050565b6000600260003373ffffffffffffffffffffffffffffffffffffffff1673ffffffffffffffffffffffffffffffffffffffff16815260200190815260200160002060006112906000368080601f016020809104026020016040519081016040528093929190818152602001838380828437600081840152601f19601f8201169050808301925050505050505061171c565b7bffffffffffffffffffffffffffffffffffffffffffffffffffffffff19167bffffffffffffffffffffffffffffffffffffffffffffffffffffffff1916815260200190815260200160002060009054906101000a900460ff16611329576040517f08c379a0000000000000000000000000000000000000000000000000000000008152600401611320906132d5565b60405180910390fd5b6040518060400160405280600c81526020017f76657269666965644e616d650000000000000000000000000000000000000000815250826040516020016113709190612fb2565b604051602081830303815290604052600015156005600087815260200190815260200160002060010160009054906101000a900460ff161515146113e9576040517f08c379a00000000000000000000000000000000000000000000000000000000081526004016113e0906132b5565b60405180910390fd5b836005600087815260200190815260200160002060010160006101000a81548160ff021916908315150217905550600192507f8ad5b2a8a67cf2b47830751d7e1f108f7b52189d45c75420be83e1f60bfc992f828260405161144c92919061325e565b60405180910390a1505092915050565b60045481565b60008083838101906114749190612b3e565b90506006600881111561148357fe5b6005600083815260200190815260200160002060060154149150509392505050565b60016020528160005260406000206020528060005260406000206000915091509054906101000a900460ff1681565b60008083838101906114e69190612b3e565b9050600560088111156114f557fe5b6005600083815260200190815260200160002060060154149150509392505050565b6000600260003373ffffffffffffffffffffffffffffffffffffffff1673ffffffffffffffffffffffffffffffffffffffff16815260200190815260200160002060006115a86000368080601f016020809104026020016040519081016040528093929190818152602001838380828437600081840152601f19601f8201169050808301925050505050505061171c565b7bffffffffffffffffffffffffffffffffffffffffffffffffffffffff19167bffffffffffffffffffffffffffffffffffffffffffffffffffffffff1916815260200190815260200160002060009054906101000a900460ff16611641576040517f08c379a0000000000000000000000000000000000000000000000000000000008152600401611638906132d5565b60405180910390fd5b6040518060400160405280600681526020017f7374617475730000000000000000000000000000000000000000000000000000815250826040516020016116889190612fe4565b6040516020818303038152906040528360056000878152602001908152602001600020600601819055506000846040516020016116c59190612fe4565b604051602081830303815290604052905060019350507f8ad5b2a8a67cf2b47830751d7e1f108f7b52189d45c75420be83e1f60bfc992f828260405161170c92919061325e565b60405180910390a1505092915050565b600060188260038151811061172d57fe5b602001015160f81c60f81b7effffffffffffffffffffffffffffffffffffffffffffffffffffffffffffff19167bffffffffffffffffffffffffffffffffffffffffffffffffffffffff1916901c60108360028151811061178a57fe5b602001015160f81c60f81b7effffffffffffffffffffffffffffffffffffffffffffffffffffffffffffff19167bffffffffffffffffffffffffffffffffffffffffffffffffffffffff1916901c6008846001815181106117e757fe5b602001015160f81c60f81b7effffffffffffffffffffffffffffffffffffffffffffffffffffffffffffff19167bffffffffffffffffffffffffffffffffffffffffffffffffffffffff1916901c8460008151811061184257fe5b602001015160f81c60f81b7effffffffffffffffffffffffffffffffffffffffffffffffffffffffffffff19161717179050919050565b60003373ffffffffffffffffffffffffffffffffffffffff1660008054906101000a900473ffffffffffffffffffffffffffffffffffffffff1673ffffffffffffffffffffffffffffffffffffffff1614611909576040517f08c379a000000000000000000000000000000000000000000000000000000000815260040161190090613315565b60405180910390fd5b81600260008673ffffffffffffffffffffffffffffffffffffffff1673ffffffffffffffffffffffffffffffffffffffff1681526020019081526020016000206000857bffffffffffffffffffffffffffffffffffffffffffffffffffffffff19167bffffffffffffffffffffffffffffffffffffffffffffffffffffffff1916815260200190815260200160002060006101000a81548160ff0219169083151502179055507f7f41b44a4d0cf3e01e6c1dc089568e147a684629672ed575e47ff05bd1bb29a38484846040516119e29392919061301a565b60405180910390a19392505050565b60008054906101000a900473ffffffffffffffffffffffffffffffffffffffff1681565b6000600260003373ffffffffffffffffffffffffffffffffffffffff1673ffffffffffffffffffffffffffffffffffffffff1681526020019081526020016000206000611aa66000368080601f016020809104026020016040519081016040528093929190818152602001838380828437600081840152601f19601f8201169050808301925050505050505061171c565b7bffffffffffffffffffffffffffffffffffffffffffffffffffffffff19167bffffffffffffffffffffffffffffffffffffffffffffffffffffffff1916815260200190815260200160002060009054906101000a900460ff16611b3f576040517f08c379a0000000000000000000000000000000000000000000000000000000008152600401611b36906132d5565b60405180910390fd5b600082806020019051810190611b559190612b67565b905060016008811115611b6457fe5b60056000838152602001908152602001600020600601819055507fdb7d666add72b98acc536d658c82a9210bd1f2d87487e11b811162a3c8c2a0d2611bed6000368080601f016020809104026020016040519081016040528093929190818152602001838380828437600081840152601f19601f8201169050808301925050505050505061171c565b84604051611bfc9291906130f5565b60405180910390a1807f3b65c09ad63e8c04df5eac60ae4b62d97477015d95a27bd0ae66cd5231f9693260405160405180910390a2600191505092915050565b600080600083806020019051810190611c559190612ad2565b91509150604051806101200160405280838152602001600015158152602001828152602001600073ffffffffffffffffffffffffffffffffffffffff16815260200160405180602001604052806000815250815260200160405180602001604052806000815250815260200160006008811115611cce57fe5b815260200160001515815260200160008152506005600060045481526020019081526020016000206000820151816000019080519060200190611d129291906125cb565b5060208201518160010160006101000a81548160ff0219169083151502179055506040820151816002019080519060200190611d4f9291906125cb565b5060608201518160030160006101000a81548173ffffffffffffffffffffffffffffffffffffffff021916908373ffffffffffffffffffffffffffffffffffffffff1602179055506080820151816004019080519060200190611db39291906125cb565b5060a0820151816005019080519060200190611dd09291906125cb565b5060c0820151816006015560e08201518160070160006101000a81548160ff02191690831515021790555061010082015181600801559050506004600081548092919060010191905055507fdb7d666add72b98acc536d658c82a9210bd1f2d87487e11b811162a3c8c2a0d2611e8a6000368080601f016020809104026020016040519081016040528093929190818152602001838380828437600081840152601f19601f8201169050808301925050505050505061171c565b85604051611e999291906130f5565b60405180910390a16004547f91123c4f4944abc978a97a8ad6bcbef27a6d8df85443037fc11ea9ad3d78ab4383604051611ed39190613125565b60405180910390a26004549250505092915050565b6000600260003373ffffffffffffffffffffffffffffffffffffffff1673ffffffffffffffffffffffffffffffffffffffff1681526020019081526020016000206000611f796000368080601f016020809104026020016040519081016040528093929190818152602001838380828437600081840152601f19601f8201169050808301925050505050505061171c565b7bffffffffffffffffffffffffffffffffffffffffffffffffffffffff19167bffffffffffffffffffffffffffffffffffffffffffffffffffffffff1916815260200190815260200160002060009054906101000a900460ff16612012576040517f08c379a0000000000000000000000000000000000000000000000000000000008152600401612009906132d5565b60405180910390fd5b6040518060400160405280600381526020017f7275630000000000000000000000000000000000000000000000000000000000815250826040516020016120599190612fcd565b604051602081830303815290604052600015156005600087815260200190815260200160002060070160009054906101000a900460ff161515146120d2576040517f08c379a00000000000000000000000000000000000000000000000000000000081526004016120c990613295565b60405180910390fd5b836005600087815260200190815260200160002060050190805190602001906120fc9291906125cb565b5060016005600087815260200190815260200160002060070160006101000a81548160ff021916908315150217905550600192507f8ad5b2a8a67cf2b47830751d7e1f108f7b52189d45c75420be83e1f60bfc992f828260405161216192919061325e565b60405180910390a1505092915050565b6000600260003373ffffffffffffffffffffffffffffffffffffffff1673ffffffffffffffffffffffffffffffffffffffff16815260200190815260200160002060006122026000368080601f016020809104026020016040519081016040528093929190818152602001838380828437600081840152601f19601f8201169050808301925050505050505061171c565b7bffffffffffffffffffffffffffffffffffffffffffffffffffffffff19167bffffffffffffffffffffffffffffffffffffffffffffffffffffffff1916815260200190815260200160002060009054906101000a900460ff1661229b576040517f08c379a0000000000000000000000000000000000000000000000000000000008152600401612292906132d5565b60405180910390fd5b6000806000848060200190518101906122b49190612b90565b925092509250600160088111156122c757fe5b60056000858152602001908152602001600020600601541461231e576040517f08c379a0000000000000000000000000000000000000000000000000000000008152600401612315906132f5565b60405180910390fd5b60006005600085815260200190815260200160002060080154905060405180604001604052808381526020018473ffffffffffffffffffffffffffffffffffffffff1681525060036000868152602001908152602001600020600083815260200190815260200160002060008201518160000190805190602001906123a49291906125cb565b5060208201518160010160006101000a81548173ffffffffffffffffffffffffffffffffffffffff021916908373ffffffffffffffffffffffffffffffffffffffff160217905550905050600160056000868152602001908152602001600020600801540160056000868152602001908152602001600020600801819055507fdb7d666add72b98acc536d658c82a9210bd1f2d87487e11b811162a3c8c2a0d26124926000368080601f016020809104026020016040519081016040528093929190818152602001838380828437600081840152601f19601f8201169050808301925050505050505061171c565b876040516124a19291906130f5565b60405180910390a1807f148174b3c28355adb77adbb0dbe613489fec345a165dd2a057bab290da9eeb248385876040516124dd93929190613177565b60405180910390a28094505050505092915050565b60006040518060800160405280605281526020016135cf605291398051906020012085805190602001208380519060200120858760405160200161253a959493929190613087565b604051602081830303815290604052805190602001209050949350505050565b600080838381019061256c9190612b3e565b90506005600082815260200190815260200160002060070160009054906101000a900460ff169150509392505050565b60026020528160005260406000206020528060005260406000206000915091509054906101000a900460ff1681565b828054600181600116156101000203166002900490600052602060002090601f0160209004810192826126015760008555612648565b82601f1061261a57805160ff1916838001178555612648565b82800160010185558215612648579182015b8281111561264757825182559160200191906001019061262c565b5b5090506126559190612659565b5090565b5b8082111561267257600081600090555060010161265a565b5090565b600061268961268484613381565b613350565b9050828152602081018484840111156126a157600080fd5b6126ac8482856134b4565b509392505050565b60006126c76126c2846133b1565b613350565b9050828152602081018484840111156126df57600080fd5b6126ea8482856134b4565b509392505050565b6000612705612700846133b1565b613350565b90508281526020810184848401111561271d57600080fd5b6127288482856134c3565b509392505050565b60008135905061273f81613544565b92915050565b6000815190506127548161355b565b92915050565b60008135905061276981613572565b92915050565b60008135905061277e81613589565b92915050565b600081359050612793816135a0565b92915050565b60008083601f8401126127ab57600080fd5b8235905067ffffffffffffffff8111156127c457600080fd5b6020830191508360018202830111156127dc57600080fd5b9250929050565b600082601f8301126127f457600080fd5b8135612804848260208601612676565b91505092915050565b600082601f83011261281e57600080fd5b813561282e8482602086016126b4565b91505092915050565b600082601f83011261284857600080fd5b81516128588482602086016126f2565b91505092915050565b600081359050612870816135b7565b92915050565b600081519050612885816135b7565b92915050565b6000806040838503121561289e57600080fd5b60006128ac85828601612730565b92505060206128bd85828601612784565b9150509250929050565b6000806000606084860312156128dc57600080fd5b60006128ea86828701612730565b93505060206128fb86828701612784565b925050604061290c8682870161275a565b9150509250925092565b60008060006040848603121561292b57600080fd5b600061293986828701612730565b935050602084013567ffffffffffffffff81111561295657600080fd5b61296286828701612799565b92509250509250925092565b6000806040838503121561298157600080fd5b600061298f85828601612730565b925050602083013567ffffffffffffffff8111156129ac57600080fd5b6129b8858286016127e3565b9150509250929050565b600080604083850312156129d557600080fd5b60006129e38582860161276f565b92505060206129f485828601612784565b9150509250929050565b600060208284031215612a1057600080fd5b600082013567ffffffffffffffff811115612a2a57600080fd5b612a36848285016127e3565b91505092915050565b60008060008060808587031215612a5557600080fd5b600085013567ffffffffffffffff811115612a6f57600080fd5b612a7b8782880161280d565b9450506020612a8c87828801612730565b9350506040612a9d87828801612861565b925050606085013567ffffffffffffffff811115612aba57600080fd5b612ac68782880161280d565b91505092959194509250565b60008060408385031215612ae557600080fd5b600083015167ffffffffffffffff811115612aff57600080fd5b612b0b85828601612837565b925050602083015167ffffffffffffffff811115612b2857600080fd5b612b3485828601612837565b9150509250929050565b600060208284031215612b5057600080fd5b6000612b5e84828501612861565b91505092915050565b600060208284031215612b7957600080fd5b6000612b8784828501612876565b91505092915050565b600080600060608486031215612ba557600080fd5b6000612bb386828701612876565b9350506020612bc486828701612745565b925050604084015167ffffffffffffffff811115612be157600080fd5b612bed86828701612837565b9150509250925092565b60008060408385031215612c0a57600080fd5b6000612c1885828601612861565b9250506020612c298582860161275a565b9150509250929050565b60008060408385031215612c4657600080fd5b6000612c5485828601612861565b925050602083013567ffffffffffffffff811115612c7157600080fd5b612c7d8582860161280d565b9150509250929050565b60008060008060808587031215612c9d57600080fd5b6000612cab87828801612876565b945050602085015167ffffffffffffffff811115612cc857600080fd5b612cd487828801612837565b9350506040612ce587828801612745565b925050606085015167ffffffffffffffff811115612d0257600080fd5b612d0e87828801612837565b91505092959194509250565b60008060408385031215612d2d57600080fd5b6000612d3b85828601612861565b9250506020612d4c85828601612861565b9150509250929050565b612d5f81613424565b82525050565b612d6e81613448565b82525050565b612d85612d8082613448565b6134f6565b82525050565b612d9481613454565b82525050565b612da38161345e565b82525050565b6000612db4826133e1565b612dbe81856133f7565b9350612dce8185602086016134c3565b612dd781613526565b840191505092915050565b6000612ded826133ec565b612df78185613408565b9350612e078185602086016134c3565b612e1081613526565b840191505092915050565b6000612e26826133ec565b612e308185613419565b9350612e408185602086016134c3565b80840191505092915050565b6000612e59601483613408565b91507f52554320616c72656164792076657269666965640000000000000000000000006000830152602082019050919050565b6000612e99601583613408565b91507f4e616d6520616c726561647920766572696669656400000000000000000000006000830152602082019050919050565b6000612ed9600e83613408565b91507f496e76616c69642073656e6465720000000000000000000000000000000000006000830152602082019050919050565b6000612f19600d83613408565b91507f496e76616c6964207374617465000000000000000000000000000000000000006000830152602082019050919050565b6000612f59600e83613408565b91507f4e6f7420617574686f72697a65640000000000000000000000000000000000006000830152602082019050919050565b612f95816134aa565b82525050565b612fac612fa7826134aa565b613508565b82525050565b6000612fbe8284612d74565b60018201915081905092915050565b6000612fd98284612e1b565b915081905092915050565b6000612ff08284612f9b565b60208201915081905092915050565b60006020820190506130146000830184612d56565b92915050565b600060608201905061302f6000830186612d56565b61303c6020830185612d9a565b6130496040830184612d65565b949350505050565b60006020820190506130666000830184612d65565b92915050565b60006020820190506130816000830184612d8b565b92915050565b600060a08201905061309c6000830188612d8b565b6130a96020830187612d8b565b6130b66040830186612d8b565b6130c36060830185612f8c565b6130d06080830184612d56565b9695505050505050565b60006020820190506130ef6000830184612d9a565b92915050565b600060408201905061310a6000830185612d9a565b818103602083015261311c8184612da9565b90509392505050565b6000602082019050818103600083015261313f8184612de2565b905092915050565b600060408201905081810360008301526131618185612de2565b90506131706020830184612d56565b9392505050565b600060608201905081810360008301526131918186612de2565b90506131a06020830185612d56565b6131ad6040830184612f8c565b949350505050565b60006101208201905081810360008301526131d0818c612de2565b90506131df602083018b612d65565b81810360408301526131f1818a612de2565b90506132006060830189612d56565b81810360808301526132128188612de2565b905081810360a08301526132268187612de2565b905061323560c0830186612f8c565b61324260e0830185612d65565b613250610100830184612f8c565b9a9950505050505050505050565b600060408201905081810360008301526132788185612de2565b9050818103602083015261328c8184612da9565b90509392505050565b600060208201905081810360008301526132ae81612e4c565b9050919050565b600060208201905081810360008301526132ce81612e8c565b9050919050565b600060208201905081810360008301526132ee81612ecc565b9050919050565b6000602082019050818103600083015261330e81612f0c565b9050919050565b6000602082019050818103600083015261332e81612f4c565b9050919050565b600060208201905061334a6000830184612f8c565b92915050565b6000604051905081810181811067ffffffffffffffff8211171561337757613376613524565b5b8060405250919050565b600067ffffffffffffffff82111561339c5761339b613524565b5b601f19601f8301169050602081019050919050565b600067ffffffffffffffff8211156133cc576133cb613524565b5b601f19601f8301169050602081019050919050565b600081519050919050565b600081519050919050565b600082825260208201905092915050565b600082825260208201905092915050565b600081905092915050565b600061342f8261348a565b9050919050565b60006134418261348a565b9050919050565b60008115159050919050565b6000819050919050565b60007fffffffff0000000000000000000000000000000000000000000000000000000082169050919050565b600073ffffffffffffffffffffffffffffffffffffffff82169050919050565b6000819050919050565b82818337600083830152505050565b60005b838110156134e15780820151818401526020810190506134c6565b838111156134f0576000848401525b50505050565b600061350182613512565b9050919050565b6000819050919050565b600061351d82613537565b9050919050565bfe5b6000601f19601f8301169050919050565b60008160f81b9050919050565b61354d81613424565b811461355857600080fd5b50565b61356481613436565b811461356f57600080fd5b50565b61357b81613448565b811461358657600080fd5b50565b61359281613454565b811461359d57600080fd5b50565b6135a98161345e565b81146135b457600080fd5b50565b6135c0816134aa565b81146135cb57600080fd5b5056fe454950373132446f6d61696e28737472696e67206e616d652c737472696e672076657273696f6e2c75696e7432353620636861696e49642c6164647265737320766572696679696e67436f6e747261637429a26469706673582212207d0aaa6169f3f00d4cebd56429d67c00eee3ee5eb545fe103584f37f6506569564736f6c63430007060033",
  "immutableReferences": {},
  "source": "pragma solidity ^0.7.0;\npragma experimental ABIEncoderV2;\n\nimport \"./MinLibBytes.sol\";\nimport \"./MessageRoute.sol\";\nimport \"./Whitelist.sol\";\ncontract TestActionSAContract is Whitelist, MessageRoute {\n\n \n    struct SociedadAnonima {\n        // Company Name\n        string name;\n        // Has been verfied\n        bool verifiedName;\n        // JSON Schema(Name, Activity, Members, Address, Expires, AdditionalLegalDocs, Notary)\n        string metadataURI;\n        // agent\n        address legalResidentAgent;\n        string legalResidentAgentDID;\n        // RUC\n        string ruc;\n        uint status;\n        // Has been verified\n        bool verifiedRuc;\n        uint memberCount;\n    }\n\n    struct Member {\n        string did;\n        address member;\n    }\n\n    mapping (uint => mapping(uint => Member)) public members;\n\n    enum WorkflowState {\n        SearchName,\n        RequestKYC,\n        AddMembers,\n        KYCCompleted,\n        RegisterCompany, // Name, Members, Capital, \n        NotaryStamped,\n        Registered,\n        OperationsRequested,\n        OperationsNoticeCompleted\n    }\n\n    event RequestBoardMembersKYC(\n        uint indexed id\n    );\n\n    event CompanyAdded(\n        string name,\n        uint indexed id\n    );\n\n    event MemberAdded(\n        string memberDID,\n        address member,\n        uint companyId,\n        uint indexed id\n    );\n\n    event CompanyRegistered(\n        string name,\n        string ruc,\n        uint indexed  id\n    );\n\n\n    uint public counter;\n    mapping(uint => SociedadAnonima) public companies;\n\n    constructor(address _owner) {\n        owner = _owner;\n    }\n    /* Async Message Flow Functions */\n\n    /* Property Getters and Setters */\n    // Has Valid Name verifies company name has been completed\n    function hasValidName(\n        address caller,\n        bytes calldata params\n    ) \n    external  returns(bool) {\n        uint id = abi.decode(params, (uint));\n        return true;\n    }\n\n\n    // Sets a valid name\n    function setValidName(\n        uint id,\n        bool ok\n    ) \n    public \n    onlyWhitelisted\n    propertyChange(\"verifiedName\", abi.encodePacked(ok))\n     returns(bool) {\n        require(companies[id].verifiedName == false, \"Name already verified\");\n        companies[id].verifiedName = ok;\n        return true;\n    }\n\n\n    function setRUC(\n        uint id,\n        string memory ruc\n    ) \n    public\n    onlyWhitelisted\n    propertyChange(\"ruc\", abi.encodePacked(ruc))\n    returns(bool) {\n        require(companies[id].verifiedRuc == false, \"RUC already verified\");\n        companies[id].ruc = ruc;\n        companies[id].verifiedRuc = true;\n        return true;\n    }\n\n    function hasRUC(\n        address caller,\n        bytes calldata params\n    ) \n    external  returns(bool) {\n        uint id = abi.decode(params, (uint));\n        return companies[id].verifiedRuc;\n    }\n\n    function hasMemberKYCCompleted(\n        address caller,\n        bytes calldata params\n    ) \n    external  returns(bool) {\n        uint id = abi.decode(params, (uint));\n        return companies[id].status == uint(WorkflowState.KYCCompleted);\n    }\n\n    function hasRegistered(\n        address caller,\n        bytes calldata params\n    ) \n    external  returns(bool) {\n        uint id = abi.decode(params, (uint));\n        return companies[id].status == uint(WorkflowState.Registered);\n    }\n\n\n    function hasNotarized(\n        address caller,\n        bytes calldata params\n    ) \n    external  returns(bool) {\n        uint id = abi.decode(params, (uint));\n        return companies[id].status == uint(WorkflowState.NotaryStamped);\n    }\n\n    function setStatus(\n        uint id,\n        uint status\n    ) \n    public\n    onlyWhitelisted\n    propertyChange(\"status\", abi.encodePacked(status))\n    returns(bool) {\n        companies[id].status = status;\n        bytes memory params = abi.encodePacked(status);\n        return true;\n    }\n\n    function hasStatus(\n        address caller,\n        bytes calldata params\n    ) \n    external  returns(bool) {\n        uint id = abi.decode(params, (uint));\n        return companies[id].status == id;\n    }\n\n    // Create SA\n    function propose(\n        address caller,\n        bytes memory params\n    ) public returns(uint) {\n        (string memory name,\n         string memory metadataURI) =\n        abi.decode(\n            params,\n            (string, string) \n        );\n\n        companies[counter] = SociedadAnonima({\n            name: name,\n            ruc: \"\",\n            verifiedName: false,\n            verifiedRuc: false,\n            status: uint(WorkflowState.SearchName),\n            legalResidentAgent: address(0),\n            legalResidentAgentDID: \"\",\n            metadataURI: metadataURI,\n            memberCount: 0\n        });\n        counter++;\n\n        emit ActionChanged(\n            getMethodSig(msg.data), \n            params\n        );\n        emit CompanyAdded(\n            name,\n            counter\n        );\n\n        return counter;\n    }\n\n\n    function addMemberKYC(\n        address caller,\n        bytes memory params\n    ) public\n      onlyWhitelisted\n     returns(uint) {\n\n        (uint id,\n        address member,\n         string memory did) =\n        abi.decode(\n            params,\n            (uint, address, string) \n        );\n\n        require(companies[id].status == uint(WorkflowState.RequestKYC), \"Invalid state\");\n\n        uint memberId = companies[id].memberCount;\n        members[id][memberId] = Member({\n            did: did,\n            member: member\n        });\n\n        companies[id].memberCount = companies[id].memberCount + 1;\n\n        emit ActionChanged(\n            getMethodSig(msg.data), \n            params\n        );\n        \n        emit MemberAdded(\n            did,\n            member,\n            id,\n            memberId\n        );\n\n        return memberId;\n\n    }\n\n    // Client must call setStatus once he enrolls 3 KYC Profiles\n\n\n    // Register SA\n    function register(\n        address caller,\n        bytes memory params\n    ) public onlyWhitelisted returns(bool) {\n        (uint id,\n        string memory metadataURI,\n        address legalResidentAgent,\n         string memory legalResidentAgentDID) =\n        abi.decode(\n            params,\n            (uint, string, address, string) \n        );\n\n        require(companies[id].status == uint(WorkflowState.AddMembers), \"Invalid state\");\n\n        companies[id].legalResidentAgent = legalResidentAgent;\n        companies[id].legalResidentAgentDID = legalResidentAgentDID;\n        companies[id].metadataURI = metadataURI;\n        companies[id].status = uint(WorkflowState.RegisterCompany);\n\n        emit ActionChanged(\n            getMethodSig(msg.data), \n            params\n        );\n\n        return true;\n    }\n\n    function notaryStamp(\n        address caller,\n        bytes memory params\n    ) public onlyWhitelisted returns(bool) {\n        (uint id) =\n        abi.decode(\n            params,\n            (uint) \n        );\n        require(companies[id].status == uint(WorkflowState.RegisterCompany), \"Invalid state\");\n\n        companies[id].status = uint(WorkflowState.NotaryStamped);\n\n        emit ActionChanged(\n            getMethodSig(msg.data), \n            params\n        );\n\n        return true;\n    }\n\n\n    function requestKYC(\n        address caller,\n        bytes memory params\n    ) public onlyWhitelisted returns(bool) {\n        (uint id) =\n        abi.decode(\n            params,\n            (uint) \n        );\n        companies[id].status = uint(WorkflowState.RequestKYC);\n\n        emit ActionChanged(\n            getMethodSig(msg.data), \n            params\n        );\n\n        emit RequestBoardMembersKYC(id);\n\n        return true;\n    }\n\n    function completeCompanyRegistration(\n        address caller,\n        bytes memory params\n    ) public onlyWhitelisted returns(bool) {\n        (uint id) =\n        abi.decode(\n            params,\n            (uint) \n        );\n\n        require(companies[id].status == uint(WorkflowState.NotaryStamped), \"Invalid state\");\n\n        companies[id].status = uint(WorkflowState.Registered);\n\n        emit ActionChanged(\n            getMethodSig(msg.data), \n            params\n        );\n\n        return true;\n    }\n\n}",
  "sourcePath": "/home/rogelio/Code/xdv/electronic-sa-contracts/contracts/TestActionSAContract.sol",
  "compiler": {
    "name": "solc",
    "version": "0.7.6+commit.7338295f.Emscripten.clang"
  },
  "schemaVersion": "3.3.3",
  "updatedAt": "2021-02-12T15:14:42.552Z",
  "devdoc": {
    "kind": "dev",
    "methods": {},
    "version": 1
  },
  "userdoc": {
    "kind": "user",
    "methods": {},
    "version": 1
  }
}