{
  "contractName": "TestActionSAContract",
  "abi": [
    {
      "inputs": [
        {
          "internalType": "address",
          "name": "_owner",
          "type": "address"
        }
      ],
      "stateMutability": "nonpayable",
      "type": "constructor"
    },
    {
      "anonymous": false,
      "inputs": [
        {
          "indexed": false,
          "internalType": "bytes4",
          "name": "methodSig",
          "type": "bytes4"
        },
        {
          "indexed": false,
          "internalType": "bytes",
          "name": "request",
          "type": "bytes"
        }
      ],
      "name": "ActionChanged",
      "type": "event"
    },
    {
      "anonymous": false,
      "inputs": [
        {
          "indexed": false,
          "internalType": "string",
          "name": "name",
          "type": "string"
        },
        {
          "indexed": true,
          "internalType": "uint256",
          "name": "id",
          "type": "uint256"
        }
      ],
      "name": "CompanyAdded",
      "type": "event"
    },
    {
      "anonymous": false,
      "inputs": [
        {
          "indexed": false,
          "internalType": "string",
          "name": "name",
          "type": "string"
        },
        {
          "indexed": false,
          "internalType": "string",
          "name": "ruc",
          "type": "string"
        },
        {
          "indexed": true,
          "internalType": "uint256",
          "name": "id",
          "type": "uint256"
        }
      ],
      "name": "CompanyRegistered",
      "type": "event"
    },
    {
      "anonymous": false,
      "inputs": [
        {
          "indexed": false,
          "internalType": "string",
          "name": "propName",
          "type": "string"
        },
        {
          "indexed": false,
          "internalType": "bytes",
          "name": "data",
          "type": "bytes"
        }
      ],
      "name": "PropertyChanged",
      "type": "event"
    },
    {
      "inputs": [
        {
          "internalType": "uint256",
          "name": "",
          "type": "uint256"
        }
      ],
      "name": "companies",
      "outputs": [
        {
          "internalType": "string",
          "name": "name",
          "type": "string"
        },
        {
          "internalType": "bool",
          "name": "verifiedName",
          "type": "bool"
        },
        {
          "internalType": "string",
          "name": "companyAddress",
          "type": "string"
        },
        {
          "internalType": "string",
          "name": "industry",
          "type": "string"
        },
        {
          "internalType": "string",
          "name": "ruc",
          "type": "string"
        },
        {
          "internalType": "bool",
          "name": "verifiedRuc",
          "type": "bool"
        }
      ],
      "stateMutability": "view",
      "type": "function",
      "constant": true
    },
    {
      "inputs": [],
      "name": "counter",
      "outputs": [
        {
          "internalType": "uint256",
          "name": "",
          "type": "uint256"
        }
      ],
      "stateMutability": "view",
      "type": "function",
      "constant": true
    },
    {
      "inputs": [
        {
          "internalType": "bytes",
          "name": "data",
          "type": "bytes"
        }
      ],
      "name": "getMethodSig",
      "outputs": [
        {
          "internalType": "bytes4",
          "name": "",
          "type": "bytes4"
        }
      ],
      "stateMutability": "pure",
      "type": "function",
      "constant": true
    },
    {
      "inputs": [],
      "name": "owner",
      "outputs": [
        {
          "internalType": "address",
          "name": "",
          "type": "address"
        }
      ],
      "stateMutability": "view",
      "type": "function",
      "constant": true
    },
    {
      "inputs": [],
      "name": "isRucReady",
      "outputs": [
        {
          "internalType": "bool",
          "name": "",
          "type": "bool"
        }
      ],
      "stateMutability": "nonpayable",
      "type": "function"
    },
    {
      "inputs": [
        {
          "internalType": "address",
          "name": "caller",
          "type": "address"
        },
        {
          "internalType": "bytes",
          "name": "params",
          "type": "bytes"
        }
      ],
      "name": "propose",
      "outputs": [
        {
          "internalType": "uint256",
          "name": "",
          "type": "uint256"
        }
      ],
      "stateMutability": "nonpayable",
      "type": "function"
    },
    {
      "inputs": [
        {
          "internalType": "address",
          "name": "caller",
          "type": "address"
        },
        {
          "internalType": "bytes",
          "name": "params",
          "type": "bytes"
        }
      ],
      "name": "hasValidName",
      "outputs": [
        {
          "internalType": "bool",
          "name": "",
          "type": "bool"
        }
      ],
      "stateMutability": "view",
      "type": "function",
      "constant": true
    },
    {
      "inputs": [
        {
          "internalType": "uint256",
          "name": "id",
          "type": "uint256"
        },
        {
          "internalType": "bool",
          "name": "ok",
          "type": "bool"
        }
      ],
      "name": "setValidName",
      "outputs": [
        {
          "internalType": "bool",
          "name": "",
          "type": "bool"
        }
      ],
      "stateMutability": "nonpayable",
      "type": "function"
    },
    {
      "inputs": [
        {
          "internalType": "address",
          "name": "caller",
          "type": "address"
        },
        {
          "internalType": "bytes",
          "name": "params",
          "type": "bytes"
        }
      ],
      "name": "hasRUC",
      "outputs": [
        {
          "internalType": "bool",
          "name": "",
          "type": "bool"
        }
      ],
      "stateMutability": "view",
      "type": "function",
      "constant": true
    },
    {
      "inputs": [
        {
          "internalType": "uint256",
          "name": "id",
          "type": "uint256"
        },
        {
          "internalType": "string",
          "name": "ruc",
          "type": "string"
        }
      ],
      "name": "setRUC",
      "outputs": [
        {
          "internalType": "bool",
          "name": "",
          "type": "bool"
        }
      ],
      "stateMutability": "nonpayable",
      "type": "function"
    },
    {
      "inputs": [
        {
          "internalType": "address",
          "name": "caller",
          "type": "address"
        },
        {
          "internalType": "bytes",
          "name": "params",
          "type": "bytes"
        }
      ],
      "name": "register",
      "outputs": [
        {
          "internalType": "bool",
          "name": "",
          "type": "bool"
        }
      ],
      "stateMutability": "nonpayable",
      "type": "function"
    }
  ],
  "bytecode": "0x60806040523480156200001157600080fd5b50604051620018b5380380620018b5833981810160405281019062000037919062000096565b80600260006101000a81548173ffffffffffffffffffffffffffffffffffffffff021916908373ffffffffffffffffffffffffffffffffffffffff1602179055505062000110565b6000815190506200009081620000f6565b92915050565b600060208284031215620000a957600080fd5b6000620000b9848285016200007f565b91505092915050565b6000620000cf82620000d6565b9050919050565b600073ffffffffffffffffffffffffffffffffffffffff82169050919050565b6200010181620000c2565b81146200010d57600080fd5b50565b61179580620001206000396000f3fe608060405234801561001057600080fd5b50600436106100a95760003560e01c80638a173e3a116100715780638a173e3a146101915780638da5cb5b146101c15780639d481848146101df5780639e56d4ac1461020f578063e1fde1251461023f578063e85c630b1461026f576100a9565b8063079b2596146100ae57806324b8fbf6146100de5780632813d19d1461010e5780635a6298981461014357806361bc221a14610173575b600080fd5b6100c860048036038101906100c39190610e62565b61028d565b6040516100d59190611356565b60405180910390f35b6100f860048036038101906100f39190610e62565b6102d3565b6040516101059190611356565b60405180910390f35b61012860048036038101906101239190610f8e565b6103d1565b60405161013a969594939291906113de565b60405180910390f35b61015d60048036038101906101589190610fe0565b610687565b60405161016a9190611356565b60405180910390f35b61017b61071d565b604051610188919061151c565b60405180910390f35b6101ab60048036038101906101a69190610eb6565b610723565b6040516101b89190611371565b60405180910390f35b6101c9610880565b6040516101d6919061133b565b60405180910390f35b6101f960048036038101906101f49190610e62565b6108a6565b604051610206919061151c565b60405180910390f35b6102296004803603810190610224919061101c565b610ab2565b6040516102369190611356565b60405180910390f35b61025960048036038101906102549190610e62565b610bdc565b6040516102669190611356565b60405180910390f35b610277610c22565b6040516102849190611356565b60405180910390f35b600080828060200190518101906102a49190610fb7565b90506001600082815260200190815260200160002060010160009054906101000a900460ff1691505092915050565b6000806000838060200190518101906102ec9190611070565b915091507fdb7d666add72b98acc536d658c82a9210bd1f2d87487e11b811162a3c8c2a0d261035f6000368080601f016020809104026020016040519081016040528093929190818152602001838380828437600081840152601f19601f82011690508083019250505050505050610723565b8560405161036e92919061138c565b60405180910390a1817f7a5b6c3b56f3fd96c4145e8d16588d8853fbcfbbca80a8209817253e3d3b32f360016000858152602001908152602001600020600001836040516103bd92919061145b565b60405180910390a260019250505092915050565b6001602052806000526040600020600091509050806000018054600181600116156101000203166002900480601f01602080910402602001604051908101604052809291908181526020018280546001816001161561010002031660029004801561047d5780601f106104525761010080835404028352916020019161047d565b820191906000526020600020905b81548152906001019060200180831161046057829003601f168201915b5050505050908060010160009054906101000a900460ff1690806002018054600181600116156101000203166002900480601f01602080910402602001604051908101604052809291908181526020018280546001816001161561010002031660029004801561052e5780601f106105035761010080835404028352916020019161052e565b820191906000526020600020905b81548152906001019060200180831161051157829003601f168201915b505050505090806003018054600181600116156101000203166002900480601f0160208091040260200160405190810160405280929190818152602001828054600181600116156101000203166002900480156105cc5780601f106105a1576101008083540402835291602001916105cc565b820191906000526020600020905b8154815290600101906020018083116105af57829003601f168201915b505050505090806004018054600181600116156101000203166002900480601f01602080910402602001604051908101604052809291908181526020018280546001816001161561010002031660029004801561066a5780601f1061063f5761010080835404028352916020019161066a565b820191906000526020600020905b81548152906001019060200180831161064d57829003601f168201915b5050505050908060050160009054906101000a900460ff16905086565b6000816001600085815260200190815260200160002060010160006101000a81548160ff0219169083151502179055506000826040516020016106ca9190611309565b60405160208183030381529060405290507f8ad5b2a8a67cf2b47830751d7e1f108f7b52189d45c75420be83e1f60bfc992f8160405161070a91906114b2565b60405180910390a1600191505092915050565b60005481565b600060188260038151811061073457fe5b602001015160f81c60f81b7effffffffffffffffffffffffffffffffffffffffffffffffffffffffffffff19167bffffffffffffffffffffffffffffffffffffffffffffffffffffffff1916901c60108360028151811061079157fe5b602001015160f81c60f81b7effffffffffffffffffffffffffffffffffffffffffffffffffffffffffffff19167bffffffffffffffffffffffffffffffffffffffffffffffffffffffff1916901c6008846001815181106107ee57fe5b602001015160f81c60f81b7effffffffffffffffffffffffffffffffffffffffffffffffffffffffffffff19167bffffffffffffffffffffffffffffffffffffffffffffffffffffffff1916901c8460008151811061084957fe5b602001015160f81c60f81b7effffffffffffffffffffffffffffffffffffffffffffffffffffffffffffff19161717179050919050565b600260009054906101000a900473ffffffffffffffffffffffffffffffffffffffff1681565b600080600080848060200190518101906108c09190610ef7565b92509250925060008081548092919060010191905055506040518060c001604052808481526020016000151581526020018381526020018281526020016040518060200160405280600081525081526020016000151581525060016000805481526020019081526020016000206000820151816000019080519060200190610949929190610c2b565b5060208201518160010160006101000a81548160ff0219169083151502179055506040820151816002019080519060200190610986929190610c2b565b5060608201518160030190805190602001906109a3929190610c2b565b5060808201518160040190805190602001906109c0929190610c2b565b5060a08201518160050160006101000a81548160ff0219169083151502179055509050507fdb7d666add72b98acc536d658c82a9210bd1f2d87487e11b811162a3c8c2a0d2610a536000368080601f016020809104026020016040519081016040528093929190818152602001838380828437600081840152601f19601f82011690508083019250505050505050610723565b86604051610a6292919061138c565b60405180910390a16000547f91123c4f4944abc978a97a8ad6bcbef27a6d8df85443037fc11ea9ad3d78ab4384604051610a9c91906113bc565b60405180910390a2600054935050505092915050565b60008015156001600085815260200190815260200160002060050160009054906101000a900460ff16151514610b1d576040517f08c379a0000000000000000000000000000000000000000000000000000000008152600401610b1490611492565b60405180910390fd5b81600160008581526020019081526020016000206004019080519060200190610b47929190610c2b565b50600180600085815260200190815260200160002060050160006101000a81548160ff021916908315150217905550600082604051602001610b899190611324565b60405160208183030381529060405290507f8ad5b2a8a67cf2b47830751d7e1f108f7b52189d45c75420be83e1f60bfc992f81604051610bc991906114e7565b60405180910390a1600191505092915050565b60008082806020019051810190610bf39190610fb7565b90506001600082815260200190815260200160002060050160009054906101000a900460ff1691505092915050565b60006001905090565b828054600181600116156101000203166002900490600052602060002090601f016020900481019282610c615760008555610ca8565b82601f10610c7a57805160ff1916838001178555610ca8565b82800160010185558215610ca8579182015b82811115610ca7578251825591602001919060010190610c8c565b5b509050610cb59190610cb9565b5090565b5b80821115610cd2576000816000905550600101610cba565b5090565b6000610ce9610ce484611568565b611537565b905082815260208101848484011115610d0157600080fd5b610d0c848285611694565b509392505050565b6000610d27610d2284611598565b611537565b905082815260208101848484011115610d3f57600080fd5b610d4a848285611694565b509392505050565b6000610d65610d6084611598565b611537565b905082815260208101848484011115610d7d57600080fd5b610d888482856116a3565b509392505050565b600081359050610d9f8161171a565b92915050565b600081359050610db481611731565b92915050565b600082601f830112610dcb57600080fd5b8135610ddb848260208601610cd6565b91505092915050565b600082601f830112610df557600080fd5b8135610e05848260208601610d14565b91505092915050565b600082601f830112610e1f57600080fd5b8151610e2f848260208601610d52565b91505092915050565b600081359050610e4781611748565b92915050565b600081519050610e5c81611748565b92915050565b60008060408385031215610e7557600080fd5b6000610e8385828601610d90565b925050602083013567ffffffffffffffff811115610ea057600080fd5b610eac85828601610dba565b9150509250929050565b600060208284031215610ec857600080fd5b600082013567ffffffffffffffff811115610ee257600080fd5b610eee84828501610dba565b91505092915050565b600080600060608486031215610f0c57600080fd5b600084015167ffffffffffffffff811115610f2657600080fd5b610f3286828701610e0e565b935050602084015167ffffffffffffffff811115610f4f57600080fd5b610f5b86828701610e0e565b925050604084015167ffffffffffffffff811115610f7857600080fd5b610f8486828701610e0e565b9150509250925092565b600060208284031215610fa057600080fd5b6000610fae84828501610e38565b91505092915050565b600060208284031215610fc957600080fd5b6000610fd784828501610e4d565b91505092915050565b60008060408385031215610ff357600080fd5b600061100185828601610e38565b925050602061101285828601610da5565b9150509250929050565b6000806040838503121561102f57600080fd5b600061103d85828601610e38565b925050602083013567ffffffffffffffff81111561105a57600080fd5b61106685828601610de4565b9150509250929050565b6000806040838503121561108357600080fd5b600061109185828601610e4d565b925050602083015167ffffffffffffffff8111156110ae57600080fd5b6110ba85828601610e0e565b9150509250929050565b6110cd81611620565b82525050565b6110dc81611632565b82525050565b6110f36110ee82611632565b6116d6565b82525050565b6111028161163e565b82525050565b6000611113826115dd565b61111d81856115f3565b935061112d8185602086016116a3565b611136816116fc565b840191505092915050565b600061114c826115e8565b6111568185611604565b93506111668185602086016116a3565b61116f816116fc565b840191505092915050565b6000611185826115e8565b61118f8185611615565b935061119f8185602086016116a3565b80840191505092915050565b6000815460018116600081146111c857600181146111ee57611232565b607f60028304166111d98187611604565b955060ff198316865260208601935050611232565b600282046111fc8187611604565b9550611207856115c8565b60005b828110156112295781548189015260018201915060208101905061120a565b80880195505050505b505092915050565b6000611247601483611604565b91507f52554320616c72656164792076657269666965640000000000000000000000006000830152602082019050919050565b6000611287600c83611604565b91507f76657269666965644e616d6500000000000000000000000000000000000000006000830152602082019050919050565b60006112c7600383611604565b91507f72756300000000000000000000000000000000000000000000000000000000006000830152602082019050919050565b6113038161168a565b82525050565b600061131582846110e2565b60018201915081905092915050565b6000611330828461117a565b915081905092915050565b600060208201905061135060008301846110c4565b92915050565b600060208201905061136b60008301846110d3565b92915050565b600060208201905061138660008301846110f9565b92915050565b60006040820190506113a160008301856110f9565b81810360208301526113b38184611108565b90509392505050565b600060208201905081810360008301526113d68184611141565b905092915050565b600060c08201905081810360008301526113f88189611141565b905061140760208301886110d3565b81810360408301526114198187611141565b9050818103606083015261142d8186611141565b905081810360808301526114418185611141565b905061145060a08301846110d3565b979650505050505050565b6000604082019050818103600083015261147581856111ab565b905081810360208301526114898184611141565b90509392505050565b600060208201905081810360008301526114ab8161123a565b9050919050565b600060408201905081810360008301526114cb8161127a565b905081810360208301526114df8184611108565b905092915050565b60006040820190508181036000830152611500816112ba565b905081810360208301526115148184611108565b905092915050565b600060208201905061153160008301846112fa565b92915050565b6000604051905081810181811067ffffffffffffffff8211171561155e5761155d6116fa565b5b8060405250919050565b600067ffffffffffffffff821115611583576115826116fa565b5b601f19601f8301169050602081019050919050565b600067ffffffffffffffff8211156115b3576115b26116fa565b5b601f19601f8301169050602081019050919050565b60008190508160005260206000209050919050565b600081519050919050565b600081519050919050565b600082825260208201905092915050565b600082825260208201905092915050565b600081905092915050565b600061162b8261166a565b9050919050565b60008115159050919050565b60007fffffffff0000000000000000000000000000000000000000000000000000000082169050919050565b600073ffffffffffffffffffffffffffffffffffffffff82169050919050565b6000819050919050565b82818337600083830152505050565b60005b838110156116c15780820151818401526020810190506116a6565b838111156116d0576000848401525b50505050565b60006116e1826116e8565b9050919050565b60006116f38261170d565b9050919050565bfe5b6000601f19601f8301169050919050565b60008160f81b9050919050565b61172381611620565b811461172e57600080fd5b50565b61173a81611632565b811461174557600080fd5b50565b6117518161168a565b811461175c57600080fd5b5056fea2646970667358221220bf28c268b2d92138d88ab18e28f8555c3241298906e23ae952bad1f6066b8f0164736f6c63430007060033",
  "immutableReferences": {},
  "source": "pragma solidity ^0.7.0;\npragma experimental ABIEncoderV2;\n\nimport \"./WFlowRegistry.sol\";\nimport \"./MinLibBytes.sol\";\nimport \"./WMessages.sol\";\n\ncontract TestActionSAContract is WMessages {\n\n\n    struct SociedadAnonima {\n        string name;\n        bool verifiedName;        \n        string companyAddress;\n        string industry;\n        string ruc;\n        bool verifiedRuc;\n    }\n\n    event CompanyAdded(\n        string name,\n        uint indexed id\n    );\n\n    event CompanyRegistered(\n        string name,\n        string ruc,\n        uint indexed  id\n    );\n\n    uint public counter;\n    mapping(uint => SociedadAnonima) public companies;\n\n    address public owner;\n    constructor(address _owner) {\n        owner = _owner;\n    }\n\n    function isRucReady() \n    public returns(bool) {\n        return true;\n    }\n\n\n    // Create SA\n    function propose(\n        address caller,\n        bytes memory params\n    ) public returns(uint) {\n        (string memory name,\n         string memory companyAddress, \n         string memory industry) =\n        abi.decode(\n            params,\n            (string, string, string) \n        );\n\n        counter++;\n        // Condition #1: Oracle must verify name is unique\n        // Condition #2: RUC somehow autogenerates\n        companies[counter] = SociedadAnonima({\n            name: name,\n            companyAddress: companyAddress,\n            industry: industry,\n            ruc: \"\",\n            verifiedName: false,\n            verifiedRuc: false\n        });\n\n        emit ActionChanged(\n            getMethodSig(msg.data), \n            params\n        );\n        emit CompanyAdded(\n            name,\n            counter\n        );\n\n        return counter;\n    }\n\n    function hasValidName(\n        address caller,\n        bytes memory params\n    ) \n    public view returns(bool) {\n        uint id = abi.decode(params, (uint));\n        return companies[id].verifiedName;\n    }\n\n\n    function setValidName(\n        uint id,\n        bool ok\n    ) \n    public returns(bool) {\n        companies[id].verifiedName = ok;\n        bytes memory params = abi.encodePacked(ok);\n        emit PropertyChanged(\"verifiedName\", params);\n        return true;\n    }\n\n\n    function hasRUC(\n        address caller,\n        bytes memory params\n    ) \n    public view returns(bool) {\n        uint id = abi.decode(params, (uint));\n        return companies[id].verifiedRuc;\n    }\n\n\n    function setRUC(\n        uint id,\n        string memory ruc\n    ) \n    public returns(bool) {\n        require(companies[id].verifiedRuc == false, \"RUC already verified\");\n        companies[id].ruc = ruc;\n        companies[id].verifiedRuc = true;\n        bytes memory params = abi.encodePacked(ruc);\n        emit PropertyChanged(\"ruc\", params);\n        return true;\n    }\n\n    // Register SA\n    function register(\n        address caller,\n        bytes memory params\n    ) public returns(bool) {\n        (uint id,\n         string memory ruc) =\n        abi.decode(\n            params,\n            (uint, string) \n        );\n\n        // companies[id].ruc = ruc;\n        emit ActionChanged(\n            getMethodSig(msg.data), \n            params\n        );\n        emit CompanyRegistered(companies[id].name, ruc, id);\n\n        return true;\n    }\n\n    // Add Partner\n\n    // Issue Stocks\n\n    // Request Operations Start\n\n}",
  "sourcePath": "/home/rogelio/Code/xdv/electronic-sa-contracts/contracts/TestActionSAContract.sol",
  "compiler": {
    "name": "solc",
    "version": "0.7.6+commit.7338295f.Emscripten.clang"
  },
  "schemaVersion": "3.3.3",
  "updatedAt": "2021-02-10T16:53:19.006Z",
  "networkType": "ethereum",
  "devdoc": {
    "kind": "dev",
    "methods": {},
    "version": 1
  },
  "userdoc": {
    "kind": "user",
    "methods": {},
    "version": 1
  }
}