{
  "contractName": "TestActionSAContract",
  "abi": [
    {
      "inputs": [
        {
          "internalType": "address",
          "name": "_owner",
          "type": "address"
        },
        {
          "internalType": "address",
          "name": "_maintainer",
          "type": "address"
        },
        {
          "internalType": "address",
          "name": "_relayJob",
          "type": "address"
        }
      ],
      "stateMutability": "nonpayable",
      "type": "constructor"
    },
    {
      "anonymous": false,
      "inputs": [
        {
          "indexed": false,
          "internalType": "bytes4",
          "name": "methodSig",
          "type": "bytes4"
        }
      ],
      "name": "ActionChanged",
      "type": "event"
    },
    {
      "anonymous": false,
      "inputs": [
        {
          "indexed": false,
          "internalType": "string",
          "name": "name",
          "type": "string"
        },
        {
          "indexed": true,
          "internalType": "uint256",
          "name": "id",
          "type": "uint256"
        },
        {
          "indexed": false,
          "internalType": "uint256",
          "name": "jobId",
          "type": "uint256"
        },
        {
          "indexed": false,
          "internalType": "uint256",
          "name": "escrowedAssignmentId",
          "type": "uint256"
        }
      ],
      "name": "CompanyAdded",
      "type": "event"
    },
    {
      "anonymous": false,
      "inputs": [
        {
          "indexed": false,
          "internalType": "string",
          "name": "name",
          "type": "string"
        },
        {
          "indexed": false,
          "internalType": "string",
          "name": "ruc",
          "type": "string"
        },
        {
          "indexed": true,
          "internalType": "uint256",
          "name": "id",
          "type": "uint256"
        }
      ],
      "name": "CompanyRegistered",
      "type": "event"
    },
    {
      "anonymous": false,
      "inputs": [
        {
          "indexed": false,
          "internalType": "string",
          "name": "memberDID",
          "type": "string"
        },
        {
          "indexed": false,
          "internalType": "address",
          "name": "member",
          "type": "address"
        },
        {
          "indexed": false,
          "internalType": "uint256",
          "name": "companyId",
          "type": "uint256"
        },
        {
          "indexed": true,
          "internalType": "uint256",
          "name": "id",
          "type": "uint256"
        }
      ],
      "name": "MemberAdded",
      "type": "event"
    },
    {
      "anonymous": false,
      "inputs": [
        {
          "indexed": false,
          "internalType": "address",
          "name": "controller",
          "type": "address"
        },
        {
          "indexed": false,
          "internalType": "bytes4",
          "name": "selector",
          "type": "bytes4"
        },
        {
          "indexed": false,
          "internalType": "uint256",
          "name": "jobId",
          "type": "uint256"
        }
      ],
      "name": "MessageRequestCompleted",
      "type": "event"
    },
    {
      "anonymous": false,
      "inputs": [
        {
          "indexed": false,
          "internalType": "string",
          "name": "propName",
          "type": "string"
        },
        {
          "indexed": false,
          "internalType": "bytes",
          "name": "data",
          "type": "bytes"
        }
      ],
      "name": "PropertyChanged",
      "type": "event"
    },
    {
      "anonymous": false,
      "inputs": [
        {
          "indexed": true,
          "internalType": "uint256",
          "name": "id",
          "type": "uint256"
        }
      ],
      "name": "RequestBoardMembersKYC",
      "type": "event"
    },
    {
      "anonymous": false,
      "inputs": [
        {
          "indexed": false,
          "internalType": "address",
          "name": "caller",
          "type": "address"
        },
        {
          "indexed": false,
          "internalType": "bytes4",
          "name": "methodName",
          "type": "bytes4"
        },
        {
          "indexed": false,
          "internalType": "bool",
          "name": "enable",
          "type": "bool"
        }
      ],
      "name": "UserWhitelistChanged",
      "type": "event"
    },
    {
      "inputs": [
        {
          "internalType": "address",
          "name": "",
          "type": "address"
        },
        {
          "internalType": "bytes4",
          "name": "",
          "type": "bytes4"
        }
      ],
      "name": "actionWhitelisting",
      "outputs": [
        {
          "internalType": "bool",
          "name": "",
          "type": "bool"
        }
      ],
      "stateMutability": "view",
      "type": "function",
      "constant": true
    },
    {
      "inputs": [
        {
          "internalType": "uint256",
          "name": "",
          "type": "uint256"
        }
      ],
      "name": "companies",
      "outputs": [
        {
          "internalType": "string",
          "name": "name",
          "type": "string"
        },
        {
          "internalType": "bool",
          "name": "verifiedName",
          "type": "bool"
        },
        {
          "internalType": "string",
          "name": "metadataURI",
          "type": "string"
        },
        {
          "internalType": "address",
          "name": "legalResidentAgent",
          "type": "address"
        },
        {
          "internalType": "string",
          "name": "legalResidentAgentDID",
          "type": "string"
        },
        {
          "internalType": "string",
          "name": "ruc",
          "type": "string"
        },
        {
          "internalType": "uint256",
          "name": "status",
          "type": "uint256"
        },
        {
          "internalType": "bool",
          "name": "verifiedRuc",
          "type": "bool"
        },
        {
          "internalType": "uint256",
          "name": "memberCount",
          "type": "uint256"
        }
      ],
      "stateMutability": "view",
      "type": "function",
      "constant": true
    },
    {
      "inputs": [
        {
          "internalType": "uint256",
          "name": "",
          "type": "uint256"
        }
      ],
      "name": "companyJobs",
      "outputs": [
        {
          "internalType": "uint256",
          "name": "",
          "type": "uint256"
        }
      ],
      "stateMutability": "view",
      "type": "function",
      "constant": true
    },
    {
      "inputs": [],
      "name": "counter",
      "outputs": [
        {
          "internalType": "uint256",
          "name": "",
          "type": "uint256"
        }
      ],
      "stateMutability": "view",
      "type": "function",
      "constant": true
    },
    {
      "inputs": [
        {
          "internalType": "string",
          "name": "contractName",
          "type": "string"
        },
        {
          "internalType": "address",
          "name": "contractAddress",
          "type": "address"
        },
        {
          "internalType": "uint256",
          "name": "network",
          "type": "uint256"
        },
        {
          "internalType": "string",
          "name": "version",
          "type": "string"
        }
      ],
      "name": "getDomainSeparator",
      "outputs": [
        {
          "internalType": "bytes32",
          "name": "",
          "type": "bytes32"
        }
      ],
      "stateMutability": "pure",
      "type": "function",
      "constant": true
    },
    {
      "inputs": [
        {
          "internalType": "bytes",
          "name": "data",
          "type": "bytes"
        }
      ],
      "name": "getMethodSig",
      "outputs": [
        {
          "internalType": "bytes4",
          "name": "",
          "type": "bytes4"
        }
      ],
      "stateMutability": "pure",
      "type": "function",
      "constant": true
    },
    {
      "inputs": [
        {
          "internalType": "uint256",
          "name": "",
          "type": "uint256"
        },
        {
          "internalType": "uint256",
          "name": "",
          "type": "uint256"
        }
      ],
      "name": "members",
      "outputs": [
        {
          "internalType": "string",
          "name": "did",
          "type": "string"
        },
        {
          "internalType": "address",
          "name": "member",
          "type": "address"
        }
      ],
      "stateMutability": "view",
      "type": "function",
      "constant": true
    },
    {
      "inputs": [],
      "name": "owner",
      "outputs": [
        {
          "internalType": "address",
          "name": "",
          "type": "address"
        }
      ],
      "stateMutability": "view",
      "type": "function",
      "constant": true
    },
    {
      "inputs": [],
      "name": "relayJob",
      "outputs": [
        {
          "internalType": "contract RelayJob",
          "name": "",
          "type": "address"
        }
      ],
      "stateMutability": "view",
      "type": "function",
      "constant": true
    },
    {
      "inputs": [
        {
          "internalType": "address",
          "name": "caller",
          "type": "address"
        },
        {
          "internalType": "bytes4",
          "name": "fnName",
          "type": "bytes4"
        },
        {
          "internalType": "bool",
          "name": "enable",
          "type": "bool"
        }
      ],
      "name": "setUserWhitelist",
      "outputs": [
        {
          "internalType": "bool",
          "name": "",
          "type": "bool"
        }
      ],
      "stateMutability": "nonpayable",
      "type": "function"
    },
    {
      "inputs": [
        {
          "internalType": "address",
          "name": "",
          "type": "address"
        },
        {
          "internalType": "bytes4",
          "name": "",
          "type": "bytes4"
        }
      ],
      "name": "userWhitelist",
      "outputs": [
        {
          "internalType": "bool",
          "name": "",
          "type": "bool"
        }
      ],
      "stateMutability": "view",
      "type": "function",
      "constant": true
    },
    {
      "inputs": [
        {
          "internalType": "address",
          "name": "caller",
          "type": "address"
        },
        {
          "internalType": "bytes",
          "name": "params",
          "type": "bytes"
        }
      ],
      "name": "hasValidName",
      "outputs": [
        {
          "internalType": "bool",
          "name": "",
          "type": "bool"
        }
      ],
      "stateMutability": "nonpayable",
      "type": "function"
    },
    {
      "inputs": [
        {
          "internalType": "uint256",
          "name": "id",
          "type": "uint256"
        },
        {
          "internalType": "bool",
          "name": "ok",
          "type": "bool"
        },
        {
          "internalType": "bytes4",
          "name": "fnName",
          "type": "bytes4"
        }
      ],
      "name": "setValidName",
      "outputs": [
        {
          "internalType": "bool",
          "name": "",
          "type": "bool"
        }
      ],
      "stateMutability": "nonpayable",
      "type": "function"
    },
    {
      "inputs": [
        {
          "internalType": "uint256",
          "name": "id",
          "type": "uint256"
        },
        {
          "internalType": "string",
          "name": "ruc",
          "type": "string"
        }
      ],
      "name": "setRUC",
      "outputs": [
        {
          "internalType": "bool",
          "name": "",
          "type": "bool"
        }
      ],
      "stateMutability": "nonpayable",
      "type": "function"
    },
    {
      "inputs": [
        {
          "internalType": "address",
          "name": "caller",
          "type": "address"
        },
        {
          "internalType": "bytes",
          "name": "params",
          "type": "bytes"
        }
      ],
      "name": "hasRUC",
      "outputs": [
        {
          "internalType": "bool",
          "name": "",
          "type": "bool"
        }
      ],
      "stateMutability": "nonpayable",
      "type": "function"
    },
    {
      "inputs": [
        {
          "internalType": "address",
          "name": "caller",
          "type": "address"
        },
        {
          "internalType": "bytes",
          "name": "params",
          "type": "bytes"
        }
      ],
      "name": "hasMemberKYCCompleted",
      "outputs": [
        {
          "internalType": "bool",
          "name": "",
          "type": "bool"
        }
      ],
      "stateMutability": "nonpayable",
      "type": "function"
    },
    {
      "inputs": [
        {
          "internalType": "address",
          "name": "caller",
          "type": "address"
        },
        {
          "internalType": "bytes",
          "name": "params",
          "type": "bytes"
        }
      ],
      "name": "hasRegistered",
      "outputs": [
        {
          "internalType": "bool",
          "name": "",
          "type": "bool"
        }
      ],
      "stateMutability": "nonpayable",
      "type": "function"
    },
    {
      "inputs": [
        {
          "internalType": "address",
          "name": "caller",
          "type": "address"
        },
        {
          "internalType": "bytes",
          "name": "params",
          "type": "bytes"
        }
      ],
      "name": "hasNotarized",
      "outputs": [
        {
          "internalType": "bool",
          "name": "",
          "type": "bool"
        }
      ],
      "stateMutability": "nonpayable",
      "type": "function"
    },
    {
      "inputs": [
        {
          "internalType": "uint256",
          "name": "id",
          "type": "uint256"
        },
        {
          "internalType": "uint256",
          "name": "status",
          "type": "uint256"
        },
        {
          "internalType": "bytes4",
          "name": "fnName",
          "type": "bytes4"
        }
      ],
      "name": "setStatus",
      "outputs": [
        {
          "internalType": "bool",
          "name": "",
          "type": "bool"
        }
      ],
      "stateMutability": "nonpayable",
      "type": "function"
    },
    {
      "inputs": [
        {
          "internalType": "address",
          "name": "caller",
          "type": "address"
        },
        {
          "internalType": "bytes",
          "name": "params",
          "type": "bytes"
        }
      ],
      "name": "hasStatus",
      "outputs": [
        {
          "internalType": "bool",
          "name": "",
          "type": "bool"
        }
      ],
      "stateMutability": "nonpayable",
      "type": "function"
    },
    {
      "inputs": [
        {
          "internalType": "string",
          "name": "name",
          "type": "string"
        },
        {
          "internalType": "address",
          "name": "agent",
          "type": "address"
        },
        {
          "internalType": "string",
          "name": "jobMetadataURI",
          "type": "string"
        },
        {
          "internalType": "string",
          "name": "metadataURI",
          "type": "string"
        },
        {
          "internalType": "uint256",
          "name": "amount",
          "type": "uint256"
        }
      ],
      "name": "propose",
      "outputs": [
        {
          "internalType": "uint256",
          "name": "",
          "type": "uint256"
        }
      ],
      "stateMutability": "payable",
      "type": "function",
      "payable": true
    },
    {
      "inputs": [
        {
          "internalType": "uint256",
          "name": "id",
          "type": "uint256"
        },
        {
          "internalType": "uint256",
          "name": "jobId",
          "type": "uint256"
        },
        {
          "internalType": "address",
          "name": "member",
          "type": "address"
        },
        {
          "internalType": "string",
          "name": "did",
          "type": "string"
        },
        {
          "internalType": "string",
          "name": "jobMetadataURI",
          "type": "string"
        }
      ],
      "name": "addMemberKYC",
      "outputs": [
        {
          "internalType": "uint256",
          "name": "",
          "type": "uint256"
        }
      ],
      "stateMutability": "nonpayable",
      "type": "function"
    },
    {
      "inputs": [
        {
          "internalType": "uint256",
          "name": "id",
          "type": "uint256"
        },
        {
          "internalType": "uint256",
          "name": "jobId",
          "type": "uint256"
        },
        {
          "internalType": "string",
          "name": "metadataURI",
          "type": "string"
        },
        {
          "internalType": "string",
          "name": "jobMetadataURI",
          "type": "string"
        },
        {
          "internalType": "address",
          "name": "legalResidentAgent",
          "type": "address"
        },
        {
          "internalType": "string",
          "name": "legalResidentAgentDID",
          "type": "string"
        }
      ],
      "name": "register",
      "outputs": [
        {
          "internalType": "bool",
          "name": "",
          "type": "bool"
        }
      ],
      "stateMutability": "nonpayable",
      "type": "function"
    },
    {
      "inputs": [
        {
          "internalType": "uint256",
          "name": "id",
          "type": "uint256"
        },
        {
          "internalType": "uint256",
          "name": "jobId",
          "type": "uint256"
        },
        {
          "internalType": "string",
          "name": "jobMetadataURI",
          "type": "string"
        }
      ],
      "name": "notaryStamp",
      "outputs": [
        {
          "internalType": "bool",
          "name": "",
          "type": "bool"
        }
      ],
      "stateMutability": "nonpayable",
      "type": "function"
    },
    {
      "inputs": [
        {
          "internalType": "uint256",
          "name": "id",
          "type": "uint256"
        },
        {
          "internalType": "uint256",
          "name": "jobId",
          "type": "uint256"
        },
        {
          "internalType": "string",
          "name": "jobMetadataURI",
          "type": "string"
        }
      ],
      "name": "requestKYC",
      "outputs": [
        {
          "internalType": "bool",
          "name": "",
          "type": "bool"
        }
      ],
      "stateMutability": "nonpayable",
      "type": "function"
    },
    {
      "inputs": [
        {
          "internalType": "uint256",
          "name": "id",
          "type": "uint256"
        },
        {
          "internalType": "uint256",
          "name": "jobId",
          "type": "uint256"
        },
        {
          "internalType": "string",
          "name": "jobMetadataURI",
          "type": "string"
        }
      ],
      "name": "completeCompanyRegistration",
      "outputs": [
        {
          "internalType": "bool",
          "name": "",
          "type": "bool"
        }
      ],
      "stateMutability": "nonpayable",
      "type": "function"
    }
  ],
  "bytecode": "0x60806040523480156200001157600080fd5b5060405162003a4a38038062003a4a83398181016040528101906200003791906200015c565b82806000806101000a81548173ffffffffffffffffffffffffffffffffffffffff021916908373ffffffffffffffffffffffffffffffffffffffff1602179055505081600460006101000a81548173ffffffffffffffffffffffffffffffffffffffff021916908373ffffffffffffffffffffffffffffffffffffffff16021790555082600360006101000a81548173ffffffffffffffffffffffffffffffffffffffff021916908373ffffffffffffffffffffffffffffffffffffffff16021790555080600560006101000a81548173ffffffffffffffffffffffffffffffffffffffff021916908373ffffffffffffffffffffffffffffffffffffffff16021790555050505062000200565b6000815190506200015681620001e6565b92915050565b6000806000606084860312156200017257600080fd5b6000620001828682870162000145565b9350506020620001958682870162000145565b9250506040620001a88682870162000145565b9150509250925092565b6000620001bf82620001c6565b9050919050565b600073ffffffffffffffffffffffffffffffffffffffff82169050919050565b620001f181620001b2565b8114620001fd57600080fd5b50565b61383a80620002106000396000f3fe6080604052600436106101815760003560e01c80637d2dc330116100d1578063b1e4f13e1161008a578063cf561e0b11610064578063cf561e0b1461068a578063e1fde125146106c7578063e2ca764614610704578063e8c66d7a1461074157610181565b8063b1e4f13e146105d3578063b7cd67fb14610610578063c4455c791461064d57610181565b80637d2dc330146104895780638a173e3a146104b45780638a5a7a69146104f15780638da5cb5b1461052e5780639da17793146105595780639e56d4ac1461059657610181565b80634d7fbaee1161013e5780636763275c116101185780636763275c14610395578063695922f0146103d25780636e7d4ff31461040f578063756610881461044c57610181565b80634d7fbaee146102f057806352bcec6a1461032d57806361bc221a1461036a57610181565b806301fc20e214610186578063079b2596146101c45780631944ad43146102015780632813d19d1461023e578063362705981461028357806339e181d0146102c0575b600080fd5b34801561019257600080fd5b506101ad60048036038101906101a89190612b15565b61077e565b6040516101bb929190613218565b60405180910390f35b3480156101d057600080fd5b506101eb60048036038101906101e6919061280c565b610867565b6040516101f89190613114565b60405180910390f35b34801561020d57600080fd5b506102286004803603810190610223919061280c565b6108a9565b6040516102359190613114565b60405180910390f35b34801561024a57600080fd5b5061026560048036038101906102609190612a20565b61090e565b60405161027a99989796959493929190613286565b60405180910390f35b34801561028f57600080fd5b506102aa60048036038101906102a5919061280c565b610bf6565b6040516102b79190613114565b60405180910390f35b6102da60048036038101906102d591906128ce565b610c32565b6040516102e79190613444565b60405180910390f35b3480156102fc57600080fd5b5061031760048036038101906103129190612c47565b61101b565b6040516103249190613114565b60405180910390f35b34801561033957600080fd5b50610354600480360381019061034f9190612a20565b6111d3565b6040516103619190613444565b60405180910390f35b34801561037657600080fd5b5061037f6111eb565b60405161038c9190613444565b60405180910390f35b3480156103a157600080fd5b506103bc60048036038101906103b7919061280c565b6111f1565b6040516103c99190613114565b60405180910390f35b3480156103de57600080fd5b506103f960048036038101906103f49190612c47565b611234565b6040516104069190613114565b60405180910390f35b34801561041b57600080fd5b506104366004803603810190610431919061280c565b6113b5565b6040516104439190613114565b60405180910390f35b34801561045857600080fd5b50610473600480360381019061046e9190612b51565b6113f8565b6040516104809190613444565b60405180910390f35b34801561049557600080fd5b5061049e6116ce565b6040516104ab91906131fd565b60405180910390f35b3480156104c057600080fd5b506104db60048036038101906104d6919061288d565b6116f4565b6040516104e8919061319d565b60405180910390f35b3480156104fd57600080fd5b50610518600480360381019061051391906127bd565b611851565b6040516105259190613114565b60405180910390f35b34801561053a57600080fd5b506105436119c9565b60405161055091906130c2565b60405180910390f35b34801561056557600080fd5b50610580600480360381019061057b9190612c47565b6119ef565b60405161058d9190613114565b60405180910390f35b3480156105a257600080fd5b506105bd60048036038101906105b89190612ac1565b611b35565b6040516105ca9190613114565b60405180910390f35b3480156105df57600080fd5b506105fa60048036038101906105f5919061298d565b611dc9565b604051610607919061312f565b60405180910390f35b34801561061c57600080fd5b5061063760048036038101906106329190612bf8565b611e31565b6040516106449190613114565b60405180910390f35b34801561065957600080fd5b50610674600480360381019061066f9190612781565b611ff5565b6040516106819190613114565b60405180910390f35b34801561069657600080fd5b506106b160048036038101906106ac9190612a72565b612024565b6040516106be9190613114565b60405180910390f35b3480156106d357600080fd5b506106ee60048036038101906106e9919061280c565b612240565b6040516106fb9190613114565b60405180910390f35b34801561071057600080fd5b5061072b60048036038101906107269190612781565b612282565b6040516107389190613114565b60405180910390f35b34801561074d57600080fd5b5061076860048036038101906107639190612cae565b6122b1565b6040516107759190613114565b60405180910390f35b600660205281600052604060002060205280600052604060002060009150915050806000018054600181600116156101000203166002900480601f0160208091040260200160405190810160405280929190818152602001828054600181600116156101000203166002900480156108375780601f1061080c57610100808354040283529160200191610837565b820191906000526020600020905b81548152906001019060200180831161081a57829003601f168201915b5050505050908060010160009054906101000a900473ffffffffffffffffffffffffffffffffffffffff16905082565b60008083838101906108799190612a20565b90506008600082815260200190815260200160002060010160009054906101000a900460ff169150509392505050565b60008083838101906108bb9190612a20565b9050600360088111156108ca57fe5b6008600083815260200190815260200160002060060154148015610904575060026008600083815260200190815260200160002060080154115b9150509392505050565b6008602052806000526040600020600091509050806000018054600181600116156101000203166002900480601f0160208091040260200160405190810160405280929190818152602001828054600181600116156101000203166002900480156109ba5780601f1061098f576101008083540402835291602001916109ba565b820191906000526020600020905b81548152906001019060200180831161099d57829003601f168201915b5050505050908060010160009054906101000a900460ff1690806002018054600181600116156101000203166002900480601f016020809104026020016040519081016040528092919081815260200182805460018160011615610100020316600290048015610a6b5780601f10610a4057610100808354040283529160200191610a6b565b820191906000526020600020905b815481529060010190602001808311610a4e57829003601f168201915b5050505050908060030160009054906101000a900473ffffffffffffffffffffffffffffffffffffffff1690806004018054600181600116156101000203166002900480601f016020809104026020016040519081016040528092919081815260200182805460018160011615610100020316600290048015610b2f5780601f10610b0457610100808354040283529160200191610b2f565b820191906000526020600020905b815481529060010190602001808311610b1257829003601f168201915b505050505090806005018054600181600116156101000203166002900480601f016020809104026020016040519081016040528092919081815260200182805460018160011615610100020316600290048015610bcd5780601f10610ba257610100808354040283529160200191610bcd565b820191906000526020600020905b815481529060010190602001808311610bb057829003601f168201915b5050505050908060060154908060070160009054906101000a900460ff16908060080154905089565b60008060008484810190610c0a9190612b15565b9150915080600860008481526020019081526020016000206006015414925050509392505050565b60006040518061012001604052808781526020016000151581526020018481526020018673ffffffffffffffffffffffffffffffffffffffff16815260200160405180602001604052806000815250815260200160405180602001604052806000815250815260200160006008811115610ca857fe5b815260200160001515815260200160008152506008600060075481526020019081526020016000206000820151816000019080519060200190610cec92919061253e565b5060208201518160010160006101000a81548160ff0219169083151502179055506040820151816002019080519060200190610d2992919061253e565b5060608201518160030160006101000a81548173ffffffffffffffffffffffffffffffffffffffff021916908373ffffffffffffffffffffffffffffffffffffffff1602179055506080820151816004019080519060200190610d8d92919061253e565b5060a0820151816005019080519060200190610daa92919061253e565b5060c0820151816006015560e08201518160070160006101000a81548160ff02191690831515021790555061010082015181600801559050506007600081548092919060010191905055506000600560009054906101000a900473ffffffffffffffffffffffffffffffffffffffff1673ffffffffffffffffffffffffffffffffffffffff1663a8023fad600754604051602001610e489190613042565b604051602081830303815290604052610ea56000368080601f016020809104026020016040519081016040528093929190818152602001838380828437600081840152601f19601f820116905080830192505050505050506116f4565b886040518463ffffffff1660e01b8152600401610ec4939291906131b8565b602060405180830381600087803b158015610ede57600080fd5b505af1158015610ef2573d6000803e3d6000fd5b505050506040513d601f19601f82011682018060405250810190610f169190612a49565b90506000600460009054906101000a900473ffffffffffffffffffffffffffffffffffffffff1673ffffffffffffffffffffffffffffffffffffffff16638b5762508333876040518463ffffffff1660e01b8152600401610f799392919061345f565b602060405180830381600087803b158015610f9357600080fd5b505af1158015610fa7573d6000803e3d6000fd5b505050506040513d601f19601f82011682018060405250810190610fcb9190612a49565b90506007547f10c760bfa4fbec2333899834f3e2fdc24f692b918655dafc28914ef6877927ba89848460405161100393929190613366565b60405180910390a26007549250505095945050505050565b60006004600881111561102a57fe5b600860008681526020019081526020016000206006015414611081576040517f08c379a000000000000000000000000000000000000000000000000000000000815260040161107890613404565b60405180910390fd5b6005600881111561108e57fe5b6008600086815260200190815260200160002060060181905550600560009054906101000a900473ffffffffffffffffffffffffffffffffffffffff1673ffffffffffffffffffffffffffffffffffffffff1663cf37b15a84866040516020016110f89190613042565b6040516020818303038152906040526111556000368080601f016020809104026020016040519081016040528093929190818152602001838380828437600081840152601f19601f820116905080830192505050505050506116f4565b866040518563ffffffff1660e01b81526004016111759493929190613496565b602060405180830381600087803b15801561118f57600080fd5b505af11580156111a3573d6000803e3d6000fd5b505050506040513d601f19601f820116820180604052508101906111c79190612864565b50600190509392505050565b60096020528060005260406000206000915090505481565b60075481565b60008083838101906112039190612a20565b90506006600881111561121257fe5b6008600083815260200190815260200160002060060154149150509392505050565b60006001600881111561124357fe5b6008600086815260200190815260200160002060060181905550837f3b65c09ad63e8c04df5eac60ae4b62d97477015d95a27bd0ae66cd5231f9693260405160405180910390a2600560009054906101000a900473ffffffffffffffffffffffffffffffffffffffff1673ffffffffffffffffffffffffffffffffffffffff1663cf37b15a84866040516020016112da9190613042565b6040516020818303038152906040526113376000368080601f016020809104026020016040519081016040528093929190818152602001838380828437600081840152601f19601f820116905080830192505050505050506116f4565b866040518563ffffffff1660e01b81526004016113579493929190613496565b602060405180830381600087803b15801561137157600080fd5b505af1158015611385573d6000803e3d6000fd5b505050506040513d601f19601f820116820180604052508101906113a99190612864565b50600190509392505050565b60008083838101906113c79190612a20565b9050600560088111156113d657fe5b6008600083815260200190815260200160002060060154149150509392505050565b60006001600881111561140757fe5b60086000888152602001908152602001600020600601541461145e576040517f08c379a000000000000000000000000000000000000000000000000000000000815260040161145590613404565b60405180910390fd5b60006008600088815260200190815260200160002060080154905060405180604001604052808581526020018673ffffffffffffffffffffffffffffffffffffffff1681525060066000898152602001908152602001600020600083815260200190815260200160002060008201518160000190805190602001906114e492919061253e565b5060208201518160010160006101000a81548173ffffffffffffffffffffffffffffffffffffffff021916908373ffffffffffffffffffffffffffffffffffffffff16021790555090505060016008600089815260200190815260200160002060080154016008600089815260200190815260200160002060080181905550600560009054906101000a900473ffffffffffffffffffffffffffffffffffffffff1673ffffffffffffffffffffffffffffffffffffffff1663cf37b15a8789846040516020016115b5929190613096565b6040516020818303038152906040526116126000368080601f016020809104026020016040519081016040528093929190818152602001838380828437600081840152601f19601f820116905080830192505050505050506116f4565b876040518563ffffffff1660e01b81526004016116329493929190613496565b602060405180830381600087803b15801561164c57600080fd5b505af1158015611660573d6000803e3d6000fd5b505050506040513d601f19601f820116820180604052508101906116849190612864565b50807f148174b3c28355adb77adbb0dbe613489fec345a165dd2a057bab290da9eeb2485878a6040516116b993929190613248565b60405180910390a28091505095945050505050565b600560009054906101000a900473ffffffffffffffffffffffffffffffffffffffff1681565b600060188260038151811061170557fe5b602001015160f81c60f81b7effffffffffffffffffffffffffffffffffffffffffffffffffffffffffffff19167bffffffffffffffffffffffffffffffffffffffffffffffffffffffff1916901c60108360028151811061176257fe5b602001015160f81c60f81b7effffffffffffffffffffffffffffffffffffffffffffffffffffffffffffff19167bffffffffffffffffffffffffffffffffffffffffffffffffffffffff1916901c6008846001815181106117bf57fe5b602001015160f81c60f81b7effffffffffffffffffffffffffffffffffffffffffffffffffffffffffffff19167bffffffffffffffffffffffffffffffffffffffffffffffffffffffff1916901c8460008151811061181a57fe5b602001015160f81c60f81b7effffffffffffffffffffffffffffffffffffffffffffffffffffffffffffff19161717179050919050565b60003373ffffffffffffffffffffffffffffffffffffffff1660008054906101000a900473ffffffffffffffffffffffffffffffffffffffff1673ffffffffffffffffffffffffffffffffffffffff16146118e1576040517f08c379a00000000000000000000000000000000000000000000000000000000081526004016118d890613424565b60405180910390fd5b81600260008673ffffffffffffffffffffffffffffffffffffffff1673ffffffffffffffffffffffffffffffffffffffff1681526020019081526020016000206000857bffffffffffffffffffffffffffffffffffffffffffffffffffffffff19167bffffffffffffffffffffffffffffffffffffffffffffffffffffffff1916815260200190815260200160002060006101000a81548160ff0219169083151502179055507f7f41b44a4d0cf3e01e6c1dc089568e147a684629672ed575e47ff05bd1bb29a38484846040516119ba939291906130dd565b60405180910390a19392505050565b600360009054906101000a900473ffffffffffffffffffffffffffffffffffffffff1681565b6000600560088111156119fe57fe5b600860008681526020019081526020016000206006015414611a55576040517f08c379a0000000000000000000000000000000000000000000000000000000008152600401611a4c90613404565b60405180910390fd5b60066008811115611a6257fe5b6008600086815260200190815260200160002060060181905550600560009054906101000a900473ffffffffffffffffffffffffffffffffffffffff1673ffffffffffffffffffffffffffffffffffffffff1663a1c0d32f846040518263ffffffff1660e01b8152600401611ad79190613444565b602060405180830381600087803b158015611af157600080fd5b505af1158015611b05573d6000803e3d6000fd5b505050506040513d601f19601f82011682018060405250810190611b299190612864565b50600190509392505050565b600033611b866000368080601f016020809104026020016040519081016040528093929190818152602001838380828437600081840152601f19601f820116905080830192505050505050506116f4565b60011515600260008473ffffffffffffffffffffffffffffffffffffffff1673ffffffffffffffffffffffffffffffffffffffff1681526020019081526020016000206000837bffffffffffffffffffffffffffffffffffffffffffffffffffffffff19167bffffffffffffffffffffffffffffffffffffffffffffffffffffffff1916815260200190815260200160002060009054906101000a900460ff16151514611c68576040517f08c379a0000000000000000000000000000000000000000000000000000000008152600401611c5f906133e4565b60405180910390fd5b6040518060400160405280600381526020017f727563000000000000000000000000000000000000000000000000000000000081525084604051602001611caf919061302b565b604051602081830303815290604052600015156008600089815260200190815260200160002060070160009054906101000a900460ff16151514611d28576040517f08c379a0000000000000000000000000000000000000000000000000000000008152600401611d1f906133a4565b60405180910390fd5b85600860008981526020019081526020016000206005019080519060200190611d5292919061253e565b5060016008600089815260200190815260200160002060070160006101000a81548160ff021916908315150217905550600194507f8ad5b2a8a67cf2b47830751d7e1f108f7b52189d45c75420be83e1f60bfc992f8282604051611db792919061332f565b60405180910390a15050505092915050565b60006040518060800160405280605281526020016137b36052913980519060200120858051906020012083805190602001208587604051602001611e1195949392919061314a565b604051602081830303815290604052805190602001209050949350505050565b6000338260011515600260008473ffffffffffffffffffffffffffffffffffffffff1673ffffffffffffffffffffffffffffffffffffffff1681526020019081526020016000206000837bffffffffffffffffffffffffffffffffffffffffffffffffffffffff19167bffffffffffffffffffffffffffffffffffffffffffffffffffffffff1916815260200190815260200160002060009054906101000a900460ff16151514611f17576040517f08c379a0000000000000000000000000000000000000000000000000000000008152600401611f0e906133e4565b60405180910390fd5b6040518060400160405280600681526020017f737461747573000000000000000000000000000000000000000000000000000081525085604051602001611f5e9190613042565b60405160208183030381529060405286600860008a815260200190815260200160002060060181905550600087604051602001611f9b9190613042565b604051602081830303815290604052905060019550507f8ad5b2a8a67cf2b47830751d7e1f108f7b52189d45c75420be83e1f60bfc992f8282604051611fe292919061332f565b60405180910390a1505050509392505050565b60016020528160005260406000206020528060005260406000206000915091509054906101000a900460ff1681565b6000338260011515600260008473ffffffffffffffffffffffffffffffffffffffff1673ffffffffffffffffffffffffffffffffffffffff1681526020019081526020016000206000837bffffffffffffffffffffffffffffffffffffffffffffffffffffffff19167bffffffffffffffffffffffffffffffffffffffffffffffffffffffff1916815260200190815260200160002060009054906101000a900460ff1615151461210a576040517f08c379a0000000000000000000000000000000000000000000000000000000008152600401612101906133e4565b60405180910390fd5b6040518060400160405280600c81526020017f76657269666965644e616d650000000000000000000000000000000000000000815250856040516020016121519190613010565b60405160208183030381529060405260001515600860008a815260200190815260200160002060010160009054906101000a900460ff161515146121ca576040517f08c379a00000000000000000000000000000000000000000000000000000000081526004016121c1906133c4565b60405180910390fd5b86600860008a815260200190815260200160002060010160006101000a81548160ff021916908315150217905550600194507f8ad5b2a8a67cf2b47830751d7e1f108f7b52189d45c75420be83e1f60bfc992f828260405161222d92919061332f565b60405180910390a1505050509392505050565b60008083838101906122529190612a20565b90506008600082815260200190815260200160002060070160009054906101000a900460ff169150509392505050565b60026020528160005260406000206020528060005260406000206000915091509054906101000a900460ff1681565b6000600260088111156122c057fe5b600860008981526020019081526020016000206006015414612317576040517f08c379a000000000000000000000000000000000000000000000000000000000815260040161230e90613404565b60405180910390fd5b600260086000898152602001908152602001600020600801541161233a57600080fd5b826008600089815260200190815260200160002060030160006101000a81548173ffffffffffffffffffffffffffffffffffffffff021916908373ffffffffffffffffffffffffffffffffffffffff160217905550816008600089815260200190815260200160002060040190805190602001906123b992919061253e565b50846008600089815260200190815260200160002060020190805190602001906123e492919061253e565b50600460088111156123f257fe5b6008600089815260200190815260200160002060060181905550600560009054906101000a900473ffffffffffffffffffffffffffffffffffffffff1673ffffffffffffffffffffffffffffffffffffffff1663cf37b15a878986896040516020016124609392919061305d565b6040516020818303038152906040526124bd6000368080601f016020809104026020016040519081016040528093929190818152602001838380828437600081840152601f19601f820116905080830192505050505050506116f4565b886040518563ffffffff1660e01b81526004016124dd9493929190613496565b602060405180830381600087803b1580156124f757600080fd5b505af115801561250b573d6000803e3d6000fd5b505050506040513d601f19601f8201168201806040525081019061252f9190612864565b50600190509695505050505050565b828054600181600116156101000203166002900490600052602060002090601f01602090048101928261257457600085556125bb565b82601f1061258d57805160ff19168380011785556125bb565b828001600101855582156125bb579182015b828111156125ba57825182559160200191906001019061259f565b5b5090506125c891906125cc565b5090565b5b808211156125e55760008160009055506001016125cd565b5090565b60006125fc6125f78461351a565b6134e9565b90508281526020810184848401111561261457600080fd5b61261f848285613695565b509392505050565b600061263a6126358461354a565b6134e9565b90508281526020810184848401111561265257600080fd5b61265d848285613695565b509392505050565b60008135905061267481613756565b92915050565b6000813590506126898161376d565b92915050565b60008151905061269e8161376d565b92915050565b6000813590506126b381613784565b92915050565b60008083601f8401126126cb57600080fd5b8235905067ffffffffffffffff8111156126e457600080fd5b6020830191508360018202830111156126fc57600080fd5b9250929050565b600082601f83011261271457600080fd5b81356127248482602086016125e9565b91505092915050565b600082601f83011261273e57600080fd5b813561274e848260208601612627565b91505092915050565b6000813590506127668161379b565b92915050565b60008151905061277b8161379b565b92915050565b6000806040838503121561279457600080fd5b60006127a285828601612665565b92505060206127b3858286016126a4565b9150509250929050565b6000806000606084860312156127d257600080fd5b60006127e086828701612665565b93505060206127f1868287016126a4565b92505060406128028682870161267a565b9150509250925092565b60008060006040848603121561282157600080fd5b600061282f86828701612665565b935050602084013567ffffffffffffffff81111561284c57600080fd5b612858868287016126b9565b92509250509250925092565b60006020828403121561287657600080fd5b60006128848482850161268f565b91505092915050565b60006020828403121561289f57600080fd5b600082013567ffffffffffffffff8111156128b957600080fd5b6128c584828501612703565b91505092915050565b600080600080600060a086880312156128e657600080fd5b600086013567ffffffffffffffff81111561290057600080fd5b61290c8882890161272d565b955050602061291d88828901612665565b945050604086013567ffffffffffffffff81111561293a57600080fd5b6129468882890161272d565b935050606086013567ffffffffffffffff81111561296357600080fd5b61296f8882890161272d565b925050608061298088828901612757565b9150509295509295909350565b600080600080608085870312156129a357600080fd5b600085013567ffffffffffffffff8111156129bd57600080fd5b6129c98782880161272d565b94505060206129da87828801612665565b93505060406129eb87828801612757565b925050606085013567ffffffffffffffff811115612a0857600080fd5b612a148782880161272d565b91505092959194509250565b600060208284031215612a3257600080fd5b6000612a4084828501612757565b91505092915050565b600060208284031215612a5b57600080fd5b6000612a698482850161276c565b91505092915050565b600080600060608486031215612a8757600080fd5b6000612a9586828701612757565b9350506020612aa68682870161267a565b9250506040612ab7868287016126a4565b9150509250925092565b60008060408385031215612ad457600080fd5b6000612ae285828601612757565b925050602083013567ffffffffffffffff811115612aff57600080fd5b612b0b8582860161272d565b9150509250929050565b60008060408385031215612b2857600080fd5b6000612b3685828601612757565b9250506020612b4785828601612757565b9150509250929050565b600080600080600060a08688031215612b6957600080fd5b6000612b7788828901612757565b9550506020612b8888828901612757565b9450506040612b9988828901612665565b935050606086013567ffffffffffffffff811115612bb657600080fd5b612bc28882890161272d565b925050608086013567ffffffffffffffff811115612bdf57600080fd5b612beb8882890161272d565b9150509295509295909350565b600080600060608486031215612c0d57600080fd5b6000612c1b86828701612757565b9350506020612c2c86828701612757565b9250506040612c3d868287016126a4565b9150509250925092565b600080600060608486031215612c5c57600080fd5b6000612c6a86828701612757565b9350506020612c7b86828701612757565b925050604084013567ffffffffffffffff811115612c9857600080fd5b612ca48682870161272d565b9150509250925092565b60008060008060008060c08789031215612cc757600080fd5b6000612cd589828a01612757565b9650506020612ce689828a01612757565b955050604087013567ffffffffffffffff811115612d0357600080fd5b612d0f89828a0161272d565b945050606087013567ffffffffffffffff811115612d2c57600080fd5b612d3889828a0161272d565b9350506080612d4989828a01612665565b92505060a087013567ffffffffffffffff811115612d6657600080fd5b612d7289828a0161272d565b9150509295509295509295565b612d888161363b565b82525050565b612d97816135bd565b82525050565b612dae612da9826135bd565b6136d7565b82525050565b612dbd816135cf565b82525050565b612dd4612dcf826135cf565b6136e9565b82525050565b612de3816135db565b82525050565b612df2816135e5565b82525050565b6000612e038261357a565b612e0d8185613590565b9350612e1d8185602086016136a4565b612e268161372b565b840191505092915050565b612e3a8161364d565b82525050565b6000612e4b82613585565b612e5581856135a1565b9350612e658185602086016136a4565b612e6e8161372b565b840191505092915050565b6000612e8482613585565b612e8e81856135b2565b9350612e9e8185602086016136a4565b80840191505092915050565b6000612eb76014836135a1565b91507f52554320616c72656164792076657269666965640000000000000000000000006000830152602082019050919050565b6000612ef76015836135a1565b91507f4e616d6520616c726561647920766572696669656400000000000000000000006000830152602082019050919050565b6000612f37600e836135a1565b91507f496e76616c69642073656e6465720000000000000000000000000000000000006000830152602082019050919050565b6000612f77600d836135a1565b91507f496e76616c6964207374617465000000000000000000000000000000000000006000830152602082019050919050565b6000612fb7600e836135a1565b91507f4e6f7420617574686f72697a65640000000000000000000000000000000000006000830152602082019050919050565b612ff381613631565b82525050565b61300a61300582613631565b61370d565b82525050565b600061301c8284612dc3565b60018201915081905092915050565b60006130378284612e79565b915081905092915050565b600061304e8284612ff9565b60208201915081905092915050565b60006130698286612ff9565b6020820191506130798285612d9d565b6014820191506130898284612e79565b9150819050949350505050565b60006130a28285612ff9565b6020820191506130b28284612ff9565b6020820191508190509392505050565b60006020820190506130d76000830184612d8e565b92915050565b60006060820190506130f26000830186612d8e565b6130ff6020830185612de9565b61310c6040830184612db4565b949350505050565b60006020820190506131296000830184612db4565b92915050565b60006020820190506131446000830184612dda565b92915050565b600060a08201905061315f6000830188612dda565b61316c6020830187612dda565b6131796040830186612dda565b6131866060830185612fea565b6131936080830184612d8e565b9695505050505050565b60006020820190506131b26000830184612de9565b92915050565b600060608201905081810360008301526131d28186612df8565b90506131e16020830185612de9565b81810360408301526131f38184612e40565b9050949350505050565b60006020820190506132126000830184612e31565b92915050565b600060408201905081810360008301526132328185612e40565b90506132416020830184612d8e565b9392505050565b600060608201905081810360008301526132628186612e40565b90506132716020830185612d8e565b61327e6040830184612fea565b949350505050565b60006101208201905081810360008301526132a1818c612e40565b90506132b0602083018b612db4565b81810360408301526132c2818a612e40565b90506132d16060830189612d8e565b81810360808301526132e38188612e40565b905081810360a08301526132f78187612e40565b905061330660c0830186612fea565b61331360e0830185612db4565b613321610100830184612fea565b9a9950505050505050505050565b600060408201905081810360008301526133498185612e40565b9050818103602083015261335d8184612df8565b90509392505050565b600060608201905081810360008301526133808186612e40565b905061338f6020830185612fea565b61339c6040830184612fea565b949350505050565b600060208201905081810360008301526133bd81612eaa565b9050919050565b600060208201905081810360008301526133dd81612eea565b9050919050565b600060208201905081810360008301526133fd81612f2a565b9050919050565b6000602082019050818103600083015261341d81612f6a565b9050919050565b6000602082019050818103600083015261343d81612faa565b9050919050565b60006020820190506134596000830184612fea565b92915050565b60006060820190506134746000830186612fea565b6134816020830185612d7f565b61348e6040830184612fea565b949350505050565b60006080820190506134ab6000830187612fea565b81810360208301526134bd8186612df8565b90506134cc6040830185612de9565b81810360608301526134de8184612e40565b905095945050505050565b6000604051905081810181811067ffffffffffffffff821117156135105761350f613729565b5b8060405250919050565b600067ffffffffffffffff82111561353557613534613729565b5b601f19601f8301169050602081019050919050565b600067ffffffffffffffff82111561356557613564613729565b5b601f19601f8301169050602081019050919050565b600081519050919050565b600081519050919050565b600082825260208201905092915050565b600082825260208201905092915050565b600081905092915050565b60006135c882613611565b9050919050565b60008115159050919050565b6000819050919050565b60007fffffffff0000000000000000000000000000000000000000000000000000000082169050919050565b600073ffffffffffffffffffffffffffffffffffffffff82169050919050565b6000819050919050565b600061364682613671565b9050919050565b60006136588261365f565b9050919050565b600061366a82613611565b9050919050565b600061367c82613683565b9050919050565b600061368e82613611565b9050919050565b82818337600083830152505050565b60005b838110156136c25780820151818401526020810190506136a7565b838111156136d1576000848401525b50505050565b60006136e2826136fb565b9050919050565b60006136f482613717565b9050919050565b600061370682613749565b9050919050565b6000819050919050565b60006137228261373c565b9050919050565bfe5b6000601f19601f8301169050919050565b60008160f81b9050919050565b60008160601b9050919050565b61375f816135bd565b811461376a57600080fd5b50565b613776816135cf565b811461378157600080fd5b50565b61378d816135e5565b811461379857600080fd5b50565b6137a481613631565b81146137af57600080fd5b5056fe454950373132446f6d61696e28737472696e67206e616d652c737472696e672076657273696f6e2c75696e7432353620636861696e49642c6164647265737320766572696679696e67436f6e747261637429a26469706673582212203f772b6f0fd4670861abf54dc3a79d1ec3baaba80ad4ba520b1c6cd46bf7e76264736f6c63430007060033",
  "immutableReferences": {},
  "source": "pragma solidity ^0.7.0;\npragma experimental ABIEncoderV2;\n\n\nimport \"./MinLibBytes.sol\";\nimport \"./MessageRoute.sol\";\nimport \"./Whitelist.sol\";\nimport \"./Maintainer.sol\";\n\ncontract TestActionSAContract is MessageRoute, Whitelist {\n    address public owner;\n    Maintainer private maintainer;\n\n    RelayJob public relayJob;\n\n    struct SociedadAnonima {\n        // Company Name\n        string name;\n        // Has been verfied\n        bool verifiedName;\n        // JSON Schema(Name, Activity, Members, Address, Expires, AdditionalLegalDocs, Notary)\n        string metadataURI;\n        // agent\n        address legalResidentAgent;\n        string legalResidentAgentDID;\n        // RUC\n        string ruc;\n        uint256 status;\n        // Has been verified\n        bool verifiedRuc;\n        uint256 memberCount;\n    }\n\n    struct Member {\n        string did;\n        address member;\n    }\n\n    mapping(uint256 => mapping(uint256 => Member)) public members;\n\n    enum WorkflowState {\n        SearchName,\n        RequestKYC,\n        AddMembers,\n        KYCCompleted,\n        RegisterCompany, // Name, Members, Capital,\n        NotaryStamped,\n        Registered,\n        OperationsRequested,\n        OperationsNoticeCompleted\n    }\n\n    event RequestBoardMembersKYC(uint256 indexed id);\n\n    event CompanyAdded(\n        string name,\n        uint256 indexed id,\n        uint256 jobId,\n        uint256 escrowedAssignmentId\n    );\n\n    event MemberAdded(\n        string memberDID,\n        address member,\n        uint256 companyId,\n        uint256 indexed id\n    );\n\n    event CompanyRegistered(string name, string ruc, uint256 indexed id);\n\n    uint256 public counter;\n    mapping(uint256 => SociedadAnonima) public companies;\n    mapping(uint256 => uint) public companyJobs;\n    \n\n    constructor(\n        address _owner,\n        address _maintainer,\n        address _relayJob\n    ) public Whitelist(_owner) {\n        maintainer = Maintainer(_maintainer);\n        owner = _owner;\n        relayJob = RelayJob(_relayJob);\n    }\n\n    /* Async Message Flow Functions */\n\n    /* Property Getters and Setters */\n    // Has Valid Name verifies company name has been completed\n    function hasValidName(address caller, bytes calldata params)\n        external \n        returns (bool)\n    {\n        uint256 id = abi.decode(params, (uint256));\n        return companies[id].verifiedName;\n    }\n\n    // Sets a valid name\n    function setValidName(uint256 id, bool ok, bytes4 fnName)\n        public onlyWhitelisted(msg.sender, fnName)\n        propertyChange(\"verifiedName\", abi.encodePacked(ok))\n        returns (bool)\n    {\n        require(companies[id].verifiedName == false, \"Name already verified\");\n        companies[id].verifiedName = ok;\n        return true;\n    }\n\n    function setRUC(uint256 id, string memory ruc)\n        public onlyWhitelisted(msg.sender, getMethodSig(msg.data))\n        propertyChange(\"ruc\", abi.encodePacked(ruc))\n        returns (bool)\n    {\n        require(companies[id].verifiedRuc == false, \"RUC already verified\");\n        companies[id].ruc = ruc;\n        companies[id].verifiedRuc = true;\n        return true;\n    }\n\n    function hasRUC(address caller, bytes calldata params)\n        external \n        returns (bool)\n    {\n        uint256 id = abi.decode(params, (uint256));\n        return companies[id].verifiedRuc;\n    }\n\n    function hasMemberKYCCompleted(address caller, bytes calldata params)\n        external\n        returns (bool)\n    {\n        uint256 id = abi.decode(params, (uint256));\n        return (companies[id].status == uint256(WorkflowState.KYCCompleted) &&\n        (companies[id].memberCount > 2));\n    }\n\n    function hasRegistered(address caller, bytes calldata params)\n        external\n        returns (bool)\n    {\n        uint256 id = abi.decode(params, (uint256));\n        return companies[id].status == uint256(WorkflowState.Registered);\n    }\n\n    function hasNotarized(address caller, bytes calldata params)\n        external\n        returns (bool)\n    {\n        uint256 id = abi.decode(params, (uint256));\n        return companies[id].status == uint256(WorkflowState.NotaryStamped);\n    }\n\n    function setStatus(uint256 id, uint256 status, bytes4 fnName)\n        public onlyWhitelisted(msg.sender, fnName)\n        propertyChange(\"status\", abi.encodePacked(status))\n        returns (bool)\n    {\n        companies[id].status = status;\n        bytes memory params = abi.encodePacked(status);\n        return true;\n    }\n\n    function hasStatus(address caller, bytes calldata params)\n        external\n        returns (bool)\n    {\n        (uint256 id, uint status) = abi.decode(params, (uint256, uint));\n        return companies[id].status == status;\n    }\n    // Create SA\n    function propose(\n        string memory name,\n        address agent,\n        string memory jobMetadataURI,\n        string memory metadataURI,\n        uint amount\n    ) public payable returns (uint256) {\n\n        companies[counter] = SociedadAnonima({\n            name: name,\n            ruc: \"\",\n            verifiedName: false,\n            verifiedRuc: false,\n            status: uint256(WorkflowState.SearchName),\n            legalResidentAgent: agent,\n            legalResidentAgentDID: \"\",\n            metadataURI: metadataURI,\n            memberCount: 0\n        });\n        counter++;\n\n        uint256 jobCounter = relayJob.addJob(\n                abi.encodePacked(counter),\n                getMethodSig(msg.data),\n                jobMetadataURI\n            );\n\n        uint256 escrowid = maintainer.createAssignmentAndEscrow(jobCounter, msg.sender, amount);\n        emit CompanyAdded(name, counter, jobCounter, escrowid);\n\n        return counter;\n    }\n\n    function addMemberKYC(\n        uint256 id,\n        uint256 jobId,\n        address member,\n        string memory did,\n        string memory jobMetadataURI\n    ) public returns (uint256) {\n        require(\n            companies[id].status == uint256(WorkflowState.RequestKYC),\n            \"Invalid state\"\n        );\n\n        uint256 memberId = companies[id].memberCount;\n        members[id][memberId] = Member({did: did, member: member});\n\n        companies[id].memberCount = companies[id].memberCount + 1;\n\n        relayJob.continueJob(\n            jobId,\n            abi.encodePacked(id, memberId),\n            getMethodSig(msg.data),\n            jobMetadataURI\n        );\n\n        emit MemberAdded(did, member, id, memberId);\n\n        return memberId;\n    }\n\n    // Client must call setStatus once he enrolls 3 KYC Profiles\n\n    // Register SA\n    function register(\n        uint256 id,\n        uint256 jobId,\n        string memory metadataURI,\n        string memory jobMetadataURI,\n        address legalResidentAgent,\n        string memory legalResidentAgentDID\n    ) public returns (bool) {\n\n        require(\n            companies[id].status == uint256(WorkflowState.AddMembers),\n            \"Invalid state\"\n        );\n\n        require(companies[id].memberCount > 2);\n\n        companies[id].legalResidentAgent = legalResidentAgent;\n        companies[id].legalResidentAgentDID = legalResidentAgentDID;\n        companies[id].metadataURI = metadataURI;\n        companies[id].status = uint256(WorkflowState.RegisterCompany);\n\n        relayJob.continueJob(\n            jobId,\n            abi.encodePacked(id, legalResidentAgent, metadataURI),\n            getMethodSig(msg.data),\n            jobMetadataURI\n        );\n\n        return true;\n    }\n\n    function notaryStamp(uint256 id, uint jobId, string memory jobMetadataURI) public returns (bool) {\n\n        require(\n            companies[id].status == uint256(WorkflowState.RegisterCompany),\n            \"Invalid state\"\n        );\n\n        companies[id].status = uint256(WorkflowState.NotaryStamped);\n\n        relayJob.continueJob(jobId, abi.encodePacked(id), getMethodSig(msg.data), jobMetadataURI);\n\n        return true;\n    }\n\n    function requestKYC(uint id, uint jobId, string memory jobMetadataURI) public returns (bool) {\n\n        companies[id].status = uint256(WorkflowState.RequestKYC);\n\n        emit RequestBoardMembersKYC(id);\n\n        relayJob.continueJob(jobId, abi.encodePacked(id), getMethodSig(msg.data), jobMetadataURI);\n\n        return true;\n    }\n\n    function completeCompanyRegistration(uint256 id, uint jobId, string memory jobMetadataURI) public returns (bool) {\n\n        require(\n            companies[id].status == uint256(WorkflowState.NotaryStamped),\n            \"Invalid state\"\n        );\n\n        companies[id].status = uint256(WorkflowState.Registered);\n\n        relayJob.completeJob(jobId);\n\n        return true;\n    }\n\n}\n",
  "sourcePath": "/home/rogelio/Code/xdv/electronic-sa-contracts/contracts/TestActionSAContract.sol",
  "compiler": {
    "name": "solc",
    "version": "0.7.6+commit.7338295f.Emscripten.clang"
  },
  "schemaVersion": "3.3.3",
  "updatedAt": "2021-02-16T23:14:01.894Z",
  "networkType": "ethereum",
  "devdoc": {
    "kind": "dev",
    "methods": {},
    "version": 1
  },
  "userdoc": {
    "kind": "user",
    "methods": {},
    "version": 1
  }
}