{
  "contractName": "TestActionSAContract",
  "abi": [
    {
      "inputs": [
        {
          "internalType": "address",
          "name": "_owner",
          "type": "address"
        }
      ],
      "stateMutability": "nonpayable",
      "type": "constructor"
    },
    {
      "anonymous": false,
      "inputs": [
        {
          "indexed": false,
          "internalType": "string",
          "name": "name",
          "type": "string"
        },
        {
          "indexed": true,
          "internalType": "uint256",
          "name": "id",
          "type": "uint256"
        }
      ],
      "name": "CompanyAdded",
      "type": "event"
    },
    {
      "anonymous": false,
      "inputs": [
        {
          "indexed": false,
          "internalType": "string",
          "name": "name",
          "type": "string"
        },
        {
          "indexed": false,
          "internalType": "string",
          "name": "ruc",
          "type": "string"
        },
        {
          "indexed": true,
          "internalType": "uint256",
          "name": "id",
          "type": "uint256"
        }
      ],
      "name": "CompanyRegistered",
      "type": "event"
    },
    {
      "inputs": [
        {
          "internalType": "uint256",
          "name": "",
          "type": "uint256"
        }
      ],
      "name": "companies",
      "outputs": [
        {
          "internalType": "string",
          "name": "name",
          "type": "string"
        },
        {
          "internalType": "string",
          "name": "companyAddress",
          "type": "string"
        },
        {
          "internalType": "string",
          "name": "industry",
          "type": "string"
        },
        {
          "internalType": "bool",
          "name": "verifiedName",
          "type": "bool"
        },
        {
          "internalType": "string",
          "name": "ruc",
          "type": "string"
        }
      ],
      "stateMutability": "view",
      "type": "function"
    },
    {
      "inputs": [],
      "name": "counter",
      "outputs": [
        {
          "internalType": "uint256",
          "name": "",
          "type": "uint256"
        }
      ],
      "stateMutability": "view",
      "type": "function"
    },
    {
      "inputs": [],
      "name": "owner",
      "outputs": [
        {
          "internalType": "address",
          "name": "",
          "type": "address"
        }
      ],
      "stateMutability": "view",
      "type": "function"
    },
    {
      "inputs": [],
      "name": "isRucReady",
      "outputs": [
        {
          "internalType": "bool",
          "name": "",
          "type": "bool"
        }
      ],
      "stateMutability": "nonpayable",
      "type": "function"
    },
    {
      "inputs": [
        {
          "internalType": "address",
          "name": "caller",
          "type": "address"
        },
        {
          "internalType": "bytes",
          "name": "params",
          "type": "bytes"
        }
      ],
      "name": "createSA",
      "outputs": [
        {
          "internalType": "uint256",
          "name": "",
          "type": "uint256"
        }
      ],
      "stateMutability": "nonpayable",
      "type": "function"
    },
    {
      "inputs": [
        {
          "internalType": "address",
          "name": "caller",
          "type": "address"
        },
        {
          "internalType": "bytes",
          "name": "params",
          "type": "bytes"
        }
      ],
      "name": "hasValidName",
      "outputs": [
        {
          "internalType": "bool",
          "name": "",
          "type": "bool"
        }
      ],
      "stateMutability": "view",
      "type": "function"
    },
    {
      "inputs": [
        {
          "internalType": "uint256",
          "name": "id",
          "type": "uint256"
        },
        {
          "internalType": "bool",
          "name": "ok",
          "type": "bool"
        }
      ],
      "name": "setValidName",
      "outputs": [
        {
          "internalType": "bool",
          "name": "",
          "type": "bool"
        }
      ],
      "stateMutability": "nonpayable",
      "type": "function"
    },
    {
      "inputs": [
        {
          "internalType": "address",
          "name": "caller",
          "type": "address"
        },
        {
          "internalType": "bytes",
          "name": "params",
          "type": "bytes"
        }
      ],
      "name": "registerSA",
      "outputs": [
        {
          "internalType": "bool",
          "name": "",
          "type": "bool"
        }
      ],
      "stateMutability": "nonpayable",
      "type": "function"
    }
  ],
  "bytecode": "0x608060405234801561001057600080fd5b50604051610fc6380380610fc68339818101604052810190610032919061008e565b80600260006101000a81548173ffffffffffffffffffffffffffffffffffffffff021916908373ffffffffffffffffffffffffffffffffffffffff16021790555050610100565b600081519050610088816100e9565b92915050565b6000602082840312156100a057600080fd5b60006100ae84828501610079565b91505092915050565b60006100c2826100c9565b9050919050565b600073ffffffffffffffffffffffffffffffffffffffff82169050919050565b6100f2816100b7565b81146100fd57600080fd5b50565b610eb78061010f6000396000f3fe608060405234801561001057600080fd5b50600436106100885760003560e01c806361bc221a1161005b57806361bc221a1461015157806374acf0551461016f5780638da5cb5b1461019f578063e85c630b146101bd57610088565b8063079b25961461008d5780630dd7eb8e146100bd5780632813d19d146100ed5780635a62989814610121575b600080fd5b6100a760048036038101906100a29190610902565b6101db565b6040516100b49190610bdf565b60405180910390f35b6100d760048036038101906100d29190610902565b610221565b6040516100e49190610cc2565b60405180910390f35b610107600480360381019061010291906109ed565b61037e565b604051610118959493929190610c1c565b60405180910390f35b61013b60048036038101906101369190610a3f565b610621565b6040516101489190610bdf565b60405180910390f35b61015961065b565b6040516101669190610cc2565b60405180910390f35b61018960048036038101906101849190610902565b610661565b6040516101969190610bdf565b60405180910390f35b6101a7610704565b6040516101b49190610bc4565b60405180910390f35b6101c561072a565b6040516101d29190610bdf565b60405180910390f35b600080828060200190518101906101f29190610a16565b90506001600082815260200190815260200160002060030160009054906101000a900460ff1691505092915050565b6000806000808480602001905181019061023b9190610956565b92509250925060008081548092919060010191905055506040518060a0016040528084815260200183815260200182815260200160001515815260200160405180602001604052806000815250815250600160008054815260200190815260200160002060008201518160000190805190602001906102bb929190610733565b5060208201518160010190805190602001906102d8929190610733565b5060408201518160020190805190602001906102f5929190610733565b5060608201518160030160006101000a81548160ff0219169083151502179055506080820151816004019080519060200190610332929190610733565b509050506000547f91123c4f4944abc978a97a8ad6bcbef27a6d8df85443037fc11ea9ad3d78ab43846040516103689190610bfa565b60405180910390a2600054935050505092915050565b6001602052806000526040600020600091509050806000018054600181600116156101000203166002900480601f01602080910402602001604051908101604052809291908181526020018280546001816001161561010002031660029004801561042a5780601f106103ff5761010080835404028352916020019161042a565b820191906000526020600020905b81548152906001019060200180831161040d57829003601f168201915b505050505090806001018054600181600116156101000203166002900480601f0160208091040260200160405190810160405280929190818152602001828054600181600116156101000203166002900480156104c85780601f1061049d576101008083540402835291602001916104c8565b820191906000526020600020905b8154815290600101906020018083116104ab57829003601f168201915b505050505090806002018054600181600116156101000203166002900480601f0160208091040260200160405190810160405280929190818152602001828054600181600116156101000203166002900480156105665780601f1061053b57610100808354040283529160200191610566565b820191906000526020600020905b81548152906001019060200180831161054957829003601f168201915b5050505050908060030160009054906101000a900460ff1690806004018054600181600116156101000203166002900480601f0160208091040260200160405190810160405280929190818152602001828054600181600116156101000203166002900480156106175780601f106105ec57610100808354040283529160200191610617565b820191906000526020600020905b8154815290600101906020018083116105fa57829003601f168201915b5050505050905085565b6000816001600085815260200190815260200160002060030160006101000a81548160ff0219169083151502179055506001905092915050565b60005481565b60008060008380602001905181019061067a9190610a7b565b91509150806001600084815260200190815260200160002060040190805190602001906106a8929190610733565b50817f7a5b6c3b56f3fd96c4145e8d16588d8853fbcfbbca80a8209817253e3d3b32f360016000858152602001908152602001600020600001836040516106f0929190610c8b565b60405180910390a260019250505092915050565b600260009054906101000a900473ffffffffffffffffffffffffffffffffffffffff1681565b60006001905090565b828054600181600116156101000203166002900490600052602060002090601f01602090048101928261076957600085556107b0565b82601f1061078257805160ff19168380011785556107b0565b828001600101855582156107b0579182015b828111156107af578251825591602001919060010190610794565b5b5090506107bd91906107c1565b5090565b5b808211156107da5760008160009055506001016107c2565b5090565b60006107f16107ec84610d0e565b610cdd565b90508281526020810184848401111561080957600080fd5b610814848285610de7565b509392505050565b600061082f61082a84610d3e565b610cdd565b90508281526020810184848401111561084757600080fd5b610852848285610df6565b509392505050565b60008135905061086981610e3c565b92915050565b60008135905061087e81610e53565b92915050565b600082601f83011261089557600080fd5b81356108a58482602086016107de565b91505092915050565b600082601f8301126108bf57600080fd5b81516108cf84826020860161081c565b91505092915050565b6000813590506108e781610e6a565b92915050565b6000815190506108fc81610e6a565b92915050565b6000806040838503121561091557600080fd5b60006109238582860161085a565b925050602083013567ffffffffffffffff81111561094057600080fd5b61094c85828601610884565b9150509250929050565b60008060006060848603121561096b57600080fd5b600084015167ffffffffffffffff81111561098557600080fd5b610991868287016108ae565b935050602084015167ffffffffffffffff8111156109ae57600080fd5b6109ba868287016108ae565b925050604084015167ffffffffffffffff8111156109d757600080fd5b6109e3868287016108ae565b9150509250925092565b6000602082840312156109ff57600080fd5b6000610a0d848285016108d8565b91505092915050565b600060208284031215610a2857600080fd5b6000610a36848285016108ed565b91505092915050565b60008060408385031215610a5257600080fd5b6000610a60858286016108d8565b9250506020610a718582860161086f565b9150509250929050565b60008060408385031215610a8e57600080fd5b6000610a9c858286016108ed565b925050602083015167ffffffffffffffff811115610ab957600080fd5b610ac5858286016108ae565b9150509250929050565b610ad881610d9f565b82525050565b610ae781610db1565b82525050565b6000610af882610d83565b610b028185610d8e565b9350610b12818560208601610df6565b610b1b81610e2b565b840191505092915050565b600081546001811660008114610b435760018114610b6957610bad565b607f6002830416610b548187610d8e565b955060ff198316865260208601935050610bad565b60028204610b778187610d8e565b9550610b8285610d6e565b60005b82811015610ba457815481890152600182019150602081019050610b85565b80880195505050505b505092915050565b610bbe81610ddd565b82525050565b6000602082019050610bd96000830184610acf565b92915050565b6000602082019050610bf46000830184610ade565b92915050565b60006020820190508181036000830152610c148184610aed565b905092915050565b600060a0820190508181036000830152610c368188610aed565b90508181036020830152610c4a8187610aed565b90508181036040830152610c5e8186610aed565b9050610c6d6060830185610ade565b8181036080830152610c7f8184610aed565b90509695505050505050565b60006040820190508181036000830152610ca58185610b26565b90508181036020830152610cb98184610aed565b90509392505050565b6000602082019050610cd76000830184610bb5565b92915050565b6000604051905081810181811067ffffffffffffffff82111715610d0457610d03610e29565b5b8060405250919050565b600067ffffffffffffffff821115610d2957610d28610e29565b5b601f19601f8301169050602081019050919050565b600067ffffffffffffffff821115610d5957610d58610e29565b5b601f19601f8301169050602081019050919050565b60008190508160005260206000209050919050565b600081519050919050565b600082825260208201905092915050565b6000610daa82610dbd565b9050919050565b60008115159050919050565b600073ffffffffffffffffffffffffffffffffffffffff82169050919050565b6000819050919050565b82818337600083830152505050565b60005b83811015610e14578082015181840152602081019050610df9565b83811115610e23576000848401525b50505050565bfe5b6000601f19601f8301169050919050565b610e4581610d9f565b8114610e5057600080fd5b50565b610e5c81610db1565b8114610e6757600080fd5b50565b610e7381610ddd565b8114610e7e57600080fd5b5056fea26469706673582212204e1e474fe980acd150db9fca95a49c80b94baa2627a639b15ec0675e5ead674e64736f6c63430007060033",
  "immutableReferences": {},
  "source": "pragma solidity ^0.7.0;\npragma experimental ABIEncoderV2;\n\nimport \"./WFlowRegistry.sol\";\nimport \"./MinLibBytes.sol\";\n\ncontract TestActionSAContract is WMessages {\n\n\n    struct SociedadAnonima {\n        string name;\n        string companyAddress;\n        string industry;\n        bool verifiedName;\n        string ruc;\n    }\n\n    event CompanyAdded(\n        string name,\n        uint indexed id\n    );\n\n    event CompanyRegistered(\n        string name,\n        string ruc,\n        uint indexed  id\n    );\n\n    uint public counter;\n    mapping(uint => SociedadAnonima) public companies;\n\n    address public owner;\n    constructor(address _owner) {\n        owner = _owner;\n    }\n\n    function isRucReady() \n    public returns(bool) {\n        return true;\n    }\n\n\n    // Create SA\n    function createSA(\n        address caller,\n        bytes memory params\n    ) public returns(uint) {\n        (string memory name,\n         string memory companyAddress, \n         string memory industry) =\n        abi.decode(\n            params,\n            (string, string, string) \n        );\n\n        counter++;\n        // Condition #1: Oracle must verify name is unique\n        // Condition #2: RUC somehow autogenerates\n        companies[counter] = SociedadAnonima({\n            name: name,\n            companyAddress: companyAddress,\n            industry: industry,\n            ruc: \"\",\n            verifiedName: false\n        });\n\n        emit CompanyAdded(name, counter);\n\n        return counter;\n    }\n\n    function hasValidName(\n        address caller,\n        bytes memory params\n    ) \n    public view returns(bool) {\n        uint id = abi.decode(params, (uint));\n        return companies[id].verifiedName;\n    }\n\n\n    function setValidName(\n        uint id,\n        bool ok\n    ) \n    public returns(bool) {\n        companies[id].verifiedName = ok;\n        return true;\n    }\n\n    // Register SA\n    function registerSA(\n        address caller,\n        bytes memory params\n    ) public returns(bool) {\n        (uint id,\n         string memory ruc) =\n        abi.decode(\n            params,\n            (uint, string) \n        );\n\n        companies[id].ruc = ruc;\n\n        emit CompanyRegistered(companies[id].name, ruc, id);\n\n        return true;\n    }\n\n    // Add Partner\n\n    // Issue Stocks\n\n    // Request Operations Start\n\n}",
  "sourcePath": "/home/rogelio/Code/xdv/electronic-sa-contracts/contracts/TestActionSAContract.sol",
  "compiler": {
    "name": "solc",
    "version": "0.7.6+commit.7338295f.Emscripten.clang"
  },
  "schemaVersion": "3.3.3",
  "updatedAt": "2021-02-08T14:27:28.671Z",
  "devdoc": {
    "kind": "dev",
    "methods": {},
    "version": 1
  },
  "userdoc": {
    "kind": "user",
    "methods": {},
    "version": 1
  }
}