{
  "contractName": "TestActionSAContract",
  "abi": [
    {
      "inputs": [
        {
          "internalType": "address",
          "name": "_owner",
          "type": "address"
        }
      ],
      "stateMutability": "nonpayable",
      "type": "constructor"
    },
    {
      "anonymous": false,
      "inputs": [
        {
          "indexed": false,
          "internalType": "string",
          "name": "name",
          "type": "string"
        },
        {
          "indexed": false,
          "internalType": "bytes",
          "name": "request",
          "type": "bytes"
        }
      ],
      "name": "ActionChanged",
      "type": "event"
    },
    {
      "anonymous": false,
      "inputs": [
        {
          "indexed": false,
          "internalType": "string",
          "name": "name",
          "type": "string"
        },
        {
          "indexed": true,
          "internalType": "uint256",
          "name": "id",
          "type": "uint256"
        }
      ],
      "name": "CompanyAdded",
      "type": "event"
    },
    {
      "anonymous": false,
      "inputs": [
        {
          "indexed": false,
          "internalType": "string",
          "name": "name",
          "type": "string"
        },
        {
          "indexed": false,
          "internalType": "string",
          "name": "ruc",
          "type": "string"
        },
        {
          "indexed": true,
          "internalType": "uint256",
          "name": "id",
          "type": "uint256"
        }
      ],
      "name": "CompanyRegistered",
      "type": "event"
    },
    {
      "anonymous": false,
      "inputs": [
        {
          "indexed": false,
          "internalType": "string",
          "name": "name",
          "type": "string"
        },
        {
          "indexed": false,
          "internalType": "bytes",
          "name": "data",
          "type": "bytes"
        }
      ],
      "name": "PropertyChanged",
      "type": "event"
    },
    {
      "inputs": [
        {
          "internalType": "uint256",
          "name": "",
          "type": "uint256"
        }
      ],
      "name": "companies",
      "outputs": [
        {
          "internalType": "string",
          "name": "name",
          "type": "string"
        },
        {
          "internalType": "bool",
          "name": "verifiedName",
          "type": "bool"
        },
        {
          "internalType": "string",
          "name": "companyAddress",
          "type": "string"
        },
        {
          "internalType": "string",
          "name": "industry",
          "type": "string"
        },
        {
          "internalType": "string",
          "name": "ruc",
          "type": "string"
        },
        {
          "internalType": "bool",
          "name": "verifiedRuc",
          "type": "bool"
        }
      ],
      "stateMutability": "view",
      "type": "function",
      "constant": true
    },
    {
      "inputs": [],
      "name": "counter",
      "outputs": [
        {
          "internalType": "uint256",
          "name": "",
          "type": "uint256"
        }
      ],
      "stateMutability": "view",
      "type": "function",
      "constant": true
    },
    {
      "inputs": [],
      "name": "owner",
      "outputs": [
        {
          "internalType": "address",
          "name": "",
          "type": "address"
        }
      ],
      "stateMutability": "view",
      "type": "function",
      "constant": true
    },
    {
      "inputs": [],
      "name": "isRucReady",
      "outputs": [
        {
          "internalType": "bool",
          "name": "",
          "type": "bool"
        }
      ],
      "stateMutability": "nonpayable",
      "type": "function"
    },
    {
      "inputs": [
        {
          "internalType": "address",
          "name": "caller",
          "type": "address"
        },
        {
          "internalType": "bytes",
          "name": "params",
          "type": "bytes"
        }
      ],
      "name": "propose",
      "outputs": [
        {
          "internalType": "uint256",
          "name": "",
          "type": "uint256"
        }
      ],
      "stateMutability": "nonpayable",
      "type": "function"
    },
    {
      "inputs": [
        {
          "internalType": "address",
          "name": "caller",
          "type": "address"
        },
        {
          "internalType": "bytes",
          "name": "params",
          "type": "bytes"
        }
      ],
      "name": "hasValidName",
      "outputs": [
        {
          "internalType": "bool",
          "name": "",
          "type": "bool"
        }
      ],
      "stateMutability": "view",
      "type": "function",
      "constant": true
    },
    {
      "inputs": [
        {
          "internalType": "uint256",
          "name": "id",
          "type": "uint256"
        },
        {
          "internalType": "bool",
          "name": "ok",
          "type": "bool"
        }
      ],
      "name": "setValidName",
      "outputs": [
        {
          "internalType": "bool",
          "name": "",
          "type": "bool"
        }
      ],
      "stateMutability": "nonpayable",
      "type": "function"
    },
    {
      "inputs": [
        {
          "internalType": "address",
          "name": "caller",
          "type": "address"
        },
        {
          "internalType": "bytes",
          "name": "params",
          "type": "bytes"
        }
      ],
      "name": "hasRUC",
      "outputs": [
        {
          "internalType": "bool",
          "name": "",
          "type": "bool"
        }
      ],
      "stateMutability": "view",
      "type": "function",
      "constant": true
    },
    {
      "inputs": [
        {
          "internalType": "uint256",
          "name": "id",
          "type": "uint256"
        },
        {
          "internalType": "string",
          "name": "ruc",
          "type": "string"
        }
      ],
      "name": "setRUC",
      "outputs": [
        {
          "internalType": "bool",
          "name": "",
          "type": "bool"
        }
      ],
      "stateMutability": "nonpayable",
      "type": "function"
    },
    {
      "inputs": [
        {
          "internalType": "address",
          "name": "caller",
          "type": "address"
        },
        {
          "internalType": "bytes",
          "name": "params",
          "type": "bytes"
        }
      ],
      "name": "register",
      "outputs": [
        {
          "internalType": "bool",
          "name": "",
          "type": "bool"
        }
      ],
      "stateMutability": "nonpayable",
      "type": "function"
    }
  ],
  "bytecode": "0x60806040523480156200001157600080fd5b50604051620016a2380380620016a2833981810160405281019062000037919062000096565b80600260006101000a81548173ffffffffffffffffffffffffffffffffffffffff021916908373ffffffffffffffffffffffffffffffffffffffff1602179055505062000110565b6000815190506200009081620000f6565b92915050565b600060208284031215620000a957600080fd5b6000620000b9848285016200007f565b91505092915050565b6000620000cf82620000d6565b9050919050565b600073ffffffffffffffffffffffffffffffffffffffff82169050919050565b6200010181620000c2565b81146200010d57600080fd5b50565b61158280620001206000396000f3fe608060405234801561001057600080fd5b506004361061009e5760003560e01c80638da5cb5b116100665780638da5cb5b146101865780639d481848146101a45780639e56d4ac146101d4578063e1fde12514610204578063e85c630b146102345761009e565b8063079b2596146100a357806324b8fbf6146100d35780632813d19d146101035780635a6298981461013857806361bc221a14610168575b600080fd5b6100bd60048036038101906100b89190610c2c565b610252565b6040516100ca9190611150565b60405180910390f35b6100ed60048036038101906100e89190610c2c565b610298565b6040516100fa9190611150565b60405180910390f35b61011d60048036038101906101189190610d17565b610347565b60405161012f9695949392919061118d565b60405180910390f35b610152600480360381019061014d9190610d69565b6105fd565b60405161015f9190611150565b60405180910390f35b610170610693565b60405161017d9190611335565b60405180910390f35b61018e610699565b60405161019b9190611135565b60405180910390f35b6101be60048036038101906101b99190610c2c565b6106bf565b6040516101cb9190611335565b60405180910390f35b6101ee60048036038101906101e99190610da5565b61087c565b6040516101fb9190611150565b60405180910390f35b61021e60048036038101906102199190610c2c565b6109a6565b60405161022b9190611150565b60405180910390f35b61023c6109ec565b6040516102499190611150565b60405180910390f35b600080828060200190518101906102699190610d40565b90506001600082815260200190815260200160002060010160009054906101000a900460ff1691505092915050565b6000806000838060200190518101906102b19190610df9565b915091507f40acee5d99b90445a797d665a56b06c33dfd0f1392b43d8ec13b454d1560fbc2846040516102e49190611241565b60405180910390a1817f7a5b6c3b56f3fd96c4145e8d16588d8853fbcfbbca80a8209817253e3d3b32f3600160008581526020019081526020016000206000018360405161033392919061120a565b60405180910390a260019250505092915050565b6001602052806000526040600020600091509050806000018054600181600116156101000203166002900480601f0160208091040260200160405190810160405280929190818152602001828054600181600116156101000203166002900480156103f35780601f106103c8576101008083540402835291602001916103f3565b820191906000526020600020905b8154815290600101906020018083116103d657829003601f168201915b5050505050908060010160009054906101000a900460ff1690806002018054600181600116156101000203166002900480601f0160208091040260200160405190810160405280929190818152602001828054600181600116156101000203166002900480156104a45780601f10610479576101008083540402835291602001916104a4565b820191906000526020600020905b81548152906001019060200180831161048757829003601f168201915b505050505090806003018054600181600116156101000203166002900480601f0160208091040260200160405190810160405280929190818152602001828054600181600116156101000203166002900480156105425780601f1061051757610100808354040283529160200191610542565b820191906000526020600020905b81548152906001019060200180831161052557829003601f168201915b505050505090806004018054600181600116156101000203166002900480601f0160208091040260200160405190810160405280929190818152602001828054600181600116156101000203166002900480156105e05780601f106105b5576101008083540402835291602001916105e0565b820191906000526020600020905b8154815290600101906020018083116105c357829003601f168201915b5050505050908060050160009054906101000a900460ff16905086565b6000816001600085815260200190815260200160002060010160006101000a81548160ff0219169083151502179055506000826040516020016106409190611103565b60405160208183030381529060405290507f8ad5b2a8a67cf2b47830751d7e1f108f7b52189d45c75420be83e1f60bfc992f8160405161068091906112cb565b60405180910390a1600191505092915050565b60005481565b600260009054906101000a900473ffffffffffffffffffffffffffffffffffffffff1681565b600080600080848060200190518101906106d99190610c80565b92509250925060008081548092919060010191905055506040518060c0016040528084815260200160001515815260200183815260200182815260200160405180602001604052806000815250815260200160001515815250600160008054815260200190815260200160002060008201518160000190805190602001906107629291906109f5565b5060208201518160010160006101000a81548160ff021916908315150217905550604082015181600201908051906020019061079f9291906109f5565b5060608201518160030190805190602001906107bc9291906109f5565b5060808201518160040190805190602001906107d99291906109f5565b5060a08201518160050160006101000a81548160ff0219169083151502179055509050507f40acee5d99b90445a797d665a56b06c33dfd0f1392b43d8ec13b454d1560fbc28560405161082c9190611296565b60405180910390a16000547f91123c4f4944abc978a97a8ad6bcbef27a6d8df85443037fc11ea9ad3d78ab4384604051610866919061116b565b60405180910390a2600054935050505092915050565b60008015156001600085815260200190815260200160002060050160009054906101000a900460ff161515146108e7576040517f08c379a00000000000000000000000000000000000000000000000000000000081526004016108de90611276565b60405180910390fd5b816001600085815260200190815260200160002060040190805190602001906109119291906109f5565b50600180600085815260200190815260200160002060050160006101000a81548160ff021916908315150217905550600082604051602001610953919061111e565b60405160208183030381529060405290507f8ad5b2a8a67cf2b47830751d7e1f108f7b52189d45c75420be83e1f60bfc992f816040516109939190611300565b60405180910390a1600191505092915050565b600080828060200190518101906109bd9190610d40565b90506001600082815260200190815260200160002060050160009054906101000a900460ff1691505092915050565b60006001905090565b828054600181600116156101000203166002900490600052602060002090601f016020900481019282610a2b5760008555610a72565b82601f10610a4457805160ff1916838001178555610a72565b82800160010185558215610a72579182015b82811115610a71578251825591602001919060010190610a56565b5b509050610a7f9190610a83565b5090565b5b80821115610a9c576000816000905550600101610a84565b5090565b6000610ab3610aae84611381565b611350565b905082815260208101848484011115610acb57600080fd5b610ad6848285611481565b509392505050565b6000610af1610aec846113b1565b611350565b905082815260208101848484011115610b0957600080fd5b610b14848285611481565b509392505050565b6000610b2f610b2a846113b1565b611350565b905082815260208101848484011115610b4757600080fd5b610b52848285611490565b509392505050565b600081359050610b6981611507565b92915050565b600081359050610b7e8161151e565b92915050565b600082601f830112610b9557600080fd5b8135610ba5848260208601610aa0565b91505092915050565b600082601f830112610bbf57600080fd5b8135610bcf848260208601610ade565b91505092915050565b600082601f830112610be957600080fd5b8151610bf9848260208601610b1c565b91505092915050565b600081359050610c1181611535565b92915050565b600081519050610c2681611535565b92915050565b60008060408385031215610c3f57600080fd5b6000610c4d85828601610b5a565b925050602083013567ffffffffffffffff811115610c6a57600080fd5b610c7685828601610b84565b9150509250929050565b600080600060608486031215610c9557600080fd5b600084015167ffffffffffffffff811115610caf57600080fd5b610cbb86828701610bd8565b935050602084015167ffffffffffffffff811115610cd857600080fd5b610ce486828701610bd8565b925050604084015167ffffffffffffffff811115610d0157600080fd5b610d0d86828701610bd8565b9150509250925092565b600060208284031215610d2957600080fd5b6000610d3784828501610c02565b91505092915050565b600060208284031215610d5257600080fd5b6000610d6084828501610c17565b91505092915050565b60008060408385031215610d7c57600080fd5b6000610d8a85828601610c02565b9250506020610d9b85828601610b6f565b9150509250929050565b60008060408385031215610db857600080fd5b6000610dc685828601610c02565b925050602083013567ffffffffffffffff811115610de357600080fd5b610def85828601610bae565b9150509250929050565b60008060408385031215610e0c57600080fd5b6000610e1a85828601610c17565b925050602083015167ffffffffffffffff811115610e3757600080fd5b610e4385828601610bd8565b9150509250929050565b610e5681611439565b82525050565b610e658161144b565b82525050565b610e7c610e778261144b565b6114c3565b82525050565b6000610e8d826113f6565b610e97818561140c565b9350610ea7818560208601611490565b610eb0816114e9565b840191505092915050565b6000610ec682611401565b610ed0818561141d565b9350610ee0818560208601611490565b610ee9816114e9565b840191505092915050565b6000610eff82611401565b610f09818561142e565b9350610f19818560208601611490565b80840191505092915050565b600081546001811660008114610f425760018114610f6857610fac565b607f6002830416610f53818761141d565b955060ff198316865260208601935050610fac565b60028204610f76818761141d565b9550610f81856113e1565b60005b82811015610fa357815481890152600182019150602081019050610f84565b80880195505050505b505092915050565b6000610fc160188361141d565b91507f726567697374657228616464726573732c2062797465732900000000000000006000830152602082019050919050565b600061100160148361141d565b91507f52554320616c72656164792076657269666965640000000000000000000000006000830152602082019050919050565b600061104160178361141d565b91507f70726f706f736528616464726573732c206279746573290000000000000000006000830152602082019050919050565b6000611081600c8361141d565b91507f76657269666965644e616d6500000000000000000000000000000000000000006000830152602082019050919050565b60006110c160038361141d565b91507f72756300000000000000000000000000000000000000000000000000000000006000830152602082019050919050565b6110fd81611477565b82525050565b600061110f8284610e6b565b60018201915081905092915050565b600061112a8284610ef4565b915081905092915050565b600060208201905061114a6000830184610e4d565b92915050565b60006020820190506111656000830184610e5c565b92915050565b600060208201905081810360008301526111858184610ebb565b905092915050565b600060c08201905081810360008301526111a78189610ebb565b90506111b66020830188610e5c565b81810360408301526111c88187610ebb565b905081810360608301526111dc8186610ebb565b905081810360808301526111f08185610ebb565b90506111ff60a0830184610e5c565b979650505050505050565b600060408201905081810360008301526112248185610f25565b905081810360208301526112388184610ebb565b90509392505050565b6000604082019050818103600083015261125a81610fb4565b9050818103602083015261126e8184610e82565b905092915050565b6000602082019050818103600083015261128f81610ff4565b9050919050565b600060408201905081810360008301526112af81611034565b905081810360208301526112c38184610e82565b905092915050565b600060408201905081810360008301526112e481611074565b905081810360208301526112f88184610e82565b905092915050565b60006040820190508181036000830152611319816110b4565b9050818103602083015261132d8184610e82565b905092915050565b600060208201905061134a60008301846110f4565b92915050565b6000604051905081810181811067ffffffffffffffff82111715611377576113766114e7565b5b8060405250919050565b600067ffffffffffffffff82111561139c5761139b6114e7565b5b601f19601f8301169050602081019050919050565b600067ffffffffffffffff8211156113cc576113cb6114e7565b5b601f19601f8301169050602081019050919050565b60008190508160005260206000209050919050565b600081519050919050565b600081519050919050565b600082825260208201905092915050565b600082825260208201905092915050565b600081905092915050565b600061144482611457565b9050919050565b60008115159050919050565b600073ffffffffffffffffffffffffffffffffffffffff82169050919050565b6000819050919050565b82818337600083830152505050565b60005b838110156114ae578082015181840152602081019050611493565b838111156114bd576000848401525b50505050565b60006114ce826114d5565b9050919050565b60006114e0826114fa565b9050919050565bfe5b6000601f19601f8301169050919050565b60008160f81b9050919050565b61151081611439565b811461151b57600080fd5b50565b6115278161144b565b811461153257600080fd5b50565b61153e81611477565b811461154957600080fd5b5056fea2646970667358221220df50c82a51ef620dc76bbf1c213f0c7c21037aa21ed427719378fef0c958a2be64736f6c63430007060033",
  "immutableReferences": {},
  "source": "pragma solidity ^0.7.0;\npragma experimental ABIEncoderV2;\n\nimport \"./WFlowRegistry.sol\";\nimport \"./MinLibBytes.sol\";\nimport \"./WMessages.sol\";\n\ncontract TestActionSAContract is WMessages {\n\n\n    struct SociedadAnonima {\n        string name;\n        bool verifiedName;        \n        string companyAddress;\n        string industry;\n        string ruc;\n        bool verifiedRuc;\n    }\n\n    event CompanyAdded(\n        string name,\n        uint indexed id\n    );\n\n    event CompanyRegistered(\n        string name,\n        string ruc,\n        uint indexed  id\n    );\n\n    uint public counter;\n    mapping(uint => SociedadAnonima) public companies;\n\n    address public owner;\n    constructor(address _owner) {\n        owner = _owner;\n    }\n\n    function isRucReady() \n    public returns(bool) {\n        return true;\n    }\n\n\n    // Create SA\n    function propose(\n        address caller,\n        bytes memory params\n    ) public returns(uint) {\n        (string memory name,\n         string memory companyAddress, \n         string memory industry) =\n        abi.decode(\n            params,\n            (string, string, string) \n        );\n\n        counter++;\n        // Condition #1: Oracle must verify name is unique\n        // Condition #2: RUC somehow autogenerates\n        companies[counter] = SociedadAnonima({\n            name: name,\n            companyAddress: companyAddress,\n            industry: industry,\n            ruc: \"\",\n            verifiedName: false,\n            verifiedRuc: false\n        });\n\n        emit ActionChanged(\n            \"propose(address, bytes)\", \n            params\n        );\n        emit CompanyAdded(\n            name,\n            counter\n        );\n\n        return counter;\n    }\n\n    function hasValidName(\n        address caller,\n        bytes memory params\n    ) \n    public view returns(bool) {\n        uint id = abi.decode(params, (uint));\n        return companies[id].verifiedName;\n    }\n\n\n    function setValidName(\n        uint id,\n        bool ok\n    ) \n    public returns(bool) {\n        companies[id].verifiedName = ok;\n        bytes memory params = abi.encodePacked(ok);\n        emit PropertyChanged('verifiedName', params);\n        return true;\n    }\n\n\n    function hasRUC(\n        address caller,\n        bytes memory params\n    ) \n    public view returns(bool) {\n        uint id = abi.decode(params, (uint));\n        return companies[id].verifiedRuc;\n    }\n\n\n    function setRUC(\n        uint id,\n        string memory ruc\n    ) \n    public returns(bool) {\n        require(companies[id].verifiedRuc == false, \"RUC already verified\");\n        companies[id].ruc = ruc;\n        companies[id].verifiedRuc = true;\n        bytes memory params = abi.encodePacked(ruc);\n        emit PropertyChanged('ruc', params);\n        return true;\n    }\n\n    // Register SA\n    function register(\n        address caller,\n        bytes memory params\n    ) public returns(bool) {\n        (uint id,\n         string memory ruc) =\n        abi.decode(\n            params,\n            (uint, string) \n        );\n\n        // companies[id].ruc = ruc;\n        emit ActionChanged(\n            \"register(address, bytes)\", \n            params\n        );\n        emit CompanyRegistered(companies[id].name, ruc, id);\n\n        return true;\n    }\n\n    // Add Partner\n\n    // Issue Stocks\n\n    // Request Operations Start\n\n}",
  "sourcePath": "/home/rogelio/Code/xdv/electronic-sa-contracts/contracts/TestActionSAContract.sol",
  "compiler": {
    "name": "solc",
    "version": "0.7.6+commit.7338295f.Emscripten.clang"
  },
  "schemaVersion": "3.3.3",
  "updatedAt": "2021-02-08T17:32:49.339Z",
  "networkType": "ethereum",
  "devdoc": {
    "kind": "dev",
    "methods": {},
    "version": 1
  },
  "userdoc": {
    "kind": "user",
    "methods": {},
    "version": 1
  }
}