{
  "contractName": "TestActionSAContract",
  "abi": [
    {
      "inputs": [
        {
          "internalType": "address",
          "name": "_owner",
          "type": "address"
        },
        {
          "internalType": "address",
          "name": "_maintainer",
          "type": "address"
        },
        {
          "internalType": "address",
          "name": "_stateRelayer",
          "type": "address"
        }
      ],
      "stateMutability": "nonpayable",
      "type": "constructor"
    },
    {
      "anonymous": false,
      "inputs": [
        {
          "indexed": false,
          "internalType": "bytes4",
          "name": "methodSig",
          "type": "bytes4"
        }
      ],
      "name": "ActionChanged",
      "type": "event"
    },
    {
      "anonymous": false,
      "inputs": [
        {
          "indexed": false,
          "internalType": "string",
          "name": "name",
          "type": "string"
        },
        {
          "indexed": true,
          "internalType": "uint256",
          "name": "id",
          "type": "uint256"
        }
      ],
      "name": "CompanyAdded",
      "type": "event"
    },
    {
      "anonymous": false,
      "inputs": [
        {
          "indexed": false,
          "internalType": "string",
          "name": "name",
          "type": "string"
        },
        {
          "indexed": false,
          "internalType": "string",
          "name": "ruc",
          "type": "string"
        },
        {
          "indexed": true,
          "internalType": "uint256",
          "name": "id",
          "type": "uint256"
        }
      ],
      "name": "CompanyRegistered",
      "type": "event"
    },
    {
      "anonymous": false,
      "inputs": [
        {
          "indexed": false,
          "internalType": "string",
          "name": "memberDID",
          "type": "string"
        },
        {
          "indexed": false,
          "internalType": "address",
          "name": "member",
          "type": "address"
        },
        {
          "indexed": false,
          "internalType": "uint256",
          "name": "companyId",
          "type": "uint256"
        },
        {
          "indexed": true,
          "internalType": "uint256",
          "name": "id",
          "type": "uint256"
        }
      ],
      "name": "MemberAdded",
      "type": "event"
    },
    {
      "anonymous": false,
      "inputs": [
        {
          "indexed": false,
          "internalType": "uint256",
          "name": "id",
          "type": "uint256"
        }
      ],
      "name": "MessageRelayed",
      "type": "event"
    },
    {
      "anonymous": false,
      "inputs": [
        {
          "indexed": false,
          "internalType": "address",
          "name": "controller",
          "type": "address"
        },
        {
          "indexed": false,
          "internalType": "bytes4",
          "name": "selector",
          "type": "bytes4"
        },
        {
          "indexed": false,
          "internalType": "uint256",
          "name": "id",
          "type": "uint256"
        }
      ],
      "name": "MessageRequestCompleted",
      "type": "event"
    },
    {
      "anonymous": false,
      "inputs": [
        {
          "indexed": false,
          "internalType": "string",
          "name": "propName",
          "type": "string"
        },
        {
          "indexed": false,
          "internalType": "bytes",
          "name": "data",
          "type": "bytes"
        }
      ],
      "name": "PropertyChanged",
      "type": "event"
    },
    {
      "anonymous": false,
      "inputs": [
        {
          "indexed": true,
          "internalType": "uint256",
          "name": "id",
          "type": "uint256"
        }
      ],
      "name": "RequestBoardMembersKYC",
      "type": "event"
    },
    {
      "inputs": [
        {
          "internalType": "uint256",
          "name": "",
          "type": "uint256"
        }
      ],
      "name": "companies",
      "outputs": [
        {
          "internalType": "string",
          "name": "name",
          "type": "string"
        },
        {
          "internalType": "bool",
          "name": "verifiedName",
          "type": "bool"
        },
        {
          "internalType": "string",
          "name": "metadataURI",
          "type": "string"
        },
        {
          "internalType": "address",
          "name": "legalResidentAgent",
          "type": "address"
        },
        {
          "internalType": "string",
          "name": "legalResidentAgentDID",
          "type": "string"
        },
        {
          "internalType": "string",
          "name": "ruc",
          "type": "string"
        },
        {
          "internalType": "uint256",
          "name": "status",
          "type": "uint256"
        },
        {
          "internalType": "bool",
          "name": "verifiedRuc",
          "type": "bool"
        },
        {
          "internalType": "uint256",
          "name": "memberCount",
          "type": "uint256"
        }
      ],
      "stateMutability": "view",
      "type": "function"
    },
    {
      "inputs": [],
      "name": "counter",
      "outputs": [
        {
          "internalType": "uint256",
          "name": "",
          "type": "uint256"
        }
      ],
      "stateMutability": "view",
      "type": "function"
    },
    {
      "inputs": [
        {
          "internalType": "string",
          "name": "contractName",
          "type": "string"
        },
        {
          "internalType": "address",
          "name": "contractAddress",
          "type": "address"
        },
        {
          "internalType": "uint256",
          "name": "network",
          "type": "uint256"
        },
        {
          "internalType": "string",
          "name": "version",
          "type": "string"
        }
      ],
      "name": "getDomainSeparator",
      "outputs": [
        {
          "internalType": "bytes32",
          "name": "",
          "type": "bytes32"
        }
      ],
      "stateMutability": "pure",
      "type": "function"
    },
    {
      "inputs": [
        {
          "internalType": "bytes",
          "name": "data",
          "type": "bytes"
        }
      ],
      "name": "getMethodSig",
      "outputs": [
        {
          "internalType": "bytes4",
          "name": "",
          "type": "bytes4"
        }
      ],
      "stateMutability": "pure",
      "type": "function"
    },
    {
      "inputs": [
        {
          "internalType": "uint256",
          "name": "",
          "type": "uint256"
        },
        {
          "internalType": "uint256",
          "name": "",
          "type": "uint256"
        }
      ],
      "name": "members",
      "outputs": [
        {
          "internalType": "string",
          "name": "did",
          "type": "string"
        },
        {
          "internalType": "address",
          "name": "member",
          "type": "address"
        }
      ],
      "stateMutability": "view",
      "type": "function"
    },
    {
      "inputs": [],
      "name": "owner",
      "outputs": [
        {
          "internalType": "address",
          "name": "",
          "type": "address"
        }
      ],
      "stateMutability": "view",
      "type": "function"
    },
    {
      "inputs": [
        {
          "internalType": "address",
          "name": "caller",
          "type": "address"
        },
        {
          "internalType": "bytes",
          "name": "params",
          "type": "bytes"
        }
      ],
      "name": "hasValidName",
      "outputs": [
        {
          "internalType": "bool",
          "name": "",
          "type": "bool"
        }
      ],
      "stateMutability": "nonpayable",
      "type": "function"
    },
    {
      "inputs": [
        {
          "internalType": "uint256",
          "name": "id",
          "type": "uint256"
        },
        {
          "internalType": "bool",
          "name": "ok",
          "type": "bool"
        }
      ],
      "name": "setValidName",
      "outputs": [
        {
          "internalType": "bool",
          "name": "",
          "type": "bool"
        }
      ],
      "stateMutability": "nonpayable",
      "type": "function"
    },
    {
      "inputs": [
        {
          "internalType": "uint256",
          "name": "id",
          "type": "uint256"
        },
        {
          "internalType": "string",
          "name": "ruc",
          "type": "string"
        }
      ],
      "name": "setRUC",
      "outputs": [
        {
          "internalType": "bool",
          "name": "",
          "type": "bool"
        }
      ],
      "stateMutability": "nonpayable",
      "type": "function"
    },
    {
      "inputs": [
        {
          "internalType": "address",
          "name": "caller",
          "type": "address"
        },
        {
          "internalType": "bytes",
          "name": "params",
          "type": "bytes"
        }
      ],
      "name": "hasRUC",
      "outputs": [
        {
          "internalType": "bool",
          "name": "",
          "type": "bool"
        }
      ],
      "stateMutability": "nonpayable",
      "type": "function"
    },
    {
      "inputs": [
        {
          "internalType": "address",
          "name": "caller",
          "type": "address"
        },
        {
          "internalType": "bytes",
          "name": "params",
          "type": "bytes"
        }
      ],
      "name": "hasMemberKYCCompleted",
      "outputs": [
        {
          "internalType": "bool",
          "name": "",
          "type": "bool"
        }
      ],
      "stateMutability": "nonpayable",
      "type": "function"
    },
    {
      "inputs": [
        {
          "internalType": "address",
          "name": "caller",
          "type": "address"
        },
        {
          "internalType": "bytes",
          "name": "params",
          "type": "bytes"
        }
      ],
      "name": "hasRegistered",
      "outputs": [
        {
          "internalType": "bool",
          "name": "",
          "type": "bool"
        }
      ],
      "stateMutability": "nonpayable",
      "type": "function"
    },
    {
      "inputs": [
        {
          "internalType": "address",
          "name": "caller",
          "type": "address"
        },
        {
          "internalType": "bytes",
          "name": "params",
          "type": "bytes"
        }
      ],
      "name": "hasNotarized",
      "outputs": [
        {
          "internalType": "bool",
          "name": "",
          "type": "bool"
        }
      ],
      "stateMutability": "nonpayable",
      "type": "function"
    },
    {
      "inputs": [
        {
          "internalType": "uint256",
          "name": "id",
          "type": "uint256"
        },
        {
          "internalType": "uint256",
          "name": "status",
          "type": "uint256"
        }
      ],
      "name": "setStatus",
      "outputs": [
        {
          "internalType": "bool",
          "name": "",
          "type": "bool"
        }
      ],
      "stateMutability": "nonpayable",
      "type": "function"
    },
    {
      "inputs": [
        {
          "internalType": "address",
          "name": "caller",
          "type": "address"
        },
        {
          "internalType": "bytes",
          "name": "params",
          "type": "bytes"
        }
      ],
      "name": "hasStatus",
      "outputs": [
        {
          "internalType": "bool",
          "name": "",
          "type": "bool"
        }
      ],
      "stateMutability": "nonpayable",
      "type": "function"
    },
    {
      "inputs": [],
      "name": "getDomain",
      "outputs": [
        {
          "internalType": "bytes32",
          "name": "",
          "type": "bytes32"
        }
      ],
      "stateMutability": "view",
      "type": "function"
    },
    {
      "inputs": [
        {
          "internalType": "string",
          "name": "name",
          "type": "string"
        },
        {
          "internalType": "address",
          "name": "agent",
          "type": "address"
        },
        {
          "internalType": "string",
          "name": "metadataURI",
          "type": "string"
        }
      ],
      "name": "propose",
      "outputs": [
        {
          "internalType": "uint256",
          "name": "",
          "type": "uint256"
        }
      ],
      "stateMutability": "nonpayable",
      "type": "function"
    },
    {
      "inputs": [
        {
          "internalType": "uint256",
          "name": "id",
          "type": "uint256"
        },
        {
          "internalType": "address",
          "name": "member",
          "type": "address"
        },
        {
          "internalType": "string",
          "name": "did",
          "type": "string"
        }
      ],
      "name": "addMemberKYC",
      "outputs": [
        {
          "internalType": "uint256",
          "name": "",
          "type": "uint256"
        }
      ],
      "stateMutability": "nonpayable",
      "type": "function"
    },
    {
      "inputs": [
        {
          "internalType": "uint256",
          "name": "id",
          "type": "uint256"
        },
        {
          "internalType": "string",
          "name": "metadataURI",
          "type": "string"
        },
        {
          "internalType": "address",
          "name": "legalResidentAgent",
          "type": "address"
        },
        {
          "internalType": "string",
          "name": "legalResidentAgentDID",
          "type": "string"
        }
      ],
      "name": "register",
      "outputs": [
        {
          "internalType": "bool",
          "name": "",
          "type": "bool"
        }
      ],
      "stateMutability": "nonpayable",
      "type": "function"
    },
    {
      "inputs": [
        {
          "internalType": "uint256",
          "name": "id",
          "type": "uint256"
        }
      ],
      "name": "notaryStamp",
      "outputs": [
        {
          "internalType": "bool",
          "name": "",
          "type": "bool"
        }
      ],
      "stateMutability": "nonpayable",
      "type": "function"
    },
    {
      "inputs": [
        {
          "internalType": "uint256",
          "name": "id",
          "type": "uint256"
        }
      ],
      "name": "requestKYC",
      "outputs": [
        {
          "internalType": "bool",
          "name": "",
          "type": "bool"
        }
      ],
      "stateMutability": "nonpayable",
      "type": "function"
    },
    {
      "inputs": [
        {
          "internalType": "uint256",
          "name": "id",
          "type": "uint256"
        }
      ],
      "name": "completeCompanyRegistration",
      "outputs": [
        {
          "internalType": "bool",
          "name": "",
          "type": "bool"
        }
      ],
      "stateMutability": "nonpayable",
      "type": "function"
    }
  ],
  "bytecode": "0x60806040523480156200001157600080fd5b506040516200343738038062003437833981810160405281019062000037919062000119565b81600160006101000a81548173ffffffffffffffffffffffffffffffffffffffff021916908373ffffffffffffffffffffffffffffffffffffffff160217905550826000806101000a81548173ffffffffffffffffffffffffffffffffffffffff021916908373ffffffffffffffffffffffffffffffffffffffff16021790555080600260006101000a81548173ffffffffffffffffffffffffffffffffffffffff021916908373ffffffffffffffffffffffffffffffffffffffff160217905550505050620001bd565b6000815190506200011381620001a3565b92915050565b6000806000606084860312156200012f57600080fd5b60006200013f8682870162000102565b9350506020620001528682870162000102565b9250506040620001658682870162000102565b9150509250925092565b60006200017c8262000183565b9050919050565b600073ffffffffffffffffffffffffffffffffffffffff82169050919050565b620001ae816200016f565b8114620001ba57600080fd5b50565b61326a80620001cd6000396000f3fe608060405234801561001057600080fd5b50600436106101425760003560e01c806382e40813116100b8578063b1e4f13e1161007c578063b1e4f13e1461042c578063b29202821461045c578063b5a3a3c21461048c578063b68d1809146104bc578063d5ffab10146104da578063e1fde1251461050a57610142565b806382e408131461034e578063842dcbc41461037e5780638a173e3a146103ae5780638da5cb5b146103de5780639e56d4ac146103fc57610142565b80632813d19d1161010a5780632813d19d1461023857806336270598146102705780635a629898146102a057806361bc221a146102d05780636763275c146102ee5780636e7d4ff31461031e57610142565b806301fc20e2146101475780630722d1b014610178578063079b2596146101a8578063122decf0146101d85780631944ad4314610208575b600080fd5b610161600480360381019061015c919061294c565b61053a565b60405161016f929190612d7a565b60405180910390f35b610192600480360381019061018d91906128b9565b610623565b60405161019f9190612c5b565b60405180910390f35b6101c260048036038101906101bd9190612573565b6109c4565b6040516101cf9190612c5b565b60405180910390f35b6101f260048036038101906101ed91906127c2565b610a06565b6040516101ff9190612f77565b60405180910390f35b610222600480360381019061021d9190612573565b610e15565b60405161022f9190612c5b565b60405180910390f35b610252600480360381019061024d9190612770565b610e58565b60405161026799989796959493929190612de8565b60405180910390f35b61028a60048036038101906102859190612573565b611140565b6040516102979190612c5b565b60405180910390f35b6102ba60048036038101906102b59190612829565b611177565b6040516102c79190612c5b565b60405180910390f35b6102d86112ac565b6040516102e59190612f77565b60405180910390f35b61030860048036038101906103039190612573565b6112b2565b6040516103159190612c5b565b60405180910390f35b61033860048036038101906103339190612573565b6112f5565b6040516103459190612c5b565b60405180910390f35b6103686004803603810190610363919061294c565b611338565b6040516103759190612c5b565b60405180910390f35b61039860048036038101906103939190612770565b611415565b6040516103a59190612c5b565b60405180910390f35b6103c860048036038101906103c3919061261d565b611708565b6040516103d59190612d0d565b60405180910390f35b6103e6611865565b6040516103f39190612c40565b60405180910390f35b61041660048036038101906104119190612865565b611889565b6040516104239190612c5b565b60405180910390f35b610446600480360381019061044191906126dd565b6119ea565b6040516104539190612c76565b60405180910390f35b61047660048036038101906104719190612770565b611a52565b6040516104839190612c5b565b60405180910390f35b6104a660048036038101906104a1919061265e565b611c70565b6040516104b39190612f77565b60405180910390f35b6104c46120d6565b6040516104d19190612c76565b60405180910390f35b6104f460048036038101906104ef9190612770565b61218b565b6040516105019190612c5b565b60405180910390f35b610524600480360381019061051f9190612573565b6122ee565b6040516105319190612c5b565b60405180910390f35b600360205281600052604060002060205280600052604060002060009150915050806000018054600181600116156101000203166002900480601f0160208091040260200160405190810160405280929190818152602001828054600181600116156101000203166002900480156105f35780601f106105c8576101008083540402835291602001916105f3565b820191906000526020600020905b8154815290600101906020018083116105d657829003601f168201915b5050505050908060010160009054906101000a900473ffffffffffffffffffffffffffffffffffffffff16905082565b6000600260009054906101000a900473ffffffffffffffffffffffffffffffffffffffff1673ffffffffffffffffffffffffffffffffffffffff166331e9173261066b6120d6565b6106b96000368080601f016020809104026020016040519081016040528093929190818152602001838380828437600081840152601f19601f82011690508083019250505050505050611708565b6040518363ffffffff1660e01b81526004016106d6929190612ce4565b602060405180830381600087803b1580156106f057600080fd5b505af1158015610704573d6000803e3d6000fd5b505050506040513d601f19601f8201168201806040525081019061072891906125cb565b506002600881111561073657fe5b60056000878152602001908152602001600020600601541461078d576040517f08c379a000000000000000000000000000000000000000000000000000000000815260040161078490612f57565b60405180910390fd5b826005600087815260200190815260200160002060030160006101000a81548173ffffffffffffffffffffffffffffffffffffffff021916908373ffffffffffffffffffffffffffffffffffffffff1602179055508160056000878152602001908152602001600020600401908051906020019061080c929190612330565b5083600560008781526020019081526020016000206002019080519060200190610837929190612330565b506004600881111561084557fe5b60056000878152602001908152602001600020600601819055506000600260009054906101000a900473ffffffffffffffffffffffffffffffffffffffff1673ffffffffffffffffffffffffffffffffffffffff16635e85d1756004546040516020016108b29190612c25565b60405160208183030381529060405261090f6000368080601f016020809104026020016040519081016040528093929190818152602001838380828437600081840152601f19601f82011690508083019250505050505050611708565b6040518363ffffffff1660e01b815260040161092c929190612d28565b602060405180830381600087803b15801561094657600080fd5b505af115801561095a573d6000803e3d6000fd5b505050506040513d601f19601f8201168201806040525081019061097e9190612799565b90507ff258436627a433127b0f4cd94e816d2c577f69116e5b0f9f1540f0d2aef9b239816040516109af9190612f77565b60405180910390a16001915050949350505050565b60008083838101906109d69190612770565b90506005600082815260200190815260200160002060010160009054906101000a900460ff169150509392505050565b6000600260009054906101000a900473ffffffffffffffffffffffffffffffffffffffff1673ffffffffffffffffffffffffffffffffffffffff166331e91732610a4e6120d6565b610a9c6000368080601f016020809104026020016040519081016040528093929190818152602001838380828437600081840152601f19601f82011690508083019250505050505050611708565b6040518363ffffffff1660e01b8152600401610ab9929190612ce4565b602060405180830381600087803b158015610ad357600080fd5b505af1158015610ae7573d6000803e3d6000fd5b505050506040513d601f19601f82011682018060405250810190610b0b91906125cb565b5060016008811115610b1957fe5b600560008681526020019081526020016000206006015414610b70576040517f08c379a0000000000000000000000000000000000000000000000000000000008152600401610b6790612f57565b60405180910390fd5b60006005600086815260200190815260200160002060080154905060405180604001604052808481526020018573ffffffffffffffffffffffffffffffffffffffff168152506003600087815260200190815260200160002060008381526020019081526020016000206000820151816000019080519060200190610bf6929190612330565b5060208201518160010160006101000a81548173ffffffffffffffffffffffffffffffffffffffff021916908373ffffffffffffffffffffffffffffffffffffffff160217905550905050600160056000878152602001908152602001600020600801540160056000878152602001908152602001600020600801819055506000600260009054906101000a900473ffffffffffffffffffffffffffffffffffffffff1673ffffffffffffffffffffffffffffffffffffffff16635e85d175600454604051602001610cc89190612c25565b604051602081830303815290604052610d256000368080601f016020809104026020016040519081016040528093929190818152602001838380828437600081840152601f19601f82011690508083019250505050505050611708565b6040518363ffffffff1660e01b8152600401610d42929190612d28565b602060405180830381600087803b158015610d5c57600080fd5b505af1158015610d70573d6000803e3d6000fd5b505050506040513d601f19601f82011682018060405250810190610d949190612799565b90507ff258436627a433127b0f4cd94e816d2c577f69116e5b0f9f1540f0d2aef9b23981604051610dc59190612f77565b60405180910390a1817f148174b3c28355adb77adbb0dbe613489fec345a165dd2a057bab290da9eeb24858789604051610e0193929190612daa565b60405180910390a281925050509392505050565b6000808383810190610e279190612770565b905060036008811115610e3657fe5b6005600083815260200190815260200160002060060154149150509392505050565b6005602052806000526040600020600091509050806000018054600181600116156101000203166002900480601f016020809104026020016040519081016040528092919081815260200182805460018160011615610100020316600290048015610f045780601f10610ed957610100808354040283529160200191610f04565b820191906000526020600020905b815481529060010190602001808311610ee757829003601f168201915b5050505050908060010160009054906101000a900460ff1690806002018054600181600116156101000203166002900480601f016020809104026020016040519081016040528092919081815260200182805460018160011615610100020316600290048015610fb55780601f10610f8a57610100808354040283529160200191610fb5565b820191906000526020600020905b815481529060010190602001808311610f9857829003601f168201915b5050505050908060030160009054906101000a900473ffffffffffffffffffffffffffffffffffffffff1690806004018054600181600116156101000203166002900480601f0160208091040260200160405190810160405280929190818152602001828054600181600116156101000203166002900480156110795780601f1061104e57610100808354040283529160200191611079565b820191906000526020600020905b81548152906001019060200180831161105c57829003601f168201915b505050505090806005018054600181600116156101000203166002900480601f0160208091040260200160405190810160405280929190818152602001828054600181600116156101000203166002900480156111175780601f106110ec57610100808354040283529160200191611117565b820191906000526020600020905b8154815290600101906020018083116110fa57829003601f168201915b5050505050908060060154908060070160009054906101000a900460ff16908060080154905089565b60008083838101906111529190612770565b9050806005600083815260200190815260200160002060060154149150509392505050565b60006040518060400160405280600c81526020017f76657269666965644e616d650000000000000000000000000000000000000000815250826040516020016111c09190612bf3565b604051602081830303815290604052600015156005600087815260200190815260200160002060010160009054906101000a900460ff16151514611239576040517f08c379a000000000000000000000000000000000000000000000000000000000815260040161123090612f37565b60405180910390fd5b836005600087815260200190815260200160002060010160006101000a81548160ff021916908315150217905550600192507f8ad5b2a8a67cf2b47830751d7e1f108f7b52189d45c75420be83e1f60bfc992f828260405161129c929190612e91565b60405180910390a1505092915050565b60045481565b60008083838101906112c49190612770565b9050600660088111156112d357fe5b6005600083815260200190815260200160002060060154149150509392505050565b60008083838101906113079190612770565b90506005600881111561131657fe5b6005600083815260200190815260200160002060060154149150509392505050565b60006040518060400160405280600681526020017f7374617475730000000000000000000000000000000000000000000000000000815250826040516020016113819190612c25565b6040516020818303038152906040528360056000878152602001908152602001600020600601819055506000846040516020016113be9190612c25565b604051602081830303815290604052905060019350507f8ad5b2a8a67cf2b47830751d7e1f108f7b52189d45c75420be83e1f60bfc992f8282604051611405929190612e91565b60405180910390a1505092915050565b6000600260009054906101000a900473ffffffffffffffffffffffffffffffffffffffff1673ffffffffffffffffffffffffffffffffffffffff166331e9173261145d6120d6565b6114ab6000368080601f016020809104026020016040519081016040528093929190818152602001838380828437600081840152601f19601f82011690508083019250505050505050611708565b6040518363ffffffff1660e01b81526004016114c8929190612ce4565b602060405180830381600087803b1580156114e257600080fd5b505af11580156114f6573d6000803e3d6000fd5b505050506040513d601f19601f8201168201806040525081019061151a91906125cb565b506004600881111561152857fe5b60056000848152602001908152602001600020600601541461157f576040517f08c379a000000000000000000000000000000000000000000000000000000000815260040161157690612f57565b60405180910390fd5b6005600881111561158c57fe5b60056000848152602001908152602001600020600601819055506000600260009054906101000a900473ffffffffffffffffffffffffffffffffffffffff1673ffffffffffffffffffffffffffffffffffffffff16635e85d1756004546040516020016115f99190612c25565b6040516020818303038152906040526116566000368080601f016020809104026020016040519081016040528093929190818152602001838380828437600081840152601f19601f82011690508083019250505050505050611708565b6040518363ffffffff1660e01b8152600401611673929190612d28565b602060405180830381600087803b15801561168d57600080fd5b505af11580156116a1573d6000803e3d6000fd5b505050506040513d601f19601f820116820180604052508101906116c59190612799565b90507ff258436627a433127b0f4cd94e816d2c577f69116e5b0f9f1540f0d2aef9b239816040516116f69190612f77565b60405180910390a16001915050919050565b600060188260038151811061171957fe5b602001015160f81c60f81b7effffffffffffffffffffffffffffffffffffffffffffffffffffffffffffff19167bffffffffffffffffffffffffffffffffffffffffffffffffffffffff1916901c60108360028151811061177657fe5b602001015160f81c60f81b7effffffffffffffffffffffffffffffffffffffffffffffffffffffffffffff19167bffffffffffffffffffffffffffffffffffffffffffffffffffffffff1916901c6008846001815181106117d357fe5b602001015160f81c60f81b7effffffffffffffffffffffffffffffffffffffffffffffffffffffffffffff19167bffffffffffffffffffffffffffffffffffffffffffffffffffffffff1916901c8460008151811061182e57fe5b602001015160f81c60f81b7effffffffffffffffffffffffffffffffffffffffffffffffffffffffffffff19161717179050919050565b60008054906101000a900473ffffffffffffffffffffffffffffffffffffffff1681565b60006040518060400160405280600381526020017f7275630000000000000000000000000000000000000000000000000000000000815250826040516020016118d29190612c0e565b604051602081830303815290604052600015156005600087815260200190815260200160002060070160009054906101000a900460ff1615151461194b576040517f08c379a000000000000000000000000000000000000000000000000000000000815260040161194290612ec8565b60405180910390fd5b83600560008781526020019081526020016000206005019080519060200190611975929190612330565b5060016005600087815260200190815260200160002060070160006101000a81548160ff021916908315150217905550600192507f8ad5b2a8a67cf2b47830751d7e1f108f7b52189d45c75420be83e1f60bfc992f82826040516119da929190612e91565b60405180910390a1505092915050565b60006040518060800160405280605281526020016131e36052913980519060200120858051906020012083805190602001208587604051602001611a32959493929190612c91565b604051602081830303815290604052805190602001209050949350505050565b6000600260009054906101000a900473ffffffffffffffffffffffffffffffffffffffff1673ffffffffffffffffffffffffffffffffffffffff166331e91732611a9a6120d6565b611ae86000368080601f016020809104026020016040519081016040528093929190818152602001838380828437600081840152601f19601f82011690508083019250505050505050611708565b6040518363ffffffff1660e01b8152600401611b05929190612ce4565b602060405180830381600087803b158015611b1f57600080fd5b505af1158015611b33573d6000803e3d6000fd5b505050506040513d601f19601f82011682018060405250810190611b5791906125cb565b5060056008811115611b6557fe5b600560008481526020019081526020016000206006015414611bbc576040517f08c379a0000000000000000000000000000000000000000000000000000000008152600401611bb390612f57565b60405180910390fd5b60066008811115611bc957fe5b60056000848152602001908152602001600020600601819055507f265e4d1088fe67daf5253d3cdcc05c620d2334d64afbd2af5f9c7ed2cb72e9c3611c526000368080601f016020809104026020016040519081016040528093929190818152602001838380828437600081840152601f19601f82011690508083019250505050505050611708565b604051611c5f9190612d0d565b60405180910390a160019050919050565b6000600260009054906101000a900473ffffffffffffffffffffffffffffffffffffffff1673ffffffffffffffffffffffffffffffffffffffff166331e91732611cb86120d6565b611d066000368080601f016020809104026020016040519081016040528093929190818152602001838380828437600081840152601f19601f82011690508083019250505050505050611708565b6040518363ffffffff1660e01b8152600401611d23929190612ce4565b602060405180830381600087803b158015611d3d57600080fd5b505af1158015611d51573d6000803e3d6000fd5b505050506040513d601f19601f82011682018060405250810190611d7591906125cb565b506040518061012001604052808581526020016000151581526020018381526020018473ffffffffffffffffffffffffffffffffffffffff16815260200160405180602001604052806000815250815260200160405180602001604052806000815250815260200160006008811115611dea57fe5b815260200160001515815260200160008152506005600060045481526020019081526020016000206000820151816000019080519060200190611e2e929190612330565b5060208201518160010160006101000a81548160ff0219169083151502179055506040820151816002019080519060200190611e6b929190612330565b5060608201518160030160006101000a81548173ffffffffffffffffffffffffffffffffffffffff021916908373ffffffffffffffffffffffffffffffffffffffff1602179055506080820151816004019080519060200190611ecf929190612330565b5060a0820151816005019080519060200190611eec929190612330565b5060c0820151816006015560e08201518160070160006101000a81548160ff02191690831515021790555061010082015181600801559050506004600081548092919060010191905055506000600260009054906101000a900473ffffffffffffffffffffffffffffffffffffffff1673ffffffffffffffffffffffffffffffffffffffff16635e85d175600454604051602001611f8a9190612c25565b604051602081830303815290604052611fe76000368080601f016020809104026020016040519081016040528093929190818152602001838380828437600081840152601f19601f82011690508083019250505050505050611708565b6040518363ffffffff1660e01b8152600401612004929190612d28565b602060405180830381600087803b15801561201e57600080fd5b505af1158015612032573d6000803e3d6000fd5b505050506040513d601f19601f820116820180604052508101906120569190612799565b90507ff258436627a433127b0f4cd94e816d2c577f69116e5b0f9f1540f0d2aef9b239816040516120879190612f77565b60405180910390a16004547f91123c4f4944abc978a97a8ad6bcbef27a6d8df85443037fc11ea9ad3d78ab43866040516120c19190612d58565b60405180910390a26004549150509392505050565b6000600260009054906101000a900473ffffffffffffffffffffffffffffffffffffffff1673ffffffffffffffffffffffffffffffffffffffff1663b1e4f13e30600a6040518363ffffffff1660e01b8152600401612136929190612ee8565b60206040518083038186803b15801561214e57600080fd5b505afa158015612162573d6000803e3d6000fd5b505050506040513d601f19601f8201168201806040525081019061218691906125f4565b905090565b6000600260009054906101000a900473ffffffffffffffffffffffffffffffffffffffff1673ffffffffffffffffffffffffffffffffffffffff166331e917326121d36120d6565b6122216000368080601f016020809104026020016040519081016040528093929190818152602001838380828437600081840152601f19601f82011690508083019250505050505050611708565b6040518363ffffffff1660e01b815260040161223e929190612ce4565b602060405180830381600087803b15801561225857600080fd5b505af115801561226c573d6000803e3d6000fd5b505050506040513d601f19601f8201168201806040525081019061229091906125cb565b506001600881111561229e57fe5b6005600084815260200190815260200160002060060181905550817f3b65c09ad63e8c04df5eac60ae4b62d97477015d95a27bd0ae66cd5231f9693260405160405180910390a260019050919050565b60008083838101906123009190612770565b90506005600082815260200190815260200160002060070160009054906101000a900460ff169150509392505050565b828054600181600116156101000203166002900490600052602060002090601f01602090048101928261236657600085556123ad565b82601f1061237f57805160ff19168380011785556123ad565b828001600101855582156123ad579182015b828111156123ac578251825591602001919060010190612391565b5b5090506123ba91906123be565b5090565b5b808211156123d75760008160009055506001016123bf565b5090565b60006123ee6123e984612fc3565b612f92565b90508281526020810184848401111561240657600080fd5b6124118482856130f6565b509392505050565b600061242c61242784612ff3565b612f92565b90508281526020810184848401111561244457600080fd5b61244f8482856130f6565b509392505050565b60008135905061246681613186565b92915050565b60008135905061247b8161319d565b92915050565b6000815190506124908161319d565b92915050565b6000815190506124a5816131b4565b92915050565b60008083601f8401126124bd57600080fd5b8235905067ffffffffffffffff8111156124d657600080fd5b6020830191508360018202830111156124ee57600080fd5b9250929050565b600082601f83011261250657600080fd5b81356125168482602086016123db565b91505092915050565b600082601f83011261253057600080fd5b8135612540848260208601612419565b91505092915050565b600081359050612558816131cb565b92915050565b60008151905061256d816131cb565b92915050565b60008060006040848603121561258857600080fd5b600061259686828701612457565b935050602084013567ffffffffffffffff8111156125b357600080fd5b6125bf868287016124ab565b92509250509250925092565b6000602082840312156125dd57600080fd5b60006125eb84828501612481565b91505092915050565b60006020828403121561260657600080fd5b600061261484828501612496565b91505092915050565b60006020828403121561262f57600080fd5b600082013567ffffffffffffffff81111561264957600080fd5b612655848285016124f5565b91505092915050565b60008060006060848603121561267357600080fd5b600084013567ffffffffffffffff81111561268d57600080fd5b6126998682870161251f565b93505060206126aa86828701612457565b925050604084013567ffffffffffffffff8111156126c757600080fd5b6126d38682870161251f565b9150509250925092565b600080600080608085870312156126f357600080fd5b600085013567ffffffffffffffff81111561270d57600080fd5b6127198782880161251f565b945050602061272a87828801612457565b935050604061273b87828801612549565b925050606085013567ffffffffffffffff81111561275857600080fd5b6127648782880161251f565b91505092959194509250565b60006020828403121561278257600080fd5b600061279084828501612549565b91505092915050565b6000602082840312156127ab57600080fd5b60006127b98482850161255e565b91505092915050565b6000806000606084860312156127d757600080fd5b60006127e586828701612549565b93505060206127f686828701612457565b925050604084013567ffffffffffffffff81111561281357600080fd5b61281f8682870161251f565b9150509250925092565b6000806040838503121561283c57600080fd5b600061284a85828601612549565b925050602061285b8582860161246c565b9150509250929050565b6000806040838503121561287857600080fd5b600061288685828601612549565b925050602083013567ffffffffffffffff8111156128a357600080fd5b6128af8582860161251f565b9150509250929050565b600080600080608085870312156128cf57600080fd5b60006128dd87828801612549565b945050602085013567ffffffffffffffff8111156128fa57600080fd5b6129068782880161251f565b935050604061291787828801612457565b925050606085013567ffffffffffffffff81111561293457600080fd5b6129408782880161251f565b91505092959194509250565b6000806040838503121561295f57600080fd5b600061296d85828601612549565b925050602061297e85828601612549565b9150509250929050565b61299181613066565b82525050565b6129a081613078565b82525050565b6129b76129b282613078565b613138565b82525050565b6129c681613084565b82525050565b6129d58161308e565b82525050565b60006129e682613023565b6129f08185613039565b9350612a00818560208601613105565b612a0981613168565b840191505092915050565b612a1d816130e4565b82525050565b6000612a2e8261302e565b612a38818561304a565b9350612a48818560208601613105565b612a5181613168565b840191505092915050565b6000612a678261302e565b612a71818561305b565b9350612a81818560208601613105565b80840191505092915050565b6000612a9a60148361304a565b91507f52554320616c72656164792076657269666965640000000000000000000000006000830152602082019050919050565b6000612ada60148361304a565b91507f54657374416374696f6e5341436f6e74726163740000000000000000000000006000830152602082019050919050565b6000612b1a60158361304a565b91507f4e616d6520616c726561647920766572696669656400000000000000000000006000830152602082019050919050565b6000612b5a600d8361304a565b91507f496e76616c6964207374617465000000000000000000000000000000000000006000830152602082019050919050565b6000612b9a60018361304a565b91507f31000000000000000000000000000000000000000000000000000000000000006000830152602082019050919050565b612bd6816130da565b82525050565b612bed612be8826130da565b61314a565b82525050565b6000612bff82846129a6565b60018201915081905092915050565b6000612c1a8284612a5c565b915081905092915050565b6000612c318284612bdc565b60208201915081905092915050565b6000602082019050612c556000830184612988565b92915050565b6000602082019050612c706000830184612997565b92915050565b6000602082019050612c8b60008301846129bd565b92915050565b600060a082019050612ca660008301886129bd565b612cb360208301876129bd565b612cc060408301866129bd565b612ccd6060830185612bcd565b612cda6080830184612988565b9695505050505050565b6000604082019050612cf960008301856129bd565b612d0660208301846129cc565b9392505050565b6000602082019050612d2260008301846129cc565b92915050565b60006040820190508181036000830152612d4281856129db565b9050612d5160208301846129cc565b9392505050565b60006020820190508181036000830152612d728184612a23565b905092915050565b60006040820190508181036000830152612d948185612a23565b9050612da36020830184612988565b9392505050565b60006060820190508181036000830152612dc48186612a23565b9050612dd36020830185612988565b612de06040830184612bcd565b949350505050565b6000610120820190508181036000830152612e03818c612a23565b9050612e12602083018b612997565b8181036040830152612e24818a612a23565b9050612e336060830189612988565b8181036080830152612e458188612a23565b905081810360a0830152612e598187612a23565b9050612e6860c0830186612bcd565b612e7560e0830185612997565b612e83610100830184612bcd565b9a9950505050505050505050565b60006040820190508181036000830152612eab8185612a23565b90508181036020830152612ebf81846129db565b90509392505050565b60006020820190508181036000830152612ee181612a8d565b9050919050565b60006080820190508181036000830152612f0181612acd565b9050612f106020830185612988565b612f1d6040830184612a14565b8181036060830152612f2e81612b8d565b90509392505050565b60006020820190508181036000830152612f5081612b0d565b9050919050565b60006020820190508181036000830152612f7081612b4d565b9050919050565b6000602082019050612f8c6000830184612bcd565b92915050565b6000604051905081810181811067ffffffffffffffff82111715612fb957612fb8613166565b5b8060405250919050565b600067ffffffffffffffff821115612fde57612fdd613166565b5b601f19601f8301169050602081019050919050565b600067ffffffffffffffff82111561300e5761300d613166565b5b601f19601f8301169050602081019050919050565b600081519050919050565b600081519050919050565b600082825260208201905092915050565b600082825260208201905092915050565b600081905092915050565b6000613071826130ba565b9050919050565b60008115159050919050565b6000819050919050565b60007fffffffff0000000000000000000000000000000000000000000000000000000082169050919050565b600073ffffffffffffffffffffffffffffffffffffffff82169050919050565b6000819050919050565b60006130ef826130da565b9050919050565b82818337600083830152505050565b60005b83811015613123578082015181840152602081019050613108565b83811115613132576000848401525b50505050565b600061314382613154565b9050919050565b6000819050919050565b600061315f82613179565b9050919050565bfe5b6000601f19601f8301169050919050565b60008160f81b9050919050565b61318f81613066565b811461319a57600080fd5b50565b6131a681613078565b81146131b157600080fd5b50565b6131bd81613084565b81146131c857600080fd5b50565b6131d4816130da565b81146131df57600080fd5b5056fe454950373132446f6d61696e28737472696e67206e616d652c737472696e672076657273696f6e2c75696e7432353620636861696e49642c6164647265737320766572696679696e67436f6e747261637429a264697066735822122047189ddce08e749db98cf66d0cdac96da0a55b69455bd319627ddf75151b153f64736f6c63430007060033",
  "immutableReferences": {},
  "source": "pragma solidity ^0.7.0;\npragma experimental ABIEncoderV2;\n\nimport \"./MinLibBytes.sol\";\nimport \"./MessageRoute.sol\";\nimport \"./StateRelayer.sol\";\nimport \"./Utils.sol\";\nimport \"./Maintainer.sol\";\n\ncontract TestActionSAContract is MessageRoute, Utils {\n    address public owner;\n    Maintainer private maintainer;\n    StateRelayer private stateRelayer;\n    struct SociedadAnonima {\n        // Company Name\n        string name;\n        // Has been verfied\n        bool verifiedName;\n        // JSON Schema(Name, Activity, Members, Address, Expires, AdditionalLegalDocs, Notary)\n        string metadataURI;\n        // agent\n        address legalResidentAgent;\n        string legalResidentAgentDID;\n        // RUC\n        string ruc;\n        uint256 status;\n        // Has been verified\n        bool verifiedRuc;\n        uint256 memberCount;\n    }\n\n    struct Member {\n        string did;\n        address member;\n    }\n\n    mapping(uint256 => mapping(uint256 => Member)) public members;\n\n    enum WorkflowState {\n        SearchName,\n        RequestKYC,\n        AddMembers,\n        KYCCompleted,\n        RegisterCompany, // Name, Members, Capital,\n        NotaryStamped,\n        Registered,\n        OperationsRequested,\n        OperationsNoticeCompleted\n    }\n\n    event RequestBoardMembersKYC(uint256 indexed id);\n\n    event CompanyAdded(string name, uint256 indexed id);\n\n    event MemberAdded(\n        string memberDID,\n        address member,\n        uint256 companyId,\n        uint256 indexed id\n    );\n\n    event CompanyRegistered(string name, string ruc, uint256 indexed id);\n\n    uint256 public counter;\n    mapping(uint256 => SociedadAnonima) public companies;\n\n    constructor(\n        address _owner,\n        address _maintainer,\n        address _stateRelayer\n    ) {\n        maintainer = Maintainer(_maintainer);\n        owner = _owner;\n        stateRelayer = StateRelayer(_stateRelayer);\n    }\n\n    /* Async Message Flow Functions */\n\n    /* Property Getters and Setters */\n    // Has Valid Name verifies company name has been completed\n    function hasValidName(address caller, bytes calldata params)\n        external\n        returns (bool)\n    {\n        uint256 id = abi.decode(params, (uint256));\n        return companies[id].verifiedName;\n    }\n\n    // Sets a valid name\n    function setValidName(uint256 id, bool ok)\n        public\n        propertyChange(\"verifiedName\", abi.encodePacked(ok))\n        returns (bool)\n    {\n        require(companies[id].verifiedName == false, \"Name already verified\");\n        companies[id].verifiedName = ok;\n        return true;\n    }\n\n    function setRUC(uint256 id, string memory ruc)\n        public\n        propertyChange(\"ruc\", abi.encodePacked(ruc))\n        returns (bool)\n    {\n        require(companies[id].verifiedRuc == false, \"RUC already verified\");\n        companies[id].ruc = ruc;\n        companies[id].verifiedRuc = true;\n        return true;\n    }\n\n    function hasRUC(address caller, bytes calldata params)\n        external\n        returns (bool)\n    {\n        uint256 id = abi.decode(params, (uint256));\n        return companies[id].verifiedRuc;\n    }\n\n    function hasMemberKYCCompleted(address caller, bytes calldata params)\n        external\n        returns (bool)\n    {\n        uint256 id = abi.decode(params, (uint256));\n        return companies[id].status == uint256(WorkflowState.KYCCompleted);\n    }\n\n    function hasRegistered(address caller, bytes calldata params)\n        external\n        returns (bool)\n    {\n        uint256 id = abi.decode(params, (uint256));\n        return companies[id].status == uint256(WorkflowState.Registered);\n    }\n\n    function hasNotarized(address caller, bytes calldata params)\n        external\n        returns (bool)\n    {\n        uint256 id = abi.decode(params, (uint256));\n        return companies[id].status == uint256(WorkflowState.NotaryStamped);\n    }\n\n    function setStatus(uint256 id, uint256 status)\n        public\n        propertyChange(\"status\", abi.encodePacked(status))\n        returns (bool)\n    {\n        companies[id].status = status;\n        bytes memory params = abi.encodePacked(status);\n        return true;\n    }\n\n    function hasStatus(address caller, bytes calldata params)\n        external\n        returns (bool)\n    {\n        uint256 id = abi.decode(params, (uint256));\n        return companies[id].status == id;\n    }\n\n    function getDomain() public view returns (bytes32) {\n       \n        return\n            stateRelayer.getDomainSeparator(\n                \"TestActionSAContract\",\n                address(this),\n                10,\n                \"1\"\n            );\n    }\n\n    // Create SA\n    function propose(\n        string memory name,\n        address agent,\n        string memory metadataURI\n    ) public returns (uint256) {\n        stateRelayer.validateState(getDomain(), getMethodSig(msg.data));\n\n        companies[counter] = SociedadAnonima({\n            name: name,\n            ruc: \"\",\n                                                                                                            verifiedName: false,\n            verifiedRuc: false,\n            status: uint256(WorkflowState.SearchName),\n            legalResidentAgent: agent,\n            legalResidentAgentDID: \"\",\n            metadataURI: metadataURI,\n            memberCount: 0\n        });\n        counter++;\n\n        uint256 jobCounter =\n            stateRelayer.addJob(\n                abi.encodePacked(counter),\n                getMethodSig(msg.data)\n            );\n\n        emit MessageRelayed(jobCounter);\n\n        emit CompanyAdded(name, counter);\n\n        return counter;\n    }\n\n    function addMemberKYC(\n        uint256 id,\n        address member,\n        string memory did\n    ) public returns (uint256) {\n        stateRelayer.validateState(getDomain(), getMethodSig(msg.data));\n        require(\n            companies[id].status == uint256(WorkflowState.RequestKYC),\n            \"Invalid state\"\n        );\n\n        uint256 memberId = companies[id].memberCount;\n        members[id][memberId] = Member({did: did, member: member});\n\n        companies[id].memberCount = companies[id].memberCount + 1;\n\n        uint256 jobCounter =\n            stateRelayer.addJob(\n                abi.encodePacked(counter),\n                getMethodSig(msg.data)\n            );\n\n        emit MessageRelayed(jobCounter);\n\n        emit MemberAdded(did, member, id, memberId);\n\n        return memberId;\n    }\n\n    // Client must call setStatus once he enrolls 3 KYC Profiles\n\n    // Register SA\n    function register(\n        uint256 id,\n        string memory metadataURI,\n        address legalResidentAgent,\n        string memory legalResidentAgentDID\n    ) public returns (bool) {\n        stateRelayer.validateState(getDomain(), getMethodSig(msg.data));\n\n        require(\n            companies[id].status == uint256(WorkflowState.AddMembers),\n            \"Invalid state\"\n        );\n\n        companies[id].legalResidentAgent = legalResidentAgent;\n        companies[id].legalResidentAgentDID = legalResidentAgentDID;\n        companies[id].metadataURI = metadataURI;\n        companies[id].status = uint256(WorkflowState.RegisterCompany);\n\n        uint256 jobCounter =\n            stateRelayer.addJob(\n                abi.encodePacked(counter),\n                getMethodSig(msg.data)\n            );\n\n        emit MessageRelayed(jobCounter);\n\n        return true;\n    }\n\n    function notaryStamp(uint256 id) public returns (bool) {\n        stateRelayer.validateState(getDomain(), getMethodSig(msg.data));\n\n        require(\n            companies[id].status == uint256(WorkflowState.RegisterCompany),\n            \"Invalid state\"\n        );\n\n        companies[id].status = uint256(WorkflowState.NotaryStamped);\n\n        uint256 jobCounter =\n            stateRelayer.addJob(\n                abi.encodePacked(counter),\n                getMethodSig(msg.data)\n            );\n\n        emit MessageRelayed(jobCounter);\n\n        return true;\n    }\n\n    function requestKYC(uint256 id) public returns (bool) {\n        stateRelayer.validateState(getDomain(), getMethodSig(msg.data));\n\n        companies[id].status = uint256(WorkflowState.RequestKYC);\n\n        emit RequestBoardMembersKYC(id);\n\n        return true;\n    }\n\n    function completeCompanyRegistration(uint256 id) public returns (bool) {\n        stateRelayer.validateState(getDomain(), getMethodSig(msg.data));\n\n        require(\n            companies[id].status == uint256(WorkflowState.NotaryStamped),\n            \"Invalid state\"\n        );\n\n        companies[id].status = uint256(WorkflowState.Registered);\n\n        emit ActionChanged(getMethodSig(msg.data));\n\n        return true;\n    }\n\n    //    function setMaintainer(\n    //         address caller,\n    //         bytes memory params\n    //     ) public  returns(bool) {\n    //         (uint id) =\n    //         abi.decode(\n    //             params,\n    //             (uint)\n    //         );\n\n    //         require(companies[id].status == uint(WorkflowState.NotaryStamped), \"Invalid state\");\n\n    //         companies[id].status = uint(WorkflowState.Registered);\n\n    //         emit ActionChanged(\n    //             getMethodSig(msg.data),\n    //             params\n    //         );\n\n    //         return true;\n    //     }\n}\n",
  "sourcePath": "/home/rogelio/Code/xdv/electronic-sa-contracts/contracts/TestActionSAContract.sol",
  "compiler": {
    "name": "solc",
    "version": "0.7.6+commit.7338295f.Emscripten.clang"
  },
  "schemaVersion": "3.3.3",
  "updatedAt": "2021-02-13T12:39:15.705Z",
  "devdoc": {
    "kind": "dev",
    "methods": {},
    "version": 1
  },
  "userdoc": {
    "kind": "user",
    "methods": {},
    "version": 1
  }
}