{
  "contractName": "TestActionSAContract",
  "abi": [
    {
      "inputs": [
        {
          "internalType": "address",
          "name": "_owner",
          "type": "address"
        },
        {
          "internalType": "address",
          "name": "_maintainer",
          "type": "address"
        },
        {
          "internalType": "address",
          "name": "_relayJob",
          "type": "address"
        }
      ],
      "stateMutability": "nonpayable",
      "type": "constructor"
    },
    {
      "anonymous": false,
      "inputs": [
        {
          "indexed": false,
          "internalType": "bytes4",
          "name": "methodSig",
          "type": "bytes4"
        }
      ],
      "name": "ActionChanged",
      "type": "event"
    },
    {
      "anonymous": false,
      "inputs": [
        {
          "indexed": false,
          "internalType": "string",
          "name": "name",
          "type": "string"
        },
        {
          "indexed": true,
          "internalType": "uint256",
          "name": "id",
          "type": "uint256"
        },
        {
          "indexed": false,
          "internalType": "uint256",
          "name": "jobId",
          "type": "uint256"
        },
        {
          "indexed": false,
          "internalType": "uint256",
          "name": "escrowedAssignmentId",
          "type": "uint256"
        }
      ],
      "name": "CompanyAdded",
      "type": "event"
    },
    {
      "anonymous": false,
      "inputs": [
        {
          "indexed": false,
          "internalType": "string",
          "name": "name",
          "type": "string"
        },
        {
          "indexed": false,
          "internalType": "string",
          "name": "ruc",
          "type": "string"
        },
        {
          "indexed": true,
          "internalType": "uint256",
          "name": "id",
          "type": "uint256"
        }
      ],
      "name": "CompanyRegistered",
      "type": "event"
    },
    {
      "anonymous": false,
      "inputs": [
        {
          "indexed": false,
          "internalType": "string",
          "name": "memberDID",
          "type": "string"
        },
        {
          "indexed": false,
          "internalType": "address",
          "name": "member",
          "type": "address"
        },
        {
          "indexed": false,
          "internalType": "uint256",
          "name": "companyId",
          "type": "uint256"
        },
        {
          "indexed": true,
          "internalType": "uint256",
          "name": "id",
          "type": "uint256"
        }
      ],
      "name": "MemberAdded",
      "type": "event"
    },
    {
      "anonymous": false,
      "inputs": [
        {
          "indexed": false,
          "internalType": "address",
          "name": "controller",
          "type": "address"
        },
        {
          "indexed": false,
          "internalType": "bytes4",
          "name": "selector",
          "type": "bytes4"
        },
        {
          "indexed": false,
          "internalType": "uint256",
          "name": "jobId",
          "type": "uint256"
        }
      ],
      "name": "MessageRequestCompleted",
      "type": "event"
    },
    {
      "anonymous": false,
      "inputs": [
        {
          "indexed": false,
          "internalType": "string",
          "name": "propName",
          "type": "string"
        },
        {
          "indexed": false,
          "internalType": "bytes",
          "name": "data",
          "type": "bytes"
        }
      ],
      "name": "PropertyChanged",
      "type": "event"
    },
    {
      "anonymous": false,
      "inputs": [
        {
          "indexed": true,
          "internalType": "uint256",
          "name": "id",
          "type": "uint256"
        }
      ],
      "name": "RequestBoardMembersKYC",
      "type": "event"
    },
    {
      "anonymous": false,
      "inputs": [
        {
          "indexed": false,
          "internalType": "address",
          "name": "caller",
          "type": "address"
        },
        {
          "indexed": false,
          "internalType": "bytes4",
          "name": "methodName",
          "type": "bytes4"
        },
        {
          "indexed": false,
          "internalType": "bool",
          "name": "enable",
          "type": "bool"
        }
      ],
      "name": "UserWhitelistChanged",
      "type": "event"
    },
    {
      "inputs": [
        {
          "internalType": "address",
          "name": "",
          "type": "address"
        },
        {
          "internalType": "bytes4",
          "name": "",
          "type": "bytes4"
        }
      ],
      "name": "actionWhitelisting",
      "outputs": [
        {
          "internalType": "bool",
          "name": "",
          "type": "bool"
        }
      ],
      "stateMutability": "view",
      "type": "function",
      "constant": true
    },
    {
      "inputs": [
        {
          "internalType": "uint256",
          "name": "",
          "type": "uint256"
        }
      ],
      "name": "companies",
      "outputs": [
        {
          "internalType": "string",
          "name": "name",
          "type": "string"
        },
        {
          "internalType": "bool",
          "name": "verifiedName",
          "type": "bool"
        },
        {
          "internalType": "string",
          "name": "metadataURI",
          "type": "string"
        },
        {
          "internalType": "address",
          "name": "legalResidentAgent",
          "type": "address"
        },
        {
          "internalType": "string",
          "name": "legalResidentAgentDID",
          "type": "string"
        },
        {
          "internalType": "string",
          "name": "ruc",
          "type": "string"
        },
        {
          "internalType": "uint256",
          "name": "status",
          "type": "uint256"
        },
        {
          "internalType": "bool",
          "name": "verifiedRuc",
          "type": "bool"
        },
        {
          "internalType": "uint256",
          "name": "memberCount",
          "type": "uint256"
        }
      ],
      "stateMutability": "view",
      "type": "function",
      "constant": true
    },
    {
      "inputs": [
        {
          "internalType": "uint256",
          "name": "",
          "type": "uint256"
        }
      ],
      "name": "companyJobs",
      "outputs": [
        {
          "internalType": "uint256",
          "name": "",
          "type": "uint256"
        }
      ],
      "stateMutability": "view",
      "type": "function",
      "constant": true
    },
    {
      "inputs": [],
      "name": "counter",
      "outputs": [
        {
          "internalType": "uint256",
          "name": "",
          "type": "uint256"
        }
      ],
      "stateMutability": "view",
      "type": "function",
      "constant": true
    },
    {
      "inputs": [
        {
          "internalType": "string",
          "name": "contractName",
          "type": "string"
        },
        {
          "internalType": "address",
          "name": "contractAddress",
          "type": "address"
        },
        {
          "internalType": "uint256",
          "name": "network",
          "type": "uint256"
        },
        {
          "internalType": "string",
          "name": "version",
          "type": "string"
        }
      ],
      "name": "getDomainSeparator",
      "outputs": [
        {
          "internalType": "bytes32",
          "name": "",
          "type": "bytes32"
        }
      ],
      "stateMutability": "pure",
      "type": "function",
      "constant": true
    },
    {
      "inputs": [
        {
          "internalType": "bytes",
          "name": "data",
          "type": "bytes"
        }
      ],
      "name": "getMethodSig",
      "outputs": [
        {
          "internalType": "bytes4",
          "name": "",
          "type": "bytes4"
        }
      ],
      "stateMutability": "pure",
      "type": "function",
      "constant": true
    },
    {
      "inputs": [
        {
          "internalType": "uint256",
          "name": "",
          "type": "uint256"
        },
        {
          "internalType": "uint256",
          "name": "",
          "type": "uint256"
        }
      ],
      "name": "members",
      "outputs": [
        {
          "internalType": "string",
          "name": "did",
          "type": "string"
        },
        {
          "internalType": "address",
          "name": "member",
          "type": "address"
        }
      ],
      "stateMutability": "view",
      "type": "function",
      "constant": true
    },
    {
      "inputs": [],
      "name": "owner",
      "outputs": [
        {
          "internalType": "address",
          "name": "",
          "type": "address"
        }
      ],
      "stateMutability": "view",
      "type": "function",
      "constant": true
    },
    {
      "inputs": [],
      "name": "relayJob",
      "outputs": [
        {
          "internalType": "contract RelayJob",
          "name": "",
          "type": "address"
        }
      ],
      "stateMutability": "view",
      "type": "function",
      "constant": true
    },
    {
      "inputs": [
        {
          "internalType": "address",
          "name": "caller",
          "type": "address"
        },
        {
          "internalType": "bytes4",
          "name": "fnName",
          "type": "bytes4"
        },
        {
          "internalType": "bool",
          "name": "enable",
          "type": "bool"
        }
      ],
      "name": "setUserWhitelist",
      "outputs": [
        {
          "internalType": "bool",
          "name": "",
          "type": "bool"
        }
      ],
      "stateMutability": "nonpayable",
      "type": "function"
    },
    {
      "inputs": [
        {
          "internalType": "address",
          "name": "",
          "type": "address"
        },
        {
          "internalType": "bytes4",
          "name": "",
          "type": "bytes4"
        }
      ],
      "name": "userWhitelist",
      "outputs": [
        {
          "internalType": "bool",
          "name": "",
          "type": "bool"
        }
      ],
      "stateMutability": "view",
      "type": "function",
      "constant": true
    },
    {
      "inputs": [
        {
          "internalType": "address",
          "name": "caller",
          "type": "address"
        },
        {
          "internalType": "bytes",
          "name": "params",
          "type": "bytes"
        }
      ],
      "name": "hasValidName",
      "outputs": [
        {
          "internalType": "bool",
          "name": "",
          "type": "bool"
        }
      ],
      "stateMutability": "nonpayable",
      "type": "function"
    },
    {
      "inputs": [
        {
          "internalType": "uint256",
          "name": "id",
          "type": "uint256"
        },
        {
          "internalType": "bool",
          "name": "ok",
          "type": "bool"
        },
        {
          "internalType": "bytes4",
          "name": "fnName",
          "type": "bytes4"
        }
      ],
      "name": "setValidName",
      "outputs": [
        {
          "internalType": "bool",
          "name": "",
          "type": "bool"
        }
      ],
      "stateMutability": "nonpayable",
      "type": "function"
    },
    {
      "inputs": [
        {
          "internalType": "uint256",
          "name": "id",
          "type": "uint256"
        },
        {
          "internalType": "string",
          "name": "ruc",
          "type": "string"
        }
      ],
      "name": "setRUC",
      "outputs": [
        {
          "internalType": "bool",
          "name": "",
          "type": "bool"
        }
      ],
      "stateMutability": "nonpayable",
      "type": "function"
    },
    {
      "inputs": [
        {
          "internalType": "address",
          "name": "caller",
          "type": "address"
        },
        {
          "internalType": "bytes",
          "name": "params",
          "type": "bytes"
        }
      ],
      "name": "hasRUC",
      "outputs": [
        {
          "internalType": "bool",
          "name": "",
          "type": "bool"
        }
      ],
      "stateMutability": "nonpayable",
      "type": "function"
    },
    {
      "inputs": [
        {
          "internalType": "address",
          "name": "caller",
          "type": "address"
        },
        {
          "internalType": "bytes",
          "name": "params",
          "type": "bytes"
        }
      ],
      "name": "hasMemberKYCCompleted",
      "outputs": [
        {
          "internalType": "bool",
          "name": "",
          "type": "bool"
        }
      ],
      "stateMutability": "nonpayable",
      "type": "function"
    },
    {
      "inputs": [
        {
          "internalType": "address",
          "name": "caller",
          "type": "address"
        },
        {
          "internalType": "bytes",
          "name": "params",
          "type": "bytes"
        }
      ],
      "name": "hasRegistered",
      "outputs": [
        {
          "internalType": "bool",
          "name": "",
          "type": "bool"
        }
      ],
      "stateMutability": "nonpayable",
      "type": "function"
    },
    {
      "inputs": [
        {
          "internalType": "address",
          "name": "caller",
          "type": "address"
        },
        {
          "internalType": "bytes",
          "name": "params",
          "type": "bytes"
        }
      ],
      "name": "hasNotarized",
      "outputs": [
        {
          "internalType": "bool",
          "name": "",
          "type": "bool"
        }
      ],
      "stateMutability": "nonpayable",
      "type": "function"
    },
    {
      "inputs": [
        {
          "internalType": "uint256",
          "name": "id",
          "type": "uint256"
        },
        {
          "internalType": "uint256",
          "name": "status",
          "type": "uint256"
        },
        {
          "internalType": "bytes4",
          "name": "fnName",
          "type": "bytes4"
        }
      ],
      "name": "setStatus",
      "outputs": [
        {
          "internalType": "bool",
          "name": "",
          "type": "bool"
        }
      ],
      "stateMutability": "nonpayable",
      "type": "function"
    },
    {
      "inputs": [
        {
          "internalType": "address",
          "name": "caller",
          "type": "address"
        },
        {
          "internalType": "bytes",
          "name": "params",
          "type": "bytes"
        }
      ],
      "name": "hasStatus",
      "outputs": [
        {
          "internalType": "bool",
          "name": "",
          "type": "bool"
        }
      ],
      "stateMutability": "nonpayable",
      "type": "function"
    },
    {
      "inputs": [
        {
          "internalType": "string",
          "name": "name",
          "type": "string"
        },
        {
          "internalType": "address",
          "name": "agent",
          "type": "address"
        },
        {
          "internalType": "string",
          "name": "jobMetadataURI",
          "type": "string"
        },
        {
          "internalType": "string",
          "name": "metadataURI",
          "type": "string"
        }
      ],
      "name": "propose",
      "outputs": [
        {
          "internalType": "uint256",
          "name": "",
          "type": "uint256"
        }
      ],
      "stateMutability": "nonpayable",
      "type": "function"
    },
    {
      "inputs": [
        {
          "internalType": "uint256",
          "name": "id",
          "type": "uint256"
        },
        {
          "internalType": "uint256",
          "name": "jobId",
          "type": "uint256"
        },
        {
          "internalType": "address",
          "name": "member",
          "type": "address"
        },
        {
          "internalType": "string",
          "name": "did",
          "type": "string"
        },
        {
          "internalType": "string",
          "name": "jobMetadataURI",
          "type": "string"
        }
      ],
      "name": "addMemberKYC",
      "outputs": [
        {
          "internalType": "uint256",
          "name": "",
          "type": "uint256"
        }
      ],
      "stateMutability": "nonpayable",
      "type": "function"
    },
    {
      "inputs": [
        {
          "internalType": "uint256",
          "name": "id",
          "type": "uint256"
        },
        {
          "internalType": "uint256",
          "name": "jobId",
          "type": "uint256"
        },
        {
          "internalType": "string",
          "name": "metadataURI",
          "type": "string"
        },
        {
          "internalType": "string",
          "name": "jobMetadataURI",
          "type": "string"
        },
        {
          "internalType": "address",
          "name": "legalResidentAgent",
          "type": "address"
        },
        {
          "internalType": "string",
          "name": "legalResidentAgentDID",
          "type": "string"
        }
      ],
      "name": "register",
      "outputs": [
        {
          "internalType": "bool",
          "name": "",
          "type": "bool"
        }
      ],
      "stateMutability": "nonpayable",
      "type": "function"
    },
    {
      "inputs": [
        {
          "internalType": "uint256",
          "name": "id",
          "type": "uint256"
        },
        {
          "internalType": "uint256",
          "name": "jobId",
          "type": "uint256"
        },
        {
          "internalType": "string",
          "name": "jobMetadataURI",
          "type": "string"
        }
      ],
      "name": "notaryStamp",
      "outputs": [
        {
          "internalType": "bool",
          "name": "",
          "type": "bool"
        }
      ],
      "stateMutability": "nonpayable",
      "type": "function"
    },
    {
      "inputs": [
        {
          "internalType": "uint256",
          "name": "id",
          "type": "uint256"
        },
        {
          "internalType": "uint256",
          "name": "jobId",
          "type": "uint256"
        },
        {
          "internalType": "string",
          "name": "jobMetadataURI",
          "type": "string"
        }
      ],
      "name": "requestKYC",
      "outputs": [
        {
          "internalType": "bool",
          "name": "",
          "type": "bool"
        }
      ],
      "stateMutability": "nonpayable",
      "type": "function"
    },
    {
      "inputs": [
        {
          "internalType": "uint256",
          "name": "id",
          "type": "uint256"
        },
        {
          "internalType": "uint256",
          "name": "jobId",
          "type": "uint256"
        },
        {
          "internalType": "string",
          "name": "jobMetadataURI",
          "type": "string"
        }
      ],
      "name": "completeCompanyRegistration",
      "outputs": [
        {
          "internalType": "bool",
          "name": "",
          "type": "bool"
        }
      ],
      "stateMutability": "nonpayable",
      "type": "function"
    }
  ],
  "bytecode": "0x60806040523480156200001157600080fd5b506040516200391f3803806200391f83398181016040528101906200003791906200017e565b82806000806101000a81548173ffffffffffffffffffffffffffffffffffffffff021916908373ffffffffffffffffffffffffffffffffffffffff1602179055505081600460006101000a81548173ffffffffffffffffffffffffffffffffffffffff021916908373ffffffffffffffffffffffffffffffffffffffff16021790555082600360006101000a81548173ffffffffffffffffffffffffffffffffffffffff021916908373ffffffffffffffffffffffffffffffffffffffff160217905550600560009054906101000a900473ffffffffffffffffffffffffffffffffffffffff16600560006101000a81548173ffffffffffffffffffffffffffffffffffffffff021916908373ffffffffffffffffffffffffffffffffffffffff16021790555050505062000222565b600081519050620001788162000208565b92915050565b6000806000606084860312156200019457600080fd5b6000620001a48682870162000167565b9350506020620001b78682870162000167565b9250506040620001ca8682870162000167565b9150509250925092565b6000620001e182620001e8565b9050919050565b600073ffffffffffffffffffffffffffffffffffffffff82169050919050565b6200021381620001d4565b81146200021f57600080fd5b50565b6136ed80620002326000396000f3fe608060405234801561001057600080fd5b506004361061018e5760003560e01c80637d2dc330116100de578063b1e4f13e11610097578063cf561e0b11610071578063cf561e0b14610586578063e1fde125146105b6578063e2ca7646146105e6578063e8c66d7a146106165761018e565b8063b1e4f13e146104f6578063b7cd67fb14610526578063c4455c79146105565761018e565b80637d2dc330146103fa5780638a173e3a146104185780638a5a7a69146104485780638da5cb5b146104785780639da17793146104965780639e56d4ac146104c65761018e565b806352bcec6a1161014b5780636763275c116101255780636763275c1461033a578063695922f01461036a5780636e7d4ff31461039a57806375661088146103ca5761018e565b806352bcec6a146102bc57806357ea412c146102ec57806361bc221a1461031c5761018e565b806301fc20e214610193578063079b2596146101c45780631944ad43146101f45780632813d19d14610224578063362705981461025c5780634d7fbaee1461028c575b600080fd5b6101ad60048036038101906101a891906129c8565b610646565b6040516101bb9291906130d9565b60405180910390f35b6101de60048036038101906101d991906126d3565b61072f565b6040516101eb919061301a565b60405180910390f35b61020e600480360381019061020991906126d3565b610771565b60405161021b919061301a565b60405180910390f35b61023e600480360381019061023991906128d3565b6107d6565b60405161025399989796959493929190613147565b60405180910390f35b610276600480360381019061027191906126d3565b610abe565b604051610283919061301a565b60405180910390f35b6102a660048036038101906102a19190612afa565b610afa565b6040516102b3919061301a565b60405180910390f35b6102d660048036038101906102d191906128d3565b610cb2565b6040516102e39190613305565b60405180910390f35b61030660048036038101906103019190612795565b610cca565b6040516103139190613305565b60405180910390f35b6103246110b2565b6040516103319190613305565b60405180910390f35b610354600480360381019061034f91906126d3565b6110b8565b604051610361919061301a565b60405180910390f35b610384600480360381019061037f9190612afa565b6110fb565b604051610391919061301a565b60405180910390f35b6103b460048036038101906103af91906126d3565b61127c565b6040516103c1919061301a565b60405180910390f35b6103e460048036038101906103df9190612a04565b6112bf565b6040516103f19190613305565b60405180910390f35b610402611595565b60405161040f91906130be565b60405180910390f35b610432600480360381019061042d9190612754565b6115bb565b60405161043f91906130a3565b60405180910390f35b610462600480360381019061045d9190612684565b611718565b60405161046f919061301a565b60405180910390f35b610480611890565b60405161048d9190612f75565b60405180910390f35b6104b060048036038101906104ab9190612afa565b6118b6565b6040516104bd919061301a565b60405180910390f35b6104e060048036038101906104db9190612974565b6119fc565b6040516104ed919061301a565b60405180910390f35b610510600480360381019061050b9190612840565b611c90565b60405161051d9190613035565b60405180910390f35b610540600480360381019061053b9190612aab565b611cf8565b60405161054d919061301a565b60405180910390f35b610570600480360381019061056b9190612648565b611ebc565b60405161057d919061301a565b60405180910390f35b6105a0600480360381019061059b9190612925565b611eeb565b6040516105ad919061301a565b60405180910390f35b6105d060048036038101906105cb91906126d3565b612107565b6040516105dd919061301a565b60405180910390f35b61060060048036038101906105fb9190612648565b612149565b60405161060d919061301a565b60405180910390f35b610630600480360381019061062b9190612b61565b612178565b60405161063d919061301a565b60405180910390f35b600660205281600052604060002060205280600052604060002060009150915050806000018054600181600116156101000203166002900480601f0160208091040260200160405190810160405280929190818152602001828054600181600116156101000203166002900480156106ff5780601f106106d4576101008083540402835291602001916106ff565b820191906000526020600020905b8154815290600101906020018083116106e257829003601f168201915b5050505050908060010160009054906101000a900473ffffffffffffffffffffffffffffffffffffffff16905082565b600080838381019061074191906128d3565b90506008600082815260200190815260200160002060010160009054906101000a900460ff169150509392505050565b600080838381019061078391906128d3565b90506003600881111561079257fe5b60086000838152602001908152602001600020600601541480156107cc575060026008600083815260200190815260200160002060080154115b9150509392505050565b6008602052806000526040600020600091509050806000018054600181600116156101000203166002900480601f0160208091040260200160405190810160405280929190818152602001828054600181600116156101000203166002900480156108825780601f1061085757610100808354040283529160200191610882565b820191906000526020600020905b81548152906001019060200180831161086557829003601f168201915b5050505050908060010160009054906101000a900460ff1690806002018054600181600116156101000203166002900480601f0160208091040260200160405190810160405280929190818152602001828054600181600116156101000203166002900480156109335780601f1061090857610100808354040283529160200191610933565b820191906000526020600020905b81548152906001019060200180831161091657829003601f168201915b5050505050908060030160009054906101000a900473ffffffffffffffffffffffffffffffffffffffff1690806004018054600181600116156101000203166002900480601f0160208091040260200160405190810160405280929190818152602001828054600181600116156101000203166002900480156109f75780601f106109cc576101008083540402835291602001916109f7565b820191906000526020600020905b8154815290600101906020018083116109da57829003601f168201915b505050505090806005018054600181600116156101000203166002900480601f016020809104026020016040519081016040528092919081815260200182805460018160011615610100020316600290048015610a955780601f10610a6a57610100808354040283529160200191610a95565b820191906000526020600020905b815481529060010190602001808311610a7857829003601f168201915b5050505050908060060154908060070160009054906101000a900460ff16908060080154905089565b60008060008484810190610ad291906129c8565b9150915080600860008481526020019081526020016000206006015414925050509392505050565b600060046008811115610b0957fe5b600860008681526020019081526020016000206006015414610b60576040517f08c379a0000000000000000000000000000000000000000000000000000000008152600401610b57906132c5565b60405180910390fd5b60056008811115610b6d57fe5b6008600086815260200190815260200160002060060181905550600560009054906101000a900473ffffffffffffffffffffffffffffffffffffffff1673ffffffffffffffffffffffffffffffffffffffff1663cf37b15a8486604051602001610bd79190612ef5565b604051602081830303815290604052610c346000368080601f016020809104026020016040519081016040528093929190818152602001838380828437600081840152601f19601f820116905080830192505050505050506115bb565b866040518563ffffffff1660e01b8152600401610c549493929190613349565b602060405180830381600087803b158015610c6e57600080fd5b505af1158015610c82573d6000803e3d6000fd5b505050506040513d601f19601f82011682018060405250810190610ca6919061272b565b50600190509392505050565b60096020528060005260406000206000915090505481565b60006040518061012001604052808681526020016000151581526020018381526020018573ffffffffffffffffffffffffffffffffffffffff16815260200160405180602001604052806000815250815260200160405180602001604052806000815250815260200160006008811115610d4057fe5b815260200160001515815260200160008152506008600060075481526020019081526020016000206000820151816000019080519060200190610d84929190612405565b5060208201518160010160006101000a81548160ff0219169083151502179055506040820151816002019080519060200190610dc1929190612405565b5060608201518160030160006101000a81548173ffffffffffffffffffffffffffffffffffffffff021916908373ffffffffffffffffffffffffffffffffffffffff1602179055506080820151816004019080519060200190610e25929190612405565b5060a0820151816005019080519060200190610e42929190612405565b5060c0820151816006015560e08201518160070160006101000a81548160ff02191690831515021790555061010082015181600801559050506007600081548092919060010191905055506000600560009054906101000a900473ffffffffffffffffffffffffffffffffffffffff1673ffffffffffffffffffffffffffffffffffffffff1663c9e53d4633600754604051602001610ee19190612ef5565b604051602081830303815290604052610f3e6000368080601f016020809104026020016040519081016040528093929190818152602001838380828437600081840152601f19601f820116905080830192505050505050506115bb565b886040518563ffffffff1660e01b8152600401610f5e9493929190612f90565b602060405180830381600087803b158015610f7857600080fd5b505af1158015610f8c573d6000803e3d6000fd5b505050506040513d601f19601f82011682018060405250810190610fb091906128fc565b90506000600460009054906101000a900473ffffffffffffffffffffffffffffffffffffffff1673ffffffffffffffffffffffffffffffffffffffff1663eff9f43383336040518363ffffffff1660e01b8152600401611011929190613320565b602060405180830381600087803b15801561102b57600080fd5b505af115801561103f573d6000803e3d6000fd5b505050506040513d601f19601f8201168201806040525081019061106391906128fc565b90506007547f10c760bfa4fbec2333899834f3e2fdc24f692b918655dafc28914ef6877927ba88848460405161109b93929190613227565b60405180910390a260075492505050949350505050565b60075481565b60008083838101906110ca91906128d3565b9050600660088111156110d957fe5b6008600083815260200190815260200160002060060154149150509392505050565b60006001600881111561110a57fe5b6008600086815260200190815260200160002060060181905550837f3b65c09ad63e8c04df5eac60ae4b62d97477015d95a27bd0ae66cd5231f9693260405160405180910390a2600560009054906101000a900473ffffffffffffffffffffffffffffffffffffffff1673ffffffffffffffffffffffffffffffffffffffff1663cf37b15a84866040516020016111a19190612ef5565b6040516020818303038152906040526111fe6000368080601f016020809104026020016040519081016040528093929190818152602001838380828437600081840152601f19601f820116905080830192505050505050506115bb565b866040518563ffffffff1660e01b815260040161121e9493929190613349565b602060405180830381600087803b15801561123857600080fd5b505af115801561124c573d6000803e3d6000fd5b505050506040513d601f19601f82011682018060405250810190611270919061272b565b50600190509392505050565b600080838381019061128e91906128d3565b90506005600881111561129d57fe5b6008600083815260200190815260200160002060060154149150509392505050565b6000600160088111156112ce57fe5b600860008881526020019081526020016000206006015414611325576040517f08c379a000000000000000000000000000000000000000000000000000000000815260040161131c906132c5565b60405180910390fd5b60006008600088815260200190815260200160002060080154905060405180604001604052808581526020018673ffffffffffffffffffffffffffffffffffffffff1681525060066000898152602001908152602001600020600083815260200190815260200160002060008201518160000190805190602001906113ab929190612405565b5060208201518160010160006101000a81548173ffffffffffffffffffffffffffffffffffffffff021916908373ffffffffffffffffffffffffffffffffffffffff16021790555090505060016008600089815260200190815260200160002060080154016008600089815260200190815260200160002060080181905550600560009054906101000a900473ffffffffffffffffffffffffffffffffffffffff1673ffffffffffffffffffffffffffffffffffffffff1663cf37b15a87898460405160200161147c929190612f49565b6040516020818303038152906040526114d96000368080601f016020809104026020016040519081016040528093929190818152602001838380828437600081840152601f19601f820116905080830192505050505050506115bb565b876040518563ffffffff1660e01b81526004016114f99493929190613349565b602060405180830381600087803b15801561151357600080fd5b505af1158015611527573d6000803e3d6000fd5b505050506040513d601f19601f8201168201806040525081019061154b919061272b565b50807f148174b3c28355adb77adbb0dbe613489fec345a165dd2a057bab290da9eeb2485878a60405161158093929190613109565b60405180910390a28091505095945050505050565b600560009054906101000a900473ffffffffffffffffffffffffffffffffffffffff1681565b60006018826003815181106115cc57fe5b602001015160f81c60f81b7effffffffffffffffffffffffffffffffffffffffffffffffffffffffffffff19167bffffffffffffffffffffffffffffffffffffffffffffffffffffffff1916901c60108360028151811061162957fe5b602001015160f81c60f81b7effffffffffffffffffffffffffffffffffffffffffffffffffffffffffffff19167bffffffffffffffffffffffffffffffffffffffffffffffffffffffff1916901c60088460018151811061168657fe5b602001015160f81c60f81b7effffffffffffffffffffffffffffffffffffffffffffffffffffffffffffff19167bffffffffffffffffffffffffffffffffffffffffffffffffffffffff1916901c846000815181106116e157fe5b602001015160f81c60f81b7effffffffffffffffffffffffffffffffffffffffffffffffffffffffffffff19161717179050919050565b60003373ffffffffffffffffffffffffffffffffffffffff1660008054906101000a900473ffffffffffffffffffffffffffffffffffffffff1673ffffffffffffffffffffffffffffffffffffffff16146117a8576040517f08c379a000000000000000000000000000000000000000000000000000000000815260040161179f906132e5565b60405180910390fd5b81600260008673ffffffffffffffffffffffffffffffffffffffff1673ffffffffffffffffffffffffffffffffffffffff1681526020019081526020016000206000857bffffffffffffffffffffffffffffffffffffffffffffffffffffffff19167bffffffffffffffffffffffffffffffffffffffffffffffffffffffff1916815260200190815260200160002060006101000a81548160ff0219169083151502179055507f7f41b44a4d0cf3e01e6c1dc089568e147a684629672ed575e47ff05bd1bb29a384848460405161188193929190612fe3565b60405180910390a19392505050565b600360009054906101000a900473ffffffffffffffffffffffffffffffffffffffff1681565b6000600560088111156118c557fe5b60086000868152602001908152602001600020600601541461191c576040517f08c379a0000000000000000000000000000000000000000000000000000000008152600401611913906132c5565b60405180910390fd5b6006600881111561192957fe5b6008600086815260200190815260200160002060060181905550600560009054906101000a900473ffffffffffffffffffffffffffffffffffffffff1673ffffffffffffffffffffffffffffffffffffffff1663a1c0d32f846040518263ffffffff1660e01b815260040161199e9190613305565b602060405180830381600087803b1580156119b857600080fd5b505af11580156119cc573d6000803e3d6000fd5b505050506040513d601f19601f820116820180604052508101906119f0919061272b565b50600190509392505050565b600033611a4d6000368080601f016020809104026020016040519081016040528093929190818152602001838380828437600081840152601f19601f820116905080830192505050505050506115bb565b60011515600260008473ffffffffffffffffffffffffffffffffffffffff1673ffffffffffffffffffffffffffffffffffffffff1681526020019081526020016000206000837bffffffffffffffffffffffffffffffffffffffffffffffffffffffff19167bffffffffffffffffffffffffffffffffffffffffffffffffffffffff1916815260200190815260200160002060009054906101000a900460ff16151514611b2f576040517f08c379a0000000000000000000000000000000000000000000000000000000008152600401611b26906132a5565b60405180910390fd5b6040518060400160405280600381526020017f727563000000000000000000000000000000000000000000000000000000000081525084604051602001611b769190612ede565b604051602081830303815290604052600015156008600089815260200190815260200160002060070160009054906101000a900460ff16151514611bef576040517f08c379a0000000000000000000000000000000000000000000000000000000008152600401611be690613265565b60405180910390fd5b85600860008981526020019081526020016000206005019080519060200190611c19929190612405565b5060016008600089815260200190815260200160002060070160006101000a81548160ff021916908315150217905550600194507f8ad5b2a8a67cf2b47830751d7e1f108f7b52189d45c75420be83e1f60bfc992f8282604051611c7e9291906131f0565b60405180910390a15050505092915050565b60006040518060800160405280605281526020016136666052913980519060200120858051906020012083805190602001208587604051602001611cd8959493929190613050565b604051602081830303815290604052805190602001209050949350505050565b6000338260011515600260008473ffffffffffffffffffffffffffffffffffffffff1673ffffffffffffffffffffffffffffffffffffffff1681526020019081526020016000206000837bffffffffffffffffffffffffffffffffffffffffffffffffffffffff19167bffffffffffffffffffffffffffffffffffffffffffffffffffffffff1916815260200190815260200160002060009054906101000a900460ff16151514611dde576040517f08c379a0000000000000000000000000000000000000000000000000000000008152600401611dd5906132a5565b60405180910390fd5b6040518060400160405280600681526020017f737461747573000000000000000000000000000000000000000000000000000081525085604051602001611e259190612ef5565b60405160208183030381529060405286600860008a815260200190815260200160002060060181905550600087604051602001611e629190612ef5565b604051602081830303815290604052905060019550507f8ad5b2a8a67cf2b47830751d7e1f108f7b52189d45c75420be83e1f60bfc992f8282604051611ea99291906131f0565b60405180910390a1505050509392505050565b60016020528160005260406000206020528060005260406000206000915091509054906101000a900460ff1681565b6000338260011515600260008473ffffffffffffffffffffffffffffffffffffffff1673ffffffffffffffffffffffffffffffffffffffff1681526020019081526020016000206000837bffffffffffffffffffffffffffffffffffffffffffffffffffffffff19167bffffffffffffffffffffffffffffffffffffffffffffffffffffffff1916815260200190815260200160002060009054906101000a900460ff16151514611fd1576040517f08c379a0000000000000000000000000000000000000000000000000000000008152600401611fc8906132a5565b60405180910390fd5b6040518060400160405280600c81526020017f76657269666965644e616d650000000000000000000000000000000000000000815250856040516020016120189190612ec3565b60405160208183030381529060405260001515600860008a815260200190815260200160002060010160009054906101000a900460ff16151514612091576040517f08c379a000000000000000000000000000000000000000000000000000000000815260040161208890613285565b60405180910390fd5b86600860008a815260200190815260200160002060010160006101000a81548160ff021916908315150217905550600194507f8ad5b2a8a67cf2b47830751d7e1f108f7b52189d45c75420be83e1f60bfc992f82826040516120f49291906131f0565b60405180910390a1505050509392505050565b600080838381019061211991906128d3565b90506008600082815260200190815260200160002060070160009054906101000a900460ff169150509392505050565b60026020528160005260406000206020528060005260406000206000915091509054906101000a900460ff1681565b60006002600881111561218757fe5b6008600089815260200190815260200160002060060154146121de576040517f08c379a00000000000000000000000000000000000000000000000000000000081526004016121d5906132c5565b60405180910390fd5b600260086000898152602001908152602001600020600801541161220157600080fd5b826008600089815260200190815260200160002060030160006101000a81548173ffffffffffffffffffffffffffffffffffffffff021916908373ffffffffffffffffffffffffffffffffffffffff16021790555081600860008981526020019081526020016000206004019080519060200190612280929190612405565b50846008600089815260200190815260200160002060020190805190602001906122ab929190612405565b50600460088111156122b957fe5b6008600089815260200190815260200160002060060181905550600560009054906101000a900473ffffffffffffffffffffffffffffffffffffffff1673ffffffffffffffffffffffffffffffffffffffff1663cf37b15a8789868960405160200161232793929190612f10565b6040516020818303038152906040526123846000368080601f016020809104026020016040519081016040528093929190818152602001838380828437600081840152601f19601f820116905080830192505050505050506115bb565b886040518563ffffffff1660e01b81526004016123a49493929190613349565b602060405180830381600087803b1580156123be57600080fd5b505af11580156123d2573d6000803e3d6000fd5b505050506040513d601f19601f820116820180604052508101906123f6919061272b565b50600190509695505050505050565b828054600181600116156101000203166002900490600052602060002090601f01602090048101928261243b5760008555612482565b82601f1061245457805160ff1916838001178555612482565b82800160010185558215612482579182015b82811115612481578251825591602001919060010190612466565b5b50905061248f9190612493565b5090565b5b808211156124ac576000816000905550600101612494565b5090565b60006124c36124be846133cd565b61339c565b9050828152602081018484840111156124db57600080fd5b6124e6848285613548565b509392505050565b60006125016124fc846133fd565b61339c565b90508281526020810184848401111561251957600080fd5b612524848285613548565b509392505050565b60008135905061253b81613609565b92915050565b60008135905061255081613620565b92915050565b60008151905061256581613620565b92915050565b60008135905061257a81613637565b92915050565b60008083601f84011261259257600080fd5b8235905067ffffffffffffffff8111156125ab57600080fd5b6020830191508360018202830111156125c357600080fd5b9250929050565b600082601f8301126125db57600080fd5b81356125eb8482602086016124b0565b91505092915050565b600082601f83011261260557600080fd5b81356126158482602086016124ee565b91505092915050565b60008135905061262d8161364e565b92915050565b6000815190506126428161364e565b92915050565b6000806040838503121561265b57600080fd5b60006126698582860161252c565b925050602061267a8582860161256b565b9150509250929050565b60008060006060848603121561269957600080fd5b60006126a78682870161252c565b93505060206126b88682870161256b565b92505060406126c986828701612541565b9150509250925092565b6000806000604084860312156126e857600080fd5b60006126f68682870161252c565b935050602084013567ffffffffffffffff81111561271357600080fd5b61271f86828701612580565b92509250509250925092565b60006020828403121561273d57600080fd5b600061274b84828501612556565b91505092915050565b60006020828403121561276657600080fd5b600082013567ffffffffffffffff81111561278057600080fd5b61278c848285016125ca565b91505092915050565b600080600080608085870312156127ab57600080fd5b600085013567ffffffffffffffff8111156127c557600080fd5b6127d1878288016125f4565b94505060206127e28782880161252c565b935050604085013567ffffffffffffffff8111156127ff57600080fd5b61280b878288016125f4565b925050606085013567ffffffffffffffff81111561282857600080fd5b612834878288016125f4565b91505092959194509250565b6000806000806080858703121561285657600080fd5b600085013567ffffffffffffffff81111561287057600080fd5b61287c878288016125f4565b945050602061288d8782880161252c565b935050604061289e8782880161261e565b925050606085013567ffffffffffffffff8111156128bb57600080fd5b6128c7878288016125f4565b91505092959194509250565b6000602082840312156128e557600080fd5b60006128f38482850161261e565b91505092915050565b60006020828403121561290e57600080fd5b600061291c84828501612633565b91505092915050565b60008060006060848603121561293a57600080fd5b60006129488682870161261e565b935050602061295986828701612541565b925050604061296a8682870161256b565b9150509250925092565b6000806040838503121561298757600080fd5b60006129958582860161261e565b925050602083013567ffffffffffffffff8111156129b257600080fd5b6129be858286016125f4565b9150509250929050565b600080604083850312156129db57600080fd5b60006129e98582860161261e565b92505060206129fa8582860161261e565b9150509250929050565b600080600080600060a08688031215612a1c57600080fd5b6000612a2a8882890161261e565b9550506020612a3b8882890161261e565b9450506040612a4c8882890161252c565b935050606086013567ffffffffffffffff811115612a6957600080fd5b612a75888289016125f4565b925050608086013567ffffffffffffffff811115612a9257600080fd5b612a9e888289016125f4565b9150509295509295909350565b600080600060608486031215612ac057600080fd5b6000612ace8682870161261e565b9350506020612adf8682870161261e565b9250506040612af08682870161256b565b9150509250925092565b600080600060608486031215612b0f57600080fd5b6000612b1d8682870161261e565b9350506020612b2e8682870161261e565b925050604084013567ffffffffffffffff811115612b4b57600080fd5b612b57868287016125f4565b9150509250925092565b60008060008060008060c08789031215612b7a57600080fd5b6000612b8889828a0161261e565b9650506020612b9989828a0161261e565b955050604087013567ffffffffffffffff811115612bb657600080fd5b612bc289828a016125f4565b945050606087013567ffffffffffffffff811115612bdf57600080fd5b612beb89828a016125f4565b9350506080612bfc89828a0161252c565b92505060a087013567ffffffffffffffff811115612c1957600080fd5b612c2589828a016125f4565b9150509295509295509295565b612c3b816134ee565b82525050565b612c4a81613470565b82525050565b612c61612c5c82613470565b61358a565b82525050565b612c7081613482565b82525050565b612c87612c8282613482565b61359c565b82525050565b612c968161348e565b82525050565b612ca581613498565b82525050565b6000612cb68261342d565b612cc08185613443565b9350612cd0818560208601613557565b612cd9816135de565b840191505092915050565b612ced81613500565b82525050565b6000612cfe82613438565b612d088185613454565b9350612d18818560208601613557565b612d21816135de565b840191505092915050565b6000612d3782613438565b612d418185613465565b9350612d51818560208601613557565b80840191505092915050565b6000612d6a601483613454565b91507f52554320616c72656164792076657269666965640000000000000000000000006000830152602082019050919050565b6000612daa601583613454565b91507f4e616d6520616c726561647920766572696669656400000000000000000000006000830152602082019050919050565b6000612dea600e83613454565b91507f496e76616c69642073656e6465720000000000000000000000000000000000006000830152602082019050919050565b6000612e2a600d83613454565b91507f496e76616c6964207374617465000000000000000000000000000000000000006000830152602082019050919050565b6000612e6a600e83613454565b91507f4e6f7420617574686f72697a65640000000000000000000000000000000000006000830152602082019050919050565b612ea6816134e4565b82525050565b612ebd612eb8826134e4565b6135c0565b82525050565b6000612ecf8284612c76565b60018201915081905092915050565b6000612eea8284612d2c565b915081905092915050565b6000612f018284612eac565b60208201915081905092915050565b6000612f1c8286612eac565b602082019150612f2c8285612c50565b601482019150612f3c8284612d2c565b9150819050949350505050565b6000612f558285612eac565b602082019150612f658284612eac565b6020820191508190509392505050565b6000602082019050612f8a6000830184612c41565b92915050565b6000608082019050612fa56000830187612c32565b8181036020830152612fb78186612cab565b9050612fc66040830185612c9c565b8181036060830152612fd88184612cf3565b905095945050505050565b6000606082019050612ff86000830186612c41565b6130056020830185612c9c565b6130126040830184612c67565b949350505050565b600060208201905061302f6000830184612c67565b92915050565b600060208201905061304a6000830184612c8d565b92915050565b600060a0820190506130656000830188612c8d565b6130726020830187612c8d565b61307f6040830186612c8d565b61308c6060830185612e9d565b6130996080830184612c41565b9695505050505050565b60006020820190506130b86000830184612c9c565b92915050565b60006020820190506130d36000830184612ce4565b92915050565b600060408201905081810360008301526130f38185612cf3565b90506131026020830184612c41565b9392505050565b600060608201905081810360008301526131238186612cf3565b90506131326020830185612c41565b61313f6040830184612e9d565b949350505050565b6000610120820190508181036000830152613162818c612cf3565b9050613171602083018b612c67565b8181036040830152613183818a612cf3565b90506131926060830189612c41565b81810360808301526131a48188612cf3565b905081810360a08301526131b88187612cf3565b90506131c760c0830186612e9d565b6131d460e0830185612c67565b6131e2610100830184612e9d565b9a9950505050505050505050565b6000604082019050818103600083015261320a8185612cf3565b9050818103602083015261321e8184612cab565b90509392505050565b600060608201905081810360008301526132418186612cf3565b90506132506020830185612e9d565b61325d6040830184612e9d565b949350505050565b6000602082019050818103600083015261327e81612d5d565b9050919050565b6000602082019050818103600083015261329e81612d9d565b9050919050565b600060208201905081810360008301526132be81612ddd565b9050919050565b600060208201905081810360008301526132de81612e1d565b9050919050565b600060208201905081810360008301526132fe81612e5d565b9050919050565b600060208201905061331a6000830184612e9d565b92915050565b60006040820190506133356000830185612e9d565b6133426020830184612c32565b9392505050565b600060808201905061335e6000830187612e9d565b81810360208301526133708186612cab565b905061337f6040830185612c9c565b81810360608301526133918184612cf3565b905095945050505050565b6000604051905081810181811067ffffffffffffffff821117156133c3576133c26135dc565b5b8060405250919050565b600067ffffffffffffffff8211156133e8576133e76135dc565b5b601f19601f8301169050602081019050919050565b600067ffffffffffffffff821115613418576134176135dc565b5b601f19601f8301169050602081019050919050565b600081519050919050565b600081519050919050565b600082825260208201905092915050565b600082825260208201905092915050565b600081905092915050565b600061347b826134c4565b9050919050565b60008115159050919050565b6000819050919050565b60007fffffffff0000000000000000000000000000000000000000000000000000000082169050919050565b600073ffffffffffffffffffffffffffffffffffffffff82169050919050565b6000819050919050565b60006134f982613524565b9050919050565b600061350b82613512565b9050919050565b600061351d826134c4565b9050919050565b600061352f82613536565b9050919050565b6000613541826134c4565b9050919050565b82818337600083830152505050565b60005b8381101561357557808201518184015260208101905061355a565b83811115613584576000848401525b50505050565b6000613595826135ae565b9050919050565b60006135a7826135ca565b9050919050565b60006135b9826135fc565b9050919050565b6000819050919050565b60006135d5826135ef565b9050919050565bfe5b6000601f19601f8301169050919050565b60008160f81b9050919050565b60008160601b9050919050565b61361281613470565b811461361d57600080fd5b50565b61362981613482565b811461363457600080fd5b50565b61364081613498565b811461364b57600080fd5b50565b613657816134e4565b811461366257600080fd5b5056fe454950373132446f6d61696e28737472696e67206e616d652c737472696e672076657273696f6e2c75696e7432353620636861696e49642c6164647265737320766572696679696e67436f6e747261637429a26469706673582212200298c00309286c7034b4d1b06189e300c6bf5f2b8144211b81b5de119c49811a64736f6c63430007060033",
  "immutableReferences": {},
  "source": "pragma solidity ^0.7.0;\npragma experimental ABIEncoderV2;\n\n\nimport \"./MinLibBytes.sol\";\nimport \"./MessageRoute.sol\";\nimport \"./Whitelist.sol\";\nimport \"./Maintainer.sol\";\n\ncontract TestActionSAContract is MessageRoute, Whitelist {\n    address public owner;\n    Maintainer private maintainer;\n\n    RelayJob public relayJob;\n\n    struct SociedadAnonima {\n        // Company Name\n        string name;\n        // Has been verfied\n        bool verifiedName;\n        // JSON Schema(Name, Activity, Members, Address, Expires, AdditionalLegalDocs, Notary)\n        string metadataURI;\n        // agent\n        address legalResidentAgent;\n        string legalResidentAgentDID;\n        // RUC\n        string ruc;\n        uint256 status;\n        // Has been verified\n        bool verifiedRuc;\n        uint256 memberCount;\n    }\n\n    struct Member {\n        string did;\n        address member;\n    }\n\n    mapping(uint256 => mapping(uint256 => Member)) public members;\n\n    enum WorkflowState {\n        SearchName,\n        RequestKYC,\n        AddMembers,\n        KYCCompleted,\n        RegisterCompany, // Name, Members, Capital,\n        NotaryStamped,\n        Registered,\n        OperationsRequested,\n        OperationsNoticeCompleted\n    }\n\n    event RequestBoardMembersKYC(uint256 indexed id);\n\n    event CompanyAdded(\n        string name,\n        uint256 indexed id,\n        uint256 jobId,\n        uint256 escrowedAssignmentId\n    );\n\n    event MemberAdded(\n        string memberDID,\n        address member,\n        uint256 companyId,\n        uint256 indexed id\n    );\n\n    event CompanyRegistered(string name, string ruc, uint256 indexed id);\n\n    uint256 public counter;\n    mapping(uint256 => SociedadAnonima) public companies;\n    mapping(uint256 => uint) public companyJobs;\n    \n\n    constructor(\n        address _owner,\n        address _maintainer,\n        address _relayJob\n    ) public Whitelist(_owner) {\n        maintainer = Maintainer(_maintainer);\n        owner = _owner;\n        relayJob = RelayJob(relayJob);\n    }\n\n    /* Async Message Flow Functions */\n\n    /* Property Getters and Setters */\n    // Has Valid Name verifies company name has been completed\n    function hasValidName(address caller, bytes calldata params)\n        external \n        returns (bool)\n    {\n        uint256 id = abi.decode(params, (uint256));\n        return companies[id].verifiedName;\n    }\n\n    // Sets a valid name\n    function setValidName(uint256 id, bool ok, bytes4 fnName)\n        public onlyWhitelisted(msg.sender, fnName)\n        propertyChange(\"verifiedName\", abi.encodePacked(ok))\n        returns (bool)\n    {\n        require(companies[id].verifiedName == false, \"Name already verified\");\n        companies[id].verifiedName = ok;\n        return true;\n    }\n\n    function setRUC(uint256 id, string memory ruc)\n        public onlyWhitelisted(msg.sender, getMethodSig(msg.data))\n        propertyChange(\"ruc\", abi.encodePacked(ruc))\n        returns (bool)\n    {\n        require(companies[id].verifiedRuc == false, \"RUC already verified\");\n        companies[id].ruc = ruc;\n        companies[id].verifiedRuc = true;\n        return true;\n    }\n\n    function hasRUC(address caller, bytes calldata params)\n        external \n        returns (bool)\n    {\n        uint256 id = abi.decode(params, (uint256));\n        return companies[id].verifiedRuc;\n    }\n\n    function hasMemberKYCCompleted(address caller, bytes calldata params)\n        external\n        returns (bool)\n    {\n        uint256 id = abi.decode(params, (uint256));\n        return (companies[id].status == uint256(WorkflowState.KYCCompleted) &&\n        (companies[id].memberCount > 2));\n    }\n\n    function hasRegistered(address caller, bytes calldata params)\n        external\n        returns (bool)\n    {\n        uint256 id = abi.decode(params, (uint256));\n        return companies[id].status == uint256(WorkflowState.Registered);\n    }\n\n    function hasNotarized(address caller, bytes calldata params)\n        external\n        returns (bool)\n    {\n        uint256 id = abi.decode(params, (uint256));\n        return companies[id].status == uint256(WorkflowState.NotaryStamped);\n    }\n\n    function setStatus(uint256 id, uint256 status, bytes4 fnName)\n        public onlyWhitelisted(msg.sender, fnName)\n        propertyChange(\"status\", abi.encodePacked(status))\n        returns (bool)\n    {\n        companies[id].status = status;\n        bytes memory params = abi.encodePacked(status);\n        return true;\n    }\n\n    function hasStatus(address caller, bytes calldata params)\n        external\n        returns (bool)\n    {\n        (uint256 id, uint status) = abi.decode(params, (uint256, uint));\n        return companies[id].status == status;\n    }\n    // Create SA\n    function propose(\n        string memory name,\n        address agent,\n        string memory jobMetadataURI,\n        string memory metadataURI\n    ) public returns (uint256) {\n\n        companies[counter] = SociedadAnonima({\n            name: name,\n            ruc: \"\",\n            verifiedName: false,\n            verifiedRuc: false,\n            status: uint256(WorkflowState.SearchName),\n            legalResidentAgent: agent,\n            legalResidentAgentDID: \"\",\n            metadataURI: metadataURI,\n            memberCount: 0\n        });\n        counter++;\n\n        uint256 jobCounter =\n            relayJob.addJob(\n                msg.sender,\n                abi.encodePacked(counter),\n                getMethodSig(msg.data),\n                jobMetadataURI\n            );\n\n        uint256 escrowid = maintainer.createAssignmentAndEscrow(jobCounter, msg.sender);\n        emit CompanyAdded(name, counter, jobCounter, escrowid);\n\n        return counter;\n    }\n\n    function addMemberKYC(\n        uint256 id,\n        uint256 jobId,\n        address member,\n        string memory did,\n        string memory jobMetadataURI\n    ) public returns (uint256) {\n        require(\n            companies[id].status == uint256(WorkflowState.RequestKYC),\n            \"Invalid state\"\n        );\n\n        uint256 memberId = companies[id].memberCount;\n        members[id][memberId] = Member({did: did, member: member});\n\n        companies[id].memberCount = companies[id].memberCount + 1;\n\n        relayJob.continueJob(\n            jobId,\n            abi.encodePacked(id, memberId),\n            getMethodSig(msg.data),\n            jobMetadataURI\n        );\n\n        emit MemberAdded(did, member, id, memberId);\n\n        return memberId;\n    }\n\n    // Client must call setStatus once he enrolls 3 KYC Profiles\n\n    // Register SA\n    function register(\n        uint256 id,\n        uint256 jobId,\n        string memory metadataURI,\n        string memory jobMetadataURI,\n        address legalResidentAgent,\n        string memory legalResidentAgentDID\n    ) public returns (bool) {\n\n        require(\n            companies[id].status == uint256(WorkflowState.AddMembers),\n            \"Invalid state\"\n        );\n\n        require(companies[id].memberCount > 2);\n\n        companies[id].legalResidentAgent = legalResidentAgent;\n        companies[id].legalResidentAgentDID = legalResidentAgentDID;\n        companies[id].metadataURI = metadataURI;\n        companies[id].status = uint256(WorkflowState.RegisterCompany);\n\n        relayJob.continueJob(\n            jobId,\n            abi.encodePacked(id, legalResidentAgent, metadataURI),\n            getMethodSig(msg.data),\n            jobMetadataURI\n        );\n\n        return true;\n    }\n\n    function notaryStamp(uint256 id, uint jobId, string memory jobMetadataURI) public returns (bool) {\n\n        require(\n            companies[id].status == uint256(WorkflowState.RegisterCompany),\n            \"Invalid state\"\n        );\n\n        companies[id].status = uint256(WorkflowState.NotaryStamped);\n\n        relayJob.continueJob(jobId, abi.encodePacked(id), getMethodSig(msg.data), jobMetadataURI);\n\n        return true;\n    }\n\n    function requestKYC(uint id, uint jobId, string memory jobMetadataURI) public returns (bool) {\n\n        companies[id].status = uint256(WorkflowState.RequestKYC);\n\n        emit RequestBoardMembersKYC(id);\n\n        relayJob.continueJob(jobId, abi.encodePacked(id), getMethodSig(msg.data), jobMetadataURI);\n\n        return true;\n    }\n\n    function completeCompanyRegistration(uint256 id, uint jobId, string memory jobMetadataURI) public returns (bool) {\n\n        require(\n            companies[id].status == uint256(WorkflowState.NotaryStamped),\n            \"Invalid state\"\n        );\n\n        companies[id].status = uint256(WorkflowState.Registered);\n\n        relayJob.completeJob(jobId);\n\n        return true;\n    }\n\n}\n",
  "sourcePath": "/home/rogelio/Code/xdv/electronic-sa-contracts/contracts/TestActionSAContract.sol",
  "compiler": {
    "name": "solc",
    "version": "0.7.6+commit.7338295f.Emscripten.clang"
  },
  "schemaVersion": "3.3.3",
  "updatedAt": "2021-02-16T18:23:08.294Z",
  "networkType": "ethereum",
  "devdoc": {
    "kind": "dev",
    "methods": {},
    "version": 1
  },
  "userdoc": {
    "kind": "user",
    "methods": {},
    "version": 1
  }
}