{
  "contractName": "TestMutationSAContract",
  "abi": [
    {
      "inputs": [
        {
          "internalType": "address",
          "name": "_owner",
          "type": "address"
        }
      ],
      "stateMutability": "nonpayable",
      "type": "constructor"
    },
    {
      "inputs": [
        {
          "internalType": "bytes32",
          "name": "",
          "type": "bytes32"
        }
      ],
      "name": "companies",
      "outputs": [
        {
          "internalType": "string",
          "name": "name",
          "type": "string"
        },
        {
          "internalType": "string",
          "name": "companyAddress",
          "type": "string"
        },
        {
          "internalType": "string",
          "name": "industry",
          "type": "string"
        }
      ],
      "stateMutability": "view",
      "type": "function"
    },
    {
      "inputs": [],
      "name": "owner",
      "outputs": [
        {
          "internalType": "address",
          "name": "",
          "type": "address"
        }
      ],
      "stateMutability": "view",
      "type": "function"
    },
    {
      "inputs": [],
      "name": "isRucReady",
      "outputs": [
        {
          "internalType": "bool",
          "name": "",
          "type": "bool"
        }
      ],
      "stateMutability": "nonpayable",
      "type": "function"
    }
  ],
  "bytecode": "0x608060405234801561001057600080fd5b506040516105f03803806105f08339818101604052810190610032919061008e565b80600160006101000a81548173ffffffffffffffffffffffffffffffffffffffff021916908373ffffffffffffffffffffffffffffffffffffffff16021790555050610100565b600081519050610088816100e9565b92915050565b6000602082840312156100a057600080fd5b60006100ae84828501610079565b91505092915050565b60006100c2826100c9565b9050919050565b600073ffffffffffffffffffffffffffffffffffffffff82169050919050565b6100f2816100b7565b81146100fd57600080fd5b50565b6104e18061010f6000396000f3fe608060405234801561001057600080fd5b50600436106100415760003560e01c80638a0bdeb7146100465780638da5cb5b14610078578063e85c630b14610096575b600080fd5b610060600480360381019061005b91906102ea565b6100b4565b60405161006f939291906103a0565b60405180910390f35b6100806102a6565b60405161008d919061036a565b60405180910390f35b61009e6102cc565b6040516100ab9190610385565b60405180910390f35b6000602052806000526040600020600091509050806000018054600181600116156101000203166002900480601f0160208091040260200160405190810160405280929190818152602001828054600181600116156101000203166002900480156101605780601f1061013557610100808354040283529160200191610160565b820191906000526020600020905b81548152906001019060200180831161014357829003601f168201915b505050505090806001018054600181600116156101000203166002900480601f0160208091040260200160405190810160405280929190818152602001828054600181600116156101000203166002900480156101fe5780601f106101d3576101008083540402835291602001916101fe565b820191906000526020600020905b8154815290600101906020018083116101e157829003601f168201915b505050505090806002018054600181600116156101000203166002900480601f01602080910402602001604051908101604052809291908181526020018280546001816001161561010002031660029004801561029c5780601f106102715761010080835404028352916020019161029c565b820191906000526020600020905b81548152906001019060200180831161027f57829003601f168201915b5050505050905083565b600160009054906101000a900473ffffffffffffffffffffffffffffffffffffffff1681565b60006001905090565b6000813590506102e481610494565b92915050565b6000602082840312156102fc57600080fd5b600061030a848285016102d5565b91505092915050565b61031c81610408565b82525050565b61032b8161041a565b82525050565b600061033c826103ec565b61034681856103f7565b9350610356818560208601610450565b61035f81610483565b840191505092915050565b600060208201905061037f6000830184610313565b92915050565b600060208201905061039a6000830184610322565b92915050565b600060608201905081810360008301526103ba8186610331565b905081810360208301526103ce8185610331565b905081810360408301526103e28184610331565b9050949350505050565b600081519050919050565b600082825260208201905092915050565b600061041382610430565b9050919050565b60008115159050919050565b6000819050919050565b600073ffffffffffffffffffffffffffffffffffffffff82169050919050565b60005b8381101561046e578082015181840152602081019050610453565b8381111561047d576000848401525b50505050565b6000601f19601f8301169050919050565b61049d81610426565b81146104a857600080fd5b5056fea2646970667358221220fa707436e1067f442da7801f0142509e6b4116a19a80e194f62256cbcf39ec0d64736f6c63430007060033",
  "immutableReferences": {},
  "source": "pragma solidity ^0.7.0;\npragma experimental ABIEncoderV2;\n\n\ncontract TestMutationSAContract {\n\n    struct SociedadAnonima {\n        string name;\n        string companyAddress;\n        string industry;\n    }\n\n    mapping(bytes32 => SociedadAnonima) public companies;\n\n    address public owner;\n    constructor(address _owner) {\n        owner = _owner;\n    }\n\n    function isRucReady() \n    public returns(bool) {\n        return true;\n    }\n\n\n    // Request Partner KYC\n\n    // 1) True: Stores KYC / Create DID\n\n    // 2) Emit failure\n\n    // Register issues stocks / mint something\n\n    // Sends operations start using messaging, push or something else\n    \n\n}",
  "sourcePath": "/home/rogelio/Code/xdv/electronic-sa-contracts/contracts/TestMutationSAContract.sol",
  "compiler": {
    "name": "solc",
    "version": "0.7.6+commit.7338295f.Emscripten.clang"
  },
  "schemaVersion": "3.3.3",
  "updatedAt": "2021-02-08T14:27:28.678Z",
  "devdoc": {
    "kind": "dev",
    "methods": {},
    "version": 1
  },
  "userdoc": {
    "kind": "user",
    "methods": {},
    "version": 1
  }
}