{
  "contractName": "WFlowRegistry",
  "abi": [
    {
      "inputs": [
        {
          "internalType": "address",
          "name": "tokenAddress",
          "type": "address"
        }
      ],
      "stateMutability": "nonpayable",
      "type": "constructor"
    },
    {
      "anonymous": false,
      "inputs": [
        {
          "indexed": false,
          "internalType": "string",
          "name": "name",
          "type": "string"
        },
        {
          "indexed": false,
          "internalType": "bytes",
          "name": "request",
          "type": "bytes"
        }
      ],
      "name": "ActionChanged",
      "type": "event"
    },
    {
      "anonymous": false,
      "inputs": [
        {
          "indexed": false,
          "internalType": "address",
          "name": "from",
          "type": "address"
        },
        {
          "indexed": false,
          "internalType": "address",
          "name": "actionAddress",
          "type": "address"
        },
        {
          "indexed": false,
          "internalType": "bytes32",
          "name": "id",
          "type": "bytes32"
        }
      ],
      "name": "MessageEntryAdded",
      "type": "event"
    },
    {
      "anonymous": false,
      "inputs": [
        {
          "indexed": false,
          "internalType": "string",
          "name": "name",
          "type": "string"
        },
        {
          "indexed": false,
          "internalType": "bytes",
          "name": "data",
          "type": "bytes"
        }
      ],
      "name": "PropertyChanged",
      "type": "event"
    },
    {
      "anonymous": false,
      "inputs": [
        {
          "indexed": true,
          "internalType": "address",
          "name": "payee",
          "type": "address"
        },
        {
          "indexed": false,
          "internalType": "uint256",
          "name": "weiAmount",
          "type": "uint256"
        }
      ],
      "name": "Withdrawn",
      "type": "event"
    },
    {
      "inputs": [
        {
          "internalType": "bytes4",
          "name": "",
          "type": "bytes4"
        }
      ],
      "name": "actions",
      "outputs": [
        {
          "internalType": "bytes4",
          "name": "selector",
          "type": "bytes4"
        },
        {
          "internalType": "address",
          "name": "controller",
          "type": "address"
        },
        {
          "internalType": "bytes4",
          "name": "nextSelector",
          "type": "bytes4"
        }
      ],
      "stateMutability": "view",
      "type": "function",
      "constant": true
    },
    {
      "inputs": [],
      "name": "fee",
      "outputs": [
        {
          "internalType": "uint256",
          "name": "",
          "type": "uint256"
        }
      ],
      "stateMutability": "view",
      "type": "function",
      "constant": true
    },
    {
      "inputs": [],
      "name": "owner",
      "outputs": [
        {
          "internalType": "address",
          "name": "",
          "type": "address"
        }
      ],
      "stateMutability": "view",
      "type": "function",
      "constant": true
    },
    {
      "inputs": [],
      "name": "stablecoin",
      "outputs": [
        {
          "internalType": "contract ERC20Interface",
          "name": "",
          "type": "address"
        }
      ],
      "stateMutability": "view",
      "type": "function",
      "constant": true
    },
    {
      "inputs": [
        {
          "internalType": "bytes4",
          "name": "selector",
          "type": "bytes4"
        }
      ],
      "name": "getAction",
      "outputs": [
        {
          "components": [
            {
              "internalType": "bytes4",
              "name": "selector",
              "type": "bytes4"
            },
            {
              "internalType": "address",
              "name": "controller",
              "type": "address"
            },
            {
              "internalType": "bytes4",
              "name": "nextSelector",
              "type": "bytes4"
            },
            {
              "internalType": "bytes4[]",
              "name": "conditions",
              "type": "bytes4[]"
            },
            {
              "internalType": "bool[]",
              "name": "conditionStatus",
              "type": "bool[]"
            }
          ],
          "internalType": "struct WFlowRegistry.ActionRoute",
          "name": "",
          "type": "tuple"
        }
      ],
      "stateMutability": "view",
      "type": "function",
      "constant": true
    },
    {
      "inputs": [
        {
          "internalType": "uint256",
          "name": "_fee",
          "type": "uint256"
        }
      ],
      "name": "setProtocolConfig",
      "outputs": [],
      "stateMutability": "nonpayable",
      "type": "function"
    },
    {
      "inputs": [],
      "name": "getProtocolConfig",
      "outputs": [
        {
          "internalType": "uint256",
          "name": "",
          "type": "uint256"
        }
      ],
      "stateMutability": "nonpayable",
      "type": "function"
    },
    {
      "inputs": [
        {
          "internalType": "address payable",
          "name": "payee",
          "type": "address"
        }
      ],
      "name": "withdraw",
      "outputs": [],
      "stateMutability": "nonpayable",
      "type": "function"
    },
    {
      "inputs": [
        {
          "internalType": "address payable",
          "name": "payee",
          "type": "address"
        },
        {
          "internalType": "address",
          "name": "token",
          "type": "address"
        }
      ],
      "name": "withdrawToken",
      "outputs": [],
      "stateMutability": "nonpayable",
      "type": "function"
    },
    {
      "inputs": [
        {
          "internalType": "address",
          "name": "controller",
          "type": "address"
        },
        {
          "internalType": "bytes4",
          "name": "messageRequest",
          "type": "bytes4"
        },
        {
          "internalType": "bytes4[]",
          "name": "conditions",
          "type": "bytes4[]"
        },
        {
          "internalType": "bool[]",
          "name": "conditionStatus",
          "type": "bool[]"
        },
        {
          "internalType": "bytes4",
          "name": "nextMessage",
          "type": "bytes4"
        }
      ],
      "name": "mapMessageToController",
      "outputs": [
        {
          "internalType": "bool",
          "name": "",
          "type": "bool"
        }
      ],
      "stateMutability": "payable",
      "type": "function",
      "payable": true
    }
  ],
  "bytecode": "0x60806040523480156200001157600080fd5b5060405162001d7838038062001d788339818101604052810190620000379190620000d6565b336000806101000a81548173ffffffffffffffffffffffffffffffffffffffff021916908373ffffffffffffffffffffffffffffffffffffffff16021790555080600160006101000a81548173ffffffffffffffffffffffffffffffffffffffff021916908373ffffffffffffffffffffffffffffffffffffffff1602179055505062000150565b600081519050620000d08162000136565b92915050565b600060208284031215620000e957600080fd5b6000620000f984828501620000bf565b91505092915050565b60006200010f8262000116565b9050919050565b600073ffffffffffffffffffffffffffffffffffffffff82169050919050565b620001418162000102565b81146200014d57600080fd5b50565b611c1880620001606000396000f3fe6080604052600436106100915760003560e01c80637b37e5f4116100595780637b37e5f41461017e5780638da5cb5b146101bd578063ddca3f43146101e8578063e9cbd82214610213578063ed700b3e1461023e57610091565b80632f8d845a146100965780633aeac4e1146100bf57806351cff8d9146100e857806372f50dab1461011157806375d0ac0114610141575b600080fd5b3480156100a257600080fd5b506100bd60048036038101906100b891906113c7565b610269565b005b3480156100cb57600080fd5b506100e660048036038101906100e19190611292565b610301565b005b3480156100f457600080fd5b5061010f600480360381019061010a9190611269565b6104b6565b005b61012b600480360381019061012691906112ce565b6105e2565b6040516101389190611825565b60405180910390f35b34801561014d57600080fd5b506101686004803603810190610163919061139e565b610b77565b6040516101759190611932565b60405180910390f35b34801561018a57600080fd5b506101a560048036038101906101a0919061139e565b610df9565b6040516101b493929190611840565b60405180910390f35b3480156101c957600080fd5b506101d2610e5d565b6040516101df9190611758565b60405180910390f35b3480156101f457600080fd5b506101fd610e81565b60405161020a9190611954565b60405180910390f35b34801561021f57600080fd5b50610228610e87565b6040516102359190611877565b60405180910390f35b34801561024a57600080fd5b50610253610ead565b6040516102609190611954565b60405180910390f35b60008054906101000a900473ffffffffffffffffffffffffffffffffffffffff1673ffffffffffffffffffffffffffffffffffffffff163373ffffffffffffffffffffffffffffffffffffffff16146102f7576040517f08c379a00000000000000000000000000000000000000000000000000000000081526004016102ee906118d2565b60405180910390fd5b8060028190555050565b60008054906101000a900473ffffffffffffffffffffffffffffffffffffffff1673ffffffffffffffffffffffffffffffffffffffff163373ffffffffffffffffffffffffffffffffffffffff161461038f576040517f08c379a0000000000000000000000000000000000000000000000000000000008152600401610386906118d2565b60405180910390fd5b60008173ffffffffffffffffffffffffffffffffffffffff166370a08231306040518263ffffffff1660e01b81526004016103ca9190611758565b60206040518083038186803b1580156103e257600080fd5b505afa1580156103f6573d6000803e3d6000fd5b505050506040513d601f19601f8201168201806040525081019061041a91906113f0565b90508273ffffffffffffffffffffffffffffffffffffffff166108fc829081150290604051600060405180830381858888f19350505050158015610462573d6000803e3d6000fd5b508273ffffffffffffffffffffffffffffffffffffffff167f7084f5476618d8e60b11ef0d7d3f06914655adb8793e28ff7f018d4c76d505d5826040516104a99190611954565b60405180910390a2505050565b60008054906101000a900473ffffffffffffffffffffffffffffffffffffffff1673ffffffffffffffffffffffffffffffffffffffff163373ffffffffffffffffffffffffffffffffffffffff1614610544576040517f08c379a000000000000000000000000000000000000000000000000000000000815260040161053b906118d2565b60405180910390fd5b60004790508173ffffffffffffffffffffffffffffffffffffffff166108fc479081150290604051600060405180830381858888f1935050505015801561058f573d6000803e3d6000fd5b508173ffffffffffffffffffffffffffffffffffffffff167f7084f5476618d8e60b11ef0d7d3f06914655adb8793e28ff7f018d4c76d505d5826040516105d69190611954565b60405180910390a25050565b600080600160009054906101000a900473ffffffffffffffffffffffffffffffffffffffff1673ffffffffffffffffffffffffffffffffffffffff166370a08231336040518263ffffffff1660e01b81526004016106409190611773565b60206040518083038186803b15801561065857600080fd5b505afa15801561066c573d6000803e3d6000fd5b505050506040513d601f19601f8201168201806040525081019061069091906113f0565b10156106d1576040517f08c379a00000000000000000000000000000000000000000000000000000000081526004016106c890611892565b60405180910390fd5b6000600160009054906101000a900473ffffffffffffffffffffffffffffffffffffffff1673ffffffffffffffffffffffffffffffffffffffff1663dd62ed3e33306040518363ffffffff1660e01b815260040161073092919061178e565b60206040518083038186803b15801561074857600080fd5b505afa15801561075c573d6000803e3d6000fd5b505050506040513d601f19601f8201168201806040525081019061078091906113f0565b10156107c1576040517f08c379a00000000000000000000000000000000000000000000000000000000081526004016107b890611912565b60405180910390fd5b600073ffffffffffffffffffffffffffffffffffffffff1660036000877bffffffffffffffffffffffffffffffffffffffffffffffffffffffff19167bffffffffffffffffffffffffffffffffffffffffffffffffffffffff1916815260200190815260200160002060000160049054906101000a900473ffffffffffffffffffffffffffffffffffffffff1673ffffffffffffffffffffffffffffffffffffffff1614156108a5576040517f08c379a000000000000000000000000000000000000000000000000000000000815260040161089c906118f2565b60405180910390fd5b6040518060a00160405280867bffffffffffffffffffffffffffffffffffffffffffffffffffffffff191681526020018773ffffffffffffffffffffffffffffffffffffffff168152602001837bffffffffffffffffffffffffffffffffffffffffffffffffffffffff191681526020018581526020018481525060036000877bffffffffffffffffffffffffffffffffffffffffffffffffffffffff19167bffffffffffffffffffffffffffffffffffffffffffffffffffffffff1916815260200190815260200160002060008201518160000160006101000a81548163ffffffff021916908360e01c021790555060208201518160000160046101000a81548173ffffffffffffffffffffffffffffffffffffffff021916908373ffffffffffffffffffffffffffffffffffffffff16021790555060408201518160000160186101000a81548163ffffffff021916908360e01c02179055506060820151816001019080519060200190610a1c929190610eb7565b506080820151816002019080519060200190610a39929190610f64565b50905050600160009054906101000a900473ffffffffffffffffffffffffffffffffffffffff1673ffffffffffffffffffffffffffffffffffffffff166323b872dd33306002546040518463ffffffff1660e01b8152600401610a9e939291906117ee565b602060405180830381600087803b158015610ab857600080fd5b505af1158015610acc573d6000803e3d6000fd5b505050506040513d601f19601f82011682018060405250810190610af09190611375565b610b2f576040517f08c379a0000000000000000000000000000000000000000000000000000000008152600401610b26906118b2565b60405180910390fd5b7f1e051ad027772c645112d87bcc233b6b2257c869f0b3292dfee4b44ffe3aa746338787604051610b62939291906117b7565b60405180910390a16001905095945050505050565b610b7f61100a565b60036000837bffffffffffffffffffffffffffffffffffffffffffffffffffffffff19167bffffffffffffffffffffffffffffffffffffffffffffffffffffffff191681526020019081526020016000206040518060a00160405290816000820160009054906101000a900460e01b7bffffffffffffffffffffffffffffffffffffffffffffffffffffffff19167bffffffffffffffffffffffffffffffffffffffffffffffffffffffff191681526020016000820160049054906101000a900473ffffffffffffffffffffffffffffffffffffffff1673ffffffffffffffffffffffffffffffffffffffff1673ffffffffffffffffffffffffffffffffffffffff1681526020016000820160189054906101000a900460e01b7bffffffffffffffffffffffffffffffffffffffffffffffffffffffff19167bffffffffffffffffffffffffffffffffffffffffffffffffffffffff1916815260200160018201805480602002602001604051908101604052809291908181526020018280548015610d6c57602002820191906000526020600020906000905b82829054906101000a900460e01b7bffffffffffffffffffffffffffffffffffffffffffffffffffffffff191681526020019060040190602082600301049283019260010382029150808411610d195790505b5050505050815260200160028201805480602002602001604051908101604052809291908181526020018280548015610de957602002820191906000526020600020906000905b82829054906101000a900460ff16151581526020019060010190602082600001049283019260010382029150808411610db35790505b5050505050815250509050919050565b60036020528060005260406000206000915090508060000160009054906101000a900460e01b908060000160049054906101000a900473ffffffffffffffffffffffffffffffffffffffff16908060000160189054906101000a900460e01b905083565b60008054906101000a900473ffffffffffffffffffffffffffffffffffffffff1681565b60025481565b600160009054906101000a900473ffffffffffffffffffffffffffffffffffffffff1681565b6000600254905090565b82805482825590600052602060002090600701600890048101928215610f535791602002820160005b83821115610f2157835183826101000a81548163ffffffff021916908360e01c02179055509260200192600401602081600301049283019260010302610ee0565b8015610f515782816101000a81549063ffffffff0219169055600401602081600301049283019260010302610f21565b505b509050610f60919061108d565b5090565b82805482825590600052602060002090601f01602090048101928215610ff95791602002820160005b83821115610fca57835183826101000a81548160ff0219169083151502179055509260200192600101602081600001049283019260010302610f8d565b8015610ff75782816101000a81549060ff0219169055600101602081600001049283019260010302610fca565b505b509050611006919061108d565b5090565b6040518060a0016040528060007bffffffffffffffffffffffffffffffffffffffffffffffffffffffff19168152602001600073ffffffffffffffffffffffffffffffffffffffff16815260200160007bffffffffffffffffffffffffffffffffffffffffffffffffffffffff1916815260200160608152602001606081525090565b5b808211156110a657600081600090555060010161108e565b5090565b60006110bd6110b8846119a0565b61196f565b905080838252602082019050828560208602820111156110dc57600080fd5b60005b8581101561110c57816110f28882611200565b8452602084019350602083019250506001810190506110df565b5050509392505050565b6000611129611124846119cc565b61196f565b9050808382526020820190508285602086028201111561114857600080fd5b60005b85811015611178578161115e888261122a565b84526020840193506020830192505060018101905061114b565b5050509392505050565b60008135905061119181611b6f565b92915050565b6000813590506111a681611b86565b92915050565b600082601f8301126111bd57600080fd5b81356111cd8482602086016110aa565b91505092915050565b600082601f8301126111e757600080fd5b81356111f7848260208601611116565b91505092915050565b60008135905061120f81611b9d565b92915050565b60008151905061122481611b9d565b92915050565b60008135905061123981611bb4565b92915050565b60008135905061124e81611bcb565b92915050565b60008151905061126381611bcb565b92915050565b60006020828403121561127b57600080fd5b600061128984828501611197565b91505092915050565b600080604083850312156112a557600080fd5b60006112b385828601611197565b92505060206112c485828601611182565b9150509250929050565b600080600080600060a086880312156112e657600080fd5b60006112f488828901611182565b95505060206113058882890161122a565b945050604086013567ffffffffffffffff81111561132257600080fd5b61132e888289016111d6565b935050606086013567ffffffffffffffff81111561134b57600080fd5b611357888289016111ac565b92505060806113688882890161122a565b9150509295509295909350565b60006020828403121561138757600080fd5b600061139584828501611215565b91505092915050565b6000602082840312156113b057600080fd5b60006113be8482850161122a565b91505092915050565b6000602082840312156113d957600080fd5b60006113e78482850161123f565b91505092915050565b60006020828403121561140257600080fd5b600061141084828501611254565b91505092915050565b60006114258383611532565b60208301905092915050565b600061143d838361155f565b60208301905092915050565b61145281611b01565b82525050565b61146181611a7b565b82525050565b61147081611a7b565b82525050565b600061148182611a18565b61148b8185611a48565b9350611496836119f8565b8060005b838110156114c75781516114ae8882611419565b97506114b983611a2e565b92505060018101905061149a565b5085935050505092915050565b60006114df82611a23565b6114e98185611a59565b93506114f483611a08565b8060005b8381101561152557815161150c8882611431565b975061151783611a3b565b9250506001810190506114f8565b5085935050505092915050565b61153b81611a9f565b82525050565b61154a81611a9f565b82525050565b61155981611b13565b82525050565b61156881611aab565b82525050565b61157781611aab565b82525050565b61158681611b25565b82525050565b6000611599601583611a6a565b91507f496e76616c696420746f6b656e2062616c616e636500000000000000000000006000830152602082019050919050565b60006115d9601783611a6a565b91507f5472616e73666572206661696c656420666f72206665650000000000000000006000830152602082019050919050565b6000611619600c83611a6a565b91507f494e56414c49445f5553455200000000000000000000000000000000000000006000830152602082019050919050565b6000611659601683611a6a565b91507f4164647265737320616c726561647920657869737473000000000000000000006000830152602082019050919050565b6000611699601783611a6a565b91507f496e76616c696420746f6b656e20616c6c6f77616e63650000000000000000006000830152602082019050919050565b600060a0830160008301516116e4600086018261155f565b5060208301516116f76020860182611458565b50604083015161170a604086018261155f565b506060830151848203606086015261172282826114d4565b9150506080830151848203608086015261173c8282611476565b9150508091505092915050565b61175281611af7565b82525050565b600060208201905061176d6000830184611467565b92915050565b60006020820190506117886000830184611449565b92915050565b60006040820190506117a36000830185611449565b6117b06020830184611467565b9392505050565b60006060820190506117cc6000830186611449565b6117d96020830185611467565b6117e66040830184611550565b949350505050565b60006060820190506118036000830186611449565b6118106020830185611467565b61181d6040830184611749565b949350505050565b600060208201905061183a6000830184611541565b92915050565b6000606082019050611855600083018661156e565b6118626020830185611467565b61186f604083018461156e565b949350505050565b600060208201905061188c600083018461157d565b92915050565b600060208201905081810360008301526118ab8161158c565b9050919050565b600060208201905081810360008301526118cb816115cc565b9050919050565b600060208201905081810360008301526118eb8161160c565b9050919050565b6000602082019050818103600083015261190b8161164c565b9050919050565b6000602082019050818103600083015261192b8161168c565b9050919050565b6000602082019050818103600083015261194c81846116cc565b905092915050565b60006020820190506119696000830184611749565b92915050565b6000604051905081810181811067ffffffffffffffff8211171561199657611995611b6d565b5b8060405250919050565b600067ffffffffffffffff8211156119bb576119ba611b6d565b5b602082029050602081019050919050565b600067ffffffffffffffff8211156119e7576119e6611b6d565b5b602082029050602081019050919050565b6000819050602082019050919050565b6000819050602082019050919050565b600081519050919050565b600081519050919050565b6000602082019050919050565b6000602082019050919050565b600082825260208201905092915050565b600082825260208201905092915050565b600082825260208201905092915050565b6000611a8682611ad7565b9050919050565b6000611a9882611ad7565b9050919050565b60008115159050919050565b60007fffffffff0000000000000000000000000000000000000000000000000000000082169050919050565b600073ffffffffffffffffffffffffffffffffffffffff82169050919050565b6000819050919050565b6000611b0c82611b49565b9050919050565b6000611b1e82611aab565b9050919050565b6000611b3082611b37565b9050919050565b6000611b4282611ad7565b9050919050565b6000611b5482611b5b565b9050919050565b6000611b6682611ad7565b9050919050565bfe5b611b7881611a7b565b8114611b8357600080fd5b50565b611b8f81611a8d565b8114611b9a57600080fd5b50565b611ba681611a9f565b8114611bb157600080fd5b50565b611bbd81611aab565b8114611bc857600080fd5b50565b611bd481611af7565b8114611bdf57600080fd5b5056fea26469706673582212203895df3286324601077a25c48ad51e3cb4bbd2b85316b82573cf53b34b1410ea64736f6c63430007060033",
  "immutableReferences": {},
  "source": "pragma solidity ^0.7.0;\npragma experimental ABIEncoderV2;\n\nimport \"./ERC20Interface.sol\";\nimport \"./WMessages.sol\";\n\n/**\n * Maintains workflow state machine flow\n */\ncontract WFlowRegistry  is WMessages {\n    address public owner;\n    ERC20Interface public stablecoin;\n    uint public fee;\n    mapping (bytes4 => ActionRoute) public actions;\n    event Withdrawn(address indexed payee, uint256 weiAmount);\n\n\n    struct ActionRoute {\n        bytes4 selector;\n        address controller;\n        bytes4 nextSelector;\n        bytes4[] conditions;\n        bool[] conditionStatus;\n    }\n    \n    event MessageEntryAdded(\n        address from,\n        address actionAddress,\n        bytes32 id\n    );\n\n    function getAction(\n        bytes4 selector\n    ) public view returns(ActionRoute memory) {\n        return actions[selector];\n    }\n\n\n    /**\n    * XDV Data Token\n    */\n    constructor(\n        address tokenAddress\n    ) public  {\n        owner = msg.sender;\n        stablecoin  = ERC20Interface(tokenAddress);\n    }\n   \n    function setProtocolConfig(uint256 _fee) public {\n        require(msg.sender == owner, \"INVALID_USER\");\n        fee = _fee;\n    }\n\n    function getProtocolConfig() public returns (uint256) {\n        return (fee);\n    }\n\n    function withdraw(address payable payee) public {\n        require(msg.sender == owner, \"INVALID_USER\");\n        uint256 b = address(this).balance;\n        payee.transfer(address(this).balance);\n\n        emit Withdrawn(payee, b);\n    }\n\n    function withdrawToken(address payable payee, address token) public {\n        require(msg.sender == owner, \"INVALID_USER\");\n        uint256 b = ERC20Interface(token).balanceOf(address(this));\n        payee.transfer(b);\n\n        emit Withdrawn(payee, b);\n    }\n\n    // topic ABI Function Ethers\n    // ExecutePrescription(uint, uint, string) === bytes32\n    // 0xA1...\n\n    function mapMessageToController(\n        address controller,\n        bytes4 messageRequest,\n        bytes4[] memory conditions,\n        bool[] memory conditionStatus,\n        bytes4 nextMessage\n    )\n        external\n        payable\n        returns (bool)\n    {\n\n        // User must have a balance\n        require(\n            stablecoin.balanceOf(msg.sender) >= 0,\n            \"Invalid token balance\"\n        );\n        // User must have an allowance\n        require(\n            stablecoin.allowance(msg.sender, address(this)) >= 0,\n            \"Invalid token allowance\"\n        );\n\n        /* require(\n            stablecoin.balanceOf(msg.sender) == (mintingServiceFee.sum(protocolServiceFee)), \n            \"MUST SEND FEE BEFORE USE\");\n        */\n\n        require(actions[messageRequest].controller != address(0),\n        \"Address already exists\");\n\n        // register topic and mutation\n        actions[messageRequest] = ActionRoute({\n            selector: messageRequest,\n            nextSelector: nextMessage,\n            controller: controller,\n            conditions: conditions,\n            conditionStatus: conditionStatus\n        });\n\n        // TODO: Update accounting\n        //  - create mappings to data provider accounting\n        //  - create mappings to protocol fee accounting\n        // Transfer tokens to pay service fee\n        require(\n            stablecoin.transferFrom(\n                msg.sender,\n                address(this), \n                fee),\n            \"Transfer failed for fee\"\n        );\n\n        emit MessageEntryAdded(\n            msg.sender,\n            controller,\n            messageRequest\n        );\n\n        return true;\n    }       \n\n\n}",
  "sourcePath": "/home/rogelio/Code/xdv/electronic-sa-contracts/contracts/WFlowRegistry.sol",
  "compiler": {
    "name": "solc",
    "version": "0.7.6+commit.7338295f.Emscripten.clang"
  },
  "schemaVersion": "3.3.3",
  "updatedAt": "2021-02-08T17:32:49.363Z",
  "networkType": "ethereum",
  "devdoc": {
    "kind": "dev",
    "methods": {},
    "version": 1
  },
  "userdoc": {
    "kind": "user",
    "methods": {
      "constructor": {
        "notice": "XDV Data Token"
      }
    },
    "notice": "Maintains workflow state machine flow",
    "version": 1
  }
}