{
  "contractName": "WFlowRegistry",
  "abi": [
    {
      "inputs": [
        {
          "internalType": "address",
          "name": "tokenAddress",
          "type": "address"
        }
      ],
      "stateMutability": "nonpayable",
      "type": "constructor"
    },
    {
      "anonymous": false,
      "inputs": [
        {
          "indexed": true,
          "internalType": "address",
          "name": "payee",
          "type": "address"
        },
        {
          "indexed": false,
          "internalType": "uint256",
          "name": "weiAmount",
          "type": "uint256"
        }
      ],
      "name": "Withdrawn",
      "type": "event"
    },
    {
      "anonymous": false,
      "inputs": [
        {
          "indexed": false,
          "internalType": "address",
          "name": "from",
          "type": "address"
        },
        {
          "indexed": false,
          "internalType": "address",
          "name": "actionAddress",
          "type": "address"
        },
        {
          "indexed": false,
          "internalType": "bytes32",
          "name": "id",
          "type": "bytes32"
        }
      ],
      "name": "WorkflowEntryAdded",
      "type": "event"
    },
    {
      "inputs": [
        {
          "internalType": "bytes4",
          "name": "",
          "type": "bytes4"
        }
      ],
      "name": "actions",
      "outputs": [
        {
          "internalType": "bytes4",
          "name": "topic",
          "type": "bytes4"
        },
        {
          "internalType": "address",
          "name": "actionAddress",
          "type": "address"
        }
      ],
      "stateMutability": "view",
      "type": "function"
    },
    {
      "inputs": [],
      "name": "fee",
      "outputs": [
        {
          "internalType": "uint256",
          "name": "",
          "type": "uint256"
        }
      ],
      "stateMutability": "view",
      "type": "function"
    },
    {
      "inputs": [
        {
          "internalType": "bytes4",
          "name": "",
          "type": "bytes4"
        }
      ],
      "name": "nextActions",
      "outputs": [
        {
          "internalType": "bytes4",
          "name": "mutation",
          "type": "bytes4"
        },
        {
          "internalType": "address",
          "name": "nextAddress",
          "type": "address"
        }
      ],
      "stateMutability": "view",
      "type": "function"
    },
    {
      "inputs": [],
      "name": "owner",
      "outputs": [
        {
          "internalType": "address",
          "name": "",
          "type": "address"
        }
      ],
      "stateMutability": "view",
      "type": "function"
    },
    {
      "inputs": [],
      "name": "stablecoin",
      "outputs": [
        {
          "internalType": "contract ERC20Interface",
          "name": "",
          "type": "address"
        }
      ],
      "stateMutability": "view",
      "type": "function"
    },
    {
      "inputs": [
        {
          "internalType": "bytes4",
          "name": "selector",
          "type": "bytes4"
        }
      ],
      "name": "getAction",
      "outputs": [
        {
          "components": [
            {
              "internalType": "bytes4",
              "name": "topic",
              "type": "bytes4"
            },
            {
              "internalType": "address",
              "name": "actionAddress",
              "type": "address"
            }
          ],
          "internalType": "struct WFlowRegistry.ActionRoute",
          "name": "",
          "type": "tuple"
        }
      ],
      "stateMutability": "view",
      "type": "function"
    },
    {
      "inputs": [
        {
          "internalType": "bytes4",
          "name": "selector",
          "type": "bytes4"
        }
      ],
      "name": "getNext",
      "outputs": [
        {
          "components": [
            {
              "internalType": "bytes4",
              "name": "mutation",
              "type": "bytes4"
            },
            {
              "internalType": "address",
              "name": "nextAddress",
              "type": "address"
            }
          ],
          "internalType": "struct WFlowRegistry.NextRoute",
          "name": "",
          "type": "tuple"
        }
      ],
      "stateMutability": "view",
      "type": "function"
    },
    {
      "inputs": [
        {
          "internalType": "uint256",
          "name": "_fee",
          "type": "uint256"
        }
      ],
      "name": "setProtocolConfig",
      "outputs": [],
      "stateMutability": "nonpayable",
      "type": "function"
    },
    {
      "inputs": [],
      "name": "getProtocolConfig",
      "outputs": [
        {
          "internalType": "uint256",
          "name": "",
          "type": "uint256"
        }
      ],
      "stateMutability": "nonpayable",
      "type": "function"
    },
    {
      "inputs": [
        {
          "internalType": "address payable",
          "name": "payee",
          "type": "address"
        }
      ],
      "name": "withdraw",
      "outputs": [],
      "stateMutability": "nonpayable",
      "type": "function"
    },
    {
      "inputs": [
        {
          "internalType": "address payable",
          "name": "payee",
          "type": "address"
        },
        {
          "internalType": "address",
          "name": "token",
          "type": "address"
        }
      ],
      "name": "withdrawToken",
      "outputs": [],
      "stateMutability": "nonpayable",
      "type": "function"
    },
    {
      "inputs": [
        {
          "internalType": "bytes4",
          "name": "actionSelector",
          "type": "bytes4"
        },
        {
          "internalType": "address",
          "name": "actionAddress",
          "type": "address"
        },
        {
          "internalType": "bytes4",
          "name": "nextSelector",
          "type": "bytes4"
        },
        {
          "internalType": "address",
          "name": "nextAddress",
          "type": "address"
        },
        {
          "components": [
            {
              "internalType": "string",
              "name": "documentURI",
              "type": "string"
            },
            {
              "internalType": "string",
              "name": "didAgent",
              "type": "string"
            },
            {
              "internalType": "address",
              "name": "payloadOwner",
              "type": "address"
            },
            {
              "internalType": "string",
              "name": "didPayloadOwner",
              "type": "string"
            },
            {
              "internalType": "uint256",
              "name": "timeoutAfterRetries",
              "type": "uint256"
            },
            {
              "internalType": "address",
              "name": "nftAddress",
              "type": "address"
            },
            {
              "internalType": "uint256",
              "name": "tokenId",
              "type": "uint256"
            }
          ],
          "internalType": "struct WMessages.WorkflowPayload",
          "name": "payload",
          "type": "tuple"
        }
      ],
      "name": "registerWorkflowEntry",
      "outputs": [
        {
          "internalType": "bool",
          "name": "",
          "type": "bool"
        }
      ],
      "stateMutability": "payable",
      "type": "function"
    }
  ],
  "bytecode": "0x60806040523480156200001157600080fd5b5060405162001ce738038062001ce78339818101604052810190620000379190620000d6565b336000806101000a81548173ffffffffffffffffffffffffffffffffffffffff021916908373ffffffffffffffffffffffffffffffffffffffff16021790555080600160006101000a81548173ffffffffffffffffffffffffffffffffffffffff021916908373ffffffffffffffffffffffffffffffffffffffff1602179055505062000150565b600081519050620000d08162000136565b92915050565b600060208284031215620000e957600080fd5b6000620000f984828501620000bf565b91505092915050565b60006200010f8262000116565b9050919050565b600073ffffffffffffffffffffffffffffffffffffffff82169050919050565b620001418162000102565b81146200014d57600080fd5b50565b611b8780620001606000396000f3fe6080604052600436106100a75760003560e01c80637b37e5f4116100645780637b37e5f4146101d25780638da5cb5b1461021057806391a3611d1461023b578063ddca3f4314610278578063e9cbd822146102a3578063ed700b3e146102ce576100a7565b80630261f710146100ac5780632f8d845a146100ea578063325fffad146101135780633aeac4e11461014357806351cff8d91461016c57806375d0ac0114610195575b600080fd5b3480156100b857600080fd5b506100d360048036038101906100ce9190611397565b6102f9565b6040516100e1929190611814565b60405180910390f35b3480156100f657600080fd5b50610111600480360381019061010c919061144f565b61034a565b005b61012d600480360381019061012891906113c0565b6103e2565b60405161013a91906117f9565b60405180910390f35b34801561014f57600080fd5b5061016a60048036038101906101659190611332565b610ad5565b005b34801561017857600080fd5b50610193600480360381019061018e9190611309565b610c8a565b005b3480156101a157600080fd5b506101bc60048036038101906101b79190611397565b610db6565b6040516101c99190611918565b60405180910390f35b3480156101de57600080fd5b506101f960048036038101906101f49190611397565b610ecc565b604051610207929190611814565b60405180910390f35b34801561021c57600080fd5b50610225610f1d565b604051610232919061172c565b60405180910390f35b34801561024757600080fd5b50610262600480360381019061025d9190611397565b610f41565b60405161026f9190611933565b60405180910390f35b34801561028457600080fd5b5061028d611057565b60405161029a919061194e565b60405180910390f35b3480156102af57600080fd5b506102b861105d565b6040516102c5919061183d565b60405180910390f35b3480156102da57600080fd5b506102e3611083565b6040516102f0919061194e565b60405180910390f35b60046020528060005260406000206000915090508060000160009054906101000a900460e01b908060000160049054906101000a900473ffffffffffffffffffffffffffffffffffffffff16905082565b60008054906101000a900473ffffffffffffffffffffffffffffffffffffffff1673ffffffffffffffffffffffffffffffffffffffff163373ffffffffffffffffffffffffffffffffffffffff16146103d8576040517f08c379a00000000000000000000000000000000000000000000000000000000081526004016103cf90611898565b60405180910390fd5b8060028190555050565b600080600160009054906101000a900473ffffffffffffffffffffffffffffffffffffffff1673ffffffffffffffffffffffffffffffffffffffff166370a08231336040518263ffffffff1660e01b81526004016104409190611747565b60206040518083038186803b15801561045857600080fd5b505afa15801561046c573d6000803e3d6000fd5b505050506040513d601f19601f820116820180604052508101906104909190611478565b10156104d1576040517f08c379a00000000000000000000000000000000000000000000000000000000081526004016104c890611858565b60405180910390fd5b6000600160009054906101000a900473ffffffffffffffffffffffffffffffffffffffff1673ffffffffffffffffffffffffffffffffffffffff1663dd62ed3e33306040518363ffffffff1660e01b8152600401610530929190611762565b60206040518083038186803b15801561054857600080fd5b505afa15801561055c573d6000803e3d6000fd5b505050506040513d601f19601f820116820180604052508101906105809190611478565b10156105c1576040517f08c379a00000000000000000000000000000000000000000000000000000000081526004016105b8906118d8565b60405180910390fd5b600073ffffffffffffffffffffffffffffffffffffffff1660036000887bffffffffffffffffffffffffffffffffffffffffffffffffffffffff19167bffffffffffffffffffffffffffffffffffffffffffffffffffffffff1916815260200190815260200160002060000160049054906101000a900473ffffffffffffffffffffffffffffffffffffffff1673ffffffffffffffffffffffffffffffffffffffff1614156106a5576040517f08c379a000000000000000000000000000000000000000000000000000000000815260040161069c906118f8565b60405180910390fd5b6040518060400160405280877bffffffffffffffffffffffffffffffffffffffffffffffffffffffff191681526020018673ffffffffffffffffffffffffffffffffffffffff1681525060036000887bffffffffffffffffffffffffffffffffffffffffffffffffffffffff19167bffffffffffffffffffffffffffffffffffffffffffffffffffffffff1916815260200190815260200160002060008201518160000160006101000a81548163ffffffff021916908360e01c021790555060208201518160000160046101000a81548173ffffffffffffffffffffffffffffffffffffffff021916908373ffffffffffffffffffffffffffffffffffffffff160217905550905050600073ffffffffffffffffffffffffffffffffffffffff1660046000887bffffffffffffffffffffffffffffffffffffffffffffffffffffffff19167bffffffffffffffffffffffffffffffffffffffffffffffffffffffff1916815260200190815260200160002060000160049054906101000a900473ffffffffffffffffffffffffffffffffffffffff1673ffffffffffffffffffffffffffffffffffffffff161415610892576040517f08c379a0000000000000000000000000000000000000000000000000000000008152600401610889906118b8565b60405180910390fd5b6040518060400160405280857bffffffffffffffffffffffffffffffffffffffffffffffffffffffff191681526020018473ffffffffffffffffffffffffffffffffffffffff1681525060046000887bffffffffffffffffffffffffffffffffffffffffffffffffffffffff19167bffffffffffffffffffffffffffffffffffffffffffffffffffffffff1916815260200190815260200160002060008201518160000160006101000a81548163ffffffff021916908360e01c021790555060208201518160000160046101000a81548173ffffffffffffffffffffffffffffffffffffffff021916908373ffffffffffffffffffffffffffffffffffffffff160217905550905050600160009054906101000a900473ffffffffffffffffffffffffffffffffffffffff1673ffffffffffffffffffffffffffffffffffffffff166323b872dd33306002546040518463ffffffff1660e01b81526004016109fc939291906117c2565b602060405180830381600087803b158015610a1657600080fd5b505af1158015610a2a573d6000803e3d6000fd5b505050506040513d601f19601f82011682018060405250810190610a4e919061136e565b610a8d576040517f08c379a0000000000000000000000000000000000000000000000000000000008152600401610a8490611878565b60405180910390fd5b7f57cd1e0eacfcefe7cde9b3a6ecfacbc8c5d3bef6f3d8424e2656fdad4d494e6d338688604051610ac09392919061178b565b60405180910390a16001905095945050505050565b60008054906101000a900473ffffffffffffffffffffffffffffffffffffffff1673ffffffffffffffffffffffffffffffffffffffff163373ffffffffffffffffffffffffffffffffffffffff1614610b63576040517f08c379a0000000000000000000000000000000000000000000000000000000008152600401610b5a90611898565b60405180910390fd5b60008173ffffffffffffffffffffffffffffffffffffffff166370a08231306040518263ffffffff1660e01b8152600401610b9e919061172c565b60206040518083038186803b158015610bb657600080fd5b505afa158015610bca573d6000803e3d6000fd5b505050506040513d601f19601f82011682018060405250810190610bee9190611478565b90508273ffffffffffffffffffffffffffffffffffffffff166108fc829081150290604051600060405180830381858888f19350505050158015610c36573d6000803e3d6000fd5b508273ffffffffffffffffffffffffffffffffffffffff167f7084f5476618d8e60b11ef0d7d3f06914655adb8793e28ff7f018d4c76d505d582604051610c7d919061194e565b60405180910390a2505050565b60008054906101000a900473ffffffffffffffffffffffffffffffffffffffff1673ffffffffffffffffffffffffffffffffffffffff163373ffffffffffffffffffffffffffffffffffffffff1614610d18576040517f08c379a0000000000000000000000000000000000000000000000000000000008152600401610d0f90611898565b60405180910390fd5b60004790508173ffffffffffffffffffffffffffffffffffffffff166108fc479081150290604051600060405180830381858888f19350505050158015610d63573d6000803e3d6000fd5b508173ffffffffffffffffffffffffffffffffffffffff167f7084f5476618d8e60b11ef0d7d3f06914655adb8793e28ff7f018d4c76d505d582604051610daa919061194e565b60405180910390a25050565b610dbe61108d565b60036000837bffffffffffffffffffffffffffffffffffffffffffffffffffffffff19167bffffffffffffffffffffffffffffffffffffffffffffffffffffffff191681526020019081526020016000206040518060400160405290816000820160009054906101000a900460e01b7bffffffffffffffffffffffffffffffffffffffffffffffffffffffff19167bffffffffffffffffffffffffffffffffffffffffffffffffffffffff191681526020016000820160049054906101000a900473ffffffffffffffffffffffffffffffffffffffff1673ffffffffffffffffffffffffffffffffffffffff1673ffffffffffffffffffffffffffffffffffffffff16815250509050919050565b60036020528060005260406000206000915090508060000160009054906101000a900460e01b908060000160049054906101000a900473ffffffffffffffffffffffffffffffffffffffff16905082565b60008054906101000a900473ffffffffffffffffffffffffffffffffffffffff1681565b610f496110dc565b60046000837bffffffffffffffffffffffffffffffffffffffffffffffffffffffff19167bffffffffffffffffffffffffffffffffffffffffffffffffffffffff191681526020019081526020016000206040518060400160405290816000820160009054906101000a900460e01b7bffffffffffffffffffffffffffffffffffffffffffffffffffffffff19167bffffffffffffffffffffffffffffffffffffffffffffffffffffffff191681526020016000820160049054906101000a900473ffffffffffffffffffffffffffffffffffffffff1673ffffffffffffffffffffffffffffffffffffffff1673ffffffffffffffffffffffffffffffffffffffff16815250509050919050565b60025481565b600160009054906101000a900473ffffffffffffffffffffffffffffffffffffffff1681565b6000600254905090565b604051806040016040528060007bffffffffffffffffffffffffffffffffffffffffffffffffffffffff19168152602001600073ffffffffffffffffffffffffffffffffffffffff1681525090565b604051806040016040528060007bffffffffffffffffffffffffffffffffffffffffffffffffffffffff19168152602001600073ffffffffffffffffffffffffffffffffffffffff1681525090565b600061113e6111398461199a565b611969565b90508281526020810184848401111561115657600080fd5b611161848285611acd565b509392505050565b60008135905061117881611ade565b92915050565b60008135905061118d81611af5565b92915050565b6000815190506111a281611b0c565b92915050565b6000813590506111b781611b23565b92915050565b600082601f8301126111ce57600080fd5b81356111de84826020860161112b565b91505092915050565b600060e082840312156111f957600080fd5b61120360e0611969565b9050600082013567ffffffffffffffff81111561121f57600080fd5b61122b848285016111bd565b600083015250602082013567ffffffffffffffff81111561124b57600080fd5b611257848285016111bd565b602083015250604061126b84828501611169565b604083015250606082013567ffffffffffffffff81111561128b57600080fd5b611297848285016111bd565b60608301525060806112ab848285016112df565b60808301525060a06112bf84828501611169565b60a08301525060c06112d3848285016112df565b60c08301525092915050565b6000813590506112ee81611b3a565b92915050565b60008151905061130381611b3a565b92915050565b60006020828403121561131b57600080fd5b60006113298482850161117e565b91505092915050565b6000806040838503121561134557600080fd5b60006113538582860161117e565b925050602061136485828601611169565b9150509250929050565b60006020828403121561138057600080fd5b600061138e84828501611193565b91505092915050565b6000602082840312156113a957600080fd5b60006113b7848285016111a8565b91505092915050565b600080600080600060a086880312156113d857600080fd5b60006113e6888289016111a8565b95505060206113f788828901611169565b9450506040611408888289016111a8565b935050606061141988828901611169565b925050608086013567ffffffffffffffff81111561143657600080fd5b611442888289016111e7565b9150509295509295909350565b60006020828403121561146157600080fd5b600061146f848285016112df565b91505092915050565b60006020828403121561148a57600080fd5b6000611498848285016112f4565b91505092915050565b6114aa81611a61565b82525050565b6114b9816119db565b82525050565b6114c8816119db565b82525050565b6114d7816119ff565b82525050565b6114e681611a73565b82525050565b6114f581611a0b565b82525050565b61150481611a0b565b82525050565b61151381611a85565b82525050565b60006115266015836119ca565b91507f496e76616c696420746f6b656e2062616c616e636500000000000000000000006000830152602082019050919050565b60006115666017836119ca565b91507f5472616e73666572206661696c656420666f72206665650000000000000000006000830152602082019050919050565b60006115a6600c836119ca565b91507f494e56414c49445f5553455200000000000000000000000000000000000000006000830152602082019050919050565b60006115e66023836119ca565b91507f4d75746174696f6e20616e64206164647265737320616c72656164792065786960008301527f73747300000000000000000000000000000000000000000000000000000000006020830152604082019050919050565b600061164c6017836119ca565b91507f496e76616c696420746f6b656e20616c6c6f77616e63650000000000000000006000830152602082019050919050565b600061168c6020836119ca565b91507f546f70696320616e64206164647265737320616c7265616479206578697374736000830152602082019050919050565b6040820160008201516116d560008501826114ec565b5060208201516116e860208501826114b0565b50505050565b60408201600082015161170460008501826114ec565b50602082015161171760208501826114b0565b50505050565b61172681611a57565b82525050565b600060208201905061174160008301846114bf565b92915050565b600060208201905061175c60008301846114a1565b92915050565b600060408201905061177760008301856114a1565b61178460208301846114bf565b9392505050565b60006060820190506117a060008301866114a1565b6117ad60208301856114bf565b6117ba60408301846114dd565b949350505050565b60006060820190506117d760008301866114a1565b6117e460208301856114bf565b6117f1604083018461171d565b949350505050565b600060208201905061180e60008301846114ce565b92915050565b600060408201905061182960008301856114fb565b61183660208301846114bf565b9392505050565b6000602082019050611852600083018461150a565b92915050565b6000602082019050818103600083015261187181611519565b9050919050565b6000602082019050818103600083015261189181611559565b9050919050565b600060208201905081810360008301526118b181611599565b9050919050565b600060208201905081810360008301526118d1816115d9565b9050919050565b600060208201905081810360008301526118f18161163f565b9050919050565b600060208201905081810360008301526119118161167f565b9050919050565b600060408201905061192d60008301846116bf565b92915050565b600060408201905061194860008301846116ee565b92915050565b6000602082019050611963600083018461171d565b92915050565b6000604051905081810181811067ffffffffffffffff821117156119905761198f611adc565b5b8060405250919050565b600067ffffffffffffffff8211156119b5576119b4611adc565b5b601f19601f8301169050602081019050919050565b600082825260208201905092915050565b60006119e682611a37565b9050919050565b60006119f882611a37565b9050919050565b60008115159050919050565b60007fffffffff0000000000000000000000000000000000000000000000000000000082169050919050565b600073ffffffffffffffffffffffffffffffffffffffff82169050919050565b6000819050919050565b6000611a6c82611aa9565b9050919050565b6000611a7e82611a0b565b9050919050565b6000611a9082611a97565b9050919050565b6000611aa282611a37565b9050919050565b6000611ab482611abb565b9050919050565b6000611ac682611a37565b9050919050565b82818337600083830152505050565bfe5b611ae7816119db565b8114611af257600080fd5b50565b611afe816119ed565b8114611b0957600080fd5b50565b611b15816119ff565b8114611b2057600080fd5b50565b611b2c81611a0b565b8114611b3757600080fd5b50565b611b4381611a57565b8114611b4e57600080fd5b5056fea2646970667358221220ce43a419ef07c53b532cc6b98179b5fb43e38e972d4b9efbf1911db27505ef4164736f6c63430007060033",
  "immutableReferences": {},
  "source": "pragma solidity ^0.7.0;\npragma experimental ABIEncoderV2;\n\nimport \"./ERC20Interface.sol\";\n\ncontract WMessages {\n// A Workflow payload can either be content addressable document or NFT address with supplied token id\n    struct WorkflowPayload  {\n        // IPLD has containing document\n        string documentURI;\n        // Agent DID\n        string didAgent;\n        // Owner address\n        address payloadOwner;\n        // Owner DID\n        string didPayloadOwner;\n        // timeout message if router can't find addresss\n        uint timeoutAfterRetries;\n        // NFT Address if ERC721\n        address nftAddress;\n        // NFT TokenID\n        uint tokenId;\n    }\n}\n/**\n * Maintains workflow state machine flow\n */\ncontract WFlowRegistry  is WMessages {\n    address public owner;\n    ERC20Interface public stablecoin;\n    uint public fee;\n    mapping (bytes4 => ActionRoute) public actions;\n    mapping (bytes4 => NextRoute) public nextActions;\n    event Withdrawn(address indexed payee, uint256 weiAmount);\n\n\n    struct ActionRoute {\n        bytes4 topic;\n        address actionAddress;\n    }\n\n    struct NextRoute {\n        bytes4 mutation;\n        address nextAddress;\n    }\n\n    \n    event WorkflowEntryAdded(\n        address from,\n        address actionAddress,\n        bytes32 id\n    );\n\n    function getAction(\n        bytes4 selector\n    ) public view returns(ActionRoute memory) {\n        return actions[selector];\n    }\n\n    function getNext(\n        bytes4 selector\n    ) public view returns(NextRoute memory) {\n        return nextActions[selector];\n    }    \n\n    /**\n    * XDV Data Token\n    */\n    constructor(\n        address tokenAddress\n    ) public  {\n        owner = msg.sender;\n        stablecoin  = ERC20Interface(tokenAddress);\n    }\n   \n    function setProtocolConfig(uint256 _fee) public {\n        require(msg.sender == owner, \"INVALID_USER\");\n        fee = _fee;\n    }\n\n    function getProtocolConfig() public returns (uint256) {\n        return (fee);\n    }\n\n    function withdraw(address payable payee) public {\n        require(msg.sender == owner, \"INVALID_USER\");\n        uint256 b = address(this).balance;\n        payee.transfer(address(this).balance);\n\n        emit Withdrawn(payee, b);\n    }\n\n    function withdrawToken(address payable payee, address token) public {\n        require(msg.sender == owner, \"INVALID_USER\");\n        uint256 b = ERC20Interface(token).balanceOf(address(this));\n        payee.transfer(b);\n\n        emit Withdrawn(payee, b);\n    }\n\n    // topic ABI Function Ethers\n    // ExecutePrescription(uint, uint, string) === bytes32\n    // 0xA1...\n\n    function registerWorkflowEntry(\n        bytes4 actionSelector,\n        address actionAddress,\n        bytes4 nextSelector,\n        address nextAddress,\n        WorkflowPayload memory payload\n    )\n        public\n        payable\n        returns (bool)\n    {\n\n        // User must have a balance\n        require(\n            stablecoin.balanceOf(msg.sender) >= 0,\n            \"Invalid token balance\"\n        );\n        // User must have an allowance\n        require(\n            stablecoin.allowance(msg.sender, address(this)) >= 0,\n            \"Invalid token allowance\"\n        );\n\n        /* require(\n            stablecoin.balanceOf(msg.sender) == (mintingServiceFee.sum(protocolServiceFee)), \n            \"MUST SEND FEE BEFORE USE\");\n        */\n\n        require(actions[actionSelector].actionAddress != address(0),\n        \"Topic and address already exists\");\n\n        // register topic and mutation\n        actions[actionSelector] = ActionRoute({\n            topic: actionSelector,\n            actionAddress: actionAddress\n        });\n\n\n        require(nextActions[actionSelector].nextAddress != address(0),\n        \"Mutation and address already exists\");\n\n        // register topic and mutation\n        nextActions[actionSelector] = NextRoute({\n            mutation: nextSelector,\n            nextAddress: nextAddress\n        });\n\n        // TODO: Update accounting\n        //  - create mappings to data provider accounting\n        //  - create mappings to protocol fee accounting\n        // Transfer tokens to pay service fee\n        require(\n            stablecoin.transferFrom(\n                msg.sender,\n                address(this), \n                fee),\n            \"Transfer failed for fee\"\n        );\n\n        emit WorkflowEntryAdded(\n            msg.sender,\n            actionAddress,\n            actionSelector\n        );\n\n        return true;\n    }       \n\n\n}",
  "sourcePath": "/home/rogelio/Code/xdv/electronic-sa-contracts/contracts/WFlowRegistry.sol",
  "compiler": {
    "name": "solc",
    "version": "0.7.6+commit.7338295f.Emscripten.clang"
  },
  "schemaVersion": "3.3.3",
  "updatedAt": "2021-02-07T13:34:26.700Z",
  "devdoc": {
    "kind": "dev",
    "methods": {},
    "version": 1
  },
  "userdoc": {
    "kind": "user",
    "methods": {
      "constructor": {
        "notice": "XDV Data Token"
      }
    },
    "notice": "Maintains workflow state machine flow",
    "version": 1
  }
}