{
  "contractName": "WFlowRegistry",
  "abi": [
    {
      "inputs": [
        {
          "internalType": "address",
          "name": "tokenAddress",
          "type": "address"
        }
      ],
      "stateMutability": "nonpayable",
      "type": "constructor"
    },
    {
      "anonymous": false,
      "inputs": [
        {
          "indexed": false,
          "internalType": "bytes4",
          "name": "methodSig",
          "type": "bytes4"
        },
        {
          "indexed": false,
          "internalType": "bytes",
          "name": "request",
          "type": "bytes"
        }
      ],
      "name": "ActionChanged",
      "type": "event"
    },
    {
      "anonymous": false,
      "inputs": [
        {
          "indexed": false,
          "internalType": "address",
          "name": "from",
          "type": "address"
        },
        {
          "indexed": false,
          "internalType": "address",
          "name": "actionAddress",
          "type": "address"
        },
        {
          "indexed": false,
          "internalType": "bytes32",
          "name": "id",
          "type": "bytes32"
        }
      ],
      "name": "MessageEntryAdded",
      "type": "event"
    },
    {
      "anonymous": false,
      "inputs": [
        {
          "indexed": false,
          "internalType": "string",
          "name": "propName",
          "type": "string"
        },
        {
          "indexed": false,
          "internalType": "bytes",
          "name": "data",
          "type": "bytes"
        }
      ],
      "name": "PropertyChanged",
      "type": "event"
    },
    {
      "anonymous": false,
      "inputs": [
        {
          "indexed": true,
          "internalType": "address",
          "name": "payee",
          "type": "address"
        },
        {
          "indexed": false,
          "internalType": "uint256",
          "name": "weiAmount",
          "type": "uint256"
        }
      ],
      "name": "Withdrawn",
      "type": "event"
    },
    {
      "inputs": [
        {
          "internalType": "address",
          "name": "",
          "type": "address"
        }
      ],
      "name": "accounting",
      "outputs": [
        {
          "internalType": "uint256",
          "name": "",
          "type": "uint256"
        }
      ],
      "stateMutability": "view",
      "type": "function",
      "constant": true
    },
    {
      "inputs": [
        {
          "internalType": "address",
          "name": "",
          "type": "address"
        },
        {
          "internalType": "bytes4",
          "name": "",
          "type": "bytes4"
        }
      ],
      "name": "actions",
      "outputs": [
        {
          "internalType": "bytes4",
          "name": "selector",
          "type": "bytes4"
        },
        {
          "internalType": "address",
          "name": "controller",
          "type": "address"
        },
        {
          "internalType": "bytes4",
          "name": "nextSelector",
          "type": "bytes4"
        }
      ],
      "stateMutability": "view",
      "type": "function",
      "constant": true
    },
    {
      "inputs": [],
      "name": "fee",
      "outputs": [
        {
          "internalType": "uint256",
          "name": "",
          "type": "uint256"
        }
      ],
      "stateMutability": "view",
      "type": "function",
      "constant": true
    },
    {
      "inputs": [
        {
          "internalType": "bytes",
          "name": "data",
          "type": "bytes"
        }
      ],
      "name": "getMethodSig",
      "outputs": [
        {
          "internalType": "bytes4",
          "name": "",
          "type": "bytes4"
        }
      ],
      "stateMutability": "pure",
      "type": "function",
      "constant": true
    },
    {
      "inputs": [],
      "name": "owner",
      "outputs": [
        {
          "internalType": "address",
          "name": "",
          "type": "address"
        }
      ],
      "stateMutability": "view",
      "type": "function",
      "constant": true
    },
    {
      "inputs": [],
      "name": "stablecoin",
      "outputs": [
        {
          "internalType": "contract ERC20Interface",
          "name": "",
          "type": "address"
        }
      ],
      "stateMutability": "view",
      "type": "function",
      "constant": true
    },
    {
      "inputs": [
        {
          "internalType": "address",
          "name": "controller",
          "type": "address"
        },
        {
          "internalType": "bytes4",
          "name": "selector",
          "type": "bytes4"
        }
      ],
      "name": "getAction",
      "outputs": [
        {
          "components": [
            {
              "internalType": "bytes4",
              "name": "selector",
              "type": "bytes4"
            },
            {
              "internalType": "address",
              "name": "controller",
              "type": "address"
            },
            {
              "internalType": "bytes4",
              "name": "nextSelector",
              "type": "bytes4"
            },
            {
              "internalType": "bytes4[]",
              "name": "conditions",
              "type": "bytes4[]"
            },
            {
              "internalType": "bool[]",
              "name": "conditionStatus",
              "type": "bool[]"
            }
          ],
          "internalType": "struct WFlowRegistry.ActionRoute",
          "name": "",
          "type": "tuple"
        }
      ],
      "stateMutability": "view",
      "type": "function",
      "constant": true
    },
    {
      "inputs": [
        {
          "internalType": "uint256",
          "name": "_fee",
          "type": "uint256"
        }
      ],
      "name": "setProtocolConfig",
      "outputs": [],
      "stateMutability": "nonpayable",
      "type": "function"
    },
    {
      "inputs": [],
      "name": "getProtocolConfig",
      "outputs": [
        {
          "internalType": "uint256",
          "name": "",
          "type": "uint256"
        }
      ],
      "stateMutability": "nonpayable",
      "type": "function"
    },
    {
      "inputs": [
        {
          "internalType": "address payable",
          "name": "payee",
          "type": "address"
        }
      ],
      "name": "withdraw",
      "outputs": [],
      "stateMutability": "nonpayable",
      "type": "function"
    },
    {
      "inputs": [
        {
          "internalType": "address payable",
          "name": "payee",
          "type": "address"
        },
        {
          "internalType": "address",
          "name": "token",
          "type": "address"
        }
      ],
      "name": "withdrawToken",
      "outputs": [],
      "stateMutability": "nonpayable",
      "type": "function"
    },
    {
      "inputs": [
        {
          "internalType": "address",
          "name": "controller",
          "type": "address"
        },
        {
          "internalType": "bytes4",
          "name": "messageRequest",
          "type": "bytes4"
        },
        {
          "internalType": "bytes4[]",
          "name": "conditions",
          "type": "bytes4[]"
        },
        {
          "internalType": "bool[]",
          "name": "conditionStatus",
          "type": "bool[]"
        },
        {
          "internalType": "bytes4",
          "name": "nextMessage",
          "type": "bytes4"
        }
      ],
      "name": "mapMessageToController",
      "outputs": [
        {
          "internalType": "bool",
          "name": "",
          "type": "bool"
        }
      ],
      "stateMutability": "payable",
      "type": "function",
      "payable": true
    }
  ],
  "bytecode": "0x60806040523480156200001157600080fd5b506040516200228e3803806200228e8339818101604052810190620000379190620000d6565b336000806101000a81548173ffffffffffffffffffffffffffffffffffffffff021916908373ffffffffffffffffffffffffffffffffffffffff16021790555080600160006101000a81548173ffffffffffffffffffffffffffffffffffffffff021916908373ffffffffffffffffffffffffffffffffffffffff1602179055505062000150565b600081519050620000d08162000136565b92915050565b600060208284031215620000e957600080fd5b6000620000f984828501620000bf565b91505092915050565b60006200010f8262000116565b9050919050565b600073ffffffffffffffffffffffffffffffffffffffff82169050919050565b620001418162000102565b81146200014d57600080fd5b50565b61212e80620001606000396000f3fe6080604052600436106100a75760003560e01c80638da5cb5b116100645780638da5cb5b146101d1578063991edf3f146101fc578063c7619cec14610239578063ddca3f4314610278578063e9cbd822146102a3578063ed700b3e146102ce576100a7565b80632f8d845a146100ac5780633aeac4e1146100d557806344025212146100fe57806351cff8d91461013b57806372f50dab146101645780638a173e3a14610194575b600080fd5b3480156100b857600080fd5b506100d360048036038101906100ce9190611883565b6102f9565b005b3480156100e157600080fd5b506100fc60048036038101906100f791906116fa565b610391565b005b34801561010a57600080fd5b5061012560048036038101906101209190611736565b610546565b6040516101329190611e09565b60405180910390f35b34801561014757600080fd5b50610162600480360381019061015d91906116d1565b610806565b005b61017e60048036038101906101799190611772565b610932565b60405161018b9190611ce1565b60405180910390f35b3480156101a057600080fd5b506101bb60048036038101906101b69190611842565b61104e565b6040516101c89190611cfc565b60405180910390f35b3480156101dd57600080fd5b506101e66111ab565b6040516101f39190611c14565b60405180910390f35b34801561020857600080fd5b50610223600480360381019061021e91906116a8565b6111cf565b6040516102309190611e2b565b60405180910390f35b34801561024557600080fd5b50610260600480360381019061025b9190611736565b6111e7565b60405161026f93929190611d17565b60405180910390f35b34801561028457600080fd5b5061028d611258565b60405161029a9190611e2b565b60405180910390f35b3480156102af57600080fd5b506102b861125e565b6040516102c59190611d4e565b60405180910390f35b3480156102da57600080fd5b506102e3611284565b6040516102f09190611e2b565b60405180910390f35b60008054906101000a900473ffffffffffffffffffffffffffffffffffffffff1673ffffffffffffffffffffffffffffffffffffffff163373ffffffffffffffffffffffffffffffffffffffff1614610387576040517f08c379a000000000000000000000000000000000000000000000000000000000815260040161037e90611da9565b60405180910390fd5b8060028190555050565b60008054906101000a900473ffffffffffffffffffffffffffffffffffffffff1673ffffffffffffffffffffffffffffffffffffffff163373ffffffffffffffffffffffffffffffffffffffff161461041f576040517f08c379a000000000000000000000000000000000000000000000000000000000815260040161041690611da9565b60405180910390fd5b60008173ffffffffffffffffffffffffffffffffffffffff166370a08231306040518263ffffffff1660e01b815260040161045a9190611c14565b60206040518083038186803b15801561047257600080fd5b505afa158015610486573d6000803e3d6000fd5b505050506040513d601f19601f820116820180604052508101906104aa91906118ac565b90508273ffffffffffffffffffffffffffffffffffffffff166108fc829081150290604051600060405180830381858888f193505050501580156104f2573d6000803e3d6000fd5b508273ffffffffffffffffffffffffffffffffffffffff167f7084f5476618d8e60b11ef0d7d3f06914655adb8793e28ff7f018d4c76d505d5826040516105399190611e2b565b60405180910390a2505050565b61054e61128e565b600360008473ffffffffffffffffffffffffffffffffffffffff1673ffffffffffffffffffffffffffffffffffffffff1681526020019081526020016000206000837bffffffffffffffffffffffffffffffffffffffffffffffffffffffff19167bffffffffffffffffffffffffffffffffffffffffffffffffffffffff191681526020019081526020016000206040518060a00160405290816000820160009054906101000a900460e01b7bffffffffffffffffffffffffffffffffffffffffffffffffffffffff19167bffffffffffffffffffffffffffffffffffffffffffffffffffffffff191681526020016000820160049054906101000a900473ffffffffffffffffffffffffffffffffffffffff1673ffffffffffffffffffffffffffffffffffffffff1673ffffffffffffffffffffffffffffffffffffffff1681526020016000820160189054906101000a900460e01b7bffffffffffffffffffffffffffffffffffffffffffffffffffffffff19167bffffffffffffffffffffffffffffffffffffffffffffffffffffffff191681526020016001820180548060200260200160405190810160405280929190818152602001828054801561077857602002820191906000526020600020906000905b82829054906101000a900460e01b7bffffffffffffffffffffffffffffffffffffffffffffffffffffffff1916815260200190600401906020826003010492830192600103820291508084116107255790505b50505050508152602001600282018054806020026020016040519081016040528092919081815260200182805480156107f557602002820191906000526020600020906000905b82829054906101000a900460ff161515815260200190600101906020826000010492830192600103820291508084116107bf5790505b505050505081525050905092915050565b60008054906101000a900473ffffffffffffffffffffffffffffffffffffffff1673ffffffffffffffffffffffffffffffffffffffff163373ffffffffffffffffffffffffffffffffffffffff1614610894576040517f08c379a000000000000000000000000000000000000000000000000000000000815260040161088b90611da9565b60405180910390fd5b60004790508173ffffffffffffffffffffffffffffffffffffffff166108fc479081150290604051600060405180830381858888f193505050501580156108df573d6000803e3d6000fd5b508173ffffffffffffffffffffffffffffffffffffffff167f7084f5476618d8e60b11ef0d7d3f06914655adb8793e28ff7f018d4c76d505d5826040516109269190611e2b565b60405180910390a25050565b600080600160009054906101000a900473ffffffffffffffffffffffffffffffffffffffff1673ffffffffffffffffffffffffffffffffffffffff166370a08231336040518263ffffffff1660e01b81526004016109909190611c2f565b60206040518083038186803b1580156109a857600080fd5b505afa1580156109bc573d6000803e3d6000fd5b505050506040513d601f19601f820116820180604052508101906109e091906118ac565b1015610a21576040517f08c379a0000000000000000000000000000000000000000000000000000000008152600401610a1890611d69565b60405180910390fd5b6000600160009054906101000a900473ffffffffffffffffffffffffffffffffffffffff1673ffffffffffffffffffffffffffffffffffffffff1663dd62ed3e33306040518363ffffffff1660e01b8152600401610a80929190611c4a565b60206040518083038186803b158015610a9857600080fd5b505afa158015610aac573d6000803e3d6000fd5b505050506040513d601f19601f82011682018060405250810190610ad091906118ac565b1015610b11576040517f08c379a0000000000000000000000000000000000000000000000000000000008152600401610b0890611de9565b60405180910390fd5b600073ffffffffffffffffffffffffffffffffffffffff16600360008873ffffffffffffffffffffffffffffffffffffffff1673ffffffffffffffffffffffffffffffffffffffff1681526020019081526020016000206000877bffffffffffffffffffffffffffffffffffffffffffffffffffffffff19167bffffffffffffffffffffffffffffffffffffffffffffffffffffffff1916815260200190815260200160002060000160049054906101000a900473ffffffffffffffffffffffffffffffffffffffff1673ffffffffffffffffffffffffffffffffffffffff1614610c31576040517f08c379a0000000000000000000000000000000000000000000000000000000008152600401610c2890611dc9565b60405180910390fd5b6040518060a00160405280867bffffffffffffffffffffffffffffffffffffffffffffffffffffffff191681526020018773ffffffffffffffffffffffffffffffffffffffff168152602001837bffffffffffffffffffffffffffffffffffffffffffffffffffffffff1916815260200185815260200184815250600360008873ffffffffffffffffffffffffffffffffffffffff1673ffffffffffffffffffffffffffffffffffffffff1681526020019081526020016000206000877bffffffffffffffffffffffffffffffffffffffffffffffffffffffff19167bffffffffffffffffffffffffffffffffffffffffffffffffffffffff1916815260200190815260200160002060008201518160000160006101000a81548163ffffffff021916908360e01c021790555060208201518160000160046101000a81548173ffffffffffffffffffffffffffffffffffffffff021916908373ffffffffffffffffffffffffffffffffffffffff16021790555060408201518160000160186101000a81548163ffffffff021916908360e01c02179055506060820151816001019080519060200190610de5929190611311565b506080820151816002019080519060200190610e029291906113be565b50905050600160009054906101000a900473ffffffffffffffffffffffffffffffffffffffff1673ffffffffffffffffffffffffffffffffffffffff166323b872dd33306002546040518463ffffffff1660e01b8152600401610e6793929190611caa565b602060405180830381600087803b158015610e8157600080fd5b505af1158015610e95573d6000803e3d6000fd5b505050506040513d601f19601f82011682018060405250810190610eb99190611819565b610ef8576040517f08c379a0000000000000000000000000000000000000000000000000000000008152600401610eef90611d89565b60405180910390fd5b600254600460003373ffffffffffffffffffffffffffffffffffffffff1673ffffffffffffffffffffffffffffffffffffffff1681526020019081526020016000205401600460003373ffffffffffffffffffffffffffffffffffffffff1673ffffffffffffffffffffffffffffffffffffffff16815260200190815260200160002081905550600254600460003073ffffffffffffffffffffffffffffffffffffffff1673ffffffffffffffffffffffffffffffffffffffff1681526020019081526020016000205401600460003073ffffffffffffffffffffffffffffffffffffffff1673ffffffffffffffffffffffffffffffffffffffff168152602001908152602001600020819055507f1e051ad027772c645112d87bcc233b6b2257c869f0b3292dfee4b44ffe3aa74633878760405161103993929190611c73565b60405180910390a16001905095945050505050565b600060188260038151811061105f57fe5b602001015160f81c60f81b7effffffffffffffffffffffffffffffffffffffffffffffffffffffffffffff19167bffffffffffffffffffffffffffffffffffffffffffffffffffffffff1916901c6010836002815181106110bc57fe5b602001015160f81c60f81b7effffffffffffffffffffffffffffffffffffffffffffffffffffffffffffff19167bffffffffffffffffffffffffffffffffffffffffffffffffffffffff1916901c60088460018151811061111957fe5b602001015160f81c60f81b7effffffffffffffffffffffffffffffffffffffffffffffffffffffffffffff19167bffffffffffffffffffffffffffffffffffffffffffffffffffffffff1916901c8460008151811061117457fe5b602001015160f81c60f81b7effffffffffffffffffffffffffffffffffffffffffffffffffffffffffffff19161717179050919050565b60008054906101000a900473ffffffffffffffffffffffffffffffffffffffff1681565b60046020528060005260406000206000915090505481565b6003602052816000526040600020602052806000526040600020600091509150508060000160009054906101000a900460e01b908060000160049054906101000a900473ffffffffffffffffffffffffffffffffffffffff16908060000160189054906101000a900460e01b905083565b60025481565b600160009054906101000a900473ffffffffffffffffffffffffffffffffffffffff1681565b6000600254905090565b6040518060a0016040528060007bffffffffffffffffffffffffffffffffffffffffffffffffffffffff19168152602001600073ffffffffffffffffffffffffffffffffffffffff16815260200160007bffffffffffffffffffffffffffffffffffffffffffffffffffffffff1916815260200160608152602001606081525090565b828054828255906000526020600020906007016008900481019282156113ad5791602002820160005b8382111561137b57835183826101000a81548163ffffffff021916908360e01c0217905550926020019260040160208160030104928301926001030261133a565b80156113ab5782816101000a81549063ffffffff021916905560040160208160030104928301926001030261137b565b505b5090506113ba9190611464565b5090565b82805482825590600052602060002090601f016020900481019282156114535791602002820160005b8382111561142457835183826101000a81548160ff02191690831515021790555092602001926001016020816000010492830192600103026113e7565b80156114515782816101000a81549060ff0219169055600101602081600001049283019260010302611424565b505b5090506114609190611464565b5090565b5b8082111561147d576000816000905550600101611465565b5090565b600061149461148f84611e77565b611e46565b905080838252602082019050828560208602820111156114b357600080fd5b60005b858110156114e357816114c98882611615565b8452602084019350602083019250506001810190506114b6565b5050509392505050565b60006115006114fb84611ea3565b611e46565b9050808382526020820190508285602086028201111561151f57600080fd5b60005b8581101561154f5781611535888261163f565b845260208401935060208301925050600181019050611522565b5050509392505050565b600061156c61156784611ecf565b611e46565b90508281526020810184848401111561158457600080fd5b61158f848285612074565b509392505050565b6000813590506115a681612085565b92915050565b6000813590506115bb8161209c565b92915050565b600082601f8301126115d257600080fd5b81356115e2848260208601611481565b91505092915050565b600082601f8301126115fc57600080fd5b813561160c8482602086016114ed565b91505092915050565b600081359050611624816120b3565b92915050565b600081519050611639816120b3565b92915050565b60008135905061164e816120ca565b92915050565b600082601f83011261166557600080fd5b8135611675848260208601611559565b91505092915050565b60008135905061168d816120e1565b92915050565b6000815190506116a2816120e1565b92915050565b6000602082840312156116ba57600080fd5b60006116c884828501611597565b91505092915050565b6000602082840312156116e357600080fd5b60006116f1848285016115ac565b91505092915050565b6000806040838503121561170d57600080fd5b600061171b858286016115ac565b925050602061172c85828601611597565b9150509250929050565b6000806040838503121561174957600080fd5b600061175785828601611597565b92505060206117688582860161163f565b9150509250929050565b600080600080600060a0868803121561178a57600080fd5b600061179888828901611597565b95505060206117a98882890161163f565b945050604086013567ffffffffffffffff8111156117c657600080fd5b6117d2888289016115eb565b935050606086013567ffffffffffffffff8111156117ef57600080fd5b6117fb888289016115c1565b925050608061180c8882890161163f565b9150509295509295909350565b60006020828403121561182b57600080fd5b60006118398482850161162a565b91505092915050565b60006020828403121561185457600080fd5b600082013567ffffffffffffffff81111561186e57600080fd5b61187a84828501611654565b91505092915050565b60006020828403121561189557600080fd5b60006118a38482850161167e565b91505092915050565b6000602082840312156118be57600080fd5b60006118cc84828501611693565b91505092915050565b60006118e183836119ee565b60208301905092915050565b60006118f98383611a1b565b60208301905092915050565b61190e81612008565b82525050565b61191d81611f82565b82525050565b61192c81611f82565b82525050565b600061193d82611f1f565b6119478185611f4f565b935061195283611eff565b8060005b8381101561198357815161196a88826118d5565b975061197583611f35565b925050600181019050611956565b5085935050505092915050565b600061199b82611f2a565b6119a58185611f60565b93506119b083611f0f565b8060005b838110156119e15781516119c888826118ed565b97506119d383611f42565b9250506001810190506119b4565b5085935050505092915050565b6119f781611fa6565b82525050565b611a0681611fa6565b82525050565b611a158161201a565b82525050565b611a2481611fb2565b82525050565b611a3381611fb2565b82525050565b611a428161202c565b82525050565b6000611a55601583611f71565b91507f496e76616c696420746f6b656e2062616c616e636500000000000000000000006000830152602082019050919050565b6000611a95601783611f71565b91507f5472616e73666572206661696c656420666f72206665650000000000000000006000830152602082019050919050565b6000611ad5600c83611f71565b91507f494e56414c49445f5553455200000000000000000000000000000000000000006000830152602082019050919050565b6000611b15601683611f71565b91507f4164647265737320616c726561647920657869737473000000000000000000006000830152602082019050919050565b6000611b55601783611f71565b91507f496e76616c696420746f6b656e20616c6c6f77616e63650000000000000000006000830152602082019050919050565b600060a083016000830151611ba06000860182611a1b565b506020830151611bb36020860182611914565b506040830151611bc66040860182611a1b565b5060608301518482036060860152611bde8282611990565b91505060808301518482036080860152611bf88282611932565b9150508091505092915050565b611c0e81611ffe565b82525050565b6000602082019050611c296000830184611923565b92915050565b6000602082019050611c446000830184611905565b92915050565b6000604082019050611c5f6000830185611905565b611c6c6020830184611923565b9392505050565b6000606082019050611c886000830186611905565b611c956020830185611923565b611ca26040830184611a0c565b949350505050565b6000606082019050611cbf6000830186611905565b611ccc6020830185611923565b611cd96040830184611c05565b949350505050565b6000602082019050611cf660008301846119fd565b92915050565b6000602082019050611d116000830184611a2a565b92915050565b6000606082019050611d2c6000830186611a2a565b611d396020830185611923565b611d466040830184611a2a565b949350505050565b6000602082019050611d636000830184611a39565b92915050565b60006020820190508181036000830152611d8281611a48565b9050919050565b60006020820190508181036000830152611da281611a88565b9050919050565b60006020820190508181036000830152611dc281611ac8565b9050919050565b60006020820190508181036000830152611de281611b08565b9050919050565b60006020820190508181036000830152611e0281611b48565b9050919050565b60006020820190508181036000830152611e238184611b88565b905092915050565b6000602082019050611e406000830184611c05565b92915050565b6000604051905081810181811067ffffffffffffffff82111715611e6d57611e6c612083565b5b8060405250919050565b600067ffffffffffffffff821115611e9257611e91612083565b5b602082029050602081019050919050565b600067ffffffffffffffff821115611ebe57611ebd612083565b5b602082029050602081019050919050565b600067ffffffffffffffff821115611eea57611ee9612083565b5b601f19601f8301169050602081019050919050565b6000819050602082019050919050565b6000819050602082019050919050565b600081519050919050565b600081519050919050565b6000602082019050919050565b6000602082019050919050565b600082825260208201905092915050565b600082825260208201905092915050565b600082825260208201905092915050565b6000611f8d82611fde565b9050919050565b6000611f9f82611fde565b9050919050565b60008115159050919050565b60007fffffffff0000000000000000000000000000000000000000000000000000000082169050919050565b600073ffffffffffffffffffffffffffffffffffffffff82169050919050565b6000819050919050565b600061201382612050565b9050919050565b600061202582611fb2565b9050919050565b60006120378261203e565b9050919050565b600061204982611fde565b9050919050565b600061205b82612062565b9050919050565b600061206d82611fde565b9050919050565b82818337600083830152505050565bfe5b61208e81611f82565b811461209957600080fd5b50565b6120a581611f94565b81146120b057600080fd5b50565b6120bc81611fa6565b81146120c757600080fd5b50565b6120d381611fb2565b81146120de57600080fd5b50565b6120ea81611ffe565b81146120f557600080fd5b5056fea264697066735822122083e52c64af333d88407f7e1e0d768f15040c199958cd7c3ecdde5952baa1b48e64736f6c63430007060033",
  "immutableReferences": {},
  "source": "pragma solidity ^0.7.0;\npragma experimental ABIEncoderV2;\n\nimport \"./ERC20Interface.sol\";\nimport \"./WMessages.sol\";\n\n/**\n * Maintains workflow state machine flow\n */\ncontract WFlowRegistry  is WMessages {\n    address public owner;\n    ERC20Interface public stablecoin;\n    uint public fee;\n    mapping (address => mapping( bytes4 => ActionRoute)) public actions;\n    mapping (address => uint) public accounting;\n\n    event Withdrawn(address indexed payee, uint256 weiAmount);\n\n\n    struct ActionRoute {\n        bytes4 selector;\n        address controller;\n        bytes4 nextSelector;\n        bytes4[] conditions;\n        bool[] conditionStatus;\n    }\n    \n    event MessageEntryAdded(\n        address from,\n        address actionAddress,\n        bytes32 id\n    );\n\n    function getAction(\n        address controller,\n        bytes4 selector\n    ) public view returns(ActionRoute memory) {\n        return actions[controller][selector];\n    }\n\n\n    /**\n    * XDV Data Token\n    */\n    constructor(\n        address tokenAddress\n    ) public  {\n        owner = msg.sender;\n        stablecoin  = ERC20Interface(tokenAddress);\n    }\n   \n    function setProtocolConfig(uint256 _fee) public {\n        require(msg.sender == owner, \"INVALID_USER\");\n        fee = _fee;\n    }\n\n    function getProtocolConfig() public returns (uint256) {\n        return (fee);\n    }\n\n    function withdraw(address payable payee) public {\n        require(msg.sender == owner, \"INVALID_USER\");\n        uint256 b = address(this).balance;\n        payee.transfer(address(this).balance);\n\n        emit Withdrawn(payee, b);\n    }\n\n    function withdrawToken(address payable payee, address token) public {\n        require(msg.sender == owner, \"INVALID_USER\");\n        uint256 b = ERC20Interface(token).balanceOf(address(this));\n        payee.transfer(b);\n\n        emit Withdrawn(payee, b);\n    }\n\n    // topic ABI Function Ethers\n    // ExecutePrescription(uint, uint, string) === bytes32\n    // 0xA1...\n\n    function mapMessageToController(\n        address controller,\n        bytes4 messageRequest,\n        bytes4[] memory conditions,\n        bool[] memory conditionStatus,\n        bytes4 nextMessage\n    )\n        external\n        payable\n        returns (bool)\n    {\n\n        // User must have a balance\n        require(\n            stablecoin.balanceOf(msg.sender) >= 0,\n            \"Invalid token balance\"\n        );\n        // User must have an allowance\n        require(\n            stablecoin.allowance(msg.sender, address(this)) >= 0,\n            \"Invalid token allowance\"\n        );\n\n        /* require(\n            stablecoin.balanceOf(msg.sender) == (mintingServiceFee.sum(protocolServiceFee)), \n            \"MUST SEND FEE BEFORE USE\");\n        */\n\n        require(actions[controller][messageRequest].controller == address(0), \"Address already exists\");\n\n        // register topic and mutation\n        actions[controller][messageRequest] = ActionRoute({\n            selector: messageRequest,\n            nextSelector: nextMessage,\n            controller: controller,\n            conditions: conditions,\n            conditionStatus: conditionStatus\n        });\n\n        // TODO: Update accounting\n        //  - create mappings to data provider accounting\n        //  - create mappings to protocol fee accounting\n        // Transfer tokens to pay service fee\n        require(\n            stablecoin.transferFrom(\n                msg.sender,\n                address(this), \n                fee),\n            \"Transfer failed for fee\"\n        );\n        accounting[msg.sender] = accounting[msg.sender] + fee;\n        accounting[address(this)] = accounting[address(this)] + fee;\n        emit MessageEntryAdded(\n            msg.sender,\n            controller,\n            messageRequest\n        );\n\n        return true;\n    }       \n\n\n}",
  "sourcePath": "/home/rogelio/Code/xdv/electronic-sa-contracts/contracts/WFlowRegistry.sol",
  "compiler": {
    "name": "solc",
    "version": "0.7.6+commit.7338295f.Emscripten.clang"
  },
  "schemaVersion": "3.3.3",
  "updatedAt": "2021-02-10T16:53:19.035Z",
  "networkType": "ethereum",
  "devdoc": {
    "kind": "dev",
    "methods": {},
    "version": 1
  },
  "userdoc": {
    "kind": "user",
    "methods": {
      "constructor": {
        "notice": "XDV Data Token"
      }
    },
    "notice": "Maintains workflow state machine flow",
    "version": 1
  }
}