{
  "contractName": "Whitelist",
  "abi": [
    {
      "anonymous": false,
      "inputs": [
        {
          "indexed": false,
          "internalType": "address",
          "name": "caller",
          "type": "address"
        },
        {
          "indexed": false,
          "internalType": "bytes4",
          "name": "methodName",
          "type": "bytes4"
        },
        {
          "indexed": false,
          "internalType": "bool",
          "name": "enable",
          "type": "bool"
        }
      ],
      "name": "UserWhitelistChanged",
      "type": "event"
    },
    {
      "inputs": [
        {
          "internalType": "bytes32",
          "name": "",
          "type": "bytes32"
        },
        {
          "internalType": "bytes4",
          "name": "",
          "type": "bytes4"
        }
      ],
      "name": "actionWhitelisting",
      "outputs": [
        {
          "internalType": "bool",
          "name": "",
          "type": "bool"
        }
      ],
      "stateMutability": "view",
      "type": "function"
    },
    {
      "inputs": [
        {
          "internalType": "bytes",
          "name": "data",
          "type": "bytes"
        }
      ],
      "name": "getMethodSig",
      "outputs": [
        {
          "internalType": "bytes4",
          "name": "",
          "type": "bytes4"
        }
      ],
      "stateMutability": "pure",
      "type": "function"
    },
    {
      "inputs": [],
      "name": "owner",
      "outputs": [
        {
          "internalType": "address",
          "name": "",
          "type": "address"
        }
      ],
      "stateMutability": "view",
      "type": "function"
    },
    {
      "inputs": [
        {
          "internalType": "address",
          "name": "",
          "type": "address"
        },
        {
          "internalType": "bytes4",
          "name": "",
          "type": "bytes4"
        }
      ],
      "name": "userWhitelist",
      "outputs": [
        {
          "internalType": "bool",
          "name": "",
          "type": "bool"
        }
      ],
      "stateMutability": "view",
      "type": "function"
    },
    {
      "inputs": [
        {
          "internalType": "address",
          "name": "caller",
          "type": "address"
        },
        {
          "internalType": "bytes4",
          "name": "fnName",
          "type": "bytes4"
        },
        {
          "internalType": "bool",
          "name": "enable",
          "type": "bool"
        }
      ],
      "name": "setUserWhitelist",
      "outputs": [
        {
          "internalType": "bool",
          "name": "",
          "type": "bool"
        }
      ],
      "stateMutability": "nonpayable",
      "type": "function"
    }
  ],
  "bytecode": "0x608060405234801561001057600080fd5b506108f3806100206000396000f3fe608060405234801561001057600080fd5b50600436106100575760003560e01c80636d64516e1461005c5780638a173e3a1461008c5780638a5a7a69146100bc5780638da5cb5b146100ec578063e2ca76461461010a575b600080fd5b610076600480360381019061007191906105d8565b61013a565b6040516100839190610714565b60405180910390f35b6100a660048036038101906100a19190610614565b610169565b6040516100b3919061072f565b60405180910390f35b6100d660048036038101906100d19190610589565b6102c6565b6040516100e39190610714565b60405180910390f35b6100f461043e565b60405161010191906106c2565b60405180910390f35b610124600480360381019061011f919061054d565b610462565b6040516101319190610714565b60405180910390f35b60016020528160005260406000206020528060005260406000206000915091509054906101000a900460ff1681565b600060188260038151811061017a57fe5b602001015160f81c60f81b7effffffffffffffffffffffffffffffffffffffffffffffffffffffffffffff19167bffffffffffffffffffffffffffffffffffffffffffffffffffffffff1916901c6010836002815181106101d757fe5b602001015160f81c60f81b7effffffffffffffffffffffffffffffffffffffffffffffffffffffffffffff19167bffffffffffffffffffffffffffffffffffffffffffffffffffffffff1916901c60088460018151811061023457fe5b602001015160f81c60f81b7effffffffffffffffffffffffffffffffffffffffffffffffffffffffffffff19167bffffffffffffffffffffffffffffffffffffffffffffffffffffffff1916901c8460008151811061028f57fe5b602001015160f81c60f81b7effffffffffffffffffffffffffffffffffffffffffffffffffffffffffffff19161717179050919050565b60003373ffffffffffffffffffffffffffffffffffffffff1660008054906101000a900473ffffffffffffffffffffffffffffffffffffffff1673ffffffffffffffffffffffffffffffffffffffff1614610356576040517f08c379a000000000000000000000000000000000000000000000000000000000815260040161034d9061074a565b60405180910390fd5b81600260008673ffffffffffffffffffffffffffffffffffffffff1673ffffffffffffffffffffffffffffffffffffffff1681526020019081526020016000206000857bffffffffffffffffffffffffffffffffffffffffffffffffffffffff19167bffffffffffffffffffffffffffffffffffffffffffffffffffffffff1916815260200190815260200160002060006101000a81548160ff0219169083151502179055507f7f41b44a4d0cf3e01e6c1dc089568e147a684629672ed575e47ff05bd1bb29a384848460405161042f939291906106dd565b60405180910390a19392505050565b60008054906101000a900473ffffffffffffffffffffffffffffffffffffffff1681565b60026020528160005260406000206020528060005260406000206000915091509054906101000a900460ff1681565b60006104a461049f8461079b565b61076a565b9050828152602081018484840111156104bc57600080fd5b6104c7848285610850565b509392505050565b6000813590506104de81610861565b92915050565b6000813590506104f381610878565b92915050565b6000813590506105088161088f565b92915050565b60008135905061051d816108a6565b92915050565b600082601f83011261053457600080fd5b8135610544848260208601610491565b91505092915050565b6000806040838503121561056057600080fd5b600061056e858286016104cf565b925050602061057f8582860161050e565b9150509250929050565b60008060006060848603121561059e57600080fd5b60006105ac868287016104cf565b93505060206105bd8682870161050e565b92505060406105ce868287016104e4565b9150509250925092565b600080604083850312156105eb57600080fd5b60006105f9858286016104f9565b925050602061060a8582860161050e565b9150509250929050565b60006020828403121561062657600080fd5b600082013567ffffffffffffffff81111561064057600080fd5b61064c84828501610523565b91505092915050565b61065e816107dc565b82525050565b61066d816107ee565b82525050565b61067c81610804565b82525050565b600061068f600e836107cb565b91507f4e6f7420617574686f72697a65640000000000000000000000000000000000006000830152602082019050919050565b60006020820190506106d76000830184610655565b92915050565b60006060820190506106f26000830186610655565b6106ff6020830185610673565b61070c6040830184610664565b949350505050565b60006020820190506107296000830184610664565b92915050565b60006020820190506107446000830184610673565b92915050565b6000602082019050818103600083015261076381610682565b9050919050565b6000604051905081810181811067ffffffffffffffff821117156107915761079061085f565b5b8060405250919050565b600067ffffffffffffffff8211156107b6576107b561085f565b5b601f19601f8301169050602081019050919050565b600082825260208201905092915050565b60006107e782610830565b9050919050565b60008115159050919050565b6000819050919050565b60007fffffffff0000000000000000000000000000000000000000000000000000000082169050919050565b600073ffffffffffffffffffffffffffffffffffffffff82169050919050565b82818337600083830152505050565bfe5b61086a816107dc565b811461087557600080fd5b50565b610881816107ee565b811461088c57600080fd5b50565b610898816107fa565b81146108a357600080fd5b50565b6108af81610804565b81146108ba57600080fd5b5056fea2646970667358221220e926f1c60b5e3b248b61e6378a259d9812c909ded6ceb0be554fe54dd5283e5f64736f6c63430007060033",
  "immutableReferences": {},
  "source": "pragma solidity ^0.7.0;\npragma experimental ABIEncoderV2;\n\nimport \"./Utils.sol\";\n\ncontract Whitelist is Utils {\n\n    address public owner;\n\n    event UserWhitelistChanged(\n        address caller,\n        bytes4 methodName,\n        bool enable\n    );\n\n    mapping (bytes32 => mapping( bytes4 => bool)) public actionWhitelisting;\n\n    mapping(address => mapping(bytes4 => bool)) public userWhitelist; \n\n    modifier onlyWhitelisted {\n        require(userWhitelist[msg.sender][getMethodSig(msg.data)], \"Invalid sender\");\n        _;\n    }\n\n    function setUserWhitelist(\n        address caller,\n        bytes4 fnName,\n        bool enable\n    ) public returns(bool) {\n        require(owner == msg.sender, \"Not authorized\");\n\n        userWhitelist[caller][fnName] = enable;\n\n        emit UserWhitelistChanged(\n            caller,\n            fnName,\n            enable\n        );\n    }\n\n}",
  "sourcePath": "/home/rogelio/Code/xdv/electronic-sa-contracts/contracts/Whitelist.sol",
  "compiler": {
    "name": "solc",
    "version": "0.7.6+commit.7338295f.Emscripten.clang"
  },
  "schemaVersion": "3.3.3",
  "updatedAt": "2021-02-12T15:14:42.574Z",
  "devdoc": {
    "kind": "dev",
    "methods": {},
    "version": 1
  },
  "userdoc": {
    "kind": "user",
    "methods": {},
    "version": 1
  }
}