{
  "contractName": "Whitelist",
  "abi": [
    {
      "inputs": [
        {
          "internalType": "address",
          "name": "_owner",
          "type": "address"
        }
      ],
      "stateMutability": "nonpayable",
      "type": "constructor"
    },
    {
      "anonymous": false,
      "inputs": [
        {
          "indexed": false,
          "internalType": "address",
          "name": "caller",
          "type": "address"
        },
        {
          "indexed": false,
          "internalType": "bytes4",
          "name": "methodName",
          "type": "bytes4"
        },
        {
          "indexed": false,
          "internalType": "bool",
          "name": "enable",
          "type": "bool"
        }
      ],
      "name": "UserWhitelistChanged",
      "type": "event"
    },
    {
      "inputs": [
        {
          "internalType": "address",
          "name": "",
          "type": "address"
        },
        {
          "internalType": "bytes4",
          "name": "",
          "type": "bytes4"
        }
      ],
      "name": "actionWhitelisting",
      "outputs": [
        {
          "internalType": "bool",
          "name": "",
          "type": "bool"
        }
      ],
      "stateMutability": "view",
      "type": "function"
    },
    {
      "inputs": [
        {
          "internalType": "bytes",
          "name": "data",
          "type": "bytes"
        }
      ],
      "name": "getMethodSig",
      "outputs": [
        {
          "internalType": "bytes4",
          "name": "",
          "type": "bytes4"
        }
      ],
      "stateMutability": "pure",
      "type": "function"
    },
    {
      "inputs": [
        {
          "internalType": "address",
          "name": "",
          "type": "address"
        },
        {
          "internalType": "bytes4",
          "name": "",
          "type": "bytes4"
        }
      ],
      "name": "userWhitelist",
      "outputs": [
        {
          "internalType": "bool",
          "name": "",
          "type": "bool"
        }
      ],
      "stateMutability": "view",
      "type": "function"
    },
    {
      "inputs": [
        {
          "internalType": "address",
          "name": "caller",
          "type": "address"
        },
        {
          "internalType": "bytes4",
          "name": "fnName",
          "type": "bytes4"
        },
        {
          "internalType": "bool",
          "name": "enable",
          "type": "bool"
        }
      ],
      "name": "setUserWhitelist",
      "outputs": [
        {
          "internalType": "bool",
          "name": "",
          "type": "bool"
        }
      ],
      "stateMutability": "nonpayable",
      "type": "function"
    }
  ],
  "bytecode": "0x608060405234801561001057600080fd5b506040516109273803806109278339818101604052810190610032919061008d565b806000806101000a81548173ffffffffffffffffffffffffffffffffffffffff021916908373ffffffffffffffffffffffffffffffffffffffff160217905550506100ff565b600081519050610087816100e8565b92915050565b60006020828403121561009f57600080fd5b60006100ad84828501610078565b91505092915050565b60006100c1826100c8565b9050919050565b600073ffffffffffffffffffffffffffffffffffffffff82169050919050565b6100f1816100b6565b81146100fc57600080fd5b50565b6108198061010e6000396000f3fe608060405234801561001057600080fd5b506004361061004c5760003560e01c80638a173e3a146100515780638a5a7a6914610081578063c4455c79146100b1578063e2ca7646146100e1575b600080fd5b61006b60048036038101906100669190610576565b610111565b6040516100789190610676565b60405180910390f35b61009b60048036038101906100969190610527565b61026e565b6040516100a8919061065b565b60405180910390f35b6100cb60048036038101906100c691906104eb565b6103e6565b6040516100d8919061065b565b60405180910390f35b6100fb60048036038101906100f691906104eb565b610415565b604051610108919061065b565b60405180910390f35b600060188260038151811061012257fe5b602001015160f81c60f81b7effffffffffffffffffffffffffffffffffffffffffffffffffffffffffffff19167bffffffffffffffffffffffffffffffffffffffffffffffffffffffff1916901c60108360028151811061017f57fe5b602001015160f81c60f81b7effffffffffffffffffffffffffffffffffffffffffffffffffffffffffffff19167bffffffffffffffffffffffffffffffffffffffffffffffffffffffff1916901c6008846001815181106101dc57fe5b602001015160f81c60f81b7effffffffffffffffffffffffffffffffffffffffffffffffffffffffffffff19167bffffffffffffffffffffffffffffffffffffffffffffffffffffffff1916901c8460008151811061023757fe5b602001015160f81c60f81b7effffffffffffffffffffffffffffffffffffffffffffffffffffffffffffff19161717179050919050565b60003373ffffffffffffffffffffffffffffffffffffffff1660008054906101000a900473ffffffffffffffffffffffffffffffffffffffff1673ffffffffffffffffffffffffffffffffffffffff16146102fe576040517f08c379a00000000000000000000000000000000000000000000000000000000081526004016102f590610691565b60405180910390fd5b81600260008673ffffffffffffffffffffffffffffffffffffffff1673ffffffffffffffffffffffffffffffffffffffff1681526020019081526020016000206000857bffffffffffffffffffffffffffffffffffffffffffffffffffffffff19167bffffffffffffffffffffffffffffffffffffffffffffffffffffffff1916815260200190815260200160002060006101000a81548160ff0219169083151502179055507f7f41b44a4d0cf3e01e6c1dc089568e147a684629672ed575e47ff05bd1bb29a38484846040516103d793929190610624565b60405180910390a19392505050565b60016020528160005260406000206020528060005260406000206000915091509054906101000a900460ff1681565b60026020528160005260406000206020528060005260406000206000915091509054906101000a900460ff1681565b6000610457610452846106e2565b6106b1565b90508281526020810184848401111561046f57600080fd5b61047a84828561078d565b509392505050565b6000813590506104918161079e565b92915050565b6000813590506104a6816107b5565b92915050565b6000813590506104bb816107cc565b92915050565b600082601f8301126104d257600080fd5b81356104e2848260208601610444565b91505092915050565b600080604083850312156104fe57600080fd5b600061050c85828601610482565b925050602061051d858286016104ac565b9150509250929050565b60008060006060848603121561053c57600080fd5b600061054a86828701610482565b935050602061055b868287016104ac565b925050604061056c86828701610497565b9150509250925092565b60006020828403121561058857600080fd5b600082013567ffffffffffffffff8111156105a257600080fd5b6105ae848285016104c1565b91505092915050565b6105c081610723565b82525050565b6105cf81610735565b82525050565b6105de81610741565b82525050565b60006105f1600e83610712565b91507f4e6f7420617574686f72697a65640000000000000000000000000000000000006000830152602082019050919050565b600060608201905061063960008301866105b7565b61064660208301856105d5565b61065360408301846105c6565b949350505050565b600060208201905061067060008301846105c6565b92915050565b600060208201905061068b60008301846105d5565b92915050565b600060208201905081810360008301526106aa816105e4565b9050919050565b6000604051905081810181811067ffffffffffffffff821117156106d8576106d761079c565b5b8060405250919050565b600067ffffffffffffffff8211156106fd576106fc61079c565b5b601f19601f8301169050602081019050919050565b600082825260208201905092915050565b600061072e8261076d565b9050919050565b60008115159050919050565b60007fffffffff0000000000000000000000000000000000000000000000000000000082169050919050565b600073ffffffffffffffffffffffffffffffffffffffff82169050919050565b82818337600083830152505050565bfe5b6107a781610723565b81146107b257600080fd5b50565b6107be81610735565b81146107c957600080fd5b50565b6107d581610741565b81146107e057600080fd5b5056fea2646970667358221220734e7f742540f98811c8e15b72035428c89f33bfe28dd3ad7063f15aab96d22064736f6c63430007060033",
  "immutableReferences": {},
  "source": "pragma solidity ^0.7.0;\npragma experimental ABIEncoderV2;\n\nimport \"./Utils.sol\";\n\ncontract Whitelist is Utils {\n\n    address private owner;\n\n    event UserWhitelistChanged(\n        address caller,\n        bytes4 methodName,\n        bool enable\n    );\n\n    mapping (address => mapping( bytes4 => bool)) public actionWhitelisting;\n\n    mapping(address => mapping(bytes4 => bool)) public userWhitelist; \n\n    modifier onlyWhitelisted(address sender, bytes4 data) {\n        require(userWhitelist[sender][data] == true, \"Invalid sender\");\n        _;\n    }\n\n    constructor(address _owner)  {\n        owner = _owner;\n    }\n    function setUserWhitelist(\n        address caller,\n        bytes4 fnName,\n        bool enable\n    ) public returns(bool) {\n        require(owner == msg.sender, \"Not authorized\");\n\n        userWhitelist[caller][fnName] = enable;\n\n        emit UserWhitelistChanged(\n            caller,\n            fnName,\n            enable\n        );\n    }\n\n}",
  "sourcePath": "/home/rogelio/Code/xdv/electronic-sa-contracts/contracts/Whitelist.sol",
  "compiler": {
    "name": "solc",
    "version": "0.7.6+commit.7338295f.Emscripten.clang"
  },
  "schemaVersion": "3.3.3",
  "updatedAt": "2021-02-16T18:23:01.757Z",
  "devdoc": {
    "kind": "dev",
    "methods": {},
    "version": 1
  },
  "userdoc": {
    "kind": "user",
    "methods": {},
    "version": 1
  }
}