{
  "contractName": "WMessages",
  "abi": [
    {
      "anonymous": false,
      "inputs": [
        {
          "indexed": false,
          "internalType": "bytes4",
          "name": "methodSig",
          "type": "bytes4"
        },
        {
          "indexed": false,
          "internalType": "bytes",
          "name": "request",
          "type": "bytes"
        }
      ],
      "name": "ActionChanged",
      "type": "event"
    },
    {
      "anonymous": false,
      "inputs": [
        {
          "indexed": false,
          "internalType": "string",
          "name": "propName",
          "type": "string"
        },
        {
          "indexed": false,
          "internalType": "bytes",
          "name": "data",
          "type": "bytes"
        }
      ],
      "name": "PropertyChanged",
      "type": "event"
    },
    {
      "inputs": [
        {
          "internalType": "bytes",
          "name": "data",
          "type": "bytes"
        }
      ],
      "name": "getMethodSig",
      "outputs": [
        {
          "internalType": "bytes4",
          "name": "",
          "type": "bytes4"
        }
      ],
      "stateMutability": "pure",
      "type": "function"
    }
  ],
  "bytecode": "0x608060405234801561001057600080fd5b50610364806100206000396000f3fe608060405234801561001057600080fd5b506004361061002b5760003560e01c80638a173e3a14610030575b600080fd5b61004a60048036038101906100459190610225565b610060565b6040516100579190610275565b60405180910390f35b600060188260038151811061007157fe5b602001015160f81c60f81b7effffffffffffffffffffffffffffffffffffffffffffffffffffffffffffff19167bffffffffffffffffffffffffffffffffffffffffffffffffffffffff1916901c6010836002815181106100ce57fe5b602001015160f81c60f81b7effffffffffffffffffffffffffffffffffffffffffffffffffffffffffffff19167bffffffffffffffffffffffffffffffffffffffffffffffffffffffff1916901c60088460018151811061012b57fe5b602001015160f81c60f81b7effffffffffffffffffffffffffffffffffffffffffffffffffffffffffffff19167bffffffffffffffffffffffffffffffffffffffffffffffffffffffff1916901c8460008151811061018657fe5b602001015160f81c60f81b7effffffffffffffffffffffffffffffffffffffffffffffffffffffffffffff19161717179050919050565b60006101d06101cb846102c1565b610290565b9050828152602081018484840111156101e857600080fd5b6101f384828561031d565b509392505050565b600082601f83011261020c57600080fd5b813561021c8482602086016101bd565b91505092915050565b60006020828403121561023757600080fd5b600082013567ffffffffffffffff81111561025157600080fd5b61025d848285016101fb565b91505092915050565b61026f816102f1565b82525050565b600060208201905061028a6000830184610266565b92915050565b6000604051905081810181811067ffffffffffffffff821117156102b7576102b661032c565b5b8060405250919050565b600067ffffffffffffffff8211156102dc576102db61032c565b5b601f19601f8301169050602081019050919050565b60007fffffffff0000000000000000000000000000000000000000000000000000000082169050919050565b82818337600083830152505050565bfefea2646970667358221220ec8ac3aa0dfb9f2e2e8b69f2a0fc43c4786d00ef3d82bf74a9cec24bb56dc7b064736f6c63430007060033",
  "immutableReferences": {},
  "source": "pragma solidity ^0.7.0;\npragma experimental ABIEncoderV2;\n\ncontract WMessages {\n\n    event PropertyChanged(string propName, bytes data);\n    event ActionChanged(bytes4 methodSig, bytes request);\n    \n// A Workflow payload can either be content addressable document or NFT address with supplied token id\n    struct WorkflowPayload  {\n        // IPLD has containing document\n        string documentURI;\n        // Agent DID\n        string didAgent;\n        // Owner address\n        address payloadOwner;\n        // Owner DID\n        string didPayloadOwner;\n        // timeout message if router can't find addresss\n        uint timeoutAfterRetries;\n        // NFT Address if ERC721\n        address nftAddress;\n        // NFT TokenID\n        uint tokenId;\n    }\n\n    function getMethodSig(bytes memory data) public pure returns (bytes4) {\n        return (bytes4(data[0]) | bytes4(data[1]) >> 8 |\n            bytes4(data[2]) >> 16 | bytes4(data[3]) >> 24);\n    }\n}",
  "sourcePath": "/home/rogelio/Code/xdv/electronic-sa-contracts/contracts/WMessages.sol",
  "compiler": {
    "name": "solc",
    "version": "0.7.6+commit.7338295f.Emscripten.clang"
  },
  "schemaVersion": "3.3.3",
  "updatedAt": "2021-02-10T16:53:19.019Z",
  "networkType": "ethereum",
  "devdoc": {
    "kind": "dev",
    "methods": {},
    "version": 1
  },
  "userdoc": {
    "kind": "user",
    "methods": {},
    "version": 1
  }
}