{
  "contractName": "WStateRelayer",
  "abi": [
    {
      "inputs": [
        {
          "internalType": "address",
          "name": "wfRegistry",
          "type": "address"
        }
      ],
      "stateMutability": "nonpayable",
      "type": "constructor"
    },
    {
      "anonymous": false,
      "inputs": [
        {
          "indexed": false,
          "internalType": "bytes4",
          "name": "methodSig",
          "type": "bytes4"
        },
        {
          "indexed": false,
          "internalType": "bytes",
          "name": "request",
          "type": "bytes"
        }
      ],
      "name": "ActionChanged",
      "type": "event"
    },
    {
      "anonymous": false,
      "inputs": [
        {
          "indexed": false,
          "internalType": "bytes",
          "name": "request",
          "type": "bytes"
        },
        {
          "indexed": false,
          "internalType": "bytes",
          "name": "response",
          "type": "bytes"
        },
        {
          "indexed": false,
          "internalType": "uint256",
          "name": "id",
          "type": "uint256"
        }
      ],
      "name": "MessageRelayed",
      "type": "event"
    },
    {
      "anonymous": false,
      "inputs": [
        {
          "indexed": false,
          "internalType": "address",
          "name": "controller",
          "type": "address"
        },
        {
          "indexed": false,
          "internalType": "bytes4",
          "name": "selector",
          "type": "bytes4"
        },
        {
          "indexed": false,
          "internalType": "bytes4",
          "name": "next",
          "type": "bytes4"
        },
        {
          "indexed": false,
          "internalType": "uint256",
          "name": "id",
          "type": "uint256"
        }
      ],
      "name": "MessageRequestCompleted",
      "type": "event"
    },
    {
      "anonymous": false,
      "inputs": [
        {
          "indexed": false,
          "internalType": "string",
          "name": "propName",
          "type": "string"
        },
        {
          "indexed": false,
          "internalType": "bytes",
          "name": "data",
          "type": "bytes"
        }
      ],
      "name": "PropertyChanged",
      "type": "event"
    },
    {
      "inputs": [
        {
          "internalType": "bytes",
          "name": "data",
          "type": "bytes"
        }
      ],
      "name": "getMethodSig",
      "outputs": [
        {
          "internalType": "bytes4",
          "name": "",
          "type": "bytes4"
        }
      ],
      "stateMutability": "pure",
      "type": "function",
      "constant": true
    },
    {
      "inputs": [],
      "name": "jobCounter",
      "outputs": [
        {
          "internalType": "uint256",
          "name": "",
          "type": "uint256"
        }
      ],
      "stateMutability": "view",
      "type": "function",
      "constant": true
    },
    {
      "inputs": [
        {
          "internalType": "uint256",
          "name": "",
          "type": "uint256"
        }
      ],
      "name": "jobs",
      "outputs": [
        {
          "internalType": "uint256",
          "name": "status",
          "type": "uint256"
        },
        {
          "internalType": "uint256",
          "name": "id",
          "type": "uint256"
        },
        {
          "internalType": "bytes",
          "name": "request",
          "type": "bytes"
        },
        {
          "internalType": "bytes",
          "name": "response",
          "type": "bytes"
        },
        {
          "internalType": "bytes4",
          "name": "selector",
          "type": "bytes4"
        },
        {
          "internalType": "bytes4",
          "name": "next",
          "type": "bytes4"
        }
      ],
      "stateMutability": "view",
      "type": "function",
      "constant": true
    },
    {
      "inputs": [],
      "name": "registry",
      "outputs": [
        {
          "internalType": "contract WFlowRegistry",
          "name": "",
          "type": "address"
        }
      ],
      "stateMutability": "view",
      "type": "function",
      "constant": true
    },
    {
      "inputs": [
        {
          "internalType": "address",
          "name": "controller",
          "type": "address"
        },
        {
          "internalType": "bytes4",
          "name": "selector",
          "type": "bytes4"
        },
        {
          "internalType": "bytes",
          "name": "params",
          "type": "bytes"
        }
      ],
      "name": "executeRequestResponse",
      "outputs": [
        {
          "internalType": "uint256",
          "name": "",
          "type": "uint256"
        }
      ],
      "stateMutability": "nonpayable",
      "type": "function"
    },
    {
      "inputs": [
        {
          "internalType": "address",
          "name": "controller",
          "type": "address"
        },
        {
          "internalType": "bytes4",
          "name": "selector",
          "type": "bytes4"
        },
        {
          "internalType": "uint256",
          "name": "jobId",
          "type": "uint256"
        }
      ],
      "name": "executeJobCondition",
      "outputs": [
        {
          "internalType": "bool",
          "name": "",
          "type": "bool"
        }
      ],
      "stateMutability": "nonpayable",
      "type": "function"
    }
  ],
  "bytecode": "0x60806040523480156200001157600080fd5b5060405162001f0338038062001f03833981810160405281019062000037919062000095565b806000806101000a81548173ffffffffffffffffffffffffffffffffffffffff021916908373ffffffffffffffffffffffffffffffffffffffff160217905550506200010f565b6000815190506200008f81620000f5565b92915050565b600060208284031215620000a857600080fd5b6000620000b8848285016200007e565b91505092915050565b6000620000ce82620000d5565b9050919050565b600073ffffffffffffffffffffffffffffffffffffffff82169050919050565b6200010081620000c1565b81146200010c57600080fd5b50565b611de4806200011f6000396000f3fe608060405234801561001057600080fd5b50600436106100625760003560e01c8063180aedf31461006757806350355d761461009c5780637b103999146100ba5780638a173e3a146100d8578063c6de66bd14610108578063f5a9b52214610138575b600080fd5b610081600480360381019061007c919061170c565b610168565b60405161009396959493929190611ade565b60405180910390f35b6100a46102ee565b6040516100b19190611ac3565b60405180910390f35b6100c26102f4565b6040516100cf9190611a68565b60405180910390f35b6100f260048036038101906100ed919061168a565b610318565b6040516100ff9190611a08565b60405180910390f35b610122600480360381019061011d9190611612565b610475565b60405161012f91906119ed565b60405180910390f35b610152600480360381019061014d91906115ab565b610c7f565b60405161015f9190611ac3565b60405180910390f35b6002602052806000526040600020600091509050806000015490806001015490806002018054600181600116156101000203166002900480601f0160208091040260200160405190810160405280929190818152602001828054600181600116156101000203166002900480156102205780601f106101f557610100808354040283529160200191610220565b820191906000526020600020905b81548152906001019060200180831161020357829003601f168201915b505050505090806003018054600181600116156101000203166002900480601f0160208091040260200160405190810160405280929190818152602001828054600181600116156101000203166002900480156102be5780601f10610293576101008083540402835291602001916102be565b820191906000526020600020905b8154815290600101906020018083116102a157829003601f168201915b5050505050908060040160009054906101000a900460e01b908060040160049054906101000a900460e01b905086565b60015481565b60008054906101000a900473ffffffffffffffffffffffffffffffffffffffff1681565b600060188260038151811061032957fe5b602001015160f81c60f81b7effffffffffffffffffffffffffffffffffffffffffffffffffffffffffffff19167bffffffffffffffffffffffffffffffffffffffffffffffffffffffff1916901c60108360028151811061038657fe5b602001015160f81c60f81b7effffffffffffffffffffffffffffffffffffffffffffffffffffffffffffff19167bffffffffffffffffffffffffffffffffffffffffffffffffffffffff1916901c6008846001815181106103e357fe5b602001015160f81c60f81b7effffffffffffffffffffffffffffffffffffffffffffffffffffffffffffff19167bffffffffffffffffffffffffffffffffffffffffffffffffffffffff1916901c8460008151811061043e57fe5b602001015160f81c60f81b7effffffffffffffffffffffffffffffffffffffffffffffffffffffffffffff19161717179050919050565b60008060008054906101000a900473ffffffffffffffffffffffffffffffffffffffff1673ffffffffffffffffffffffffffffffffffffffff16634402521286866040518363ffffffff1660e01b81526004016104d392919061197f565b60006040518083038186803b1580156104eb57600080fd5b505afa1580156104ff573d6000803e3d6000fd5b505050506040513d6000823e3d601f19601f8201168201806040525081019061052891906116cb565b60600151511161056d576040517f08c379a000000000000000000000000000000000000000000000000000000000815260040161056490611aa3565b60405180910390fd5b60006002600084815260200190815260200160002060000154146105c6576040517f08c379a00000000000000000000000000000000000000000000000000000000081526004016105bd90611a83565b60405180910390fd5b6000805b60008054906101000a900473ffffffffffffffffffffffffffffffffffffffff1673ffffffffffffffffffffffffffffffffffffffff16634402521287876040518363ffffffff1660e01b815260040161062592919061197f565b60006040518083038186803b15801561063d57600080fd5b505afa158015610651573d6000803e3d6000fd5b505050506040513d6000823e3d601f19601f8201168201806040525081019061067a91906116cb565b60600151518110156109f95760008060008054906101000a900473ffffffffffffffffffffffffffffffffffffffff1673ffffffffffffffffffffffffffffffffffffffff16634402521289896040518363ffffffff1660e01b81526004016106e492919061197f565b60006040518083038186803b1580156106fc57600080fd5b505afa158015610710573d6000803e3d6000fd5b505050506040513d6000823e3d601f19601f8201168201806040525081019061073991906116cb565b6020015173ffffffffffffffffffffffffffffffffffffffff1660008054906101000a900473ffffffffffffffffffffffffffffffffffffffff1673ffffffffffffffffffffffffffffffffffffffff1663440252128a8a6040518363ffffffff1660e01b81526004016107ae92919061197f565b60006040518083038186803b1580156107c657600080fd5b505afa1580156107da573d6000803e3d6000fd5b505050506040513d6000823e3d601f19601f8201168201806040525081019061080391906116cb565b60600151848151811061081257fe5b602002602001015133600260008a815260200190815260200160002060030160405160240161084292919061194f565b604051602081830303815290604052907bffffffffffffffffffffffffffffffffffffffffffffffffffffffff19166020820180517bffffffffffffffffffffffffffffffffffffffffffffffffffffffff83818316178352505050506040516108ac9190611908565b6000604051808303816000865af19150503d80600081146108e9576040519150601f19603f3d011682016040523d82523d6000602084013e6108ee565b606091505b50915091506000818060200190518101906109099190611661565b90508060008054906101000a900473ffffffffffffffffffffffffffffffffffffffff1673ffffffffffffffffffffffffffffffffffffffff1663440252128b8b6040518363ffffffff1660e01b815260040161096792919061197f565b60006040518083038186803b15801561097f57600080fd5b505afa158015610993573d6000803e3d6000fd5b505050506040513d6000823e3d601f19601f820116820180604052508101906109bc91906116cb565b6080015185815181106109cb57fe5b6020026020010190151590811515815250508480156109e75750805b945050505080806001019150506105ca565b508015610c7357600160026000858152602001908152602001600020600001819055507f0d74470b50693dfe5944746d63eaadd783ba49f4bdbdb77b0f7a116e7fe558c460008054906101000a900473ffffffffffffffffffffffffffffffffffffffff1673ffffffffffffffffffffffffffffffffffffffff16634402521287876040518363ffffffff1660e01b8152600401610a9892919061197f565b60006040518083038186803b158015610ab057600080fd5b505afa158015610ac4573d6000803e3d6000fd5b505050506040513d6000823e3d601f19601f82011682018060405250810190610aed91906116cb565b6020015160008054906101000a900473ffffffffffffffffffffffffffffffffffffffff1673ffffffffffffffffffffffffffffffffffffffff16634402521288886040518363ffffffff1660e01b8152600401610b4c92919061197f565b60006040518083038186803b158015610b6457600080fd5b505afa158015610b78573d6000803e3d6000fd5b505050506040513d6000823e3d601f19601f82011682018060405250810190610ba191906116cb565b6000015160008054906101000a900473ffffffffffffffffffffffffffffffffffffffff1673ffffffffffffffffffffffffffffffffffffffff16634402521289896040518363ffffffff1660e01b8152600401610c0092919061197f565b60006040518083038186803b158015610c1857600080fd5b505afa158015610c2c573d6000803e3d6000fd5b505050506040513d6000823e3d601f19601f82011682018060405250810190610c5591906116cb565b6040015186604051610c6a94939291906119a8565b60405180910390a15b60019150509392505050565b60008073ffffffffffffffffffffffffffffffffffffffff1660008054906101000a900473ffffffffffffffffffffffffffffffffffffffff1673ffffffffffffffffffffffffffffffffffffffff16634402521286866040518363ffffffff1660e01b8152600401610cf392919061197f565b60006040518083038186803b158015610d0b57600080fd5b505afa158015610d1f573d6000803e3d6000fd5b505050506040513d6000823e3d601f19601f82011682018060405250810190610d4891906116cb565b6020015173ffffffffffffffffffffffffffffffffffffffff161415610da3576040517f08c379a0000000000000000000000000000000000000000000000000000000008152600401610d9a90611aa3565b60405180910390fd5b60008060008054906101000a900473ffffffffffffffffffffffffffffffffffffffff1673ffffffffffffffffffffffffffffffffffffffff16634402521287876040518363ffffffff1660e01b8152600401610e0192919061197f565b60006040518083038186803b158015610e1957600080fd5b505afa158015610e2d573d6000803e3d6000fd5b505050506040513d6000823e3d601f19601f82011682018060405250810190610e5691906116cb565b6020015173ffffffffffffffffffffffffffffffffffffffff1660008054906101000a900473ffffffffffffffffffffffffffffffffffffffff1673ffffffffffffffffffffffffffffffffffffffff16634402521288886040518363ffffffff1660e01b8152600401610ecb92919061197f565b60006040518083038186803b158015610ee357600080fd5b505afa158015610ef7573d6000803e3d6000fd5b505050506040513d6000823e3d601f19601f82011682018060405250810190610f2091906116cb565b600001513386604051602401610f3792919061191f565b604051602081830303815290604052907bffffffffffffffffffffffffffffffffffffffffffffffffffffffff19166020820180517bffffffffffffffffffffffffffffffffffffffffffffffffffffffff8381831617835250505050604051610fa19190611908565b6000604051808303816000865af19150503d8060008114610fde576040519150601f19603f3d011682016040523d82523d6000602084013e610fe3565b606091505b50915091508161100157610ff68161122e565b600092505050611227565b6001600081548092919060010191905055506040518060c00160405280600081526020016001548152602001858152602001828152602001867bffffffffffffffffffffffffffffffffffffffffffffffffffffffff1916815260200160008054906101000a900473ffffffffffffffffffffffffffffffffffffffff1673ffffffffffffffffffffffffffffffffffffffff16634402521289896040518363ffffffff1660e01b81526004016110b992919061197f565b60006040518083038186803b1580156110d157600080fd5b505afa1580156110e5573d6000803e3d6000fd5b505050506040513d6000823e3d601f19601f8201168201806040525081019061110e91906116cb565b604001517bffffffffffffffffffffffffffffffffffffffffffffffffffffffff191681525060026000600154815260200190815260200160002060008201518160000155602082015181600101556040820151816002019080519060200190611179929190611236565b506060820151816003019080519060200190611196929190611236565b5060808201518160040160006101000a81548163ffffffff021916908360e01c021790555060a08201518160040160046101000a81548163ffffffff021916908360e01c02179055509050507f39ccea6500c2fa9d527beb4733eddaa10fa23f592dff8b603843699580390a5a848260015460405161121793929190611a23565b60405180910390a1600154925050505b9392505050565b805160208201fd5b828054600181600116156101000203166002900490600052602060002090601f01602090048101928261126c57600085556112b3565b82601f1061128557805160ff19168380011785556112b3565b828001600101855582156112b3579182015b828111156112b2578251825591602001919060010190611297565b5b5090506112c091906112c4565b5090565b5b808211156112dd5760008160009055506001016112c5565b5090565b60006112f46112ef84611b7e565b611b4d565b9050808382526020820190508285602086028201111561131357600080fd5b60005b8581101561134357816113298882611475565b845260208401935060208301925050600181019050611316565b5050509392505050565b600061136061135b84611baa565b611b4d565b9050808382526020820190508285602086028201111561137f57600080fd5b60005b858110156113af5781611395888261149f565b845260208401935060208301925050600181019050611382565b5050509392505050565b60006113cc6113c784611bd6565b611b4d565b9050828152602081018484840111156113e457600080fd5b6113ef848285611cfd565b509392505050565b60008135905061140681611d52565b92915050565b60008151905061141b81611d52565b92915050565b600082601f83011261143257600080fd5b81516114428482602086016112e1565b91505092915050565b600082601f83011261145c57600080fd5b815161146c84826020860161134d565b91505092915050565b60008151905061148481611d69565b92915050565b60008135905061149981611d80565b92915050565b6000815190506114ae81611d80565b92915050565b600082601f8301126114c557600080fd5b81356114d58482602086016113b9565b91505092915050565b600060a082840312156114f057600080fd5b6114fa60a0611b4d565b9050600061150a8482850161149f565b600083015250602061151e8482850161140c565b60208301525060406115328482850161149f565b604083015250606082015167ffffffffffffffff81111561155257600080fd5b61155e8482850161144b565b606083015250608082015167ffffffffffffffff81111561157e57600080fd5b61158a84828501611421565b60808301525092915050565b6000813590506115a581611d97565b92915050565b6000806000606084860312156115c057600080fd5b60006115ce868287016113f7565b93505060206115df8682870161148a565b925050604084013567ffffffffffffffff8111156115fc57600080fd5b611608868287016114b4565b9150509250925092565b60008060006060848603121561162757600080fd5b6000611635868287016113f7565b93505060206116468682870161148a565b925050604061165786828701611596565b9150509250925092565b60006020828403121561167357600080fd5b600061168184828501611475565b91505092915050565b60006020828403121561169c57600080fd5b600082013567ffffffffffffffff8111156116b657600080fd5b6116c2848285016114b4565b91505092915050565b6000602082840312156116dd57600080fd5b600082015167ffffffffffffffff8111156116f757600080fd5b611703848285016114de565b91505092915050565b60006020828403121561171e57600080fd5b600061172c84828501611596565b91505092915050565b61173e81611c65565b82525050565b61174d81611c53565b82525050565b61175c81611c77565b82525050565b61176b81611c83565b82525050565b600061177c82611c1b565b6117868185611c26565b9350611796818560208601611d0c565b61179f81611d41565b840191505092915050565b60006117b582611c1b565b6117bf8185611c37565b93506117cf818560208601611d0c565b80840191505092915050565b6000815460018116600081146117f8576001811461181e57611862565b607f60028304166118098187611c26565b955060ff198316865260208601935050611862565b6002820461182c8187611c26565b955061183785611c06565b60005b828110156118595781548189015260018201915060208101905061183a565b80880195505050505b505092915050565b61187381611cd9565b82525050565b6000611886601583611c42565b91507f4a6f6220616c726561647920636f6d706c6574656400000000000000000000006000830152602082019050919050565b60006118c6601183611c42565b91507f4d697373696e6720746f706963206b65790000000000000000000000000000006000830152602082019050919050565b61190281611ccf565b82525050565b600061191482846117aa565b915081905092915050565b60006040820190506119346000830185611735565b81810360208301526119468184611771565b90509392505050565b60006040820190506119646000830185611735565b818103602083015261197681846117db565b90509392505050565b60006040820190506119946000830185611744565b6119a16020830184611762565b9392505050565b60006080820190506119bd6000830187611744565b6119ca6020830186611762565b6119d76040830185611762565b6119e460608301846118f9565b95945050505050565b6000602082019050611a026000830184611753565b92915050565b6000602082019050611a1d6000830184611762565b92915050565b60006060820190508181036000830152611a3d8186611771565b90508181036020830152611a518185611771565b9050611a6060408301846118f9565b949350505050565b6000602082019050611a7d600083018461186a565b92915050565b60006020820190508181036000830152611a9c81611879565b9050919050565b60006020820190508181036000830152611abc816118b9565b9050919050565b6000602082019050611ad860008301846118f9565b92915050565b600060c082019050611af360008301896118f9565b611b0060208301886118f9565b8181036040830152611b128187611771565b90508181036060830152611b268186611771565b9050611b356080830185611762565b611b4260a0830184611762565b979650505050505050565b6000604051905081810181811067ffffffffffffffff82111715611b7457611b73611d3f565b5b8060405250919050565b600067ffffffffffffffff821115611b9957611b98611d3f565b5b602082029050602081019050919050565b600067ffffffffffffffff821115611bc557611bc4611d3f565b5b602082029050602081019050919050565b600067ffffffffffffffff821115611bf157611bf0611d3f565b5b601f19601f8301169050602081019050919050565b60008190508160005260206000209050919050565b600081519050919050565b600082825260208201905092915050565b600081905092915050565b600082825260208201905092915050565b6000611c5e82611caf565b9050919050565b6000611c7082611caf565b9050919050565b60008115159050919050565b60007fffffffff0000000000000000000000000000000000000000000000000000000082169050919050565b600073ffffffffffffffffffffffffffffffffffffffff82169050919050565b6000819050919050565b6000611ce482611ceb565b9050919050565b6000611cf682611caf565b9050919050565b82818337600083830152505050565b60005b83811015611d2a578082015181840152602081019050611d0f565b83811115611d39576000848401525b50505050565bfe5b6000601f19601f8301169050919050565b611d5b81611c53565b8114611d6657600080fd5b50565b611d7281611c77565b8114611d7d57600080fd5b50565b611d8981611c83565b8114611d9457600080fd5b50565b611da081611ccf565b8114611dab57600080fd5b5056fea2646970667358221220365bfca86cc817299759418b24046eea24795e6502324ca2402dbae4033b8e8264736f6c63430007060033",
  "immutableReferences": {},
  "source": "pragma solidity ^0.7.0;\npragma experimental ABIEncoderV2;\n\nimport \"./WFlowRegistry.sol\";\nimport \"./MinLibBytes.sol\";\n\n/**\n *  Manages message state flows\n */\ncontract WStateRelayer  is WMessages {\n    WFlowRegistry public registry;\n    constructor(address wfRegistry) public {\n        registry = WFlowRegistry(wfRegistry);\n    }\n\n    uint public jobCounter;\n    mapping (uint => MessageRequest) public jobs;\n\n    struct MessageRequest {\n        uint status;\n        uint id;\n        bytes request;\n        bytes response;\n        bytes4 selector;\n        bytes4 next;\n    }\n\n    event MessageRelayed(\n        bytes request,\n        bytes response,\n        uint id\n    );\n\n\n    event MessageRequestCompleted(\n        address controller,\n        bytes4 selector,\n        bytes4 next,\n        uint id\n    );\n    /** NatDoc\n     * @dev Send payload message to be process by a WAction smart contract\n     * minter\n     * selfMint\n     * tokenURI\n     */\n    function executeRequestResponse(\n        address controller,\n        bytes4 selector,\n        bytes memory params\n    ) public returns (uint) {\n\n        // check if it has been whitelisted and purchased\n        require(registry.getAction(controller, selector).controller != address(0), \"Missing topic key\");\n        \n        (bool success, bytes memory ret) =  registry\n        .getAction(controller, selector).controller\n        .call(\n            abi.encodeWithSelector(\n                registry.getAction(controller, selector).selector,\n                msg.sender,\n                params\n                )\n        );\n        if (!success){\n          //re-throw the revert with the same revert reason.\n          revertWithData(ret);\n          return 0;\n        }\n        jobCounter++;\n        jobs[jobCounter] = MessageRequest({\n            status: 0,\n            id: jobCounter,\n            request: params,\n            response: ret,\n            selector: selector,\n            next: registry.getAction(controller, selector).nextSelector\n        });\n        \n        emit MessageRelayed(\n            params, \n            ret,\n            jobCounter\n        );\n\n        return jobCounter;\n    }\n\n    function revertWithData(bytes memory data) internal pure {\n        assembly {\n            revert(add(data,32), mload(data))\n        }\n    }\n\n    // Solo puede ser getter\n    // El switch de MessageConditionFound, llama al siguiente paso\n    function executeJobCondition(\n        address controller,\n        bytes4 selector,\n        uint jobId\n    ) public returns (bool) {\n\n        // check if it has been whitelisted and purchased\n        require(registry.getAction(controller, selector).conditions.length > 0, \"Missing topic key\");\n        require(\n            jobs[jobId].status  == 0, \"Job already completed\"\n        );\n        bool conditionsCompleted = false;\n        for (uint i = 0;i<registry.getAction(controller, selector).conditions.length;i++) {\n            (bool ok, bytes memory res) =  registry\n            .getAction(controller, selector)\n            .controller\n            .call(\n            abi.encodeWithSelector(\n                registry.getAction(controller, selector).conditions[i],\n                msg.sender,\n                jobs[jobId].response\n            )\n            );\n\n            (bool conditionResult) = abi.decode(res, (bool));\n            registry.getAction(controller, selector).conditionStatus[i] = conditionResult;\n\n            conditionsCompleted = conditionsCompleted && conditionResult;\n        }\n\n        if (conditionsCompleted) {\n            jobs[jobId].status = 1;\n            emit MessageRequestCompleted(\n                registry.getAction(controller, selector).controller,\n                registry.getAction(controller, selector).selector,\n                registry.getAction(controller, selector).nextSelector,\n                jobId\n            );\n        }\n\n        return true;\n    }\n}\n",
  "sourcePath": "/home/rogelio/Code/xdv/electronic-sa-contracts/contracts/WStateRelayer.sol",
  "compiler": {
    "name": "solc",
    "version": "0.7.6+commit.7338295f.Emscripten.clang"
  },
  "schemaVersion": "3.3.3",
  "updatedAt": "2021-02-10T16:53:19.056Z",
  "networkType": "ethereum",
  "devdoc": {
    "kind": "dev",
    "methods": {
      "executeRequestResponse(address,bytes4,bytes)": {
        "details": "Send payload message to be process by a WAction smart contract minter selfMint tokenURI"
      }
    },
    "version": 1
  },
  "userdoc": {
    "kind": "user",
    "methods": {
      "executeRequestResponse(address,bytes4,bytes)": {
        "notice": "NatDoc"
      }
    },
    "notice": "Manages message state flows",
    "version": 1
  }
}