{
  "contractName": "WStateRelayer",
  "abi": [
    {
      "inputs": [
        {
          "internalType": "address",
          "name": "wfRegistry",
          "type": "address"
        }
      ],
      "stateMutability": "nonpayable",
      "type": "constructor"
    },
    {
      "anonymous": false,
      "inputs": [
        {
          "indexed": false,
          "internalType": "string",
          "name": "name",
          "type": "string"
        },
        {
          "indexed": false,
          "internalType": "bytes",
          "name": "request",
          "type": "bytes"
        }
      ],
      "name": "ActionChanged",
      "type": "event"
    },
    {
      "anonymous": false,
      "inputs": [
        {
          "indexed": false,
          "internalType": "bytes",
          "name": "request",
          "type": "bytes"
        },
        {
          "indexed": false,
          "internalType": "bytes",
          "name": "response",
          "type": "bytes"
        },
        {
          "indexed": false,
          "internalType": "uint256",
          "name": "id",
          "type": "uint256"
        }
      ],
      "name": "MessageRelayed",
      "type": "event"
    },
    {
      "anonymous": false,
      "inputs": [
        {
          "indexed": false,
          "internalType": "address",
          "name": "controller",
          "type": "address"
        },
        {
          "indexed": false,
          "internalType": "bytes4",
          "name": "selector",
          "type": "bytes4"
        },
        {
          "indexed": false,
          "internalType": "bytes4",
          "name": "next",
          "type": "bytes4"
        },
        {
          "indexed": false,
          "internalType": "uint256",
          "name": "id",
          "type": "uint256"
        }
      ],
      "name": "MessageRequestCompleted",
      "type": "event"
    },
    {
      "anonymous": false,
      "inputs": [
        {
          "indexed": false,
          "internalType": "string",
          "name": "name",
          "type": "string"
        },
        {
          "indexed": false,
          "internalType": "bytes",
          "name": "data",
          "type": "bytes"
        }
      ],
      "name": "PropertyChanged",
      "type": "event"
    },
    {
      "inputs": [],
      "name": "jobCounter",
      "outputs": [
        {
          "internalType": "uint256",
          "name": "",
          "type": "uint256"
        }
      ],
      "stateMutability": "view",
      "type": "function",
      "constant": true
    },
    {
      "inputs": [
        {
          "internalType": "uint256",
          "name": "",
          "type": "uint256"
        }
      ],
      "name": "jobs",
      "outputs": [
        {
          "internalType": "uint256",
          "name": "status",
          "type": "uint256"
        },
        {
          "internalType": "uint256",
          "name": "id",
          "type": "uint256"
        },
        {
          "internalType": "bytes",
          "name": "request",
          "type": "bytes"
        },
        {
          "internalType": "bytes",
          "name": "response",
          "type": "bytes"
        },
        {
          "internalType": "bytes4",
          "name": "selector",
          "type": "bytes4"
        },
        {
          "internalType": "bytes4",
          "name": "next",
          "type": "bytes4"
        }
      ],
      "stateMutability": "view",
      "type": "function",
      "constant": true
    },
    {
      "inputs": [],
      "name": "registry",
      "outputs": [
        {
          "internalType": "contract WFlowRegistry",
          "name": "",
          "type": "address"
        }
      ],
      "stateMutability": "view",
      "type": "function",
      "constant": true
    },
    {
      "inputs": [
        {
          "internalType": "bytes4",
          "name": "selector",
          "type": "bytes4"
        },
        {
          "internalType": "bytes",
          "name": "params",
          "type": "bytes"
        }
      ],
      "name": "executeRequestResponse",
      "outputs": [
        {
          "internalType": "uint256",
          "name": "",
          "type": "uint256"
        }
      ],
      "stateMutability": "nonpayable",
      "type": "function"
    },
    {
      "inputs": [
        {
          "internalType": "bytes4",
          "name": "selector",
          "type": "bytes4"
        },
        {
          "internalType": "uint256",
          "name": "jobId",
          "type": "uint256"
        }
      ],
      "name": "executeJobCondition",
      "outputs": [
        {
          "internalType": "bool",
          "name": "",
          "type": "bool"
        }
      ],
      "stateMutability": "nonpayable",
      "type": "function"
    }
  ],
  "bytecode": "0x60806040523480156200001157600080fd5b5060405162001c8a38038062001c8a833981810160405281019062000037919062000095565b806000806101000a81548173ffffffffffffffffffffffffffffffffffffffff021916908373ffffffffffffffffffffffffffffffffffffffff160217905550506200010f565b6000815190506200008f81620000f5565b92915050565b600060208284031215620000a857600080fd5b6000620000b8848285016200007e565b91505092915050565b6000620000ce82620000d5565b9050919050565b600073ffffffffffffffffffffffffffffffffffffffff82169050919050565b6200010081620000c1565b81146200010c57600080fd5b50565b611b6b806200011f6000396000f3fe608060405234801561001057600080fd5b50600436106100575760003560e01c80630a236f681461005c578063180aedf31461008c57806350355d76146100c15780637b103999146100df578063a4e37429146100fd575b600080fd5b6100766004803603810190610071919061143f565b61012d565b6040516100839190611774565b60405180910390f35b6100a660048036038101906100a191906114bc565b610926565b6040516100b896959493929190611865565b60405180910390f35b6100c9610aac565b6040516100d6919061184a565b60405180910390f35b6100e7610ab2565b6040516100f491906117ef565b60405180910390f35b610117600480360381019061011291906113eb565b610ad6565b604051610124919061184a565b60405180910390f35b60008060008054906101000a900473ffffffffffffffffffffffffffffffffffffffff1673ffffffffffffffffffffffffffffffffffffffff166375d0ac01856040518263ffffffff1660e01b8152600401610189919061178f565b60006040518083038186803b1580156101a157600080fd5b505afa1580156101b5573d6000803e3d6000fd5b505050506040513d6000823e3d601f19601f820116820180604052508101906101de919061147b565b606001515111610223576040517f08c379a000000000000000000000000000000000000000000000000000000000815260040161021a9061182a565b60405180910390fd5b600060026000848152602001908152602001600020600001541461027c576040517f08c379a00000000000000000000000000000000000000000000000000000000081526004016102739061180a565b60405180910390fd5b6000805b60008054906101000a900473ffffffffffffffffffffffffffffffffffffffff1673ffffffffffffffffffffffffffffffffffffffff166375d0ac01866040518263ffffffff1660e01b81526004016102d9919061178f565b60006040518083038186803b1580156102f157600080fd5b505afa158015610305573d6000803e3d6000fd5b505050506040513d6000823e3d601f19601f8201168201806040525081019061032e919061147b565b60600151518110156106a75760008060008054906101000a900473ffffffffffffffffffffffffffffffffffffffff1673ffffffffffffffffffffffffffffffffffffffff166375d0ac01886040518263ffffffff1660e01b8152600401610396919061178f565b60006040518083038186803b1580156103ae57600080fd5b505afa1580156103c2573d6000803e3d6000fd5b505050506040513d6000823e3d601f19601f820116820180604052508101906103eb919061147b565b6020015173ffffffffffffffffffffffffffffffffffffffff1660008054906101000a900473ffffffffffffffffffffffffffffffffffffffff1673ffffffffffffffffffffffffffffffffffffffff166375d0ac01896040518263ffffffff1660e01b815260040161045e919061178f565b60006040518083038186803b15801561047657600080fd5b505afa15801561048a573d6000803e3d6000fd5b505050506040513d6000823e3d601f19601f820116820180604052508101906104b3919061147b565b6060015184815181106104c257fe5b602002602001015133600260008a81526020019081526020016000206003016040516024016104f29291906116ff565b604051602081830303815290604052907bffffffffffffffffffffffffffffffffffffffffffffffffffffffff19166020820180517bffffffffffffffffffffffffffffffffffffffffffffffffffffffff838183161783525050505060405161055c91906116b8565b6000604051808303816000865af19150503d8060008114610599576040519150601f19603f3d011682016040523d82523d6000602084013e61059e565b606091505b50915091506000818060200190518101906105b991906113c2565b90508060008054906101000a900473ffffffffffffffffffffffffffffffffffffffff1673ffffffffffffffffffffffffffffffffffffffff166375d0ac018a6040518263ffffffff1660e01b8152600401610615919061178f565b60006040518083038186803b15801561062d57600080fd5b505afa158015610641573d6000803e3d6000fd5b505050506040513d6000823e3d601f19601f8201168201806040525081019061066a919061147b565b60800151858151811061067957fe5b6020026020010190151590811515815250508480156106955750805b94505050508080600101915050610280565b50801561091b57600160026000858152602001908152602001600020600001819055507f0d74470b50693dfe5944746d63eaadd783ba49f4bdbdb77b0f7a116e7fe558c460008054906101000a900473ffffffffffffffffffffffffffffffffffffffff1673ffffffffffffffffffffffffffffffffffffffff166375d0ac01866040518263ffffffff1660e01b8152600401610744919061178f565b60006040518083038186803b15801561075c57600080fd5b505afa158015610770573d6000803e3d6000fd5b505050506040513d6000823e3d601f19601f82011682018060405250810190610799919061147b565b6020015160008054906101000a900473ffffffffffffffffffffffffffffffffffffffff1673ffffffffffffffffffffffffffffffffffffffff166375d0ac01876040518263ffffffff1660e01b81526004016107f6919061178f565b60006040518083038186803b15801561080e57600080fd5b505afa158015610822573d6000803e3d6000fd5b505050506040513d6000823e3d601f19601f8201168201806040525081019061084b919061147b565b6000015160008054906101000a900473ffffffffffffffffffffffffffffffffffffffff1673ffffffffffffffffffffffffffffffffffffffff166375d0ac01886040518263ffffffff1660e01b81526004016108a8919061178f565b60006040518083038186803b1580156108c057600080fd5b505afa1580156108d4573d6000803e3d6000fd5b505050506040513d6000823e3d601f19601f820116820180604052508101906108fd919061147b565b6040015186604051610912949392919061172f565b60405180910390a15b600191505092915050565b6002602052806000526040600020600091509050806000015490806001015490806002018054600181600116156101000203166002900480601f0160208091040260200160405190810160405280929190818152602001828054600181600116156101000203166002900480156109de5780601f106109b3576101008083540402835291602001916109de565b820191906000526020600020905b8154815290600101906020018083116109c157829003601f168201915b505050505090806003018054600181600116156101000203166002900480601f016020809104026020016040519081016040528092919081815260200182805460018160011615610100020316600290048015610a7c5780601f10610a5157610100808354040283529160200191610a7c565b820191906000526020600020905b815481529060010190602001808311610a5f57829003601f168201915b5050505050908060040160009054906101000a900460e01b908060040160049054906101000a900460e01b905086565b60015481565b60008054906101000a900473ffffffffffffffffffffffffffffffffffffffff1681565b60008073ffffffffffffffffffffffffffffffffffffffff1660008054906101000a900473ffffffffffffffffffffffffffffffffffffffff1673ffffffffffffffffffffffffffffffffffffffff166375d0ac01856040518263ffffffff1660e01b8152600401610b48919061178f565b60006040518083038186803b158015610b6057600080fd5b505afa158015610b74573d6000803e3d6000fd5b505050506040513d6000823e3d601f19601f82011682018060405250810190610b9d919061147b565b6020015173ffffffffffffffffffffffffffffffffffffffff161415610bf8576040517f08c379a0000000000000000000000000000000000000000000000000000000008152600401610bef9061182a565b60405180910390fd5b60008060008054906101000a900473ffffffffffffffffffffffffffffffffffffffff1673ffffffffffffffffffffffffffffffffffffffff166375d0ac01866040518263ffffffff1660e01b8152600401610c54919061178f565b60006040518083038186803b158015610c6c57600080fd5b505afa158015610c80573d6000803e3d6000fd5b505050506040513d6000823e3d601f19601f82011682018060405250810190610ca9919061147b565b6020015173ffffffffffffffffffffffffffffffffffffffff1660008054906101000a900473ffffffffffffffffffffffffffffffffffffffff1673ffffffffffffffffffffffffffffffffffffffff166375d0ac01876040518263ffffffff1660e01b8152600401610d1c919061178f565b60006040518083038186803b158015610d3457600080fd5b505afa158015610d48573d6000803e3d6000fd5b505050506040513d6000823e3d601f19601f82011682018060405250810190610d71919061147b565b600001513386604051602401610d889291906116cf565b604051602081830303815290604052907bffffffffffffffffffffffffffffffffffffffffffffffffffffffff19166020820180517bffffffffffffffffffffffffffffffffffffffffffffffffffffffff8381831617835250505050604051610df291906116b8565b6000604051808303816000865af19150503d8060008114610e2f576040519150601f19603f3d011682016040523d82523d6000602084013e610e34565b606091505b50915091506001600081548092919060010191905055506040518060c00160405280600081526020016001548152602001858152602001828152602001867bffffffffffffffffffffffffffffffffffffffffffffffffffffffff1916815260200160008054906101000a900473ffffffffffffffffffffffffffffffffffffffff1673ffffffffffffffffffffffffffffffffffffffff166375d0ac01886040518263ffffffff1660e01b8152600401610eef919061178f565b60006040518083038186803b158015610f0757600080fd5b505afa158015610f1b573d6000803e3d6000fd5b505050506040513d6000823e3d601f19601f82011682018060405250810190610f44919061147b565b604001517bffffffffffffffffffffffffffffffffffffffffffffffffffffffff191681525060026000600154815260200190815260200160002060008201518160000155602082015181600101556040820151816002019080519060200190610faf929190611062565b506060820151816003019080519060200190610fcc929190611062565b5060808201518160040160006101000a81548163ffffffff021916908360e01c021790555060a08201518160040160046101000a81548163ffffffff021916908360e01c02179055509050507f39ccea6500c2fa9d527beb4733eddaa10fa23f592dff8b603843699580390a5a848260015460405161104d939291906117aa565b60405180910390a16001549250505092915050565b828054600181600116156101000203166002900490600052602060002090601f01602090048101928261109857600085556110df565b82601f106110b157805160ff19168380011785556110df565b828001600101855582156110df579182015b828111156110de5782518255916020019190600101906110c3565b5b5090506110ec91906110f0565b5090565b5b808211156111095760008160009055506001016110f1565b5090565b600061112061111b84611905565b6118d4565b9050808382526020820190508285602086028201111561113f57600080fd5b60005b8581101561116f5781611155888261128c565b845260208401935060208301925050600181019050611142565b5050509392505050565b600061118c61118784611931565b6118d4565b905080838252602082019050828560208602820111156111ab57600080fd5b60005b858110156111db57816111c188826112b6565b8452602084019350602083019250506001810190506111ae565b5050509392505050565b60006111f86111f38461195d565b6118d4565b90508281526020810184848401111561121057600080fd5b61121b848285611a84565b509392505050565b60008151905061123281611ad9565b92915050565b600082601f83011261124957600080fd5b815161125984826020860161110d565b91505092915050565b600082601f83011261127357600080fd5b8151611283848260208601611179565b91505092915050565b60008151905061129b81611af0565b92915050565b6000813590506112b081611b07565b92915050565b6000815190506112c581611b07565b92915050565b600082601f8301126112dc57600080fd5b81356112ec8482602086016111e5565b91505092915050565b600060a0828403121561130757600080fd5b61131160a06118d4565b90506000611321848285016112b6565b600083015250602061133584828501611223565b6020830152506040611349848285016112b6565b604083015250606082015167ffffffffffffffff81111561136957600080fd5b61137584828501611262565b606083015250608082015167ffffffffffffffff81111561139557600080fd5b6113a184828501611238565b60808301525092915050565b6000813590506113bc81611b1e565b92915050565b6000602082840312156113d457600080fd5b60006113e28482850161128c565b91505092915050565b600080604083850312156113fe57600080fd5b600061140c858286016112a1565b925050602083013567ffffffffffffffff81111561142957600080fd5b611435858286016112cb565b9150509250929050565b6000806040838503121561145257600080fd5b6000611460858286016112a1565b9250506020611471858286016113ad565b9150509250929050565b60006020828403121561148d57600080fd5b600082015167ffffffffffffffff8111156114a757600080fd5b6114b3848285016112f5565b91505092915050565b6000602082840312156114ce57600080fd5b60006114dc848285016113ad565b91505092915050565b6114ee816119ec565b82525050565b6114fd816119da565b82525050565b61150c816119fe565b82525050565b61151b81611a0a565b82525050565b600061152c826119a2565b61153681856119ad565b9350611546818560208601611a93565b61154f81611ac8565b840191505092915050565b6000611565826119a2565b61156f81856119be565b935061157f818560208601611a93565b80840191505092915050565b6000815460018116600081146115a857600181146115ce57611612565b607f60028304166115b981876119ad565b955060ff198316865260208601935050611612565b600282046115dc81876119ad565b95506115e78561198d565b60005b82811015611609578154818901526001820191506020810190506115ea565b80880195505050505b505092915050565b61162381611a60565b82525050565b60006116366015836119c9565b91507f4a6f6220616c726561647920636f6d706c6574656400000000000000000000006000830152602082019050919050565b60006116766011836119c9565b91507f4d697373696e6720746f706963206b65790000000000000000000000000000006000830152602082019050919050565b6116b281611a56565b82525050565b60006116c4828461155a565b915081905092915050565b60006040820190506116e460008301856114e5565b81810360208301526116f68184611521565b90509392505050565b600060408201905061171460008301856114e5565b8181036020830152611726818461158b565b90509392505050565b600060808201905061174460008301876114f4565b6117516020830186611512565b61175e6040830185611512565b61176b60608301846116a9565b95945050505050565b60006020820190506117896000830184611503565b92915050565b60006020820190506117a46000830184611512565b92915050565b600060608201905081810360008301526117c48186611521565b905081810360208301526117d88185611521565b90506117e760408301846116a9565b949350505050565b6000602082019050611804600083018461161a565b92915050565b6000602082019050818103600083015261182381611629565b9050919050565b6000602082019050818103600083015261184381611669565b9050919050565b600060208201905061185f60008301846116a9565b92915050565b600060c08201905061187a60008301896116a9565b61188760208301886116a9565b81810360408301526118998187611521565b905081810360608301526118ad8186611521565b90506118bc6080830185611512565b6118c960a0830184611512565b979650505050505050565b6000604051905081810181811067ffffffffffffffff821117156118fb576118fa611ac6565b5b8060405250919050565b600067ffffffffffffffff8211156119205761191f611ac6565b5b602082029050602081019050919050565b600067ffffffffffffffff82111561194c5761194b611ac6565b5b602082029050602081019050919050565b600067ffffffffffffffff82111561197857611977611ac6565b5b601f19601f8301169050602081019050919050565b60008190508160005260206000209050919050565b600081519050919050565b600082825260208201905092915050565b600081905092915050565b600082825260208201905092915050565b60006119e582611a36565b9050919050565b60006119f782611a36565b9050919050565b60008115159050919050565b60007fffffffff0000000000000000000000000000000000000000000000000000000082169050919050565b600073ffffffffffffffffffffffffffffffffffffffff82169050919050565b6000819050919050565b6000611a6b82611a72565b9050919050565b6000611a7d82611a36565b9050919050565b82818337600083830152505050565b60005b83811015611ab1578082015181840152602081019050611a96565b83811115611ac0576000848401525b50505050565bfe5b6000601f19601f8301169050919050565b611ae2816119da565b8114611aed57600080fd5b50565b611af9816119fe565b8114611b0457600080fd5b50565b611b1081611a0a565b8114611b1b57600080fd5b50565b611b2781611a56565b8114611b3257600080fd5b5056fea2646970667358221220e9013396e3e2d40cae6616513e0444063e9dd2e4e5f71416897012c71a362a1364736f6c63430007060033",
  "immutableReferences": {},
  "source": "pragma solidity ^0.7.0;\npragma experimental ABIEncoderV2;\n\nimport \"./WFlowRegistry.sol\";\nimport \"./MinLibBytes.sol\";\n\n/**\n *  Manages message state flows\n */\ncontract WStateRelayer  is WMessages {\n    WFlowRegistry public registry;\n    constructor(address wfRegistry) public {\n        registry = WFlowRegistry(wfRegistry);\n    }\n\n    uint public jobCounter;\n    mapping (uint => MessageRequest) public jobs;\n\n    struct MessageRequest {\n        uint status;\n        uint id;\n        bytes request;\n        bytes response;\n        bytes4 selector;\n        bytes4 next;\n    }\n\n    event MessageRelayed(\n        bytes request,\n        bytes response,\n        uint id\n    );\n\n\n    event MessageRequestCompleted(\n        address controller,\n        bytes4 selector,\n        bytes4 next,\n        uint id\n    );\n    /** NatDoc\n     * @dev Send payload message to be process by a WAction smart contract\n     * minter\n     * selfMint\n     * tokenURI\n     */\n    function executeRequestResponse(\n        bytes4 selector,\n        bytes memory params\n    ) public returns (uint) {\n\n        // check if it has been whitelisted and purchased\n        require(registry.getAction(selector).controller != address(0), \"Missing topic key\");\n        \n        (bool success, bytes memory ret) =  registry\n        .getAction(selector).controller\n        .call(\n            abi.encodeWithSelector(\n                registry.getAction(selector).selector,\n                msg.sender,\n                params\n                )\n        );\n\n        jobCounter++;\n        jobs[jobCounter] = MessageRequest({\n            status: 0,\n            id: jobCounter,\n            request: params,\n            response: ret,\n            selector: selector,\n            next: registry.getAction(selector).nextSelector\n        });\n        \n        emit MessageRelayed(\n            params, \n            ret,\n            jobCounter\n        );\n\n        return jobCounter;\n    }\n\n    // Solo puede ser getter\n    // El switch de MessageConditionFound, llama al siguiente paso\n    function executeJobCondition(\n        bytes4 selector,\n        uint jobId\n    ) public returns (bool) {\n\n        // check if it has been whitelisted and purchased\n        require(registry.getAction(selector).conditions.length > 0, \"Missing topic key\");\n        require(\n            jobs[jobId].status  == 0, \"Job already completed\"\n        );\n        bool conditionsCompleted = false;\n        for (uint i = 0;i<registry.getAction(selector).conditions.length;i++) {\n            (bool ok, bytes memory res) =  registry\n            .getAction(selector)\n            .controller\n            .call(\n            abi.encodeWithSelector(\n                registry.getAction(selector).conditions[i],\n                msg.sender,\n                jobs[jobId].response\n            )\n            );\n\n            (bool conditionResult) = abi.decode(res, (bool));\n            registry.getAction(selector).conditionStatus[i] = conditionResult;\n\n            conditionsCompleted = conditionsCompleted && conditionResult;\n        }\n\n        if (conditionsCompleted) {\n            jobs[jobId].status = 1;\n            emit MessageRequestCompleted(\n                registry.getAction(selector).controller,\n                registry.getAction(selector).selector,\n                registry.getAction(selector).nextSelector,\n                jobId\n            );\n        }\n\n        return true;\n    }\n}\n",
  "sourcePath": "/home/rogelio/Code/xdv/electronic-sa-contracts/contracts/WStateRelayer.sol",
  "compiler": {
    "name": "solc",
    "version": "0.7.6+commit.7338295f.Emscripten.clang"
  },
  "schemaVersion": "3.3.3",
  "updatedAt": "2021-02-08T17:32:49.380Z",
  "networkType": "ethereum",
  "devdoc": {
    "kind": "dev",
    "methods": {
      "executeRequestResponse(bytes4,bytes)": {
        "details": "Send payload message to be process by a WAction smart contract minter selfMint tokenURI"
      }
    },
    "version": 1
  },
  "userdoc": {
    "kind": "user",
    "methods": {
      "executeRequestResponse(bytes4,bytes)": {
        "notice": "NatDoc"
      }
    },
    "notice": "Manages message state flows",
    "version": 1
  }
}