{
  "contractName": "WStateRelayer",
  "abi": [
    {
      "inputs": [
        {
          "internalType": "address",
          "name": "wfRegistry",
          "type": "address"
        }
      ],
      "stateMutability": "nonpayable",
      "type": "constructor"
    },
    {
      "anonymous": false,
      "inputs": [
        {
          "indexed": false,
          "internalType": "bytes4",
          "name": "mutation",
          "type": "bytes4"
        },
        {
          "indexed": false,
          "internalType": "address",
          "name": "mutationAddress",
          "type": "address"
        },
        {
          "components": [
            {
              "internalType": "string",
              "name": "documentURI",
              "type": "string"
            },
            {
              "internalType": "string",
              "name": "didAgent",
              "type": "string"
            },
            {
              "internalType": "address",
              "name": "payloadOwner",
              "type": "address"
            },
            {
              "internalType": "string",
              "name": "didPayloadOwner",
              "type": "string"
            },
            {
              "internalType": "uint256",
              "name": "timeoutAfterRetries",
              "type": "uint256"
            },
            {
              "internalType": "address",
              "name": "nftAddress",
              "type": "address"
            },
            {
              "internalType": "uint256",
              "name": "tokenId",
              "type": "uint256"
            }
          ],
          "indexed": false,
          "internalType": "struct WMessages.WorkflowPayload",
          "name": "payload",
          "type": "tuple"
        }
      ],
      "name": "MessagRelayed",
      "type": "event"
    },
    {
      "inputs": [],
      "name": "registry",
      "outputs": [
        {
          "internalType": "contract WFlowRegistry",
          "name": "",
          "type": "address"
        }
      ],
      "stateMutability": "view",
      "type": "function"
    },
    {
      "inputs": [
        {
          "internalType": "bytes4",
          "name": "selector",
          "type": "bytes4"
        },
        {
          "components": [
            {
              "internalType": "string",
              "name": "documentURI",
              "type": "string"
            },
            {
              "internalType": "string",
              "name": "didAgent",
              "type": "string"
            },
            {
              "internalType": "address",
              "name": "payloadOwner",
              "type": "address"
            },
            {
              "internalType": "string",
              "name": "didPayloadOwner",
              "type": "string"
            },
            {
              "internalType": "uint256",
              "name": "timeoutAfterRetries",
              "type": "uint256"
            },
            {
              "internalType": "address",
              "name": "nftAddress",
              "type": "address"
            },
            {
              "internalType": "uint256",
              "name": "tokenId",
              "type": "uint256"
            }
          ],
          "internalType": "struct WMessages.WorkflowPayload",
          "name": "payload",
          "type": "tuple"
        }
      ],
      "name": "executeMessage",
      "outputs": [
        {
          "internalType": "bool",
          "name": "",
          "type": "bool"
        }
      ],
      "stateMutability": "nonpayable",
      "type": "function"
    }
  ],
  "bytecode": "0x60806040523480156200001157600080fd5b50604051620012fa380380620012fa833981810160405281019062000037919062000095565b806000806101000a81548173ffffffffffffffffffffffffffffffffffffffff021916908373ffffffffffffffffffffffffffffffffffffffff160217905550506200010f565b6000815190506200008f81620000f5565b92915050565b600060208284031215620000a857600080fd5b6000620000b8848285016200007e565b91505092915050565b6000620000ce82620000d5565b9050919050565b600073ffffffffffffffffffffffffffffffffffffffff82169050919050565b6200010081620000c1565b81146200010c57600080fd5b50565b6111db806200011f6000396000f3fe608060405234801561001057600080fd5b50600436106100365760003560e01c80637b1039991461003b578063a4026f4214610059575b600080fd5b610043610089565b6040516100509190610eed565b60405180910390f35b610073600480360381019061006e9190610b4e565b6100ad565b6040516100809190610e49565b60405180910390f35b60008054906101000a900473ffffffffffffffffffffffffffffffffffffffff1681565b60008073ffffffffffffffffffffffffffffffffffffffff1660008054906101000a900473ffffffffffffffffffffffffffffffffffffffff1673ffffffffffffffffffffffffffffffffffffffff166375d0ac01856040518263ffffffff1660e01b815260040161011f9190610e64565b604080518083038186803b15801561013657600080fd5b505afa15801561014a573d6000803e3d6000fd5b505050506040513d601f19601f8201168201806040525081019061016e9190610ba2565b6020015173ffffffffffffffffffffffffffffffffffffffff1614156101c9576040517f08c379a00000000000000000000000000000000000000000000000000000000081526004016101c090610f8c565b60405180910390fd5b60008060009054906101000a900473ffffffffffffffffffffffffffffffffffffffff1673ffffffffffffffffffffffffffffffffffffffff166375d0ac01856040518263ffffffff1660e01b81526004016102259190610e64565b604080518083038186803b15801561023c57600080fd5b505afa158015610250573d6000803e3d6000fd5b505050506040513d601f19601f820116820180604052508101906102749190610ba2565b6020015190506000808273ffffffffffffffffffffffffffffffffffffffff1660008054906101000a900473ffffffffffffffffffffffffffffffffffffffff1673ffffffffffffffffffffffffffffffffffffffff166375d0ac01886040518263ffffffff1660e01b81526004016102ed9190610e64565b604080518083038186803b15801561030457600080fd5b505afa158015610318573d6000803e3d6000fd5b505050506040513d601f19601f8201168201806040525081019061033c9190610ba2565b600001518660200151876060015188600001518960a001518a60c001518b60400151336040516024016103759796959493929190610f08565b604051602081830303815290604052907bffffffffffffffffffffffffffffffffffffffffffffffffffffffff19166020820180517bffffffffffffffffffffffffffffffffffffffffffffffffffffffff83818316178352505050506040516103df9190610e32565b6000604051808303816000865af19150503d806000811461041c576040519150601f19603f3d011682016040523d82523d6000602084013e610421565b606091505b509150915081801561050b5750600073ffffffffffffffffffffffffffffffffffffffff1660008054906101000a900473ffffffffffffffffffffffffffffffffffffffff1673ffffffffffffffffffffffffffffffffffffffff166391a3611d886040518263ffffffff1660e01b815260040161049f9190610e64565b604080518083038186803b1580156104b657600080fd5b505afa1580156104ca573d6000803e3d6000fd5b505050506040513d601f19601f820116820180604052508101906104ee9190610bcb565b6020015173ffffffffffffffffffffffffffffffffffffffff1614155b156108e05760008060009054906101000a900473ffffffffffffffffffffffffffffffffffffffff1673ffffffffffffffffffffffffffffffffffffffff166391a3611d886040518263ffffffff1660e01b815260040161056c9190610e64565b604080518083038186803b15801561058357600080fd5b505afa158015610597573d6000803e3d6000fd5b505050506040513d601f19601f820116820180604052508101906105bb9190610bcb565b6020015190506000808573ffffffffffffffffffffffffffffffffffffffff1660008054906101000a900473ffffffffffffffffffffffffffffffffffffffff1673ffffffffffffffffffffffffffffffffffffffff166391a3611d8b6040518263ffffffff1660e01b81526004016106349190610e64565b604080518083038186803b15801561064b57600080fd5b505afa15801561065f573d6000803e3d6000fd5b505050506040513d601f19601f820116820180604052508101906106839190610bcb565b60000151853360405160240161069a929190610ebd565b604051602081830303815290604052907bffffffffffffffffffffffffffffffffffffffffffffffffffffffff19166020820180517bffffffffffffffffffffffffffffffffffffffffffffffffffffffff83818316178352505050506040516107049190610e32565b6000604051808303816000865af19150503d8060008114610741576040519150601f19603f3d011682016040523d82523d6000602084013e610746565b606091505b50915091507f3b20c7847a9aeaf15e6d5577faf0f1c288a2d204b9bab076b20f5f391ed6a85a60008054906101000a900473ffffffffffffffffffffffffffffffffffffffff1673ffffffffffffffffffffffffffffffffffffffff166391a3611d8b6040518263ffffffff1660e01b81526004016107c59190610e64565b604080518083038186803b1580156107dc57600080fd5b505afa1580156107f0573d6000803e3d6000fd5b505050506040513d601f19601f820116820180604052508101906108149190610bcb565b6000015160008054906101000a900473ffffffffffffffffffffffffffffffffffffffff1673ffffffffffffffffffffffffffffffffffffffff166391a3611d8c6040518263ffffffff1660e01b81526004016108719190610e64565b604080518083038186803b15801561088857600080fd5b505afa15801561089c573d6000803e3d6000fd5b505050506040513d601f19601f820116820180604052508101906108c09190610bcb565b602001518a6040516108d493929190610e7f565b60405180910390a15050505b6001935050505092915050565b60006109006108fb84610fdd565b610fac565b90508281526020810184848401111561091857600080fd5b61092384828561110b565b509392505050565b60008135905061093a81611160565b92915050565b60008151905061094f81611160565b92915050565b60008135905061096481611177565b92915050565b60008151905061097981611177565b92915050565b600082601f83011261099057600080fd5b81356109a08482602086016108ed565b91505092915050565b6000604082840312156109bb57600080fd5b6109c56040610fac565b905060006109d58482850161096a565b60008301525060206109e984828501610940565b60208301525092915050565b600060408284031215610a0757600080fd5b610a116040610fac565b90506000610a218482850161096a565b6000830152506020610a3584828501610940565b60208301525092915050565b600060e08284031215610a5357600080fd5b610a5d60e0610fac565b9050600082013567ffffffffffffffff811115610a7957600080fd5b610a858482850161097f565b600083015250602082013567ffffffffffffffff811115610aa557600080fd5b610ab18482850161097f565b6020830152506040610ac58482850161092b565b604083015250606082013567ffffffffffffffff811115610ae557600080fd5b610af18482850161097f565b6060830152506080610b0584828501610b39565b60808301525060a0610b198482850161092b565b60a08301525060c0610b2d84828501610b39565b60c08301525092915050565b600081359050610b488161118e565b92915050565b60008060408385031215610b6157600080fd5b6000610b6f85828601610955565b925050602083013567ffffffffffffffff811115610b8c57600080fd5b610b9885828601610a41565b9150509250929050565b600060408284031215610bb457600080fd5b6000610bc2848285016109a9565b91505092915050565b600060408284031215610bdd57600080fd5b6000610beb848285016109f5565b91505092915050565b610bfd81611073565b82525050565b610c0c81611061565b82525050565b610c1b81611061565b82525050565b610c2a81611085565b82525050565b610c3981611091565b82525050565b6000610c4a8261100d565b610c548185611023565b9350610c6481856020860161111a565b610c6d8161114f565b840191505092915050565b6000610c838261100d565b610c8d8185611034565b9350610c9d81856020860161111a565b80840191505092915050565b610cb2816110e7565b82525050565b6000610cc382611018565b610ccd818561103f565b9350610cdd81856020860161111a565b610ce68161114f565b840191505092915050565b6000610cfc82611018565b610d068185611050565b9350610d1681856020860161111a565b610d1f8161114f565b840191505092915050565b6000610d37601183611050565b91507f4d697373696e6720746f706963206b65790000000000000000000000000000006000830152602082019050919050565b600060e0830160008301518482036000860152610d878282610cb8565b91505060208301518482036020860152610da18282610cb8565b9150506040830151610db66040860182610c03565b5060608301518482036060860152610dce8282610cb8565b9150506080830151610de36080860182610e14565b5060a0830151610df660a0860182610c03565b5060c0830151610e0960c0860182610e14565b508091505092915050565b610e1d816110dd565b82525050565b610e2c816110dd565b82525050565b6000610e3e8284610c78565b915081905092915050565b6000602082019050610e5e6000830184610c21565b92915050565b6000602082019050610e796000830184610c30565b92915050565b6000606082019050610e946000830186610c30565b610ea16020830185610c12565b8181036040830152610eb38184610d6a565b9050949350505050565b60006040820190508181036000830152610ed78185610c3f565b9050610ee66020830184610bf4565b9392505050565b6000602082019050610f026000830184610ca9565b92915050565b600060e0820190508181036000830152610f22818a610cf1565b90508181036020830152610f368189610cf1565b90508181036040830152610f4a8188610cf1565b9050610f596060830187610c12565b610f666080830186610e23565b610f7360a0830185610c12565b610f8060c0830184610bf4565b98975050505050505050565b60006020820190508181036000830152610fa581610d2a565b9050919050565b6000604051905081810181811067ffffffffffffffff82111715610fd357610fd261114d565b5b8060405250919050565b600067ffffffffffffffff821115610ff857610ff761114d565b5b601f19601f8301169050602081019050919050565b600081519050919050565b600081519050919050565b600082825260208201905092915050565b600081905092915050565b600082825260208201905092915050565b600082825260208201905092915050565b600061106c826110bd565b9050919050565b600061107e826110bd565b9050919050565b60008115159050919050565b60007fffffffff0000000000000000000000000000000000000000000000000000000082169050919050565b600073ffffffffffffffffffffffffffffffffffffffff82169050919050565b6000819050919050565b60006110f2826110f9565b9050919050565b6000611104826110bd565b9050919050565b82818337600083830152505050565b60005b8381101561113857808201518184015260208101905061111d565b83811115611147576000848401525b50505050565bfe5b6000601f19601f8301169050919050565b61116981611061565b811461117457600080fd5b50565b61118081611091565b811461118b57600080fd5b50565b611197816110dd565b81146111a257600080fd5b5056fea264697066735822122073ae7db49922f21c94116e1259fb6545149f7fa64012b5491aa499c538d1048364736f6c63430007060033",
  "immutableReferences": {},
  "source": "pragma solidity ^0.7.0;\npragma experimental ABIEncoderV2;\n\nimport \"./WFlowRegistry.sol\";\nimport \"./MinLibBytes.sol\";\n\n/**\n *  Manages message state flows\n */\ncontract WStateRelayer  is WMessages {\n    WFlowRegistry public registry;\n    constructor(address wfRegistry) public {\n        registry = WFlowRegistry(wfRegistry);\n    }\n\n\n    event MessagRelayed(\n        bytes4 mutation,\n        address mutationAddress,\n        WorkflowPayload payload\n    );\n\n    /** NatDoc\n     * @dev Send payload message to be process by a WAction smart contract\n     * minter\n     * selfMint\n     * tokenURI\n     */\n    function executeMessage(\n        bytes4 selector,\n        WorkflowPayload memory payload\n    ) public returns (bool) {\n\n        // check if it has been whitelisted and purchased\n        require(registry.getAction(selector).actionAddress != address(0), \"Missing topic key\");\n        address target = registry.getAction(selector).actionAddress;\n        (bool success, bytes memory ret) =  target.call(\n            abi.encodeWithSelector(\n                registry.getAction(selector).topic,\n                payload.didAgent,\n                payload.didPayloadOwner,\n                payload.documentURI,\n                payload.nftAddress,\n                payload.tokenId,\n                payload.payloadOwner,\n                msg.sender)\n        );\n           \n        if ( success && (registry.getNext(selector).nextAddress != address(0))) {\n            address next = registry.getNext(selector).nextAddress;\n            (bool ok, bytes memory res) =  target.call(\n            abi.encodeWithSelector(\n                registry.getNext(selector).mutation,\n                ret,\n                msg.sender)\n            );\n\n            emit MessagRelayed(\n                registry.getNext(selector).mutation, \n                registry.getNext(selector).nextAddress,\n                payload);\n        }\n        return true;\n    }\n}\n",
  "sourcePath": "/home/rogelio/Code/xdv/electronic-sa-contracts/contracts/WStateRelayer.sol",
  "compiler": {
    "name": "solc",
    "version": "0.7.6+commit.7338295f.Emscripten.clang"
  },
  "schemaVersion": "3.3.3",
  "updatedAt": "2021-02-07T13:34:26.720Z",
  "devdoc": {
    "kind": "dev",
    "methods": {
      "executeMessage(bytes4,(string,string,address,string,uint256,address,uint256))": {
        "details": "Send payload message to be process by a WAction smart contract minter selfMint tokenURI"
      }
    },
    "version": 1
  },
  "userdoc": {
    "kind": "user",
    "methods": {
      "executeMessage(bytes4,(string,string,address,string,uint256,address,uint256))": {
        "notice": "NatDoc"
      }
    },
    "notice": "Manages message state flows",
    "version": 1
  }
}